S015000041514D2D4F54412D56332E302E322E7333377B
S31500000000D82E002031760100C5A00000C9A000004E
S31500000010A70A02020002000004180FAC5029B00122
S3150000002000000000000000000000000000000000CA
S3150000003000000000B05E04000000000000000000A8
S315000000400000000000000000FFFFFFFFFFFFFFFFB2
S31500000050FFFFFFFFFFFFFFFFFFFFFFFFFFFFFFFFAA
S3150000006000700F000000000000001000FFFFFFFFFF
S31500000070FFFFFFFF0100000000000000000000007D
S31500000080206A0320205E0320205E0320205E0320DA
S31500000090D82E002074C30400A031040000200020E4
S311000000A0DC1F002000001000206A032076
S31500000200D82E002031760100C5A00000C9A000004C
S31500000210D1A00000CDA00000D5A000002D760100E1
S315000002202D7601002D7601002D7601002D76010038
S31500000230D9A000002D7601002D7601002D76010053
S31500000240F1660000EDB00300ADA50000A0A200001D
S31500000250B1AB030059B10300F9B0030011B10300BB
S31500000260F1B00300015E0000D55E0000157D0000C0
S3150000027021DD0000A0A20000A0A200005D2C00006D
S31500000280A0A20000A0A20000F95E0000A0A200004B
S3150000029059DD0000A0A20000A0A20000A0A200005C
S315000002A0A0A20000A0A20000A0A20000A0A2000040
S315000002B05DB10300F5B00300756400009DB1030055
S315000002C0A0A2000039760300A0A20000A0A20000B0
S315000002D0A0A20000A0A20000A0A20000A0A2000010
S315000002E0A0A20000A0A20000A0A20000A0A2000000
S315000002F0A0A20000A0A20000A0A20000A0A20000F0
S31100000300A0A20000A0A200002D760100C3
S3150000030CF8B500BFF8BC08BC9E467047F8B500BFF0
S3150000031CF8BC08BC9E46704710B5054C237833B91B
S3150000032C044B13B10448AFF300800123237010BDB6
S3150000033C7037002000000000D4BA040008B5034B47
S3150000034C1BB103490348AFF3008008BD0000000051
S3150000035C74370020D4BA0400154B002B08BF134B7E
S3150000036C9D46A3F5803A00218B460F461348144A46
S3150000037C121A42F041FA0F4B002B00D098470E4B45
S3150000038C002B00D098470020002104000D000D48DA
S3150000039C002802D00C48AFF3008042F09FF92000F1
S315000003AC29000AF0D7FE42F085F900BF00000800CC
S315000003BCD82E00200000000000000000703700203E
S315000003CC205E0320000000000000000010B5037939
S315000003DC0446092B57D8DFE803F005090D345656A9
S315000003EC414E5652BDE8104001F048BEBDE81040E3
S315000003FC01F048BE827924494FF4827004F038FD2E
S3150000040CE27922494FF4827004F032FD227A2049B7
S3150000041C4FF4827004F02CFD627A1E494FF4827000
S3150000042C04F026FDD4F806201B4C1C4912BA4FF4D6
S3150000043C8270226004F01CFD2068BDE8104001F0BB
S3150000044C25BE174C8279174922704FF4827004F03E
S3150000045C0FFD2078BDE8104002F008B8124C8279E6
S3150000046C124922704FF4827004F002FD2078BDE828
S3150000047C104000F019BEBDE8104000F01BBEBDE8F0
S3150000048C104001F00FBE10BDF2330400FE33040021
S3150000049C0A340400163404008C370020223404007D
S315000004AC845500202F3404006C5500204C34040075
S315000004BC08B50379032B1DD8DFE803F0020B0F13E5
S315000004CC0D494FF4827004F0D3FCBDE8084002F0ED
S315000004DCE1B9BDE8084002F001BABDE8084002F0F7
S315000004ECEFB9D0F80600054B00BA1860BDE8084015
S315000004FC02F0E0B908BD00BF603404008C37002060
S3150000050C10B503790446092B4AD8DFE803F0050930
S3150000051C0D11151E22303740BDE8104001F0EEB823
S3150000052CBDE8104001F0F2B8BDE8104001F0F6B895
S3150000053CBDE8104001F0FAB8D0F80600194B00BA25
S3150000054CBDE81040186001F00FB9BDE8104001F08D
S3150000055C11B98279C37914494FF4827004F088FC7E
S3150000056CE179A0790222BDE8104001F019B90F4BD0
S3150000057C80791870BDE8104001F0E6BBD0F8060093
S3150000058C084B00BABDE81040186001F0E3BBD0F888
S3150000059C0600044B00BABDE81040186001F0E0BB41
S315000005AC10BD00BF8C370020E43304006C550020CE
S315000005BC08B50379052B07D8DFE803F003070A0D06
S315000005CC101900F049FD002008BD00F04DFDFAE7BA
S315000005DC00F058FDF7E700F05BFDF4E7D0F80600F5
S315000005EC054B00BA1860BDE8084000F057BDBDE8E1
S315000005FC084000F021BF00BF8C37002008B5C37837
S3150000060C013B042B06D8DFE803F00307050A0D00AF
S3150000061CFFF7DCFE012008BDFFF74AFFFAE7FFF7FC
S3150000062C6FFFF7E7FFF7C4FFF4E7000073B500F0C0
S3150000063CFD06012E1C463AD12179DB78A278009171
S3150000064C4FF482701E4904F013FCA578042D08D1D2
S3150000065CB4F803305BBA9BB21A2B0FD003D8162B07
S3150000066C12D002B070BD252B16D0262BF9D1154908
S3150000067C4FF4827004F0FCFB284613E0304602B0BF
S3150000068CBDE8704000F06CBD00F044FE0128E8D1D6
S3150000069C00F054FF0020F2E70B494FF4827004F08F
S315000006ACE7FB032002B0BDE8704000F0D1BE07495D
S315000006BC4FF4817002B0BDE8704004F0D9BB00BFA6
S315000006CC663404009634040081340400AC3404000F
S315000006DCF0B593B004AC06460F46154600213822F9
S315000006EC204642F089F8094B094A0294CDE9007379
S315000006FC02213346284633F007FA024620B1054953
S3150000070C4FF4817004F0B4FB13B0F0BD3906000051
S3150000071CE02E0020C9340400F8B5C278037943EA08
S3150000072C02231BB2023B04460E46102B33D8DFE8DD
S3150000073C03F009345D6568716E777A7E81ADBABE59
S3150000074CC2C5C8006049614F4FF4827004F07EFB4D
S3150000075C5F494FF4827004F079FB04F10E05063400
S3150000076C15F8012D39464FF4827004F06FFBA54243
S3150000077CF6D158494FF4827004F068FB56494FF491
S3150000078C827004F063FB304604F088FB53494FF447
S3150000079C827004F06DFB0120F8BD8379C279504D4F
S315000007AC42EA032242F276718A422A800BD14D49E3
S315000007BC4FF4827004F05CFB4B4B4C480122002139
S315000007CC1A701CF0BBF92A8849494FF4827004F060
S315000007DC4FFBA27947494FF4827004F049FBE2794A
S315000007EC45494FF4827004F043FBD4E743494FF478
S315000007FC827004F03DFB0AF033F8CCE702F0CCFE35
S3150000080CC9E73F4B90F9060018701DF035F81DF03E
S3150000081C4FF8C0E7D0F8060000BA02F07DFFBAE741
S3150000082C02F05CFFB7E7807902F07CFFB3E702F0D9
S3150000083C81FFB0E7334B451D00F1150215F8011F7A
S3150000084C03F8011F9542F9D12F4802F09FFF2F4B59
S3150000085C04F11D0215F8011F03F8011FAA42F9D174
S3150000086C2B482C4D02F0A6FFA37FE27F2A4942EAD1
S3150000087C03224FF482702A8004F0FAFA288802F0D8
S3150000088CCFFF94F8200002F0D7FF84E7234A431DDC
S3150000089C153413F8011F02F8011FA342F9D12048A1
S315000008AC02F0D6FF77E7807902F064FF73E7807970
S315000008BC00F006FC6FE700F031FC6CE702F078F90B
S315000008CC69E702F03FF966E7E8340400FB330400FD
S315000008DCFF3404009F37040008350400D54D04008E
S315000008EC945500203A350400B2370020C455002038
S315000008FC10350400213504002B3504003535040071
S3150000090CCC5500209F370020A0370020B23700209E
S3150000091CB3370020B0370020473504008F3700204E
S3150000092C9037002070B5124E124C33780025012BEF
S3150000093C257002D0022B10D070BD1DF07DFA0E4929
S3150000094C4FF4827004F094FA0223337041F288312A
S3150000095C2046BDE870401CF0F1B808494FF482708F
S3150000096C04F086FA09F07CFF35702946F0E700BFE3
S3150000097CB2370020C45500208F6C04005935040092
S3150000098C10B586B01C468B788DF81430CB788DF864
S3150000099C15300B798DF816300323029305AB0193B2
S315000009AC0023104600931A46214633F0F1FA06B09E
S315000009BC10BD1FB58B788DF80C30CB788DF80D30BB
S315000009CC0B798DF80E30002300930322012303A923
S315000009DC00F0E4FA05B05DF804FB000010B584796C
S315000009EC042C09D1C279037A43EA02231BB21A2BCF
S315000009FC0ED002DC162B15D010BD252B29D0262B9C
S31500000A0CFAD119494FF4827004F032FA204626E0E6
S31500000A1C16494FF4827004F02BFA0120BDE8104001
S31500000A2C00F09EBB12494FF4827004F021FA00F0DC
S31500000A3C71FC01280BD100F081FD002000F090FB29
S31500000A4C0C494FF48270BDE8104004F011BA0A4903
S31500000A5CF7E70A494FF4827004F00AFA0320BDE85E
S31500000A6C104000F0F5BC00BF963404008A34040034
S31500000A7C603504006D3504007E35040081340400B5
S31500000A8C70B5002405462246FF262B1A8B4203DB43
S31500000A9C42EA042080B270BD15F8013B1A4492FB61
S31500000AACF6F3C3EB0323D31A9AB2234493FBF6F45F
S31500000ABCC4EB04241B1B9CB2E7E700002DE9F843AA
S31500000ACC089CBDF82470A57894F8038094F80490DB
S31500000ADC2A460E464FF482703C4904F0C9F94B463F
S31500000AEC42463B494FF4827004F0C2F962793949A7
S31500000AFC4FF4827004F0BCF937494FF4827004F05D
S31500000B0CA5F936494FF4827004F0B2F9E319B91E0F
S31500000B1C13F8022C13F8018C204648EA0228FFF73A
S31500000B2CAFFF074683B242462D494FF48270BFB2DF
S31500000B3C04F09EF9B84545D12A494FF4827004F069
S31500000B4C85F9304604F0AAF9013D27494FF4827025
S31500000B5C04F07CF9042D37D8DFE805F0031C2C369D
S31500000B6C30002379012B0ED1B4F80730A2791F4936
S31500000B7C5BBA9BB24FF4827004F07AF92046BDE85A
S31500000B8CF843FFF72BBF1A494FF48270BDE8F843C0
S31500000B9C04F06EB931462046FFF7BEFD214620B162
S31500000BAC3046BDE8F843FFF7EBBE3046BDE8F843E8
S31500000BBCFFF7FFBE2046FFF721FDEFE7BDE8F84340
S31500000BCC01F0C8B90B49DFE7BDE8F883CE35040060
S31500000BDCD9350400E3350400F7350400D54D04007F
S31500000BEC023604002A3604009F370400323604000D
S31500000BFC48360400583604001FB54B09022B02D0A8
S31500000C0C0378FF2B06D00023CDE9013300931A4657
S31500000C1C33F0BEF905B05DF804FB1FB5CDE9012331
S31500000C2C002300931A4633F0B3F905B05DF804FBC4
S31500000C3C2DE9F04387B093F8029093F80380B3F84C
S31500000C4C03701E79B6490F9C1D460023CDF80E3055
S31500000C5CCDF81230ADF816304DF25673ADF80C30A7
S31500000C6CBDF838304A46CDE900634FF482704346EE
S31500000C7C04F0FEF80423B9F1030F8DF80E3000F0E2
S31500000C8CAB80994500F08181B9F1020F11D17BBA85
S31500000C9C9BB2043B102B0CD8DFE803F0090E1B0BA0
S31500000CAC0B0B262B325F6C74777D858C930009F0C9
S31500000CBCD7FD07B0BDE8F0831CF004FE994A036823
S31500000CCC136043685360082345212046FFF7A5FFB0
S31500000CDCEFE795F906001CF0CFFD44212046FFF7FF
S31500000CEC8BFF1CF0E5FDE4E7A87902F01BFD44211F
S31500000CFC02E002F01FFD43212046FFF77DFFD8E7F7
S31500000D0C894A6B1D05F1150613F8011F02F8011F20
S31500000D1C9E42F9D1854802F039FD854A334605F1E4
S31500000D2C1D0113F8010F02F8010F9942F9D1814800
S31500000D3C814E02F03FFDAB7FEA7F804942EA0322F7
S31500000D4C4FF48270328004F093F8308802F068FD1C
S31500000D5C95F8200002F070FDC9E7794A6B1D153530
S31500000D6C13F8011F02F8011FAB42F9D1754802F0C6
S31500000D7C6FFDBCE720464421FFF73EFFA87902F041
S31500000D8CF9FC96E7A87900F09BF900F0C7F9012366
S31500000D9C0246442199E720464421FFF72DFF2846B9
S31500000DAC01F006FF85E744212046FFF725FF01F0F9
S31500000DBCC9FE7EE743212046FFF71EFF0BF086FC9B
S31500000DCC77E7614A002301211370537093701371F6
S31500000DDCD1705171062377E75C494FF4827008F1A4
S31500000DECFF3804F045F8B8F1040F3FF662AF01A3E3
S31500000DFC53F828F0150E00002D0E0000BF0C000055
S31500000E0C730E0000090F0000062E05D0072E7FF486
S31500000E1C50AF00F04FF9BAE7A87900F045F948E76A
S31500000E2C032E3FF646AFDFE806F00205080B01F08D
S31500000E3C31FD5CE701F052FD59E701F041FD56E743
S31500000E4CD5F8060000BA01F035FD030E8DF8083012
S31500000E5C030C8DF80930030A8DF80A308DF80B0057
S31500000E6C042302AA95E7053E042E3FF622AFDFE8DF
S31500000E7C06F0030810243F0000F07CFC0123024618
S31500000E8C22E70222E979A87900F08AFC00F072FCCC
S31500000E9C7DE72F4BA879187000238DF80F30172398
S31500000EAC8DF8103001238DF8113000F04DFF0C2316
S31500000EBC8DF812000DEB03026BE7D5F8060000BAAD
S31500000ECC00F048FF0023020E8DF80F308DF812202B
S31500000EDC1823020C8DF810308DF813200423020A07
S31500000EEC8DF814208DF811308DF8150003AA50E7F3
S31500000EFCD5F8060000BA00F033FFA6E7052E3FF63C
S31500000F0CD8AEDFE806F003060927373F00F0A4F851
S31500000F1CEDE600F0A9F8EAE600F0B4F8AEE700BF9B
S31500000F2C8C35040000540320CA370020CB37002030
S31500000F3CDD370020DE370020DC3700204735040083
S31500000F4CBA370020BB370020FA530320BE35040005
S31500000F5C6C55002000F09CF8030E8DF80830030C3D
S31500000F6C8DF80930030A8DF80A308DF80B0004232E
S31500000F7C02AAA9E6D5F8060000BA00F08FF800F030
S31500000F8C87F862E700F058FA93E603494FF482704B
S31500000F9C03F06EFF8DE600BFC63504002DE9F04761
S31500000FAC804602F10D0000AF20F00700ADEB000DFE
S31500000FBC02F10F006C46B7F820C0A37020F00700B2
S31500000FCCADEB000D56204FEA1C232070D720607025
S31500000FDCE37002F1060902F108066D4684F804C0B6
S31500000FEC6271A01D0B46A3EB010C624518DC494649
S31500000FFC2046FFF745FD4A4682462146284641F0E3
S3150000100CF0FBAB194FEA1A2203F8022C03F801ACD9
S3150000101C424631462846FFF75BFBBD46BDE8F087E6
S3150000102C13F801CB00F801CBDDE70000024B18707A
S3150000103C02481BF083BD00BFE63700202054032076
S3150000104C00210720FFF7F2BF00210520FFF7EEBFB6
S3150000105C00210320FFF7EABF024B01200021187084
S3150000106CFFF7E4BFE83700200021024B0846197051
S3150000107CFFF7DCBFE8370020014B1878704700BF3C
S3150000108CE8370020014B1878704700BFE83700207E
S3150000109C014B1868704700BFE42E0020014B186006
S315000010AC704700BFE42E0020014B1870704700BF3C
S315000010BCE82E0020014B1878704700BFE82E002060
S315000010CC38B5124D2B788342044610D001280FD127
S315000010DC0146002001F008FC2146204601F004FCE4
S315000010EC0B4802F019FB0B4B0B4A1A602C7038BDDF
S315000010FC0028FCD1014601F0F7FB2146012001F046
S3150000110CF3FB4EF6602002F007FBEFE70C540320CE
S3150000111CE0930400E42E0020C0270900014B187848
S3150000112C704700BF0C540320074A30B5034600F144
S3150000113C100518685968144603C40833AB42224696
S3150000114CF7D11868206030BD3054032008B501462D
S3150000115C4222024841F045FB08BD00BF445403201F
S3150000116C034B0449187002464FF4827003F080BE9C
S3150000117CE93700207036040070B5594B00221A70FE
S3150000118C584B1B7894B0072B20D8DFE803F0040CDF
S3150000119C1621923A672654494FF4827014B0BDE872
S315000011AC704003F065BE002000F044FA00210220D6
S315000011BC14B0BDE87040FFF739BF0020FFF7D0FF31
S315000011CC00F05CFF494A13780133137014B070BDFC
S315000011DC14B0BDE8704000F0A1BA01F0C1FB01F0FB
S315000011EC55FC434C206001F067FC04F11001606073
S315000011FC5022684641F0F5FA94E80F0000F036F9F3
S3150000120CE4E73C4C3C4A04F110061346254603CD54
S3150000121CB542106051602C4602F10802F6D12868DE
S3150000122C334910600A68DA75100E1875100C58756B
S3150000123C100A4A689875110E1976110C5976110A0E
S3150000124C9976DA761A2300932B492C4804231C2210
S3150000125CFFF7A4FE4FF4FA610620A9E7284C244DAB
S3150000126C422205F11C01204641F0BBFA2B6884F89A
S3150000127C45301A0E84F842201A0C84F843201A0AB8
S3150000128C6B6884F844201A0E84F846201A0C84F8ED
S3150000129C472084F849301A0A162384F84820214638
S315000012AC00934A2204231548FFF778FE00210420F8
S315000012BC7EE7144B1C7854B9134B1B783BB10B4D82
S315000012CC2A789A4203D3204601F0C0F82C700F4BB3
S315000012DC197819B10E4B0120196869E7084667E7BA
S315000012EC20540320E637002067360400E737002039
S315000012FC2854032030540320945303200D54032008
S3150000130CB05303200C540320E82E0020E8370020AD
S3150000131CE42E0020014B1878704700BFE9370020F7
S3150000132C73B53E4B3E4C00221A702378013B032BBF
S3150000133C47D8DFE803F0021D486E00F05BF9012880
S3150000134C02460ED127230093002104233548FFF7CC
S3150000135C25FE00212170314802B0BDE870401BF01B
S3150000136CEDBB314800F00CF9022323700021F2E7A3
S3150000137C2E4C2F4A04F110061346254603CDB542D2
S3150000138C106051602C4602F10802F6D128682649F5
S3150000139C10600A68DA75100E1875100C5875100A5C
S315000013AC4A68DA76110E1976110C5976110A997665
S315000013BC98751F49252300931C2204231948FFF70F
S315000013CCEDFD02B070BD1B4C174D422205F11C0100
S315000013DC204641F006FA2B6884F845301A0E84F83C
S315000013EC42201A0C84F843201A0A6B6884F84420AD
S315000013FC1A0E84F846201A0C84F8472084F84930D3
S3150000140C1A0A262384F84820214600934A220423EC
S3150000141CD4E700F071F80123A7E700BFE8540320D6
S3150000142CEA3700200D5403208854032090540320DF
S3150000143C94530320B0530320034B0448012200218C
S3150000144C1A701BF07BBB00BFEA370020E854032060
S3150000145C042805D8034B0021187003481BF06EBBFB
S3150000146C704700BFEA370020E854032084B0F8B573
S3150000147C1C4E06AC84E80F00346840F2F9729442B4
S3150000148C2ADC002C184F0FDA602206A9174841F007
S3150000149CA8F9174A00233B60136001233360BDE8AB
S315000014ACF84004B0FFF7D0BD3D68954204F1010445
S315000014BC08D1602206A90D4841F093F900233B6040
S315000014CC3460ECE709480135602206A902FB0500E9
S315000014DC41F087F93D60F3E706494FF4827003F05B
S315000014ECC7FCDCE7F42E0020F02E0020D45500209B
S315000014FCEC2E00209636040010B50D4C2368002BFC
S3150000150C06DA0C494FF4827003F0B2FC012010BDD0
S3150000151C09490A6840F2F970013B824223604FF098
S3150000152C000001D10860F1E701320A60EFE700BF65
S3150000153CF42E002087360400EC2E002008B50C4B48
S3150000154C1A68002A06DA0B494FF4827003F090FCF5
S3150000155C012008BD0849013A1A600B68013B0B6073
S3150000156C4FF48270054903F083FC0020F1E700BFBD
S3150000157CF42E002087360400F02E0020A43604003A
S3150000158C184B1B68002BF0B4074605DA16494FF4C6
S3150000159C8270F0BC03F06CBC144B154C1A686023BB
S315000015AC5343E218E05852687A6003F10802224469
S315000015BC386007F1080502F1100C164603CE664595
S315000015CC28606960324605F10805F6D13068286056
S315000015DC03F11C01214407F11C004222F0BC41F02E
S315000015EC00B900BFF42E002087360400EC2E002034
S315000015FCD4550020034B18680028CCBF00200120CE
S3150000160C704700BFF42E002010B5074C23781BB989
S3150000161C00F0ACFB01232370044B05491878022219
S3150000162CBDE8104000F0B0BBEB370020FA2E0020CE
S3150000163CFB2E002038B5114D2B7804461BB900F053
S3150000164C95FB01232B701CB9BDE83840FFF7DCBFB6
S3150000165C0B4D0C492878643C022200F095FB002CBB
S3150000166CB8BF644208492878C4F3460406344C7063
S3150000167C0222BDE8384000F087BB00BFEB370020E4
S3150000168CFA2E0020F82E0020EC370020024B1870A2
S3150000169C02481BF053BA00BFFD3700204455032007
S315000016AC10B5104B104C1A78104B11481B7802EBE6
S315000016BC4202013A53B90F490A44E15C02F8011F90
S315000016CCC15CD1730133032BF7D110BD0A4B1A44FD
S315000016DC0023E15C02F8011FC15CD1730133032BBB
S315000016ECF7D1F2E7FC370020F4370020EE37002064
S315000016FCF8370020FF3700201D380020024B012050
S3150000170C00211870FFF7C2BF3B3800200021024BA6
S3150000171C08461970FFF7BABF3B380020024B002170
S3150000172C01201970FFF7B2BF3B3800201FB50C4BD8
S3150000173C0C481B688DF80F301A168DF80C201A14ED
S3150000174C8DF80D201A121123009304238DF80E2008
S3150000175C03A91A46FFF722FC05B05DF804FB00BF8F
S3150000176C042F00200D540320014B1860704700BF56
S3150000177C042F002038B5074B07491D78074B1C78FA
S3150000178C2A4623464FF4827003F072FB44EA051096
S3150000179CC0B238BDFE2E0020EE360400FF2E00200F
S315000017AC012A04D1054B1870054B18707047022A94
S315000017BC01BF024B1870024B19707047FE2E0020A9
S315000017CCFF2E002007EE900AB8EEE77ADFED087AD6
S315000017DCDFED086A084B27EE277ADFED087AE7EE8D
S315000017EC267AFCEEE77A17EE902A1A80704700BF2D
S315000017FC52B82F4300008037F237002066663BC292
S3150000180C7D2358430014024B06381880704700BFDE
S3150000181CF03700202DE9F84F734CDFF80C82227854
S3150000182C6378724F724E734D7349DFF800A2DFF87E
S3150000183C009243EA0223A8F80030E278A378134317
S3150000184C3B80237933704FF4827063792B7003F0ED
S3150000185CFDFAB8F8002069494FF4827003F0F6FAE5
S3150000186C3A8867494FF4827003F0F0FA327865498A
S3150000187C4FF4827003F0EAFA2A7863494FF48270C7
S3150000188C03F0E4FA61494FF4827003F0DFFA25465F
S3150000189C0026D346AB79E879DFF8988103F001018D
S315000018AC03F080022B7A8AF8001043EA0023032700
S315000018BC43EA026343EA014389F80020544996FB44
S315000018CCF7F24FF482703E44C8F8003003F0BEFACB
S315000018DC0F2E3D44DED14F49434DDFF834A14FF472
S315000018EC827003F0B3FA00266B7DA87D03F001012C
S315000018FC03F08002EB7D8BF8001043EA002343EAE9
S3150000190C026343EA014389F80020514696FBF7F23D
S3150000191C4FF482700336C8F8003003F097FA0F2E96
S3150000192C05F10305E0D13C49DFF80CB12E4DDFF88B
S3150000193C0C814FF4827003F089FA4FF00009DA46F5
S3150000194C95F8243095F82500344F03F0010103F087
S3150000195C800295F826308BF8001043EA0023032604
S3150000196C43EA026343EA014388F80020284999FBBD
S3150000197CF6F24FF48270B1443B6003F067FAB9F1AA
S3150000198C0F0F3544DCD12649DFF884904FF4827072
S3150000199C03F05CFA002594F8333094F8340003F025
S315000019AC010103F0800294F835308AF8001043EAFE
S315000019BC002343EA026343EA014388F800204946C0
S315000019CC95FBF6F24FF4827003353B6003F03EFA5A
S315000019DC0F2D04F10304DED112494FF48270BDE8D9
S315000019ECF84F03F045BA00BFF2540320F05403201D
S315000019FC3455032042550320FB36040009370400F6
S31500001A0C123704001A370400273704003B3704004A
S31500001A1C453704004C370400553704003C55032069
S31500001A2C5E370400D54D0400405503203555032080
S31500001A3C55550320505503204C550320545503206F
S31500001A4C38B51F4B1A881F4B110A5A701E4A19704B
S31500001A5C1288DA70110A1D4A997011781C4A12788C
S31500001A6C42EA01121A711B4A1B4912785A7108462E
S31500001A7C00229C18555CA57101320F2AF9D115224A
S31500001A8C811811F8061C99540132242AF8D11349ED
S31500001A9C002208469C18555C84F8245001320F2A03
S31500001AACF8D13322811811F8241C99540132422A98
S31500001ABCF8D1FFF7AFFE0348BDE83840FFF746BB49
S31500001ACCF2370020F2540320F0370020FE2E0020BF
S31500001ADCFF2E0020112F0020FF3700201D3800207C
S31500001AEC70B5834B834C00221A702378013B072B6D
S31500001AFC00F2FD80DFE803F0047DA78BB5CB6F7792
S31500001B0C7D4C267800F032F97C4B002E34D17C4A81
S31500001B1C12781A701D787B487B497C4A7C4B042DC5
S31500001B2C34D0082D3AD0022D28D08C250570AC2047
S31500001B3C08700C2111702C221A7072490122AEBB4E
S31500001B4CD82000F021F970490122D82000F01CF9A8
S31500001B5C0020FFF76FFD6F4B1B7873BB0121084606
S31500001B6C00F0C2FE6C4B1B7893BB217881BB07201F
S31500001B7CBDE87040FFF78ABD684AC9E78D25057038
S31500001B8CAD2008700D2111702D22D5E78E2505701C
S31500001B9CAE2008700E2111702E22CDE78F25057010
S31500001BACAF2008700F2111702F22C5E7D02000F04E
S31500001BBCEBF801225449D020C8E7594D2B78002B5D
S31500001BCCD0D10121084600F08FFE01232B70C9E706
S31500001BDC00210220CCE7534B1878FFF72BFD524B14
S31500001BEC08201968C4E70020FFF724FD4F4B19683D
S31500001BFCEFE7414B43491B78012233B9D82000F05B
S31500001C0CC3F84FF4FA710420B2E7D020F7E73A4B49
S31500001C1C474D1B783D4E042229467BB9D92000F04E
S31500001C2CCFF8EA7833789A420AD042494FF4827058
S31500001C3C03F01EF94FF47A71207899E7D120EEE77C
S31500001C4C0021032094E72C4B2F491B78012233B932
S31500001C5CD82000F099F84FF4FA71052088E7D020C7
S31500001C6CF7E7254B344D1B78294E0422294643B9F8
S31500001C7CD92000F0A5F8EA7833789A4203D02F4998
S31500001C8CD4E7D120F5E74FF4FA71062070E7FFF799
S31500001C9C07FD2148184C0378042B05460FD82278EB
S31500001CAC1AB901202070114662E7042B07D0012ACD
S31500001CBC05D10021013321700370012058E700F093
S31500001CCCF3FCFFF7BDFE00232B702370114B197824
S31500001CDC11B9012000F008FE194B1C7814B1194BF0
S31500001CEC1968EAE7FFF7ACF92146204640E770BDD4
S31500001CFC44550320FD370020EE370020FD2E002032
S31500001D0CFE2E0020002F0020012F00203855032026
S31500001D1C375503200C540320FC370020FF2E0020DF
S31500001D2CFE370020102F00200C2F0020082F00203B
S31500001D3CF4370020C8360400F8370020DB360400E0
S31500001D4C3B380020042F0020014B1870704700BF51
S31500001D5C102F0020014B1860001670470C2F002026
S31500001D6C014B186000167047082F002010B5044C64
S31500001D7C237823B9034800F085F80123237010BD9E
S31500001D8C3C380020142F00207FB50123ADF8063017
S31500001D9C094BADF8040002911868ADF80C2001A9A6
S31500001DAC00F0C8F80530C0B205289ABF034B185C82
S31500001DBCFF2007B05DF804FB142F002066370400E3
S31500001DCC7FB50223ADF80630094BADF8040002913D
S31500001DDC1868ADF80C2001A900F0ACF80530C0B2BB
S31500001DEC05289ABF034B185CFF2007B05DF804FB6F
S31500001DFC142F00206637040010B5044C237823B941
S31500001E0C034800F03FF80123237010BD3D38002035
S31500001E1C2C2F00207FB50123ADF80630094BADF809
S31500001E2C040002911868ADF80C2001A900F082F8A4
S31500001E3C0530C0B205289ABF034B185CFF2007B0CB
S31500001E4C5DF804FB2C2F00206C3704007FB50223B1
S31500001E5CADF80630094BADF8040002911868ADF8E0
S31500001E6C0C2001A900F066F80530C0B205289ABF0F
S31500001E7C034B185CFF2007B05DF804FB2C2F0020E9
S31500001E8C6C37040030B5044685B00121244806F0B1
S31500001E9C9BF82368234A93423FD002F58062934213
S31500001EAC39D12148012106F08FF801230A226179E4
S31500001EBC207907F0BBF801230A22E179A07907F013
S31500001ECCB5F8237930225A43184B134403F1C065F5
S31500001EDC092103F180630122607902FA00F028607F
S31500001EEC6079013902FA00F01860F5D120688DF896
S31500001EFC00200323436423898DF801205BBA9BB22F
S31500001F0C836423690293E36801936946237D8DF804
S31500001F1C0C3007F013F905B030BD0548C2E700BF19
S31500001F2C4041050000C00040009204000CA0004097
S31500001F3C0082040038B5054607F018FA044C01284F
S31500001F4C01D1013C00D138BD284607F013F9F6E75C
S31500001F5CE193040010B514494FF4827002F088FF27
S31500001F6C124B00241C70124B1C7002F0C3FAA042D8
S31500001F7C0EDC104C02F0BEFA012812DD012002F034
S31500001F8C3BFBC2B221460120BDE8104018F058BBFD
S31500001F9C204602F031FBC0B20028EAD0012484406E
S31500001FACE8E70522EEE700BF723704003E38002052
S31500001FBC3F38002000F8FF07024B187002481AF051
S31500001FCCBDBD00BF4038002070550320074B084AA2
S31500001FDC1978084B907803F8210003EB8103D1782C
S31500001FEC5970117952799970DA707047413800201E
S31500001FFC423800205C550320F7B51949194D1A4F84
S3150000200C1A4E4FF4827002F021FF002218494FF449
S3150000201C827002F01BFF00246119635D4A7891F807
S3150000202C03C003EB02238A7812490A2002EB0C2226
S3150000203C93FBF0F392FBF0F23B60326000924FF4AC
S3150000204C8270C4F38502043402F000FF142CE3D131
S3150000205C09494FF4827003B0BDE8F04002F008BFA6
S3150000206C953704005C5503207055002088550020D8
S3150000207CA1370400AA370400D54D04000021012025
S3150000208CFFF79ABF00210846FFF796BF034B04499A
S3150000209C186002464FF4827002F0EABE442F00200C
S315000020ACC53704001FB50C4B0C481B688DF80F3058
S315000020BC1A168DF80C201A148DF80D201A120923F5
S315000020CC009304238DF80E2003A91A46FEF766FF2B
S315000020DC05B05DF804FB00BF442F00200D5403200F
S315000020EC10B50C4C20780BF0CBFE08280ED90A49FB
S315000020FC207800230A220BF025FF20780BF086FFB0
S3150000210C00210420BDE81040FFF756BF0021032034
S3150000211CF8E700BF482F00204238002037B5594B4E
S3150000212C00221A70584B1B78062B00F2A980DFE8A8
S3150000213C03F0041142527384690054494FF48270BF
S3150000214C02F096FE00F042F9002003B0BDE83040E4
S3150000215CFFF770BA4E494FF4827002F089FE4D4B70
S3150000216C4D494FF41652C3E9001240F60B321A8150
S3150000217C4FF4805200245A814FF010125A629C81FF
S3150000218C9C73DC731C745C749C74DC741C75C3E9E2
S3150000219C06441C84414B022520461D7000F08EF827
S315000021AC2046FFF747FA41F28831284603B0BDE8CE
S315000021BC3040FFF701BF15F03DFB394B0521186088
S315000021CC354807F099FB354B324918780BF07EFFF2
S315000021DCC8210320EAE715F02DFB314B1B68C01A0A
S315000021EC43F69823984212D9062300210093012224
S315000021FC04232C48FEF7D2FE00F0E8F84FF47A716F
S3150000220C0120D3E728494FF4827002F031FE03B067
S3150000221CBDE83040FFF764BF244B1A78AA2A05D1D3
S3150000222C5B7AAB2B02D100210520BFE720494FF486
S3150000223C827002F01DFE0021CBE7FFF7C7FE1D4A98
S3150000224C1378042B06D80133137000210220FFF7F4
S3150000225CB3FE79E7114B0024187814700BF00CFFC1
S3150000226C21460D4807F048FB00F0B0F81248FEF77F
S3150000227C5BFFFFF7C1FEFEF7EBFE21462046E6E7C5
S3150000228C03B030BD7055032040380020673604007B
S3150000229C693604007855032000040140482F0020BD
S315000022AC585503200D5403207D3704004238002076
S315000022BC84370400413800205C550320F8B5364FAE
S315000022CC3649374C374E05464FF4827002F0D0FD36
S315000022DC3B7863BB34494FF4827002F0C9FDFFF7BB
S315000022EC45FD022231492078FFF74EFD0222304986
S315000022FC2078FFF749FD01233B703378CBB12D4F86
S3150000230C002D38D12C494FF4827002F0B1FD2023F8
S3150000231C0222284920787B70FFF736FD274B188858
S3150000232C15F0F8F9022226492078FFF72DFD3378AF
S3150000233CB3B9204E35BB20494FF4827002F098FD9C
S3150000234C202302221B4920787370FFF71DFD1B4BBF
S3150000235C188815F0DFF9022219492078FFF714FDC9
S3150000236C184BB5B901225A70207816490222BDE8DD
S3150000237CF840FFF709BD14494FF4827002F078FD5E
S3150000238C0823C5E710494FF4827002F071FD08234B
S3150000239CD7E70222E7E700BF4C380020DB37040002
S315000023AC492F00200C540320E23704004D3800203E
S315000023BC4C2F0020542F0020EC370400502F002007
S315000023CC522F00204A2F0020F137040038B5164D45
S315000023DC164C2B786BB9FFF7C9FC022214492078EE
S315000023ECFFF7D2FC022213492078FFF7CDFC01231C
S315000023FC2B70114B1B787BB91049207814230222C1
S3150000240C4B70FFF7C1FC0E4B188815F083F90222AE
S3150000241C0C492078FFF7B8FC20780B490222BDE85E
S3150000242C3840FFF7B1BC00BF4C380020492F0020C4
S3150000243C4D3800204C2F00200C540320542F002024
S3150000244C502F0020522F00204E2F0020044B1870C6
S3150000245C044B0548012200211A701AF06FBB00BF0D
S3150000246C5038002051380020A0550320054B064A51
S3150000247C187001231370054A0548137000211AF0D1
S3150000248C5DBB00BF503800204F380020513800206B
S3150000249CA055032037B5284B284C00221A702378F8
S315000024AC042B47D8DFE803F0030E1C242E00244926
S315000024BC4FF4827002F0DCFC002003B0BDE8304023
S315000024CCFFF7B8B81F4B0121187800F00DFA02235C
S315000024DC23700021184803B0BDE830401AF02EBB1B
S315000024EC6420FFF7A7F80323237042F21071F1E77B
S315000024FC0020FFF79FF8134B0021187800F0F4F931
S3150000250C0423E5E710494FF4827002F0B1FC052371
S3150000251C00930122042300210C48FEF73FFD0C4BCF
S3150000252C1D781DB1002119702170D3E7FFF74EFFFE
S3150000253C2570CEE703B030BDA055032051380020DE
S3150000254CF637040050380020FE3704000D540320E3
S3150000255C4F38002010B5044C23781BB9FFF706FC46
S3150000256C0123237010BD00BF5238002001220249FE
S3150000257C8020FFF709BC00BF562F0020022202491B
S3150000258C8120FFF71DBC00BFAA550320012202497A
S3150000259C8020FFF7F9BB00BF572F0020022202490B
S315000025AC8120FFF70DBC00BFA8550320034B1878FC
S315000025BC5B7803F0FE0343EA00207047AA5503201C
S315000025CC034B18785B7803F0FC0343EA0020704752
S315000025DCA855032037B52D4B2D4C00221A702378A5
S315000025EC042B2ED8DFE803F0030C2D143200012344
S315000025FC23700021254803B0BDE830401AF09EBA7E
S3150000260CFFF7A8FFFFF7B2FF032323703221F1E790
S3150000261C204DFFF7B3FFFFF7C9FFFFF7B7FFFFF733
S3150000262CBDFFFFF7CDFF297869B1FFF7BFFFFFF7B5
S3150000263CE7F8FFF7C5FFFFF7C5F82B7883F0010322
S3150000264C2B7003B030BD04232370D3E7FFF7AEFF26
S3150000265C114D00122870FFF7A9FF6870FFF7B0FF45
S3150000266C0012A870FFF7ACFF0323E8700093042355
S3150000267C1A4629460948FEF791FC094B1B78002B94
S3150000268CDFD0084B19680023DEE700BFAC550320EA
S3150000269C5538002053380020F25403200D540320E3
S315000026AC54380020582F0020054B0648002119707D
S315000026BC054B01221A70054B19701AF03FBA00BF70
S315000026CC54380020AC5503205338002055380020D0
S315000026DC10B5044C23781BB9FFF78EFB012323702E
S315000026EC10BD00BF56380020012202498020FFF79A
S315000026FC91BB00BF5C2F0020022202498120FFF70C
S3150000270CA5BB00BFB6550320012202498020FFF766
S3150000271C81BB00BF5D2F0020022202498120FFF7FA
S3150000272C95BB00BFB4550320034B18785B7803F0B8
S3150000273CFE0343EA00207047B6550320034B187876
S3150000274C5B7803F0FC0343EA00207047B455032082
S3150000275C37B5434B434C00221A702378042B7DD893
S3150000276CDFE803F003077C195D00012323700021C9
S3150000277C0BE03D494FF4827002F07AFBFFF7A8FF9D
S3150000278CFFF7B2FF032323703221354803B0BDE8AF
S3150000279C30401AF0D3B935494FF4827002F068FB19
S315000027ACFFF7AAFFFFF7C0FF7D22314942434FF4E2
S315000027BC803092FBF0F24FF48270063A02F058FB2E
S315000027CCFFF7B2FF2B4902464FF4827002F050FB22
S315000027DCFFF79AFFFFF7A0FFFFF7B0FF07EE900A8F
S315000027ECB8EEE77ADFED247ADFED246A204927EE8E
S315000027FC277ADFED237AE7EE267A4FF48270FDEE28
S3150000280CE77A17EE902A02F033FBFFF797FF194988
S3150000281C02464FF4827002F02BFB0423A6E7FFF767
S3150000282C83FF184D00122870FFF77EFF6870FFF7C4
S3150000283C85FF0012A870FFF781FF03230093042382
S3150000284CE8701A4629461048FEF7A8FB0F4B1B7872
S3150000285C23B10F4B19680023237096E703B030BDE4
S3150000286CB855032057380020BC6604000E38040007
S3150000287C143804001E38040052B82F430000803769
S3150000288C66663BC2F25403200D54032058380020D0
S3150000289C602F0020044B054801221A70044B0021BE
S315000028AC19701AF04BB900BF58380020B8550320E0
S315000028BC57380020014B1860704700BF602F00206E
S315000028CC034B044800211970034B19701AF036B9E2
S315000028DC58380020B855032057380020014B0022E9
S315000028EC1A7070475838002070B5194E3378054663
S315000028FC0C4643B9FFF73AFA022216494220FFF773
S3150000290C43FA0123337065B1012D18D04CF25030C7
S3150000291C14F000FF022210494220BDE87040FFF778
S3150000292C33BA4CB1012CF1D10C492023022242209E
S3150000293C4B70FFF729FAE9E708491023F6E724B1AB
S3150000294C012CE3D105490823F0E704490423EDE7FC
S3150000295C593800205A380020642F0020662F00209A
S3150000296C70B503F045FD03F06CFD404B1A6818601A
S3150000297C841A3C25B4FBF5F2B2FBF5F005FB1020EE
S3150000298C05FB12423A4D18264FF46163B4FBF3F380
S3150000299CB3FBF6F106FB1131364BB4FBF3F32C7893
S315000029AC2244D2B23B2A344C91BF2A703C3A2A704C
S315000029BC227884BF013222702278C0B20244D2B28D
S315000029CC3B2AC9B2DBB222702C4804D905783C3AB2
S315000029DC22706A1C027002780A44D2B2172A02705C
S315000029EC274904D90C78183A0270621C0A700A78C6
S315000029FC1344244A1078DBB2441E0B700B2C0DD8F2
S31500002A0CDFE804F0061C0618061806061806180D4C
S31500002A1C1F2B03D91F3B01300B70107070BD1F2B81
S31500002A2CFCD91F3B0B7001231370174A1378013323
S31500002A3C1370F3E71E2BF1D91E3BECE71248007816
S31500002A4C84070ED16425B0FBF5F405FB140414F0D1
S31500002A5CFF0F00D128B91D2BE0D91D3B0B700323AA
S31500002A6CE6E71C2BDAD91C3BF8E700BF5C380020E4
S31500002A7C742F002080510100722F0020712F00202E
S31500002A8C702F0020732F0020752F0020064A074B4D
S31500002A9C10781B78000240EA0340054B1B7818435C
S31500002AAC044B1860704700BF722F0020712F002056
S31500002ABC742F00206C2F0020064A074B10781B78C9
S31500002ACC000240EA0340054B1B781843044B186080
S31500002ADC704700BF732F0020752F0020702F002029
S31500002AEC682F002013B5FFF73BFFFFF7E5FF014604
S31500002AFCFFF7E2FF0446FFF7DFFFC0F30740C4F31E
S31500002B0C0723CAB200900D494FF4827002F0B0F957
S31500002B1CFFF7BCFF0146FFF7B9FF0446FFF7B6FF08
S31500002B2CC0B20090C1F30742C4F3072304494FF423
S31500002B3C827002F09DF902B010BD00BF2D38040062
S31500002B4C433804001FB5FFF70BFF124B1B788DF8AB
S31500002B5C0830114B1B788DF80930104B1B788DF80B
S31500002B6C0A300F4B1B788DF80B300E4B1B788DF8FB
S31500002B7C0C300D4B1B788DF80D30FFF7B3FF282367
S31500002B8C00930622042302A90848FEF707FA05B0AB
S31500002B9C5DF804FB752F0020732F0020702F00208A
S31500002BAC712F0020722F0020742F00200D5403204B
S31500002BBC094B82791A70094BC2791A70084B027A42
S31500002BCC1A70084B427A1A70074B827A1A70074BA6
S31500002BDCC27A1A70FFF7B6BF752F0020732F00202C
S31500002BEC702F0020712F0020722F0020742F0020D0
S31500002BFC70B5134C8A00A31822449B781D09062D28
S31500002C0C98BF104E03F00F0394BF755DFF25062B7E
S31500002C1C05719ABF0C4DEB5CFF234371FF3B18BF4C
S31500002C2C01238371D37014F82130084C4370537808
S31500002C3C83700146204605F0DDF80123A36070BDC4
S31500002C4C6038002060380400593804000020004029
S31500002C5C7FB5224922480022FF23CDE901228DF8B7
S31500002C6C093003784C6C8D6B03922C40E407DBB275
S31500002C7C28D5022B26D88C6C1A4901EB8301A5B2F8
S31500002C8CCE78194906B326041ED521F81320174908
S31500002C9C012202FA03F30A781343154A0B701378D0
S31500002CACCBB100231478DC40E407D9B20FD5017000
S31500002CBC1078012404FA03F34340DBB201A8137025
S31500002CCCFFF796FF04B070BD21F81350DFE7013310
S31500002CDC032BE7D1F6E703230370F3E7002000404C
S31500002CEC6C38002060380020703800206E380020C8
S31500002CFC6D3800200D490E4B10B5002A14BF0A463C
S31500002D0C1A4604460B494FF4817002F09FF84FF4B3
S31500002D1C817002F083F810B1204602F0BFF8064924
S31500002D2C4FF48170BDE8104002F0A2B86738040079
S31500002D3C703804007D380400D54D0400012070471E
S31500002D4C01207047012070470B2804D009280CBFBE
S31500002D5C0120022070470020704700002DE9F04347
S31500002D6C85B04FF48073ADF80C3003F091F8012167
S31500002D7C1548DFF85C80DFF85C9005F025F9012139
S31500002D8C124805F021F90024012703AB0222E35C6B
S31500002D9C18F8336008EBC30330465D6801232946F7
S31500002DAC06F044F94946E8B203F080F8CDE900771D
S31500002DBC01232A462946304606F0ECF814B105B034
S31500002DCCBDE8F0830124E0E74041050000350A0028
S31500002DDC843804006B2E000008B5FFF7B5FF0228F7
S31500002DEC16BF024B0020185C08BD00BF76380020C9
S31500002DFC08B5FFF7A9FF02281CBF014B195408BDE3
S31500002E0C7638002008B5FFF79FFF022805D0034A45
S31500002E1C135CB3FA83F35B09135408BD76380020B0
S31500002E2C08B5FFF791FF022811D00A4A12F83010A4
S31500002E3C30234B4302EBC00207491944536803EB9A
S31500002E4CC1039B001868B0FA80F0400908BD002049
S31500002E5CFCE700BF843804001CA01042704770B514
S31500002E6C0446FFF7DDFF0026054601E000261D4659
S31500002E7C2046FFF7D5FFA8420346F7D10136052EAB
S31500002E8CF2D12046FFF7A8FFA8420BD029462046D0
S31500002E9CFFF7AEFF2046FFF79FFF01462046FFF7E0
S31500002EACDDFF70BD2046FFF7ADFF2046FFF794FF10
S31500002EBC01462046FFF7D2FF2046FFF7A3FFE9E7BE
S31500002ECC08B52021002001F0D3FC38B1044A05498D
S31500002EDC4FF48170BDE8084001F0B8BF08BD00BFD3
S31500002EEC94380400A538040010B596B0562200217B
S31500002EFC074C68463FF080FC68461AF00BFE2046ED
S31500002F0C1022694607F0C8F9204616B010BD00BF5E
S31500002F1C79380020024B1870024819F00FBE00BF1A
S31500002F2CB6380020C055032008B5114B1B78053B5D
S31500002F3C012B04D940F285210E4806F045FF4FF4CB
S31500002F4C81700D4901F082FF4FF4817001F066FF2C
S31500002F5C10B10A4801F0A2FF09494FF4817001F043
S31500002F6C87FF00210420BDE80840FFF7D3BF00BF50
S31500002F7CB6380020303904004B390400A63800203E
S31500002F8CD54D0400F0B5284B1F8893B022237F2221
S31500002F9C05460C4609A8394607F082FABDF84420C6
S31500002FAC4FF6FF739A4234D1204B6A4603F1200C3C
S31500002FBC18685968164603C6083363453246F7D176
S31500002FCC1B783370002323702378072B14D9002227
S31500002FDCEA5417494FF4817001F04AFF2278ADF894
S31500002FEC4420294609A807F057F9222209A9384690
S31500002FFC07F07AFA13B0F0BD07F010FD12AA00F034
S3150000300C1F001044237810F8482CEA542378013317
S3150000301CD9E7227009A9D2B2284607F03DF92378E0
S3150000302C0022EA54E6E700BF7E5F04002F3A040054
S3150000303C153A040030B597B008AD38220021284661
S3150000304C3FF0DAFB1AF03EFC024600685168284C49
S3150000305C04AB03C3FEF7CEFA01228DF81C208DF8C3
S3150000306C1E20227810F1FF304FF0000318BF01200C
S3150000307C052A8DF818008DF819308DF81A308DF850
S3150000308C1B308DF81D3004D040F24521194806F04E
S3150000309C9BFE4FF48170184901F0D8FE4FF48170F5
S315000030AC01F0BCFE10B1154801F0F8FE14494FF4BE
S315000030BC817001F0DDFE134B01930F230093124A2E
S315000030CC029504AB02210D4830F01EFD024628B9CC
S315000030DC01460620FFF71EFF17B030BD0B494FF413
S315000030EC817001F0C5FE0A4B20781968F2E700BF23
S315000030FCB638002030390400983A0400A63800206F
S3150000310CD54D0400393100001F390400B03A0400D3
S3150000311C782F002008B504494FF4817001F0A8FE01
S3150000312CBDE808401AF088BECC3A040010B5124B24
S3150000313C1B78062B1FD100F0FD0001280F4C0BD17C
S3150000314C002323702378022B11D80D4B0520196808
S3150000315CBDE81040FFF7DEBE22780A490132D2B232
S3150000316C03234FF48170227001F082FEEAE7BDE87A
S3150000317C1040FFF7D9BE10BDB638002078380020B5
S3150000318C782F00206F3A0400234B10B500241C70D6
S3150000319C052839D8DFE800F003153E21331802293B
S315000031AC06D11E494FF48170BDE8104001F060BE97
S315000031BC1B4B1B7873B300210820BDE81040FFF7AA
S315000031CCA9BE00210120F8E7032923D115494FF4A4
S315000031DC8170BDE8104001F04BBE134B1A78012AE2
S315000031EC10D0124C124B022A18BF1C46FFF77CFE5D
S315000031FC224603460F494FF4817001F039FE002137
S3150000320C0420DAE70C4CF1E7F8210C48BDE8104035
S3150000321C06F0DABD10BD00BFC05503208939040085
S3150000322C762F0020A3390400B6380020823904001A
S3150000323C64390400BB3904006D39040030390400CC
S3150000324C10B50C4B1B78012B044604D04FF4867139
S3150000325C094806F0B9FD5CB1224608494FF4817065
S3150000326C01F006FE00210220BDE81040FFF752BE19
S3150000327C10BD00BFB638002030390400F9390400FF
S3150000328C08B51AF023FB014620B90220BDE8084018
S3150000329CFFF740BE08BD000000B58BB00DF1030171
S315000032AC01A8FFF76FFE01AA03494FF4817001F0E4
S315000032BCDFFD0BB05DF804FB503A040008B502467E
S315000032CC58B106494FF4817001F0D2FD044B002130
S315000032DC1878BDE80840FFF71DBE08BDCB390400C1
S315000032ECB6380020034B1B78052B01D1FFF7A2BE85
S315000032FC704700BFB6380020034B1B78053B012BEB
S3150000330C01D8FFF711BE7047B638002020B9034923
S3150000331C4FF4817001F0ACBD704700BFE539040075
S3150000332C0020704770B5814B814D00221A702B78A6
S3150000333C013BA6B0092B00F2F380DFE813F07B000B
S3150000334C8600F100C300EB003A00EE000A006200B2
S3150000335C780078494FF4817001F08AFD764B002491
S3150000336C1C70764B1B78012B25D17549754D764E05
S3150000337C4FF4827001F06AFD2A5D31464FF482707B
S3150000338C013401F063FD102CF6D170494FF48270B4
S3150000339C01F06EFD6E4B029300216E4B0193CDE94D
S315000033AC035141F22A536C4A0093192023461CF010
S315000033BC6DFE26B070BD022BFBD16149674D624E86
S315000033CC4FF4827001F042FD2A5D31464FF4827053
S315000033DC013401F03BFD102CF6D15C494FF48270A0
S315000033EC01F046FD5E4B5F4A18785F4B0293002155
S315000033FC5E4B0193CDE903515D4B1B88009323462D
S3150000340CD5E74E4B197801290AD10A46112002211B
S3150000341C1CF0B8FF41F288310A20FFF77BFDC8E7A4
S3150000342C0229F7D1534B012293F90000F0E71DF066
S3150000343C0BFBBEE7FFF758FD4F4902464FF4817070
S3150000344C01F016FD1AF000FDB3E75622002110A874
S3150000345C3FF0D2F92122002107A83FF0CDF9102226
S3150000346C464910A806F018FF02238DF863300DF1BB
S3150000347C9501112307A88DF86430FFF783FD9DF89D
S3150000348C952007A90DF1750006F006FF4FF4817023
S3150000349C3A4A3B4901F0DAFC4FF4817001F0BEFC6C
S315000034AC18B11AF00FFA01F073FD07AA35494FF45B
S315000034BC817001F0DDFC344A40F2311110A81CF089
S315000034CC9BFF76E731491C4C4FF4817001F0D0FC20
S315000034DC1A4B1A786AB1217802290AD92149097836
S315000034EC39B1012A12D102221A7000232370FFF778
S315000034FC11FE227826490132D2B24FF48270227024
S3150000350C01F0B6FC4EF66021287886E7022AF0D147
S3150000351C0122E9E7FFF78EFD4BE7FFF7FBFD48E7D6
S3150000352C4FF447711B4806F04FFC42E7C055032089
S3150000353CB6380020E43A04008A380020762F0020A2
S3150000354CF53A04009D2F0020033B0400D54D0400E2
S3150000355C952F0020BD2F0020AD2F0020842F00209A
S3150000356C8B3800208C3800207C2F00209E380020C1
S3150000357C9C380020942F0020073B04005F3A04007F
S3150000358C2A3B04004B3B040000F8FF075E3B04009B
S3150000359C893B0400303904001FB51AF093F9024632
S315000035AC0068516802AB03C30822022300930DEB9B
S315000035BC02010348FDF7F2FC05B05DF804FB00BF01
S315000035CCA638002010B51D4B1B78042B044604D0DE
S315000035DC40F2C7111A4806F0F7FB1022214619488B
S315000035EC06F05AFE184B194800221A702146102272
S315000035FC06F052FE4FF48170154901F027FC4FF48A
S3150000360C817001F00BFC10B1204601F047FC11490A
S3150000361C4FF4817001F02CFCFFF7BEFF0E4B1B78AC
S3150000362C022B04D1FDF728FD08B9FDF715FD002185
S3150000363C0520BDE81040FFF76DBC00BFB638002072
S3150000364C30390400A6380020783800200D540320A9
S3150000365C08390400D54D0400762F00201FB50E4BFB
S3150000366C079C1B78042B14D104F11000FFF7AAFF5A
S3150000367C44214B09022B02D02378FF2B07D00023C1
S3150000368CCDE9013300931A46204630F081FC04B094
S3150000369C10BDA321EDE700BFB63800201FB50D4BBA
S315000036AC1B78042B0CD10021102268463FF0A4F89D
S315000036BC6946002001F0B0F828B16846FFF782FF92
S315000036CC05B05DF804FB04494FF4817001F0D0FBA2
S315000036DCF6E700BFB6380020F83804001FB50C4BCF
S315000036EC0C481B688DF80F301A168DF80C201A141E
S315000036FC8DF80D201A122223009304238DF80E2028
S3150000370C03A91A46FDF74AFC05B05DF804FB00BF99
S3150000371C782F0020A6380020014B1860FFF7DEBF7B
S3150000372C782F0020024B00221A701AF075BC00BFCD
S3150000373C8A38002000B59BB05622002104A83FF021
S3150000374C5BF804A81AF0E6F91AA99DF8333001F8CB
S3150000375C5C3D23230093012204230348FDF71EFC42
S3150000376C1BB05DF804FB00BFA63800200021092021
S3150000377CFFF7D0BB08B5044B1870FFF7BDFDBDE8CD
S3150000378C0840FFF7C7BC00BF762F002010B5074CCA
S3150000379C01461022204606F07FFD224604494FF4CE
S315000037AC8270BDE8104001F063BB00BF8C3800206E
S315000037BCCB380400F7B501460822684606F06CFDC6
S315000037CC1249134D134E144F4FF4827001F03EFB09
S315000037DC00241DF80420625531464FF4827001F026
S315000037EC35FB04F0FD03012B01D0052C04D1394621
S315000037FC4FF4827001F02AFB0134082CE9D10749F9
S3150000380C4FF4827001F034FB03B0F0BDEE380400C7
S3150000381C9E380020FB330400A5530400D54D04004C
S3150000382C034B0449188002464FF4827001F020BB0A
S3150000383C9C380020DD380400034B044918700246FE
S3150000384C4FF4827001F014BB8B380020AA380400A8
S3150000385C70B5014610220D480C4E0D4D06F01CFDA0
S3150000386C0C494FF4827001F0F1FA0024325D2946BE
S3150000387C4FF48270013401F0E9FA102CF6D10649A6
S3150000388C4FF48270BDE8704001F0F2BA842F00202C
S3150000389C033B0400BB380400D54D0400FFF740BDC4
S315000038AC00F06CB800F06BB800F06BB800F06BB8B9
S315000038BC08B500F019FE01F02BFF00F065F808F0D2
S315000038CC17FF09F0CFFBBDE8084012F091BC08B514
S315000038DCFFF7F6FA07F0A4FA07F08EFB19F072FF61
S315000038EC00F053F8BDE8084009F070BF08B500F0C9
S315000038FC49F80BF069FE0DF049FE10F055FABDE8DB
S3150000390C08400EF011BB70B504460D461646FFF77F
S3150000391C3BFC32462946204608F00CFF3246294627
S3150000392C20460DF06FFB3246294620460DF0F8FE78
S3150000393C3246294620460FF083F832462946204661
S3150000394CBDE8704010F036BA00F068B82DE9F341C6
S3150000395C089C009405460E461746984600F060F8FB
S3150000396C43463A4631462846089402B0BDE8F04133
S3150000397C10F056BA00F05BB87047704770470120DC
S3150000398C7047704770477047704770477047002004
S3150000399C704770477047002070477047704708B9EA
S315000039ACFFF7C8BE7047704770477047704708B935
S315000039BCFFF7DCBE704770477047704700207047B2
S315000039CC70477047704770471FB504A9212301F84B
S315000039DC040D0122009303480423FDF7DFFA05B01A
S315000039EC5DF804FB0D5403207047704770470020A8
S315000039FC7047704700207047704770477047704794
S31500003A0C704770477047704714F0D6B910B4BDF8BC
S31500003A1C084002945DF8044BFDF750B8012070473E
S31500003A2C70478620704786207047704770477047EE
S31500003A3C81210EF097B981210EF094B981210EF0F7
S31500003A4C91B981210EF08EB981210EF08BB98121AD
S31500003A5C0EF088B91FB5064B0193064B02920093E4
S31500003A6C00220B4604490EF01BF905B05DF804FB69
S31500003A7C5C4904004C490400B64B04001FB5064BC8
S31500003A8C019300230292009301220B4603490EF088
S31500003A9C07F905B05DF804FB3C490400B64B04007D
S31500003AAC1FB5064B0193064B0292009302220B465E
S31500003ABC04490EF0F5F805B05DF804FB2C4904003A
S31500003ACC1C490400B64B04001FB5064B0193064B6C
S31500003ADC0292009340220B4604490EF0E1F805B021
S31500003AEC5DF804FB844904006C490400B64B0400E1
S31500003AFC1FB5064B02920022019300920B46044915
S31500003B0C0EF0CEF805B05DF804FB00BFAC4904001E
S31500003B1CC24B04001FB5064B01930023029200937F
S31500003B2C01220B4603490EF0BBF805B05DF804FB09
S31500003B3CE4490400C24B04001FB5064B0193002355
S31500003B4C0292009302220B4603490EF0A9F805B027
S31500003B5C5DF804FB344A0400C24B04001FB5064B47
S31500003B6C0193064B0292009340220B4604490EF039
S31500003B7C97F805B05DF804FBD4490400BC49040071
S31500003B8CC24B04001FB5064B01930023029200930F
S31500003B9C41220B4603490EF083F805B05DF804FB91
S31500003BACF4490400C24B04001FB5064B0193064BA7
S31500003BBC0292009342220B4604490EF071F805B0AE
S31500003BCC5DF804FB244A0400044A0400C24B0400BA
S31500003BDC07B5054B0093054A054B064800210DF029
S31500003BECD9FE03B05DF804FB348104004C49040093
S31500003BFC613A0000B64B040007B5054B0093002252
S31500003C0C044B054801210DF0C5FE03B05DF804FB1D
S31500003C1CD54D0400893A0000B64B040007B5054B98
S31500003C2C0093054A054B064802210DF0B3FE03B07E
S31500003C3C5DF804FBBB7504001C490400AD3A00009A
S31500003C4CB64B040007B5054B0093054A054B0648D1
S31500003C5C40210DF09FFE03B05DF804FB51440400B7
S31500003C6C6C490400D53A0000B64B040007B5054B69
S31500003C7C00930022044B054811460DF08BFE03B051
S31500003C8C5DF804FBD54D0400FD3A0000C24B040060
S31500003C9C07B5054B00930022044B054801210DF096
S31500003CAC79FE03B05DF804FBD54D0400213B000002
S31500003CBCC24B040007B5054B00930022044B054884
S31500003CCC02210DF067FE03B05DF804FBD54D040030
S31500003CDC453B0000C24B040007B5054B0093054A53
S31500003CEC054B064840210DF055FE03B05DF804FB6C
S31500003CFC51440400BC490400693B0000C24B04005B
S31500003D0C07B5054B00930022044B054841210DF0E5
S31500003D1C41FE03B05DF804FBD54D0400913B000059
S31500003D2CC24B040007B5054B0093054A054B0648E4
S31500003D3C42210DF02FFE03B05DF804FBB5430400E1
S31500003D4C044A0400B53B0000C24B04001FB5064BE9
S31500003D5C0193064B0292009301220B4604490DF087
S31500003D6C9FFF05B05DF804FBA44A0400744A0400E6
S31500003D7CCE4B04001FB5064B0193064B02920093E3
S31500003D8C06220B4604490DF08BFF05B05DF804FBCB
S31500003D9CF44A0400CC4A0400CE4B04002DE9F04F43
S31500003DACA5B080468A46002006A900F035FD50B91C
S31500003DBC4FF482704B4B4C4A4C4901F059F8022097
S31500003DCC25B0BDE8F08F0021012000F085FC16AF70
S31500003DDC382200218146002438463EF00DFDADF810
S31500003DEC164000F087FB02286ED90DF11601022051
S31500003DFC00F0A2FC064600F07DFB032806D92146FE
S31500003E0C032000F069FC03788DF88C30384C22685E
S31500003E1C4FF6FF739A420AAD58D036494FF482706A
S31500003E2C01F026F822680C21284630F003F901240B
S31500003E3CDFF8D8B0DBF800204FF6FF739A420CD0AF
S31500003E4C2D494FF4827001F013F805EB0410DBF8E2
S31500003E5C0020112130F0EEF80134DFF8B4B0DBF8B5
S31500003E6C00204FF6FF739A420CD024494FF482700F
S31500003E7C00F0FEFF05EB0410DBF80020172130F0F4
S31500003E8CD9F801341C958DF87440BAF1000F0ED098
S31500003E9C41F2346106A80EF04DF8C8B1184B2193C7
S31500003EAC41F234632290ADF86A30ADF86C30154BA4
S31500003EBC0193BDF816300093029733464A464146A5
S31500003ECC06A82FF021FE7BE726469FE70024AFE7E6
S31500003EDC4FF482700C4B044A044900F0C9FF0120D0
S31500003EEC6EE700BFD44B0400DF4B0400E34B040029
S31500003EFCE82F0020EA4B0400054C04001F4C04007C
S31500003F0CDD010300213F00003D4C0400E02F0020A2
S31500003F1CE42F00202DE9F0439BB004460E464FF4E7
S31500003F2C82705F49BDF8885090461F4600F08EFFA0
S31500003F3C20462FF047FB5B4902464FF4827000F097
S31500003F4C85FF002C56D030462FF014FB55490246FF
S31500003F5C4FF4827000F07AFF0022114640462FF093
S31500003F6CD8FB431C064626D06422002101A83EF04D
S31500003F7C43FCB0B2632845D90130002180B218F059
S31500003F8C17F8002842D017F071FC4FF000090446D0
S31500003F9CB2B2214640462FF0BCFB224642494FF4B2
S31500003FAC827000F053FFB9F1000F04D03F494FF473
S31500003FBC827000F04BFFEDB101AA0C2140462FF0A8
S31500003FCC95FB40B3019C20462FF0E8FA384902468F
S31500003FDC4FF4827000F03AFF0CB1282C1ED14FF42E
S31500003FEC827000F01BFF28B12A4639464FF48270C6
S31500003FFC00F0B0FF2F494FF4827000F039FF1BB070
S3150000400CBDE8F0834FF0000901ACC1E74FF00109A0
S3150000401C01AC6326BCE74FF0FF34D4E73C2C03D04D
S3150000402C4FF628639C4233D100214FF4806017F081
S3150000403CBFFF28B920494FF4827000F019FFD9E769
S3150000404C17F014FC2946044602464FF480633846A2
S3150000405C0BF0C4F8194F204485B200262B1B9BB2DB
S3150000406C802B06D8224615494FF4827000F0EEFEDE
S3150000407CC0E794F8808084F88060224639464FF475
S3150000408C827000F0E3FE06F0C5FA04F8808FE5E7CF
S3150000409C00232A4639464FF4827000F067FFA9E7E1
S315000040AC654C0400016804006F4C04000E4E0400BD
S315000040BC754C0400D54D04007E4C040002680400C7
S315000040CC1FB50020694600F0A7FB48B9094B0A4A00
S315000040DC0A494FF4827000F0CBFE05B05DF804FB84
S315000040EC694641F2336028F07CFE054A05490346D1
S315000040FCEFE700BFD44B0400DF4B0400E34B040096
S3150000410C724404005D4C040010B500210120FFF739
S3150000411C45FE044A04490346BDE810404FF482703C
S3150000412C00F0A6BE5C4504005D4C040010B50021F1
S3150000413C0220FFF733FE044A04490346BDE810404B
S3150000414C4FF4827000F094BE604504005D4C040090
S3150000415C10B500210320FFF721FE044A044903464B
S3150000416CBDE810404FF4827000F082BE6A45040030
S3150000417C5D4C040010B500210420FFF70FFE044A25
S3150000418C04490346BDE810404FF4827000F070BE3F
S3150000419C554504005D4C0400012110B50846FFF797
S315000041ACFDFD044A04490346BDE810404FF48270F5
S315000041BC00F05EBE5C4504005D4C040010B50121A8
S315000041CC0220FFF7EBFD044A04490346BDE8104004
S315000041DC4FF4827000F04CBE604504005D4C040048
S315000041EC10B501210320FFF7D9FD044A0449034603
S315000041FCBDE810404FF4827000F03ABE6A450400E8
S3150000420C5D4C040010B501210420FFF7C7FD044ADC
S3150000421C04490346BDE810404FF4827000F028BEF6
S3150000422C554504005D4C040008B5002000F0E4F987
S3150000423C014B186008BD00BFE02F002008B5002018
S3150000424C00F0DAF9014B186008BD00BFE82F00201A
S3150000425C70B5012000F0D0F90128124C03D94FF6A5
S3150000426CFF73236070BD002000F0C6F97F28F6D8D6
S3150000427C022000F0C1F9B0F1805FF0D2012000F00D
S3150000428CBBF90546002000F0B7F90646022000F0FF
S3150000429CB3F90246281CF1B218BF01202FF0B4FE68
S315000042AC2060DFE7E42F00202DE9F04F074685B0AC
S315000042BC08460D46904699463EF0F3FABDF838A0EE
S315000042CC0F9E204C8346636853B9CDE901330093A6
S315000042DC1A46842130462FF05BFE05B0BDE8F08F00
S315000042EC22892078991811F8011C2F2904BF02F194
S315000042FCFF3292B208B1B84221D12F291DD1934574
S3150000430C06D3A95CB9B12F2914BF0021012100E005
S3150000431C0021A1B1294618463EF0CBFA78B9CDE971
S3150000432C0EA6E4684B46424629463846A44605B0D6
S3150000433CBDE8F04F60470121EBE79345E4E7103405
S3150000434CC1E700BFA045040000207047002070475D
S3150000435C70477047F8B50546846802681B492020EB
S3150000436C09F089F96B68DBB1194D1A4E1A4F013CED
S3150000437C14F8013FC3B1752B1CD0762B1CD0772BB0
S3150000438C1CD0732B1CD0622B1CD06E2B1CD013494B
S3150000439C134A2A2B18BF1146202009F06CF9E7E7BF
S315000043AC1049202009F067F90F492020BDE8F84094
S315000043BC09F061B92946EFE73146EDE73946EBE7F7
S315000043CC0A49E9E70A49E7E70A49E5E7A65B040073
S315000043DCE24D0400D64D0400ED4D0400154E0400CC
S315000043EC124E04000E4E0400D34D0400F94D040089
S315000043FC034E04000D4E040013B50446FFF7AAFF46
S3150000440C01A9204600F020FA18B1084C019B1B6844
S3150000441C0BB902B010BD2146202009F02CF90198E9
S3150000442CFFF798FF019B0C330193EFE71B87040002
S3150000443C08B50449202009F01EF92020BDE80840E3
S3150000444C09F0ADB9C44C040038B5FFF7F1FF064DC1
S3150000445C002460190C34631953F80C3C03B938BDAD
S3150000446CFFF778FFF5E700BF303E0400094B10B5A7
S3150000447C53F820200C462020074909F0FCF844B1DB
S3150000448C0649202009F0F7F82046BDE81040FFF752
S3150000449CB3BF10BDA44C04008E4C04009A4C04000F
S315000044AC00230370A0F8663080F88630C0F8903090
S315000044BC4FF07F42A0F88C300A23C0F8882080F891
S315000044CC8E307047074B00224FF07F411A70A3F8CD
S315000044DC662083F88620C3F8881083F88C20C3F8EE
S315000044EC90207047C85503200148FFF7D9BF00BF7D
S315000044FCC8550320034B93F8860093F88C30C01AEA
S3150000450CC0B27047C8550320034B03EB4000013380
S3150000451CB0F8660018447047C8550320044B03EBEB
S3150000452C400292F8680092F86630C01AC0B2704722
S3150000453CC8550320044B03EB4002B2F86800B2F8EE
S3150000454C6630C01A80B27047C8550320054A92F8E7
S3150000455C8C30184440B202EB40000132B0F86630A1
S3150000456CD05C7047C85503202DE9F047204C054612
S3150000457C94F88C002844C0B243B204EB43030E46B5
S3150000458CB3F86680FFF7CAFF8146FFF7B3FFA84270
S3150000459C94F88E7003D8D521164805F015FC4FF00B
S315000045AC000A55465FFA8AF399451CD90AEB0802AC
S315000045BC2244507816B10BB92D280DD000F0DF022D
S315000045CC582A03D115B9013B012B0FD918F092FFCC
S315000045DC874204D905FB07050AF1010AE2E7052320
S315000045EC84F88A3000252846BDE8F0871027F3E7C3
S315000045FCC8550320874E040010B5164991F88E3025
S3150000460CFF2B044621D1FFF789FF64B201EB44046A
S3150000461C0246B4F866004B1C012A00EB030101D1DB
S3150000462CC05C10BD022A03D1084618F069FEF8E7F3
S3150000463C042A04D10020BDE8104018F08FBE0648AD
S3150000464CF92105F0C1FB0020EBE70021BDE8104085
S3150000465CFFF78ABFC8550320874E040038B51C499E
S3150000466C91F88E30FF2B044623D1FFF757FF64B227
S3150000467C01EB440402464B1CB4F86600012A00EB1D
S3150000468C0301C45601D1204605E0022A04D108468E
S3150000469C18F036FE00B238BD042A04D10020BDE85D
S315000046AC384018F05BBE4FF48A710A4805F08CFB53
S315000046BCE9E7FFF74BFFA0F12D0359420546594197
S315000046CC2046FFF751FF2D2D08BF4042E3E700BF00
S315000046DCC8550320874E0400F8B5164B93F88E2068
S315000046ECFF2A04461D4603F101060CD121B1C0B2C6
S315000046FCFFF714FF0138087005EB4404B4F86600A4
S3150000470C01303044F8BD93F88C002044C0B242B25C
S3150000471C03EB4203E543B3F86670ED0FF41939B1B8
S3150000472CFFF7FCFEF35D401B222B08BF0138087017
S3150000473C6019E7E7C8550320F8B5164B93F88E2099
S3150000474CFF2A04461D4603F101060CD121B1C0B265
S3150000475CFFF7F0FE0238088005EB4404B4F8660057
S3150000476C02303044F8BD93F88C002044C0B242B2FB
S3150000477C03EB4203E543B3F86670ED0FF41939B158
S3150000478CFFF7D8FEF35D401B222B08BF01380880CB
S3150000479C6019E7E7C85503202DE9F3410D460DF1E5
S315000047AC0701904607461C46FFF796FF0646F8B2E9
S315000047BCFFF7CCFEA0F122035F429DF807105F4184
S315000047CC3944C9B2414528BF41468DF807101CB182
S315000047DCCCB2A8EB0404E4B222462846002105F02C
S315000047ECE5FD28199DF80720314605F055FD9DF885
S315000047FC0700C01BC0B202B0BDE8F08113B501239F
S3150000480C0C4608226946FFF7C7FF08226946204670
S3150000481C18F0C5FD02B010BD10B540B20C46002113
S3150000482CFFF75AFF2146BDE810401EF040BB38B5D5
S3150000483C40B20C4615460021FFF74EFF2A4621468C
S3150000484CBDE838401EF046BB08B5D0E9012312B9C5
S3150000485C0B60012008BD1B786E2B04D14FF4D87168
S3150000486C024805F0B1FA0020F4E700BF874E0400B9
S3150000487C2DE9F04FA24C97B0814688460026B9F137
S3150000488C000F0DD10DF113015FFA88F008F080FFCF
S3150000489C90B1262800F0B281012384F88A3051E0C9
S315000048ACB8F1000F00F0AA8119F8013B8DF813300E
S315000048BC08F1FF381FFA88F894F88D309DF81350DC
S315000048CC84F88D500D2B01D10A2DD8D00D2D0CD07E
S315000048DCA5F10A035F425F4123783E46042BCED8EE
S315000048ECDFE803F0051A244232000127F4E7002F13
S315000048FC5BD1202D00F06581222D08D10223237077
S3150000490CB4F88820642A40F05E810623C5E77B2D27
S3150000491C0CBF03230123F2E70FB9202DF0D194F835
S3150000492C86300F2B40F03E810323B6E7222D03D1B0
S3150000493C00238DF81330E3E7002FE1D0052384F82C
S3150000494C8A30012604232370002E98D094F88A000E
S3150000495C18B1D4F89010FFF789FDFFF7B3FD9DF859
S3150000496C133084F88D308AE77D2D94F88BA004D112
S3150000497CBAF1FF0FD3D005238FE7284618F0BAFDFE
S3150000498C0F280FD8BAF1FF0F09D094F88B3000EB33
S3150000499C0310FF238DF8130084F88B30B0E784F8EE
S315000049AC8B006CE7202DE6D169E7564B059394F8FE
S315000049BC8630002BC5D0002778B2059DFFF7A4FDE5
S315000049CC82463846FFF7AAFD002202901646934609
S315000049DC296861B9E2B10591022384F88A3094F80A
S315000049EC8A30002BADD1059B5B689847A9E70B78FD
S315000049FC43B34B1E0193D446019911F8013F019123
S31500004A0C0299ACEB0A0088423ED1002B3DD1AB4655
S31500004A1CCDF814B0BBF1000FDED094F88C30C4F88E
S31500004A2C90B00137013305A95846FFB284F88C3093
S31500004A3CFFF70AFF002844D094F88630BB42BBD857
S31500004A4C0323CAE70F2EAB6808D94FF480712E48A2
S31500004A5C0392019305F0B8F9039A019B16A901EB91
S31500004A6C86010C35013641F8405CF6B21D462B68C2
S31500004A7C002BADD1002EABD0013EF6B216AB03EB3C
S31500004A8C860353F8405CA3E72BB9BBF1000F16D095
S31500004A9C01220C35EBE71CF8010BA0F1410EBEF11F
S31500004AAC190F98BF2030A3F1410E98BFC0B2BEF1CA
S31500004ABC190F9CBF2033DBB283429DD0E9E7AB468E
S31500004ACCE7E7059B9B681B783F2B88D00646054677
S31500004ADC4FF0070A4FF0040B40E010460293019288
S31500004AECFFF734FD029B019A732B0FD8712B11D251
S31500004AFC002B55D0622B4BD084F88AA020E000BF47
S31500004B0CC8550320303E04000A4F0400A3F175017A
S31500004B1C0229F1D8752B34D0762B34D0732B35D0A3
S31500004B2C722B47F6FF7318BF4FF0FF330121104667
S31500004B3C0193FFF719FD019B984201D984F88AB0BD
S31500004B4C059B9B682B4401365B782A2B94F88A309C
S31500004B5C1CBF0135EDB2002B7FF4F3AE059B94F828
S31500004B6C86C09968F2B2B818C0B284454B5DB4D809
S31500004B7C002B3FF434AF0D446B782A2B7FF460AFD7
S31500004B8C2DE7FF23D2E74FF6FF73CFE77F23CDE761
S31500004B9C2228D5D07B28D3D0052384F88A30CFE7BA
S31500004BAC0323FAE70133DBB284F8863004EB4303C4
S31500004BBCB4F88820A3F8662000232370002F7FF416
S31500004BCCF4AE3E465BE62178012909D19DF81330F7
S31500004BDCA3F1410019289CBF2033DBB28DF81330AA
S31500004BECA0189DF81330437001320229A4F88820CE
S31500004BFC7FF445AE002B3FF492AE40E6304617B03C
S31500004C0CBDE8F08F012270B51146042003F0B0FB0D
S31500004C1C1A4B1B4D1A681B4842F001021A60DA68DF
S31500004C2C4FF0604442F08072DA60174BC4F8B03F24
S31500004C3C00260223C4F8006EC4F8806EC5F8F03066
S31500004C4C03F0A2FA00F5D520104B114A00F2FC40F5
S31500004C5CB0FBF3F00F4B01382861C4F8406E1A60B4
S31500004C6C0D4BC4F8803E4FF48073C5F80433D4F86A
S31500004C7C003E43F48073C4F8003E70BDF0ED00E0D6
S31500004C8C000004E006000E0055CEACC5F8590D0028
S31500004C9CFF030040001000E00D00010010B50121DB
S31500004CAC114803F091F9114B01241C60002004F00B
S31500004CBC65F9234604220221052004F0B7F92046A3
S31500004CCC18F0D2FAFFF79EFF18F0D4FA084B1C70B6
S31500004CDC09F096FB234640220649074809F066FB75
S31500004CEC064B1860C00F10BD00350A001088144220
S31500004CFCB7380020B8380020884F0400EC2F00206D
S31500004D0C024B1868003018BF01207047F0ED00E028
S31500004D1C054A4170D12303701378C370090A817058
S31500004D2C591C117004207047F83800202DE9F74FF4
S31500004D3C0E78042E81460F4658D912F082FD751D49
S31500004D4CDFF8ACA0EDB280464FF6FF710024DAF81E
S31500004D5C00305BB1A54209D9019112F072FDA0EBAE
S31500004D6C080080B2B0F5FA7F019907D9281B18BF45
S31500004D7C012004233B7003B0BDE8F08F64B3012C13
S31500004D8C2ED0EB1E04F1010B9C425FFA8BFB12D169
S31500004D9CCCB24FF06043D3F8802ED00709D5D3F8A8
S31500004DAC002ED20505D51846026A002AFCD083F8D7
S31500004DBC20405C46CBE7AB1E9C4202D1C1F30724D4
S31500004DCCE7E76B1E9C420FD04C4414F8024C20466D
S31500004DDC05F008F90146DCE75B244FF0010BD8E738
S31500004DEC34464FF0020BD4E75D24D2E70020C0E72F
S31500004DFCF0ED00E000B5084B91B04022694618680A
S31500004E0C09F0C2FA20B1C2B26946122018F044FA6F
S31500004E1C11B05DF804FB00BFEC2F0020094B188085
S31500004E2C4FF6FF73984209D0030A012B08D8064A9D
S31500004E3CD35C034214BF0120002070470120704749
S31500004E4C00207047FA380020F02F00200EB417B55A
S31500004E5C05AC54F8041B0194FFF7E0FF18B1224689
S31500004E6C202008F030FC03B0BDE8104003B07047BA
S31500004E7C0EB417B505AC54F8041B0194FFF7CEFF1E
S31500004E8C30B12246202008F01EFC202008F002FC3F
S31500004E9C03B0BDE8104003B07047000000B58BB0FE
S31500004EAC282269461DF0F0FF28B1044B04491888E6
S31500004EBC6A46FFF7CBFF0BB05DF804FBFA3800200F
S31500004ECC0268040000B58DB02C2301AA1DF0E6FF84
S31500004EDC28B1044B0449188801AAFFF7B7FF0DB097
S31500004EEC5DF804FBFA3800200268040008B5FFF7E9
S31500004EFC95FF20B12020BDE8084008F050BC08BD45
S31500004F0C2DE9F84F07468846164699469DF828A07F
S31500004F1CFFF784FF28B1002406F1FF3BB442A5B28B
S31500004F2C01D1BDE8F88FBAF1000F10D0ABEB04033A
S31500004F3C18F803204946384605F00F05FFF786FF9B
S31500004F4C062D02D13846FFF7D1FF0134E6E723469A
S31500004F5CEEE7000007B500230093034BFFF7D0FFE5
S31500004F6C03B05DF804FB00BF955C040037B5002464
S31500004F7C0094054D054C002B14BF2B462346FFF71A
S31500004F8CBFFF03B030BD00BF033B0400FB3304007E
S31500004F9C37B5084C084905462088FFF757FF01230B
S31500004FAC00932088054B08222946FFF7A9FF03B07A
S31500004FBC30BD00BFFA38002091660400FB330400B4
S31500004FCC37B5084C084905462088FFF73FFF0123F3
S31500004FDC00932088054B08222946FFF791FF03B062
S31500004FEC30BD00BFFA38002091660400FB33040084
S31500004FFC38B504460D46C2B14FF481700B49FFF724
S3150000500C25FF4FF48170FFF709FF18B1294620469A
S3150000501CFFF758FF06494FF48170FFF729FF294621
S3150000502C2046BDE8384036F08DBB38BD9D4F040098
S3150000503CC167040070B50D4616460446A8B14FF478
S3150000504C81700A49FFF702FF4FF48170FFF7E6FE05
S3150000505C18B131462846FFF735FF224604494FF46E
S3150000506C8170BDE87040FFF703BF70BD984F040018
S3150000507CB94F04002DE9F04F4D4CA36BD4F850B04A
S3150000508CD4F840A05A074FBF0027D4F84CB0D4F838
S3150000509C5480D4F83CA05ABF464FDFF84091DFF855
S315000050AC4091454A48BFB84613F0080F434B18BF0A
S315000050BC1A46B7EB08061CBF7308642187B01FBFDE
S315000050CC01FB0B33B3FBF6F39BB205933C49CDF8CE
S315000050DC00804B46CDE9017A08BF0596054608F0D7
S315000050ECDFFAB3B2CDE900931FFA8BF2059B354973
S315000050FC284608F0D5FAA36B5B070AD49C3E5E459E
S3150000510C07D1626D304B9A4203D23049284608F0DB
S3150000511CC7FABA4501D8C24504D24A462C49284694
S3150000512C08F0BEFA284608F03AFB236E0BB9636EFC
S3150000513CBBB32849DFF8AC80DFF8AC90284608F002
S3150000514C9AFA00260127226E07FA06F3134207D0B5
S3150000515C58F8262013781BB14946284608F08BFAD6
S3150000516C0136202EEFD1DFF87C80DFF87C9000260C
S3150000517C0127626E07FA06F3134209D008EB860381
S3150000518CD3F8802013781BB14946284608F073FAE9
S3150000519C0136122EEDD1284607B0BDE8F04F08F0C7
S315000051AC79BA0D49284607B0BDE8F04F08F078BA31
S315000051BC00000020D82E0020BF520400D493040017
S315000051CCC7520400F55204009C0000202E53040024
S315000051DC5A53040078530400A7530400BA5204002F
S315000051ECB2520400BC530400A55B04002DE9F8433D
S315000051FC044604F05BFF40F60123984239D010D8E0
S3150000520C40F2025398421DD040F20173984224D0CA
S3150000521C40F20153984213D16549204608F040FAF2
S3150000522C22E040F6032398426CD03DD340F604238B
S3150000523C984200F09C8040F60523984200F0B58019
S3150000524CBDE8F8835B49204608F02AFA5A4B5B49BD
S3150000525C5A6C204608F024FA06E0574A5849D2E917
S3150000526C2523204608F01CFA2046BDE8F84308F032
S3150000527C96BA514D5349204608F012FA95F86C30FF
S3150000528C9F0703D55049204608F00AFA95F86F3067
S3150000529C5E0603D54D49204608F002FA95F96F30A3
S315000052AC002BE1DA4A49B8E7434D4A49204608F053
S315000052BCF7F995F86830980704D06A6C3F49204690
S315000052CC08F0EEF995F96830002B04DA6A6F42495A
S315000052DC204608F0E5F9DFF80C81DFF81891002676
S315000052EC0127AA6E07FA06F3134207D058F82620B0
S315000052FC13781BB14946204608F0D2F90136082E20
S3150000530CEFD1B1E72C4D3549204608F0C9F92B49A8
S3150000531C6A6C204608F0C4F995F86930590703D52C
S3150000532C2F49204608F0BCF995F96930002B04DAB0
S3150000533C6A6F2949204608F0B3F92A4FDFF8B48082
S3150000534C0826AB6EF340DA0707D557F826201378F4
S3150000535C1BB14146204608F0A3F90136102EF0D1B8
S3150000536C95F86830002B7FF47FAF1F4955E7124D37
S3150000537C1E491C4FDFF87C80204608F091F96A6CB8
S3150000538C0E49204608F08CF91026AB6EF340DB076D
S3150000539C07D557F8262013781BB14146204608F04E
S315000053AC7FF901361A2EF0D15EE711494BE700BFA3
S315000053BC415004007E50040000000020AE50040052
S315000053CCC7500400E1500400F950040033510400A6
S315000053DC66510400A2510400C7510400EB510400AD
S315000053EC02520400D04F04004852040078520400C4
S315000053FC91520400E35104002DE9F84F164C174F57
S3150000540CDFF86080DFF860A00646002523785FFA97
S3150000541C85FB0BB9BDE8F88F57F8043B10492246BB
S3150000542C304608F028F9227804F1010982B962782D
S3150000543C82B10BF0030103290CBF4146514630469D
S3150000544C08F019F9304608F0AAF901354C46DDE7A3
S3150000545C4C46E8E74146F2E7845404000400002079
S3150000546C38500400D34D0400FC34040038B505460E
S3150000547C0C4618F027FA08232860238038BD000054
S3150000548C10B5002090B0FFF7B7F8402269460446E5
S3150000549C00F028FA034638B1224606494FF48170CB
S315000054ACFFF7E6FC10B010BD01226946082000F09B
S315000054BCA7F8F7E7135B040010B500F0CFF8002847
S315000054CC14BF79226E2217494FF48170FFF7D0FC76
S315000054DC00F0C4F818B300F03FFA002814BF792284
S315000054EC6E2211494FF48170FFF7C2FC02220F495C
S315000054FC4FF48170FFF7BCFC0D4B0E4953F8042C8E
S3150000550C1C1F4FF48170FFF7B3FC04F11003E26823
S3150000551C08494FF48170BDE81040FFF7A9BC3F2243
S3150000552CDFE700BF815C0400985C0400A85C040003
S3150000553C60560320C75C040070B500F095F824494A
S3150000554C04464FF48170FFF793FC34B921494FF4AC
S3150000555C8170BDE87040FFF78BBC00F08DF82269B6
S3150000556C1D49268805464FF48170FFF781FC628839
S3150000557C1A494FF48170FFF77BFC1949A2884FF446
S3150000558C8170FFF775FC6388E28813F0100F14BF67
S3150000559C144915494FF48170FFF76AFCA268134948
S315000055AC4FF48170FFF764FCE26811494FF4817087
S315000055BCFFF75EFC0F4A104B1049B6F5817F28BFEA
S315000055CC13464FF481702A46BDE87040FFF750BC75
S315000055DC5D5B04006A5B04008B5B0400A95B040042
S315000055ECCA5B0400E75B0400045C0400225C040054
S315000055FC405C04004B5B0400555B04005E5C0400DD
S3150000560C2DE9F047124EDFF84C90DFF84CA005461A
S3150000561C0F4690460024AC4201D1BDE8F08707EB5B
S3150000562CC401012308224FF48170FFF79FFC01345B
S3150000563CB8F1000F09D1A5420CBF32464A46514675
S3150000564C4FF48170FFF714FCE5E73246F7E700BF2D
