S01D000041514D2D4F54412D332E302E322E32202D20525443432E733337D0
S214000000D82E00207921040045A2000049A2000055
S214000010A70A02020002000004180FAC5029B00123
S21400002000000000000000000000000000000000CB
S21400003000000000FC830400000000000000000038
S2140000400000000000000000FFFFFFFFFFFFFFFFB3
S214000050FFFFFFFFFFFFFFFFFFFFFFFFFFFFFFFFAB
S21400006000700F000000000000001000FFFFFFFF00
S214000070FFFFFFFF0100000000000000000000007E
S214000080206E0320206203202062032020620320CB
S214000090D82E002064ED04000C560400002000203A
S2100000A0DC1F002000001000206E032073
S214000200D82E00207921040045A2000049A2000053
S21400021051A200004DA2000055A200007721040064
S2140002207721040077210400772104007721040059
S21400023059A20000772104007721040077210400EA
S21400024071680000DDAF03002DA7000020A40000A9
S214000250A1AA030049B00300E9AF030001B0030000
S214000260E1AF0300515F000025600000957E0000AE
S214000270B9DE000020A4000020A40000AD2D000080
S21400028020A4000020A400004960000020A4000074
S214000290F1DE000020A4000020A4000020A400003E
S2140002A020A4000020A4000020A4000020A4000039
S2140002B04DB00300E5AF0300F56500008DB0030008
S2140002C020A400002975030020A4000020A400003C
S2140002D020A4000020A4000020A4000020A4000009
S2140002E020A4000020A4000020A4000020A40000F9
S2140002F020A4000020A4000020A4000020A40000E9
S21000030020A4000020A4000077210400C8
S21400030CF8B500BFF8BC08BC9E467047F8B500BFF1
S21400031CF8BC08BC9E46704710B5054C237833B91C
S21400032C044B13B10448AFF300800123237010BDB7
S21400033C3839002000000000FCE2040008B5034B2E
S21400034C1BB103490348AFF3008008BD0000000052
S21400035C3C390020FCE20400154B002B08BF134B65
S21400036C9D46A3F5803A00218B460F461348144A47
S21400037C121A42F079FC0F4B002B00D098470E4B0C
S21400038C002B00D098470020002104000D000D48DB
S21400039C002802D00C48AFF3008042F0C9FA2000C7
S2140003AC29000AF097FF42F0AFFA00BF00000800E1
S2140003BCD82E002000000000000000003839002075
S2140003CC20620320000000000000000010B5037936
S2140003DC0446092B57D8DFE803F005090D345656AA
S2140003EC414E5652BDE8104001F01ABEBDE8104012
S2140003FC01F01ABE827924494FF4827004F0E0FDB5
S21400040CE27922494FF4827004F0DAFD227A204910
S21400041C4FF4827004F0D4FD627A1E494FF4827059
S21400042C04F0CEFDD4F806201B4C1C4912BA4FF42F
S21400043C8270226004F0C4FD2068BDE8104001F014
S21400044CF7BD174C8279174922704FF4827004F06E
S21400045CB7FD2078BDE8104001F0DABF124C827967
S21400046C124922704FF4827004F0AAFD2078BDE881
S21400047C104000F027BEBDE8104000F029BEBDE8D5
S21400048C104001F0E1BD10BD5E5804006A5804002F
S21400049C7658040082580400543900208E58040004
S2140004AC845700209B5804006C570020B858040052
S2140004BC08B50379032B1DD8DFE803F0020B0F13E6
S2140004CC0D494FF4827004F07BFDBDE8084002F045
S2140004DC81BABDE8084002F0A1BABDE8084002F0B7
S2140004EC8FBAD0F80600054B00BA1860BDE8084075
S2140004FC02F080BA08BD00BFCC5804005439002066
S21400050C10B503790446092B4AD8DFE803F0050931
S21400051C0D11151E22303740BDE8104001F0FCB816
S21400052CBDE8104001F000B9BDE8104001F004B978
S21400053CBDE8104001F008B9D0F80600194B00BA17
S21400054CBDE81040186001F01DB9BDE8104001F080
S21400055C1FB98279C37914494FF4827004F030FDC8
S21400056CE179A0790222BDE8104001F027B90F4BC3
S21400057C80791870BDE8104001F0B8BBD0F80600C2
S21400058C084B00BABDE81040186001F0B5BBD0F8B7
S21400059C0600044B00BABDE81040186001F0B2BB70
S2140005AC10BD00BF54390020505804006C57002072
S2140005BC08B50379052B07D8DFE803F003070A0D07
S2140005CC101900F057FD002008BD00F05BFDFAE79F
S2140005DC00F066FDF7E700F069FDF4E7D0F80600DA
S2140005EC054B00BA1860BDE8084000F065BDBDE8D4
S2140005FC084000F02FBF00BF5439002008B5C37860
S21400060C013B042B06D8DFE803F00307050A0D00B0
S21400061CFFF7DCFE012008BDFFF74AFFFAE7FFF7FD
S21400062C6FFFF7E7FFF7C4FFF4E7000037B500F0FD
S21400063CFD05012D1C4640D12179DB78A27800916E
S21400064C4FF48270214904F0BBFCA378042B0CD128
S21400065CB4F803305BBA9BB2292B1BD007D8252BDA
S21400066C20D0262B09D01A2B0ED003B030BD322B3F
S21400067C10D0332B01D0312BF7D115494FF48270A3
S21400068C04F09EFC042013E0284603B0BDE830407E
S21400069C00F074BD00F04CFE0128E6D100F05CFFC3
S2140006AC0020F2E70B494FF4827004F089FC03201B
S2140006BC03B0BDE8304000F0D9BE07494FF4817056
S2140006CC03B0BDE8304004F07BBC00BFD258040039
S2140006DC02590400ED58040018590400F0B593B004
S2140006EC04AC06460F46154600213822204642F03A
S2140006FCBBFA094B094A0294CDE900730221334632
S21400070C284633F079F9024620B105494FF481703A
S21400071C04F056FC13B0F0BD39060000E02E0020A5
S21400072C35590400F8B5C278037943EA02231BB2A4
S21400073C023B04460E46102B33D8DFE803F0093490
S21400074C5D6568716E777A7E81ADBABEC2C5C8002B
S21400075C6049614F4FF4827004F020FC5F494FF4FF
S21400076C827004F01BFC04F10E05063415F8012DFE
S21400077C39464FF4827004F011FCA542F6D1584964
S21400078C4FF4827004F00AFC56494FF4827004F061
S21400079C05FC304604F02AFC53494FF4827004F0F2
S2140007AC0FFC0120F8BD8379C279504D42EA032232
S2140007BC42F276718A422A800BD14D494FF48270F0
S2140007CC04F0FEFB4B4B4C48012200211A701CF027
S2140007DC2DF92A8849494FF4827004F0F1FBA2796E
S2140007EC47494FF4827004F0EBFBE27945494FF42D
S2140007FC827004F0E5FBD4E743494FF4827004F0B2
S21400080CDFFB0AF0EDF8CCE702F06EFFC9E73F4BD2
S21400081C90F9060018701CF0A7FF1CF0C1FFC0E78B
S21400082CD0F8060000BA03F01FF8BAE702F0FEFF95
S21400083CB7E7807903F01EF8B3E703F023F8B0E7C8
S21400084C334B451D00F1150215F8011F03F8011F67
S21400085C9542F9D12F4803F041F82F4B04F11D02B5
S21400086C15F8011F03F8011FAA42F9D12B482C4D8D
S21400087C03F048F8A37FE27F2A4942EA03224FF4AA
S21400088C82702A8004F09CFB288803F071F894F898
S21400089C200003F079F884E7234A431D153413F837
S2140008AC011F02F8011FA342F9D1204803F078F883
S2140008BC77E7807903F006F873E7807900F00EFC92
S2140008CC6FE700F039FC6CE702F0BEF969E702F05E
S2140008DCF3F966E754590400675804006B59040092
S2140008EC115C0400745904008B5C040094570020BF
S2140008FCA65904007A390020C45700207C590400FD
S21400090C8D59040097590400A1590400CC570020B7
S21400091C67390020683900207A3900207B3900209E
S21400092C78390020B3590400573900205839002074
S21400093C70B5124E124C33780025012B257002D060
S21400094C022B10D070BD1DF0EFF90E494FF48270DB
S21400095C04F036FB0223337041F288312046BDE8A2
S21400096C70401CF063B808494FF4827004F028FB02
S21400097C0AF036F835702946F0E700BF7A390020C1
S21400098CC4570020EF910400C559040010B586B07A
S21400099C1C468B788DF81430CB788DF815300B7987
S2140009AC8DF816300323029305AB019300231046F3
S2140009BC00931A46214633F063FA06B010BD1FB5F5
S2140009CC8B788DF80C30CB788DF80D300B798DF844
S2140009DC0E30002300930322012303A900F0ECFA47
S2140009EC05B05DF804FB000008B58379042B0DD127
S2140009FCC279037A43EA02231BB2292B1ED006DCEB
S214000A0C252B32D0262B08D01A2B0DD008BD322B16
S214000A1C14D0332B01D0312BF8D119494FF48270F6
S214000A2C04F0CEFA042026E016494FF4827004F047
S214000A3CC7FA0120BDE8084000F0A0BB12494FF4ED
S214000A4C827004F0BDFA00F073FC01280BD100F0A4
S214000A5C83FD002000F092FB0C494FF48270BDE839
S214000A6C084004F0ADBA0A49F7E70A494FF4827019
S214000A7C04F0A6FA0320BDE8084000F0F7BC00BF5F
S214000A8C02590400F6580400CC590400D959040045
S214000A9CEA590400ED58040070B5002405462246B9
S214000AACFF262B1A8B4203DB42EA042080B270BD71
S214000ABC15F8013B1A4492FBF6F3C3EB0323D31A47
S214000ACC9AB2234493FBF6F4C4EB04241B1B9CB28F
S214000ADCE7E700002DE9F843089CBDF82470A578DC
S214000AEC94F8038094F804902A460E464FF48270CD
S214000AFC3C4904F065FA4B4642463B494FF482703B
S214000B0C04F05EFA627939494FF4827004F058FAB0
S214000B1C37494FF4827004F041FA36494FF482702C
S214000B2C04F04EFAE319B91E13F8022C13F8018CD4
S214000B3C204648EA0228FFF7AFFF074683B2424634
S214000B4C2D494FF48270BFB204F03AFAB84545D13D
S214000B5C2A494FF4827004F021FA304604F046FA23
S214000B6C013D27494FF4827004F018FA042D37D84B
S214000B7CDFE805F0031C2C3630002379012B0ED150
S214000B8CB4F80730A2791F495BBA9BB24FF4827057
S214000B9C04F016FA2046BDE8F843FFF725BF1A49BD
S214000BAC4FF48270BDE8F84304F00ABA314620468A
S214000BBCFFF7B8FD214620B13046BDE8F843FFF7F5
S214000BCCE5BE3046BDE8F843FFF7F9BE2046FFF712
S214000BDC15FDEFE7BDE8F84301F08EB90B49DFE7EA
S214000BECBDE8F8833A5A0400455A04004F5A0400EC
S214000BFC635A04008B5C04006E5A0400965A040078
S214000C0C115C04009E5A0400B45A0400C45A040032
S214000C1C1FB54B09022B02D00378FF2B06D00023FE
S214000C2CCDE9013300931A4633F02AF905B05DF886
S214000C3C04FB1FB5CDE90123002300931A4633F0BD
S214000C4C1FF905B05DF804FB2DE9F04387B093F867
S214000C5C029093F80380B3F803701E79B7490F9C83
S214000C6C1D460023CDF80E30CDF81230ADF81630F8
S214000C7C4DF25673ADF80C30BDF838304A46CDE917
S214000C8C00634FF48270434604F09AF90423B9F1DA
S214000C9C030F8DF80E3000F0AC80994500F0838180
S214000CACB9F1020F11D17BBA9BB2043B102B0CD8B6
S214000CBCDFE803F0090E1B0B0B0B262B325F6C7454
S214000CCC777D858C930009F08BFE07B0BDE8F0832A
S214000CDC1CF070FD9A4A036813604368536008233F
S214000CEC45212046FFF7A5FFEFE795F906001CF017
S214000CFC3BFD44212046FFF78BFF1CF051FDE4E73B
S214000D0CA87902F0B7FD442102E002F0BBFD4321B6
S214000D1C2046FFF77DFFD8E78A4A6B1D05F11506BE
S214000D2C13F8011F02F8011F9E42F9D1864802F003
S214000D3CD5FD864A334605F11D0113F8010F02F85E
S214000D4C010F9942F9D18248824E02F0DBFDAB7F4F
S214000D5CEA7F814942EA03224FF48270328004F023
S214000D6C2FF9308802F004FE95F8200002F00CFEF5
S214000D7CC9E77A4A6B1D153513F8011F02F8011FD7
S214000D8CAB42F9D1764802F00BFEBCE72046442174
S214000D9CFFF73EFFA87902F095FD96E7A87900F0DC
S214000DAC9DF900F0C9F901230246442199E7204633
S214000DBC4421FFF72DFF284601F046FF85E7442126
S214000DCC2046FFF725FF01F077FF7EE743212046FC
S214000DDCFFF71EFF0BF044FD77E7624A0023137003
S214000DEC537093700321137101235371D170062332
S214000DFC76E75D494FF4827008F1FF3804F0E0F8AE
S214000E0CB8F1040F3FF661AF01A353F828F000BF0A
S214000E1C310E0000490E0000D70C00008F0E0000AB
S214000E2C250F0000062E05D0072E7FF44EAF00F0DF
S214000E3C4FF9B8E7A87900F045F946E7032E3FF6D8
S214000E4C44AFDFE806F00205080B01F0C3FD5AE7D5
S214000E5C01F0E4FD57E701F0D3FD54E7D5F80600A2
S214000E6C00BA01F0C7FD030E8DF80830030C8DF8A0
S214000E7C0930030A8DF80A308DF80B00042302AAF9
S214000E8C93E7053E042E3FF620AFDFE806F0030896
S214000E9C10243F0000F07CFC0123024620E70222CF
S214000EACE979A87900F08AFC00F072FC7BE72F4BFE
S214000EBCA879187000238DF80F3017238DF8103092
S214000ECC01238DF8113000F011FF0C238DF8120061
S214000EDC0DEB030269E7D5F8060000BA00F00CFF2C
S214000EEC0023020E8DF80F308DF812201823020CFA
S214000EFC8DF810308DF813200423020A8DF8142078
S214000F0C8DF811308DF8150003AA4EE7D5F80600BB
S214000F1C00BA00F0F7FEA6E7052E3FF6D6AEDFE8E1
S214000F2C06F003060927373F00F0A4F8EBE600F0BE
S214000F3CA9F8E8E600F0B4F8AEE700BFF8590400EC
S214000F4C005603209239002093390020A539002042
S214000F5CA6390020A4390020B35904008239002099
S214000F6C83390020FA5503202A5A04006C570020B7
S214000F7C00F09CF8030E8DF80830030C8DF8093041
S214000F8C030A8DF80A308DF80B00042302AAA7E694
S214000F9CD5F8060000BA00F08FF800F087F862E784
S214000FAC00F058FA91E603494FF4827004F008F802
S214000FBC8BE600BF325A04002DE9F047804602F15A
S214000FCC0D0000AF20F00700ADEB000D02F10F0096
S214000FDC6C46B7F820C0A37020F00700ADEB000DF0
S214000FEC56204FEA1C232070D7206070E37002F165
S214000FFC060902F108066D4684F804C06271A01D4D
S21400100C0B46A3EB010C624518DC49462046FFF75D
S21400101C43FD4A4682462146284641F01AFEAB1945
S21400102C4FEA1A2203F8022C03F801AC424631466A
S21400103C2846FFF753FBBD46BDE8F08713F801CBF7
S21400104C00F801CBDDE70000024B187002481BF0DD
S21400105CEDBC00BFAE39002020560320002107202F
S21400106CFFF7F2BF00210520FFF7EEBF002103209B
S21400107CFFF7EABF024B012000211870FFF7E4BF10
S21400108CB03900200021024B08461970FFF7DCBF70
S21400109CB0390020014B1878704700BFB0390020DB
S2140010AC014B1878704700BFB0390020014B186808
S2140010BC704700BFE42E0020014B1860704700BF3D
S2140010CCE42E0020014B1870704700BFE82E00205D
S2140010DC014B1878704700BFE82E002038B5124D2B
S2140010EC2B788342044610D001280FD101460020ED
S2140010FC01F09AFC2146204601F096FC0B4802F0C3
S21400110CB3FB0B4B0B4A1A602C7038BD0028FCD175
S21400111C014601F089FC2146012001F085FC4EF6C3
S21400112C602002F0A1FBEFE70C560320E0930400CE
S21400113CE42E0020C0270900014B1878704700BF2A
S21400114C0C560320074A30B5034600F11005186804
S21400115C5968144603C40833AB422246F7D11868C4
S21400116C206030BD3056032008B5014642220248A6
S21400117C41F06FFD08BD00BF44560320034B0449E5
S21400118C187002464FF4827003F01ABFB139002073
S21400119CDC5A040070B5594B00221A70584B1B7859
S2140011AC94B0072B20D8DFE803F0040C1621923AF3
S2140011BC672654494FF4827014B0BDE8704003F0B3
S2140011CCFFBE002000F044FA0021022014B0BDE857
S2140011DC7040FFF739BF0020FFF7D0FF00F020FF6C
S2140011EC494A13780133137014B070BD14B0BDE8BF
S2140011FC704000F0A1BA01F0AFFC01F0F9FC434CD2
S21400120C206001F00BFD04F110016060502268466E
S21400121C41F01FFD94E80F0000F036F9E4E73C4C73
S21400122C3C4A04F110061346254603CDB542106021
S21400123C51602C4602F10802F6D12868334910603A
S21400124C0A68DA75100E1875100C5875100A4A686C
S21400125C9875110E1976110C5976110A9976DA765C
S21400126C1A2300932B492C4804231C22FFF7A4FEB8
S21400127C4FF4FA610620A9E7284C244D422205F1CA
S21400128C1C01204641F0E5FC2B6884F845301A0E0C
S21400129C84F842201A0C84F843201A0A6B6884F8E7
S2140012AC44201A0E84F846201A0C84F8472084F83A
S2140012BC49301A0A292384F84820214600934A22EA
S2140012CC04231548FFF778FE002104207EE7144B14
S2140012DC1C7854B9134B1B783BB10B4D2A789A42A9
S2140012EC03D3204601F084F82C700F4B197819B1F3
S2140012FC0E4B0120196869E7084667E7205603205D
S21400130CAE390020D35A0400AF39002028560320EB
S21400131C30560320945503200D560320B055032059
S21400132C0C560320E82E0020B0390020E42E0020B6
S21400133C014B1878704700BFB139002073B53E4B8F
S21400134C3E4C00221A702378013B032B47D8DFE86B
S21400135C03F0021D486E00F05BF9012802460ED120
S21400136C27230093002104233548FFF725FE002190
S21400137C2170314802B0BDE870401BF057BB3148B5
S21400138C00F00CF9022323700021F2E72E4C2F4AB2
S21400139C04F110061346254603CDB5421060516085
S2140013AC2C4602F10802F6D12868264910600A6815
S2140013BCDA75100E1875100C5875100A4A68DA761D
S2140013CC110E1976110C5976110A997698751F49D3
S2140013DC252300931C2204231948FFF7EDFD02B0C9
S2140013EC70BD1B4C174D422205F11C01204641F0E6
S2140013FC30FC2B6884F845301A0E84F842201A0C00
S21400140C84F843201A0A6B6884F844201A0E84F871
S21400141C46201A0C84F8472084F849301A0A3123DF
S21400142C84F84820214600934A220423D4E700F08F
S21400143C71F80123A7E700BFE8560320B239002055
S21400144C0D560320885603209056032094550320EF
S21400145CB0550320034B0448012200211A701BF0E0
S21400146CE5BA00BFB2390020E8560320042805D898
S21400147C034B0021187003481BF0D8BA704700BF06
S21400148CB2390020E856032084B0F8B51C4E06ACE2
S21400149C84E80F00346840F2F97294422ADC002C7F
S2140014AC184F0FDA602206A9174841F0D2FB174AEC
S2140014BC00233B60136001233360BDE8F84004B0A2
S2140014CCFFF7D0BD3D68954204F1010408D16022B7
S2140014DC06A90D4841F0BDFB00233B603460ECE7E9
S2140014EC09480135602206A902FB050041F0B1FB54
S2140014FC3D60F3E706494FF4827003F061FDDCE7CC
S21400150CF42E0020F02E0020D4570020EC2E0020C5
S21400151C025B040010B50D4C2368002B06DA0C4950
S21400152C4FF4827003F04CFD012010BD09490A6887
S21400153C40F2F970013B824223604FF0000001D16B
S21400154C0860F1E701320A60EFE700BFF42E0020D6
S21400155CF35A0400EC2E002008B50C4B1A68002A2F
S21400156C06DA0B494FF4827003F02AFD012008BD01
S21400157C0849013A1A600B68013B0B604FF4827005
S21400158C054903F01DFD0020F1E700BFF42E0020F6
S21400159CF35A0400F02E0020105B0400184B1B6856
S2140015AC002BF0B4074605DA16494FF48270F0BCEF
S2140015BC03F006BD144B154C1A6860235343E2180F
S2140015CCE05852687A6003F108022244386007F14A
S2140015DC080502F1100C164603CE664528606960B5
S2140015EC324605F10805F6D13068286003F11C0177
S2140015FC214407F11C004222F0BC41F02ABB00BF7C
S21400160CF42E0020F35A0400EC2E0020D4570020B1
S21400161C034B18680028CCBF00200120704700BF81
S21400162CF42E002010B5074C23781BB900F070FB85
S21400163C01232370044B054918780222BDE810409C
S21400164C00F074BBB3390020FA2E0020FB2E0020CD
S21400165C38B5114D2B7804461BB900F059FB012305
S21400166C2B701CB9BDE83840FFF7DCBF0B4D0C499E
S21400167C2878643C022200F059FB002CB8BF644268
S21400168C08492878C4F3460406344C700222BDE898
S21400169C384000F04BBB00BFB3390020FA2E0020B8
S2140016ACF82E0020B4390020024B187002481BF0AC
S2140016BCBDB900BFC73900204457032010B5104BE6
S2140016CC104C1A78104B11481B7802EB4202013A68
S2140016DC53B90F490A44E15C02F8011FC15CD1738F
S2140016EC0133032BF7D110BD0A4B1A440023E15CDF
S2140016FC02F8011FC15CD1730133032BF7D1F2E75B
S21400170CC6390020BE390020B9390020C239002065
S21400171CC9390020E7390020024B0120002118703F
S21400172CFFF7C2BF053A00200021024B084619708D
S21400173CFFF7BABF053A0020024B002101201970B2
S21400174CFFF7B2BF053A00201FB50C4B0C481B68C0
S21400175C8DF80F301A168DF80C201A148DF80D20F3
S21400176C1A121123009304238DF80E2003A91A468F
S21400177CFFF722FC05B05DF804FB00BF002F00202D
S21400178C0D560320014B1860704700BF002F002039
S21400179C38B5074B07491D78074B1C782A46234655
S2140017AC4FF4827003F00CFC44EA0510C0B238BD4E
S2140017BCB73900205A5B0400B8390020012A04D13E
S2140017CC054B1870054B18707047022A01BF024B68
S2140017DC1870024B19707047B7390020B8390020C2
S2140017EC014B1880704700BFBC390020014B188095
S2140017FC704700BFBA3900202DE9F84F734CDFF85C
S21400180C0C8222786378724F724E734D7349DFF8F0
S21400181C00A2DFF8009243EA0223A8F80030A27870
S21400182CE37843EA02233B80237933704FF48270CB
S21400183C63792B7003F0B2FBB8F8002068494FF4BC
S21400184C827003F0ABFB3A8866494FF4827003F063
S21400185CA5FB327864494FF4827003F09FFB2A781C
S21400186C62494FF4827003F099FB61494FF4827021
S21400187C03F094FB25460026D346AB79E879DFF8CF
S21400188C988103F0010103F080022B7A8AF800108D
S21400189C43EA0023032743EA026343EA014389F839
S2140018AC0020544996FBF7F24FF482703E44C8F879
S2140018BC003003F073FB0F2E3D44DED14E49434DF2
S2140018CCDFF830A14FF4827003F068FB00266B7DC6
S2140018DCA87D03F0010103F08002EB7D8BF800106D
S2140018EC43EA002343EA026343EA014389F80020F3
S2140018FC514696FBF7F24FF482700336C8F8003068
S21400190C03F04CFB0F2E05F10305E0D13B49DFF845
S21400191C0CB12E4DDFF808814FF4827003F03EFBBD
S21400192C4FF00009DA4695F8243095F82500344F28
S21400193C03F0010103F0800295F826308BF80010B6
S21400194C43EA0023032643EA026343EA014388F88A
S21400195C0020284999FBF6F24FF48270B1443B60A4
S21400196C03F01CFBB9F10F0F3544DCD12549DFF829
S21400197C84904FF4827003F011FB002594F83330FA
S21400198C94F8340003F0010103F0800294F835302B
S21400199C8AF8001043EA002343EA026343EA014351
S2140019AC88F80020494695FBF6F24FF48270033512
S2140019BC3B6003F0F3FA0F2D04F10304DED1124959
S2140019CC4FF48270BDE8F84F03F0FABAF2560320D3
S2140019DCF05603203457032042570320675B04005D
S2140019EC765B0400805B0400895B0400975B040054
S2140019FCAC5B0400B65B0400BE5B0400C75B040073
S214001A0C3C570320D05B04008B5C0400405703203B
S214001A1C3557032055570320505703204C570320A7
S214001A2C5457032038B51F4B1A881F4B110A5A708F
S214001A3C1E4A19701288DA70110A1D4A99701178AC
S214001A4C1C4A127842EA01121A711B4A1B49127878
S214001A5C5A71084600229C18555CA57101320F2A53
S214001A6CF9D11522811811F8061C99540132242A32
S214001A7CF8D11349002208469C18555C84F824506B
S214001A8C01320F2AF8D13322811811F8241C9954EC
S214001A9C0132422AF8D1FFF7AFFE0348BDE83840C2
S214001AACFFF762BBBC390020F2560320BA3900207F
S214001ABCB7390020B83900200D2F0020C939002076
S214001ACCE739002070B5734B734C00221A702378DC
S214001ADC013B072B00F2DC80DFE803F0045C866A2F
S214001AEC94AA4E566D4D6E4C2E7800F011F96D4A38
S214001AFC6D49042313706D4A13706D4A13708E2350
S214001B0C0B70AE2323706B4B0E221A706A4B2E2270
S214001B1C1A700122DEB9D82000F008F901222146FD
S214001B2CD82000F003F90020FFF792FD634B1B78DA
S214001B3CA3B90121084600F077FF614B1B78C3B9A7
S214001B4C2978B1B90720BDE87040FFF7ADBDD020AD
S214001B5C00F0ECF801222146D020E2E7594C23781D
S214001B6C002BEAD10121084600F05EFF012323700A
S214001B7CE3E700210220E6E7534B1878FFF768FDF1
S214001B8C524B08201968DEE70020FFF761FD504B2A
S214001B9C1968EFE7414B44491B78012233B9D8202A
S214001BAC00F0C4F84FF4FA710420CCE7D020F7E725
S214001BBC3A4B484D1B783F4E042229467BB9D92018
S214001BCC00F0D0F8EA7833789A420AD042494FF4BB
S214001BDC827003F0F5F94FF47A712078B3E7D120D0
S214001BECEEE700210320AEE72C4B2D491B78012293
S214001BFC33B9D82000F09AF84FF4FA710520A2E712
S214001C0CD020F7E7254B354D1B782B4E0422294662
S214001C1C43B9D92000F0A6F8EA7833789A4203D074
S214001C2C2F49D4E7D120F5E74FF4FA7106208AE75E
S214001C3CFFF744FD2248194C0378042B05460FD8B1
S214001C4C22781AB90120207011467CE7042B07D0A5
S214001C5C012A05D10021013321700370012072E79F
S214001C6C00F0C8FDFFF7DEFE00232B702370134B2D
S214001C7C197811B9012000F0D7FE1A4B1C7814B154
S214001C8C194B1968EAE7FFF7E9F9214620465AE7A7
S214001C9C70BD00BF44570320C7390020B939002057
S214001CACFE2E0020B6390020FD2E0020B73900206D
S214001CBCB839002038570320375703200C5603201A
S214001CCCC6390020C83900200C2F0020082F002011
S214001CDC042F0020BE390020345B0400C2390020DB
S214001CEC475B0400053A0020002F0020014B1870BB
S214001CFC704700BF0C2F0020014B18600016704771
S214001D0C082F0020014B186000167047042F002087
S214001D1C10B5044C237823B9034800F085F801234A
S214001D2C237010BD063A0020102F00207FB501232B
S214001D3CADF80630094BADF8040002911868ADF802
S214001D4C0C2001A900F0C8F80530C0B205289ABFCF
S214001D5C034B185CFF2007B05DF804FB102F002027
S214001D6CD85B04007FB50223ADF80630094BADF8FE
S214001D7C040002911868ADF80C2001A900F0ACF82C
S214001D8C0530C0B205289ABF034B185CFF2007B07D
S214001D9C5DF804FB102F0020D85B040010B5044C33
S214001DAC237823B9034800F03FF80123237010BDB5
S214001DBC073A0020282F00207FB50123ADF8063007
S214001DCC094BADF8040002911868ADF80C2001A977
S214001DDC00F082F80530C0B205289ABF034B185C99
S214001DECFF2007B05DF804FB282F0020DE5B040004
S214001DFC7FB50223ADF80630094BADF8040002910E
S214001E0C1868ADF80C2001A900F066F80530C0B2D1
S214001E1C05289ABF034B185CFF2007B05DF804FB3F
S214001E2C282F0020DE5B040030B5044685B0012167
S214001E3C244806F089F92368234A93423FD002F5DA
S214001E4C8062934239D12148012106F07DF90123A5
S214001E5C0A226179207907F0A9F901230A22E1798F
S214001E6CA07907F0A3F9237930225A43184B134470
S214001E7C03F1C065092103F180630122607902FA3F
S214001E8C00F028606079013902FA00F01860F5D18C
S214001E9C20688DF800200323436423898DF80120E5
S214001EAC5BBA9BB2836423690293E3680193694629
S214001EBC237D8DF80C3007F001FA05B030BD0548CF
S214001ECCC2E700BF4041050000C00040009204007D
S214001EDC0CA000400082040038B5054607F006FB4F
S214001EEC044C012801D1013C00D138BD284607F02E
S214001EFC01FAF6E7E193040010B514494FF482702A
S214001F0C03F05EF8124B00241C70124B1C7002F08F
S214001F1C99FBA0420EDC104C02F094FB012812DD5B
S214001F2C012002F011FCC2B221460120BDE810408F
S214001F3C18F0FEBA204602F007FCC0B20028EAD021
S214001F4C01248440E8E70522EEE700BFE45B0400CA
S214001F5C083A0020093A002000F8FF07024B1870D8
S214001F6C02481AF063BD00BF0A3A002070570320DF
S214001F7C074B084A1978084B907803F8210003EBB6
S214001F8C8103D1785970117952799970DA7070474B
S214001F9C0B3A00200C3A00205C570320F7B5194981
S214001FAC194D1A4F1A4E4FF4827002F0F7FF0022AA
S214001FBC18494FF4827002F0F1FF00246119635D3A
S214001FCC4A7891F803C003EB02238A7812490A2058
S214001FDC02EB0C2293FBF0F392FBF0F23B603260C8
S214001FEC00924FF48270C4F38502043402F0D6FFDC
S214001FFC142CE3D109494FF4827003B0BDE8F040CD
S21400200C02F0DEBF075C04005C570320705700200C
S21400201C88570020135C04001C5C04008B5C0400D6
S21400202C00210120FFF79ABF00210846FFF796BF54
S21400203C034B0449186002464FF4827002F0C0BF8E
S21400204C402F0020375C04001FB50C4B0C481B6857
S21400205C8DF80F301A168DF80C201A148DF80D20EA
S21400206C1A120923009304238DF80E2003A91A468E
S21400207CFEF7A2FF05B05DF804FB00BF402F002062
S21400208C0D56032010B50C4C20780BF0C5FF082815
S21400209C0ED90A49207800230A220CF01FF8207863
S2140020AC0CF080F800210420BDE81040FFF756BF66
S2140020BC00210320F8E700BF442F00200C3A002034
S2140020CC37B5594B00221A70584B1B78062B00F26A
S2140020DCA980DFE803F00411425273846900544966
S2140020EC4FF4827002F06CFF00F042F9002003B04F
S2140020FCBDE83040FFF7ACBA4E494FF4827002F0A0
S21400210C5FFF4D4B4D494FF41652C3E9001240F693
S21400211C0B321A814FF4805200245A814FF0101261
S21400212C5A629C819C73DC731C745C749C74DC74A7
S21400213C1C75C3E906441C84414B022520461D70C1
S21400214C00F08EF82046FFF783FA41F288312846D5
S21400215C03B0BDE83040FFF701BF40F00FF9394B34
S21400216C05211860354807F087FC354B324918783E
S21400217C0CF078F8C8210320EAE740F0FFF8314B62
S21400218C1B68C01A43F69823984212D906230021DE
S21400219C0093012204232C48FEF70EFF00F0E8F80B
S2140021AC4FF47A710120D3E728494FF4827002F07D
S2140021BC07FF03B0BDE83040FFF764BF244B1A7826
S2140021CCAA2A05D15B7AAB2B02D100210520BFE7EA
S2140021DC20494FF4827002F0F3FE0021CBE7FFF7A4
S2140021ECC7FE1D4A1378042B06D801331370002142
S2140021FC0220FFF7B3FE79E7114B00241878147011
S21400220C0CF006F821460D4807F036FC00F0B0F846
S21400221C1248FEF797FFFFF7C1FEFEF727FF214691
S21400222C2046E6E703B030BD705703200A3A00207C
S21400223CD35A0400D55A04007857032000040140F2
S21400224C442F0020585703200D560320EF5B040044
S21400225C0C3A0020F65B04000B3A00205C57032077
S21400226CF8B5364F3649374C374E05464FF4827024
S21400227C02F0A6FE3B7863BB34494FF4827002F042
S21400228C9FFEFFF745FD022231492078FFF74EFDF1
S21400229C022230492078FFF749FD01233B70337842
S2140022ACCBB12D4F002D38D12C494FF4827002F053
S2140022BC87FE20230222284920787B70FFF736FD04
S2140022CC274B18883FF0CAFF022226492078FFF7D2
S2140022DC2DFD3378B3B9204E35BB20494FF48270B0
S2140022EC02F06EFE202302221B4920787370FFF743
S2140022FC1DFD1B4B18883FF0B1FF022219492078B0
S21400230CFFF714FD184BB5B901225A702078164900
S21400231C0222BDE8F840FFF709BD14494FF482705D
S21400232C02F04EFE0823C5E710494FF4827002F007
S21400233C47FE0823D7E70222E7E700BF163A00203D
S21400234C4D5C0400452F00200C560320545C040002
S21400235C173A0020482F0020502F00205E5C040007
S21400236C4C2F00204E2F0020462F0020635C0400CC
S21400237C38B5164D164C2B786BB9FFF7C9FC0222F4
S21400238C14492078FFF7D2FC022213492078FFF775
S21400239CCDFC01232B70114B1B787BB91049207890
S2140023AC142302224B70FFF7C1FC0E4B18883FF02B
S2140023BC55FF02220C492078FFF7B8FC20780B4911
S2140023CC0222BDE83840FFF7B1BC00BF163A002029
S2140023DC452F0020173A0020482F00200C560320CB
S2140023EC502F00204C2F00204E2F00204A2F00206C
S2140023FC044B1870044B0548012200211A701AF081
S21400240C15BB00BF1A3A00201B3A0020A057032029
S21400241C054B064A187001231370054A05481370BD
S21400242C00211AF003BB00BF1A3A0020193A00200C
S21400243C1B3A0020A057032037B5284B284C002207
S21400244C1A702378042B47D8DFE803F0030E1C24FD
S21400245C2E0024494FF4827002F0B2FD002003B027
S21400246CBDE83040FFF7F4B81F4B0121187800F098
S21400247CDBFA022323700021184803B0BDE8304075
S21400248C1AF0D4BA6420FFF7E3F80323237042F261
S21400249C1071F1E70020FFF7DBF8134B00211878DA
S2140024AC00F0C2FA0423E5E710494FF4827002F0FC
S2140024BC87FD052300930122042300210C48FEF718
S2140024CC7BFD0C4B1D781DB1002119702170D3E7D4
S2140024DCFFF74EFF2570CEE703B030BDA0570320A4
S2140024EC1B3A0020685C04001A3A0020705C04005A
S2140024FC0D560320193A002010B5044C23781BB94E
S21400250CFFF706FC0123237010BD00BF1C3A002009
S21400251C012202498020FFF709BC00BF522F002081
S21400252C022202498120FFF71DBC00BFAA570320D8
S21400253C012202498020FFF7F9BB00BF532F002071
S21400254C022202498120FFF70DBC00BFA8570320CA
S21400255C034B18785B7803F0FE0343EA00207047C1
S21400256CAA570320034B18785B7803F0FC0343EA66
S21400257C00207047A857032010EB401082B007D0FD
S21400258C044B99689A680192019A521A8242F9D3BE
S21400259C02B070470020044030B54A4B4A4C00222B
S2140025AC1A70237885B0042B67D8DFE803F0030C89
S2140025BC66146B00012323700021424805B0BDE869
S2140025CC30401AF033BAFFF797FFFFF7A1FF03234B
S2140025DC23701421F1E7FFF7A3FFFFF7B9FF7D2265
S2140025EC42434FF4803092FBF0F2063A52B237492F
S2140025FC374D4FF4827002F0D1FCFFF7A9FF354936
S21400260C02464FF4827002F0DBFCFFF791FF32209B
S21400261CFFF7B2FFFFF794FFFFF7A4FF07EE900A51
S21400262CB8EEE77ADFED2C7ADFED2C6A2C4927EE34
S21400263C277ADFED2C7AE7EE267A4FF48270FDEEE1
S21400264CE77ACDED037A9DF90C2002F0A7FCFFF794
S21400265C89FF254902464FF4827002F0B1FC2978B6
S21400266C69B1FFF775FFFFF7C1F8FFF77BFFFFF7C0
S21400267CB7F82B7883F001032B7005B030BD04231C
S21400268C23709AE7FFF764FF184D00122870FFF7C7
S21400269C5FFF6870FFF766FF0012A870FFF762FF17
S2140026AC0323E870009304231A4629461048FEF7C5
S2140026BC83FC104B1B78002BDFD00F4B19680023C4
S2140026CCDEE700BFAC5703201F3A0020805C0400F6
S2140026DC1D3A00208C5C040052B82F430000803753
S2140026EC9D5C040066663BC2AA5C0400F25603209E
S2140026FC0D5603201E3A0020542F002007B5FFF776
S21400270CFBFEFFF705FF1420FFF736FFFFF708FF69
S21400271CFFF71EFF7D2242434FF4803092FBF0F20F
S21400272C063A52B223494FF4827002F037FCFFF798
S21400273C0FFF214902464FF4827002F041FCFFF76E
S21400274CF7FE3220FFF718FFFFF7FAFEFFF70AFF37
S21400275C07EE900AB8EEE77ADFED187ADFED186A26
S21400276C184927EE277ADFED187AE7EE267A4FF42B
S21400277C8270FDEEE77ACDED017A9DF9042002F029
S21400278C0DFCFFF7EFFE114902464FF4827002F083
S21400279C17FCFFF7DDFEFFF729F8FFF7E3FEFFF760
S2140027AC1FF80B4A137883F00103137003B05DF81F
S2140027BC04FB00BF805C04008C5C040052B82F4302
S2140027CC000080379D5C040066663BC2AA5C040071
S2140027DC1D3A0020044B054801221A70044B0021B8
S2140027EC19701AF023B900BF1E3A0020AC5703200C
S2140027FC1F3A0020034B00221A70034B01221A705A
S21400280CFFF77CBF1E3A00201D3A0020014B002229
S21400281C1A7070471E3A002010B5044C23781BB96A
S21400282CFFF7BCFA0123237010BD00BF203A00202E
S21400283C012202498020FFF7BFBA00BF582F0020A4
S21400284C022202498120FFF7D3BA00BFB6570320F5
S21400285C012202498020FFF7AFBA00BF592F002093
S21400286C022202498120FFF7C3BA00BFB4570320E7
S21400287C034B18785B7803F0FE0343EA002070479E
S21400288CB6570320034B18785B7803F0FC0343EA37
S21400289C00207047B457032030B5424B424C002200
S2140028AC1A70237885B0042B79D8DFE803F0030779
S2140028BC7814590001232370002106E0FFF7ACFFC3
S2140028CCFFF7B6FF032323701421364805B0BDE886
S2140028DC30401AF0ABB8FFF7B3FFFFF7C9FF7D2205
S2140028EC42434FF4803092FBF0F2063A52B22F4934
S2140028FC4FF4827002F052FBFFF7BAFF2C490246E7
S21400290C4FF4827002F05CFBFFF7A2FF3220FFF759
S21400291C33FEFFF7A5FFFFF7B5FF07EE900AB8EEFC
S21400292CE77ADFED247ADFED246A244927EE277A4E
S21400293CDFED237AE7EE267A4FF48270FDEEE77A27
S21400294CCDED037A9DF90C2002F028FBFFF79AFFD9
S21400295C174902464FF4827002F032FB0423AAE7B2
S21400296CFFF786FF174D00122870FFF781FF68707F
S21400297CFFF788FF0012A870FFF784FF3023009340
S21400298C0423E8701A4629460F48FEF715FB0F4B32
S21400299C1B7823B10E4B19680023237095E705B0FE
S2140029AC30BD00BFB8570320213A0020BD5C0400A0
S2140029BC8F5C040052B82F4300008037CD5C0400B7
S2140029CC66663BC2F25603200D560320223A0020C0
S2140029DC5C2F0020044B054801221A70044B002182
S2140029EC19701AF023B800BF223A0020B8570320FB
S2140029FC213A0020014B1860704700BF5C2F002066
S214002A0C034B044800211970034B19701AF00EB8CA
S214002A1C223A0020B8570320213A0020014B00220E
S214002A2C1A707047223A002070B5194E3378054656
S214002A3C0C4643B9FFF76CF9022216494220FFF701
S214002A4C75F90123337065B1012D18D04CF2503056
S214002A5C3FF004FC022210494220BDE87040FFF70C
S214002A6C65B94CB1012CF1D10C492023022242202D
S214002A7C4B70FFF75BF9E9E708491023F6E724B13A
S214002A8C012CE3D105490823F0E704490423EDE7BC
S214002A9C233A0020243A0020602F0020622F0020CA
S214002AAC08B50F4B0F481B78C3600F4B1B78013BC8
S214002ABC03610E4B1B78643343610D4B1B788360AC
S214002ACC0C4B1B7843600C4B1B78036040F0AEF944
S214002ADC0A4BC3E9000103F04BFD0020002108BDA2
S214002AEC6C2F0020C85703206F2F0020712F00205A
S214002AFC6D2F00206E2F0020702F0020C057032053
S214002B0C07B50D490D4B0E4A09781B7812780091C3
S214002B1C4FF482700B4902F053FA0B490B4B0C4ADC
S214002B2C09781B78127800914FF48270094902F0EC
S214002B3C47FA03B05DF804FB712F00206F2F0020BE
S214002B4C6C2F0020DF5C0400702F00206E2F0020FE
S214002B5C6D2F0020F55C040037B51A4B1A4D1A7809
S214002B6C1A4C022A01BF2A68226001221A7003F04E
S214002B7CE7FC03F026FD23682860C01A144B186087
S214002B8C144BD3E90023141843F1000502A860E99E
S214002B9C02453FF0F1FE104BC2681A7003690F4AEB
S214002BAC0133137043690E4A643B13700D4B8268F5
S214002BBC1A700D4B42681A7002680C4B1A7003B0F0
S214002BCC30BD00BF2C3A0020343A0020303A0020AA
S214002BDC283A0020C05703206C2F00206F2F0020AF
S214002BEC712F00206D2F00206E2F0020702F0020DC
S214002BFC064A074B10781B78000240EA0340054B48
S214002C0C1B781843044B1860704700BF6E2F0020CB
S214002C1C6D2F0020702F0020682F0020064A074BCF
S214002C2C10781B78000240EA0340054B1B781843CB
S214002C3C044B1860704700BF6F2F0020712F0020C8
S214002C4C6C2F0020642F002008B50F4B82791A7069
S214002C5C0E4BC2791A700E4B027A1A700D4B427AD2
S214002C6C1A700D4B827A1A700C4BC27A1A70FFF7D8
S214002C7C17FF0B4B02221A7003F062FC03F0A1FC48
S214002C8C084B186008BD00BF712F00206F2F002066
S214002C9C6C2F00206D2F00206E2F0020702F002030
S214002CAC2C3A0020343A002008B5FFF7F9FEBDE8B0
S214002CBC0840FFF751BF00001FB5FFF74DFF124B42
S214002CCC1B788DF80830114B1B788DF80930104B9B
S214002CDC1B788DF80A300F4B1B788DF80B300E4B8B
S214002CEC1B788DF80C300D4B1B788DF80D30FFF7DC
S214002CFC07FF282300930622042302A90848FEF7A0
S214002D0C5BF905B05DF804FB712F00206F2F0020D7
S214002D1C6C2F00206D2F00206E2F0020702F0020AF
S214002D2C0D56032010B5054C23781BB9FFF7B8FEDB
S214002D3C01232370BDE81040FFF7BEBF2C3A0020DD
S214002D4C70B5134C8A00A31822449B781D09062DD7
S214002D5C98BF104E03F00F0394BF755DFF25062B2E
S214002D6C05719ABF0C4DEB5CFF234371FF3B18BFFC
S214002D7C01238371D37014F82130084C43705378B8
S214002D8C83700146204605F0F5F80123A36070BD5C
S214002D9C383A0020125D04000B5D04000020004051
S214002DAC7FB5224922480022FF23CDE901228DF867
S214002DBC093003784C6C8D6B03922C40E407DBB225
S214002DCC28D5022B26D88C6C1A4901EB8301A5B2A8
S214002DDCCE78194906B326041ED521F813201749B8
S214002DEC012202FA03F30A781343154A0B70137880
S214002DFCCBB100231478DC40E407D9B20FD50170B0
S214002E0C1078012404FA03F34340DBB201A81370D4
S214002E1CFFF796FF04B070BD21F81350DFE70133BF
S214002E2C032BE7D1F6E703230370F3E700200040FB
S214002E3C443A0020383A0020483A0020463A00200F
S214002E4C453A00200D490E4B10B5002A14BF0A4611
S214002E5C1A4604460B494FF4817002F09FF84FF463
S214002E6C817002F083F810B1204602F0BFF80649D4
S214002E7C4FF48170BDE8104002F0A2B8195D040052
S214002E8C225D04002F5D04008B5C0400012070475B
S214002E9C01207047012070470B2804D009280CBF6E
S214002EAC0120022070470020704700002DE9F043F7
S214002EBC85B04FF48073ADF80C3003F091F8012117
S214002ECC1548DFF85C80DFF85C9005F03DF90121D1
S214002EDC124805F039F90024012703AB0222E35C03
S214002EEC18F8336008EBC30330465D6801232946A7
S214002EFC06F05CF94946E8B203F080F8CDE90077B5
S214002F0C01232A462946304606F004F914B105B0CA
S214002F1CBDE8F0830124E0E74041050000350A00D7
S214002F2C345D0400BB2F000008B5FFF7B5FF022880
S214002F3C16BF024B0020185C08BD00BF4E3A00209E
S214002F4C08B5FFF7A9FF02281CBF014B195408BD92
S214002F5C4E3A002008B5FFF79FFF022805D0034A1B
S214002F6C135CB3FA83F35B09135408BD4E3A002086
S214002F7C08B5FFF791FF022811D00A4A12F8301054
S214002F8C30234B4302EBC00207491944536803EB4A
S214002F9CC1039B001868B0FA80F0400908BD0020F9
S214002FACFCE700BF345D04001CA01042704770B5EF
S214002FBC0446FFF7DDFF0026054601E000261D4609
S214002FCC2046FFF7D5FFA8420346F7D10136052E5B
S214002FDCF2D12046FFF7A8FFA8420BD02946204680
S214002FECFFF7AEFF2046FFF79FFF01462046FFF790
S214002FFCDDFF70BD2046FFF7ADFF2046FFF794FFC0
S21400300C01462046FFF7D2FF2046FFF7A3FFE9E76D
S21400301C08B52021002001F0D3FC38B1044A05493C
S21400302C4FF48170BDE8084001F0B8BF08BD00BF82
S21400303C445D0400515D040010B596B05622002184
S21400304C074C68463FF010FE68461AF0DBFC20463C
S21400305C1022694607F0E0F9204616B010BD00BFF6
S21400306C513A0020024B1870024819F0DFBC00BF22
S21400307C8E3A0020EC57032008B5114B1B78053B05
S21400308C012B04D940F285210E4806F05DFF4FF463
S21400309C81700D4901F082FF4FF4817001F066FFDC
S2140030AC10B10A4801F0A2FF09494FF4817001F0F3
S2140030BC87FF00210420BDE80840FFF7D3BF00BF00
S2140030CC8E3A0020DC5D0400F75D04007E3A00209A
S2140030DC8B5C0400F0B5284B1F8893B022237F220C
S2140030EC05460C4609A8394607F09AFABDF844205E
S2140030FC4FF6FF739A4234D1204B6A4603F1200CEC
S21400310C18685968164603C6083363453246F7D125
S21400311C1B783370002323702378072B14D90022D6
S21400312CEA5417494FF4817001F04AFF2278ADF843
S21400313C4420294609A807F06FF9222209A9384627
S21400314C07F092FA13B0F0BD07F028FD12AA00F0B3
S21400315C1F001044237810F8482CEA5423780133C7
S21400316CD9E7227009A9D2B2284607F055F9237878
S21400317C0022EA54E6E700BFCA840400DB5E0400C3
S21400318CC15E040030B597B008AD38220021284641
S21400319C3FF06AFD1AF00EFB024600685168284C98
S2140031AC04AB03C3FEF734FA03228DF81C202278F6
S2140031BC002310F1FF3018BF01208DF819308DF860
S2140031CC1A308DF81B308DF81D30052A4FF0010390
S2140031DC8DF818008DF81E3004D040F245211948A1
S2140031EC06F0B2FE4FF48170174901F0D7FE4FF48B
S2140031FC817001F0BBFE10B1144801F0F7FE1449C3
S21400320C4FF4817001F0DCFE124B01930F230093F8
S21400321C114A029504AB02210C4830F0EDFB024635
S21400322C28B901460620FFF71DFF17B030BD0B4925
S21400323C4FF4817001F0C4FE094B20781968F2E750
S21400324C8E3A0020DC5D0400445F04007E3A0020C9
S21400325C8B5C040089320000CB5D04005C5F0400CC
S21400326C742F002008B504494FF4817001F0A8FEB5
S21400327CBDE808401AF058BD785F040010B5124B34
S21400328C1B78062B1FD100F0FD0001280F4C0BD12C
S21400329C002323702378022B11D80D4B05201968B8
S2140032ACBDE81040FFF7DEBE22780A490132D2B2E2
S2140032BC03234FF48170227001F082FEEAE7BDE82A
S2140032CC1040FFF7D9BE10BD8E3A0020503A0020B1
S2140032DC742F00201B5F0400234B10B500241C70B9
S2140032EC052839D8DFE800F003153E2133180229EB
S2140032FC06D11E494FF48170BDE8104001F060BE47
S21400330C1B4B1B7873B300210820BDE81040FFF759
S21400331CA9BE00210120F8E7032923D115494FF453
S21400332C8170BDE8104001F04BBE134B1A78012A91
S21400333C10D0124C124B022A18BF1C46FFF77CFE0C
S21400334C224603460F494FF4817001F039FE0021E6
S21400335C0420DAE70C4CF1E7F8210C48BDE81040E5
S21400336C06F0F2BD10BD00BFEC570320355E04001E
S21400337C722F00204F5E04008E3A00202E5E040052
S21400338C105E0400675E0400195E0400DC5D040039
S21400339C10B50C4B1B78012B044604D04FF48671E9
S2140033AC094806F0D1FD5CB1224608494FF48170FD
S2140033BC01F006FE00210220BDE81040FFF752BEC9
S2140033CC10BD00BF8E3A0020DC5D0400A55E040034
S2140033DC08B51AF0F3F9014620B90220BDE80840FA
S2140033ECFFF740BE08BD000000B58BB00DF1030121
S2140033FC01A8FFF76FFE01AA03494FF4817001F094
S21400340CDFFD0BB05DF804FBFC5E040008B502465D
S21400341C58B106494FF4817001F0D2FD044B0021DF
S21400342C1878BDE80840FFF71DBE08BD775E04009F
S21400343C8E3A0020034B1B78052B01D1FFF7A2BE5A
S21400344C704700BF8E3A0020034B1B78053B012BC0
S21400345C01D8FFF711BE70478E3A002020B90349F9
S21400346C4FF4817001F0ACBD704700BF915E040054
S21400347C0020704770B5814B814D00221A702B7856
S21400348C013BA6B0092B00F2F380DFE813F07B00BB
S21400349C8600F100C300EB003A00EE000A00620062
S2140034AC780078494FF4817001F08AFD764B002441
S2140034BC1C70764B1B78012B25D17549754D764EB5
S2140034CC4FF4827001F06AFD2A5D31464FF482702B
S2140034DC013401F063FD102CF6D170494FF4827064
S2140034EC01F06EFD6E4B029300216E4B0193CDE9FD
S2140034FC035141F22A536C4A0093192023461CF0C0
S21400350C3DFD26B070BD022BFBD16149674D624E66
S21400351C4FF4827001F042FD2A5D31464FF4827002
S21400352C013401F03BFD102CF6D15C494FF482704F
S21400353C01F046FD5E4B5F4A18785F4B0293002104
S21400354C5E4B0193CDE903515D4B1B8800932346DC
S21400355CD5E74E4B197801290AD10A4611200221CB
S21400356C1CF088FE41F288310A20FFF77BFDC8E785
S21400357C0229F7D1534B012293F90000F0E71DF016
S21400358CDBF9BEE7FFF758FD4F4902464FF4817052
S21400359C01F016FD1AF0D0FBB3E75622002110A856
S2140035AC3FF062FB2122002107A83FF05DFB1022B2
S2140035BC464910A806F030FF02238DF863300DF153
S2140035CC9501112307A88DF86430FFF783FD9DF84D
S2140035DC952007A90DF1750006F01EFF4FF48170BB
S2140035EC3A4A3B4901F0DAFC4FF4817001F0BEFC1C
S2140035FC18B11AF0DFF801F073FD07AA35494FF43D
S21400360C817001F0DDFC344A40F2311110A81CF038
S21400361C6BFE76E731491C4C4FF4817001F0D0FC00
S21400362C1A4B1A786AB1217802290AD921490978E5
S21400363C39B1012A12D102221A7000232370FFF727
S21400364C11FE227826490132D2B24FF482702270D3
S21400365C01F0B6FC4EF66021287886E7022AF0D1F7
S21400366C0122E9E7FFF78EFD4BE7FFF7FBFD48E786
S21400367C4FF447711B4806F067FC42E7EC570320F3
S21400368C8E3A0020905F0400623A0020722F0020D1
S21400369CA15F0400992F0020AF5F04008B5C040030
S2140036AC912F0020B92F0020A92F0020802F00205A
S2140036BC633A0020643A0020782F0020763A0020E7
S2140036CC743A0020902F0020B35F04000B5F0400B8
S2140036DCD65F0400F75F040000F8FF070A600400DA
S2140036EC35600400DC5D04001FB51AF063F8024672
S2140036FC0068516802AB03C30822022300930DEB4B
S21400370C02010348FDF758FC05B05DF804FB00BF4A
S21400371C7E3A002010B51D4B1B78042B044604D0B3
S21400372C40F2C7111A4806F00FFC10222146194821
S21400373C06F072FE184B194800221A702146102209
S21400374C06F06AFE4FF48170154901F027FC4FF421
S21400375C817001F00BFC10B1204601F047FC1149BA
S21400376C4FF4817001F02CFCFFF7BEFF0E4B1B785C
S21400377C022B04D1FDF78EFC08B9FDF77BFC00216B
S21400378C0520BDE81040FFF76DBC00BF8E3A002048
S21400379CDC5D04007E3A0020503A00200D560320D3
S2140037ACB45D04008B5C0400722F00201FB50E4B1A
S2140037BC079C1B78042B14D104F11000FFF7AAFF0A
S2140037CC44214B09022B02D02378FF2B07D0002371
S2140037DCCDE9013300931A46204630F051FB04B075
S2140037EC10BDA321EDE700BF8E3A00201FB50D4B90
S2140037FC1B78042B0CD10021102268463FF034FABB
S21400380C6946002001F0B0F828B16846FFF782FF41
S21400381C05B05DF804FB04494FF4817001F0D0FB51
S21400382CF6E700BF8E3A0020A45D04001FB50C4BD3
S21400383C0C481B688DF80F301A168DF80C201A14CD
S21400384C8DF80D201A122223009304238DF80E20D7
S21400385C03A91A46FDF7B0FB05B05DF804FB00BFE4
S21400386C742F00207E3A0020014B1860FFF7DEBF55
S21400387C742F0020024B00221A701AF045BB00BFB2
S21400388C623A002000B59BB05622002104A83FF0F7
S21400389CEBF904A81AF0B6F81AA99DF8333001F81B
S2140038AC5C3D23230093012204230348FDF784FB8D
S2140038BC1BB05DF804FB00BF7E3A002000210920F7
S2140038CCFFF7D0BB08B5044B1870FFF7BDFDBDE87D
S2140038DC0840FFF7C7BC00BF722F002010B5074C7E
S2140038EC01461022204606F097FD224604494FF466
S2140038FC8270BDE8104001F063BB00BF643A002044
S21400390C775D0400F7B501460822684606F084FD8C
S21400391C1249134D134E144F4FF4827001F03EFBB8
S21400392C00241DF80420625531464FF4827001F0D5
S21400393C35FB04F0FD03012B01D0052C04D13946D0
S21400394C4FF4827001F02AFB0134082CE9D10749A8
S21400395C4FF4827001F034FB03B0F0BD9A5D0400A6
S21400396C763A002067580400F17804008B5C04005B
S21400397C034B0449188002464FF4827001F020BBBA
S21400398C743A0020895D0400034B04491870024603
S21400399C4FF4827001F014BB633A0020565D0400AD
S2140039AC70B5014610220D480C4E0D4D06F034FD38
S2140039BC0C494FF4827001F0F1FA0024325D29466E
S2140039CC4FF48270013401F0E9FA102CF6D1064956
S2140039DC4FF48270BDE8704001F0F2BA802F0020E0
S2140039ECAF5F0400675D04008B5C0400FFF740BD0E
S2140039FC00F06CB800F06BB800F06BB800F06BB869
S214003A0C08B500F019FE01F02BFF00F065F808F081
S214003A1C39FF09F0F3FBBDE8084012F0BDBC08B551
S214003A2CFFF7F6FA07F0BCFA07F0A6FB19F042FE11
S214003A3C00F053F8BDE8084009F094BF08B500F054
S214003A4C49F80BF08DFE0DF06DFE10F081FABDE816
S214003A5C08400EF035BB70B504460D461646FFF70B
S214003A6C3BFC32462946204608F02EFF32462946B5
S214003A7C20460DF093FB3246294620460DF01CFFDF
S214003A8C3246294620460FF0A7F8324629462046ED
S214003A9CBDE8704010F062BA00F068B82DE9F3414A
S214003AAC089C009405460E461746984600F060F8AB
S214003ABC43463A4631462846089402B0BDE8F041E3
S214003ACC10F082BA00F05BB8704770477047012060
S214003ADC70477047704770477047704770470020B4
S214003AEC704770477047002070477047704708B99A
S214003AFCFFF7C8BE7047704770477047704708B9E5
S214003B0CFFF7DCBE70477047704770470020704761
S214003B1C70477047704770471FB504A9212301F8FA
S214003B2C040D0122009303480423FDF745FA05B063
S214003B3C5DF804FB0D560320704770477047002055
S214003B4C7047704700207047704770477047704743
S214003B5C704770477047704714F0A4B810B4BDF89F
S214003B6C084002945DF8044BFCF7B4BF0120704784
S214003B7C704786207047862070477047704770479E
S214003B8C81210EF0BBB981210EF0B8B981210EF05F
S214003B9CB5B981210EF0B2B981210EF0AFB98121F1
S214003BAC0EF0ACB91FB5064B0193064B0292009370
S214003BBC00220B4604490EF03FF905B05DF804FBF5
S214003BCCB06E0400A06E04000A7104001FB5064B0C
S214003BDC019300230292009301220B4603490EF038
S214003BEC2BF905B05DF804FB906E04000A71040016
S214003BFC1FB5064B0193064B0292009302220B460E
S214003C0C04490EF019F905B05DF804FB806E04004B
S214003C1C706E04000A7104001FB5064B0193064B28
S214003C2C0292009340220B4604490EF005F905B0AB
S214003C3C5DF804FBD86E0400C06E04000A71040024
S214003C4C1FB5064B02920022019300920B460449C4
S214003C5C0EF0F2F805B05DF804FB00BF006F040030
S214003C6C167104001FB5064B0193002302920093B5
S214003C7C01220B4603490EF0DFF805B05DF804FB95
S214003C8C386F0400167104001FB5064B0193002311
S214003C9C0292009302220B4603490EF0CDF805B0B3
S214003CAC5DF804FB886F0400167104001FB5064B04
S214003CBC0193064B0292009340220B4604490EF0E9
S214003CCCBBF805B05DF804FB286F0400106F040009
S214003CDC167104001FB5064B019300230292009345
S214003CEC41220B4603490EF0A7F805B05DF804FB1D
S214003CFC486F0400167104001FB5064B0193064B63
S214003D0C0292009342220B4604490EF095F805B039
S214003D1C5DF804FB786F0400586F040016710400FD
S214003D2C07B5054B0093054A054B064800210DF0D8
S214003D3CFDFE03B05DF804FBBCA60400A06E0400F8
S214003D4CB13B00000A71040007B5054B0093002236
S214003D5C044B054801210DF0E9FE03B05DF804FBA9
S214003D6C8B5C0400D93B00000A71040007B5054BB8
S214003D7C0093054A054B064802210DF0D7FE03B00A
S214003D8C5DF804FB1B9B0400706E0400FD3B0000FA
S214003D9C0A71040007B5054B0093054A054B064807
S214003DAC40210DF0C3FE03B05DF804FBA4690400CB
S214003DBCC06E0400253C00000A71040007B5054BD4
S214003DCC00930022044B054811460DF0AFFE03B0DD
S214003DDC5DF804FB8B5C04004D3C0000167104007F
S214003DEC07B5054B00930022044B054801210DF046
S214003DFC9DFE03B05DF804FB8B5C0400713C000078
S214003E0C1671040007B5054B00930022044B0548B9
S214003E1C02210DF08BFE03B05DF804FB8B5C0400F6
S214003E2C953C00001671040007B5054B0093054A37
S214003E3C054B064840210DF079FE03B05DF804FBF7
S214003E4CA4690400106F0400B93C0000167104004D
S214003E5C07B5054B00930022044B054841210DF095
S214003E6C65FE03B05DF804FB8B5C0400E13C0000CF
S214003E7C1671040007B5054B0093054A054B06481A
S214003E8C42210DF053FE03B05DF804FB0D690400EF
S214003E9C586F0400053D0000167104001FB5064B54
S214003EAC0193064B0292009301220B4604490DF037
S214003EBCC3FF05B05DF804FBF86F0400C86F040080
S214003ECC227104001FB5064B0193064B0292009319
S214003EDC06220B4604490DF0AFFF05B05DF804FB57
S214003EEC4870040020700400227104002DE9F04F85
S214003EFCA5B080468A46002006A900F035FD50B9CC
S214003F0C4FF482704B4B4C4A4C4901F059F8022046
S214003F1C25B0BDE8F08F0021012000F085FC16AF1F
S214003F2C382200218146002438463EF09DFEADF82E
S214003F3C164000F087FB02286ED90DF11601022000
S214003F4C00F0A2FC064600F07DFB032806D92146AD
S214003F5C032000F069FC03788DF88C30384C22680E
S214003F6C4FF6FF739A420AAD58D036494FF482701A
S214003F7C01F026F822680C2128462FF0D3FF0124E6
S214003F8CDFF8D8B0DBF800204FF6FF739A420CD05F
S214003F9C2D494FF4827001F013F805EB0410DBF892
S214003FAC002011212FF0BEFF0134DFF8B4B0DBF88F
S214003FBC00204FF6FF739A420CD024494FF48270BF
S214003FCC00F0FEFF05EB0410DBF8002017212FF0A5
S214003FDCA9FF01341C958DF87440BAF1000F0ED071
S214003FEC41F2346106A80EF071F8C8B1184B219353
S214003FFC41F234632290ADF86A30ADF86C30154B54
S21400400C0193BDF816300093029733464A46414654
S21400401C06A82FF0F1FC7BE726469FE70024AFE7C7
S21400402C4FF482700C4B044A044900F0C9FF01207F
S21400403C6EE700BF2871040033710400377104006A
S21400404CE42F00203E7104005971040073710400C3
S21400405CCD0003007140000091710400DC2F00209D
S21400406CE02F00202DE9F0439BB004460E464FF49B
S21400407C82705F49BDF8885090461F4600F08EFF50
S21400408C20462FF017FA5B4902464FF4827000F078
S21400409C85FF002C56D030462FF0E4F955490246E1
S2140040AC4FF4827000F07AFF0022114640462FF043
S2140040BCA8FA431C064626D06422002101A83EF02E
S2140040CCD3FDB0B2632845D90130002180B217F079
S2140040DCE7FE002842D017F041FB4FF000090446DB
S2140040ECB2B2214640462FF08CFA224642494FF493
S2140040FC827000F053FFB9F1000F04D03F494FF423
S21400410C827000F04BFFEDB101AA0C2140462FF057
S21400411C65FA40B3019C20462FF0B8F938490246A0
S21400412C4FF4827000F03AFF0CB1282C1ED14FF4DD
S21400413C827000F01BFF28B12A4639464FF4827075
S21400414C00F0B0FF2F494FF4827000F039FF1BB01F
S21400415CBDE8F0834FF0000901ACC1E74FF0010950
S21400416C01AC6326BCE74FF0FF34D4E73C2C03D0FD
S21400417C4FF628639C4233D100214FF4806017F031
S21400418C8FFE28B920494FF4827000F019FFD9E74A
S21400419C17F0E4FA2946044602464FF48063384684
S2140041AC0BF0E8F8194F204485B200262B1B9BB267
S2140041BC802B06D8224615494FF4827000F0EEFE8E
S2140041CCC0E794F8808084F88060224639464FF425
S2140041DC827000F0E3FE06F0DDFA04F8808FE5E767
S2140041EC00232A4639464FF4827000F067FFA9E791
S2140041FCB97104004D8D0400C37104006273040091
S21400420CC97104008B5C0400D27104004E8D04004E
S21400421C1FB50020694600F0A7FB48B9094B0A4AAF
S21400422C0A494FF4827000F0CBFE05B05DF804FB33
S21400423C694641F2336028F04CFD054A05490346B1
S21400424CEFE700BF287104003371040037710400D7
S21400425CC5690400B171040010B500210120FFF7F8
S21400426C45FE044A04490346BDE810404FF48270EC
S21400427C00F0A6BEAF6A0400B171040010B50021B0
S21400428C0220FFF733FE044A04490346BDE81040FB
S21400429C4FF4827000F094BEB36A0400B17104004F
S2140042AC10B500210320FFF721FE044A04490346FB
S2140042BCBDE810404FF4827000F082BEBD6A040068
S2140042CCB171040010B500210420FFF70FFE044A5C
S2140042DC04490346BDE810404FF4827000F070BEEF
S2140042ECA86A0400B1710400012110B50846FFF756
S2140042FCFDFD044A04490346BDE810404FF48270A5
S21400430C00F05EBEAF6A0400B171040010B5012166
S21400431C0220FFF7EBFD044A04490346BDE81040B3
S21400432C4FF4827000F04CBEB36A0400B171040006
S21400433C10B501210320FFF7D9FD044A04490346B2
S21400434CBDE810404FF4827000F03ABEBD6A04001F
S21400435CB171040010B501210420FFF7C7FD044A13
S21400436C04490346BDE810404FF4827000F028BEA6
S21400437CA86A0400B171040008B5002000F0E4F946
S21400438C014B186008BD00BFDC2F002008B50020CC
S21400439C00F0DAF9014B186008BD00BFE42F0020CE
S2140043AC70B5012000F0D0F90128124C03D94FF655
S2140043BCFF73236070BD002000F0C6F97F28F6D886
S2140043CC022000F0C1F9B0F1805FF0D2012000F0BD
S2140043DCBBF90546002000F0B7F90646022000F0AF
S2140043ECB3F90246281CF1B218BF01202FF084FD49
S2140043FC2060DFE7E02F00202DE9F04F074685B060
S21400440C08460D46904699463FF04BF8BDF838A046
S21400441C0F9E204C8346636853B9CDE90133009355
S21400442C1A46842130462FF02BFD05B0BDE8F08FE0
S21400443C22892078991811F8011C2F2904BF02F143
S21400444CFF3292B208B1B84221D12F291DD1934523
S21400445C06D3A95CB9B12F2914BF0021012100E0B5
S21400446C0021A1B1294618463FF023F878B9CDE9CA
S21400447C0EA6E4684B46424629463846A44605B086
S21400448CBDE8F04F60470121EBE79345E4E71034B5
S21400449CC1E700BFF46A0400002070470020704794
S2140044AC70477047F8B50546846802681B4920209B
S2140044BC09F0ADF96B68DBB1194D1A4E1A4F013C79
S2140044CC14F8013FC3B1752B1CD0762B1CD0772B60
S2140044DC1CD0732B1CD0622B1CD06E2B1CD01349FB
S2140044EC134A2A2B18BF1146202009F090F9E7E74B
S2140044FC1049202009F08BF90F492020BDE8F84020
S21400450C09F085B92946EFE73146EDE73946EBE782
S21400451C0A49E9E70A49E7E70A49E5E7F2800400B1
S21400452C367304002A730400417304006973040094
S21400453C6673040062730400277304004D73040052
S21400454C577304006173040013B50446FFF7AAFF03
S21400455C01A9204600F020FA18B1084C019B1B68F4
S21400456C0BB902B010BD2146202009F050F9019875
S21400457CFFF798FF019B0C330193EFE7B3AC0400F5
S21400458C08B50449202009F042F92020BDE808406F
S21400459C09F0D1B91872040038B5FFF7F1FF064DD3
S2140045AC002460190C34631953F80C3C03B938BD5D
S2140045BCFFF778FFF5E700BFDC620400094B10B587
S2140045CC53F820200C462020074909F020F944B166
S2140045DC0649202009F01BF92046BDE81040FFF7DD
S2140045ECB3BF10BDF8710400E2710400EE71040054
S2140045FC00230370A0F8663080F88630C0F8903040
S21400460C4FF07F42A0F88C300A23C0F8882080F840
S21400461C8E307047074B00224FF07F411A70A3F87C
S21400462C662083F88620C3F8881083F88C20C3F89D
S21400463C90207047F45703200148FFF7D9BF00BFFE
S21400464CF4570320034B93F8860093F88C30C01A6B
S21400465CC0B27047F4570320034B03EB4000013302
S21400466CB0F8660018447047F4570320044B03EB6D
S21400467C400292F8680092F86630C01AC0B27047D2
S21400468CF4570320044B03EB4002B2F86800B2F870
S21400469C6630C01A80B27047F4570320054A92F869
S2140046AC8C30184440B202EB40000132B0F8663051
S2140046BCD05C7047F45703202DE9F047204C054694
S2140046CC94F88C002844C0B243B204EB43030E4665
S2140046DCB3F86680FFF7CAFF8146FFF7B3FFA84220
S2140046EC94F88E7003D8D521164805F02DFC4FF0A3
S2140046FC000A55465FFA8AF399451CD90AEB08025C
S21400470C2244507816B10BB92D280DD000F0DF02DC
S21400471C582A03D115B9013B012B0FD918F062FEAC
S21400472C874204D905FB07050AF1010AE2E70523CF
S21400473C84F88A3000252846BDE8F0871027F3E772
S21400474CF4570320DB73040010B5164991F88E302D
S21400475CFF2B044621D1FFF789FF64B201EB44041A
S21400476C0246B4F866004B1C012A00EB030101D18B
S21400477CC05C10BD022A03D1084618F039FDF8E7D4
S21400478C042A04D10020BDE8104018F05FBD06488E
S21400479CF92105F0D9FB0020EBE70021BDE810401D
S2140047ACFFF78ABFF4570320DB73040038B51C49A7
S2140047BC91F88E30FF2B044623D1FFF757FF64B2D7
S2140047CC01EB440402464B1CB4F86600012A00EBCD
S2140047DC0301C45601D1204605E0022A04D108463E
S2140047EC18F006FD00B238BD042A04D10020BDE83E
S2140047FC384018F02BBD4FF48A710A4805F0A4FB1C
S21400480CE9E7FFF74BFFA0F12D0359420546594146
S21400481C2046FFF751FF2D2D08BF4042E3E700BFAF
S21400482CF4570320DB730400F8B5164B93F88E2070
S21400483CFF2A04461D4603F101060CD121B1C0B275
S21400484CFFF714FF0138087005EB4404B4F8660053
S21400485C01303044F8BD93F88C002044C0B242B20C
S21400486C03EB4203E543B3F86670ED0FF41939B168
S21400487CFFF7FCFEF35D401B222B08BF01380870C7
S21400488C6019E7E7F4570320F8B5164B93F88E201B
S21400489CFF2A04461D4603F101060CD121B1C0B215
S2140048ACFFF7F0FE0238088005EB4404B4F8660007
S2140048BC02303044F8BD93F88C002044C0B242B2AB
S2140048CC03EB4203E543B3F86670ED0FF41939B108
S2140048DCFFF7D8FEF35D401B222B08BF013808807B
S2140048EC6019E7E7F45703202DE9F3410D460DF167
S2140048FC0701904607461C46FFF796FF0646F8B299
S21400490CFFF7CCFEA0F122035F429DF807105F4133
S21400491C3944C9B2414528BF41468DF807101CB131
S21400492CCCB2A8EB0404E4B222462846002105F0DB
S21400493CFDFD28199DF80720314605F06DFD9DF804
S21400494C0700C01BC0B202B0BDE8F08113B501234E
S21400495C0C4608226946FFF7C7FF08226946204620
S21400496C18F095FC02B010BD10B540B20C460021F4
S21400497CFFF75AFF2146BDE810401EF010BA38B5B6
S21400498C40B20C4615460021FFF74EFF2A4621463C
S21400499CBDE838401EF016BA08B5D0E9012312B9A6
S2140049AC0B60012008BD1B786E2B04D14FF4D87118
S2140049BC024805F0C9FA0020F4E700BFDB730400D8
S2140049CC2DE9F04FA24C97B0814688460026B9F1E7
S2140049DC000F0DD10DF113015FFA88F008F0A4FF5B
S2140049EC90B1262800F0B281012384F88A3051E079
S2140049FCB8F1000F00F0AA8119F8013B8DF81330BE
S214004A0C08F1FF381FFA88F894F88D309DF813508B
S214004A1C84F88D500D2B01D10A2DD8D00D2D0CD02D
S214004A2CA5F10A035F425F4123783E46042BCED89D
S214004A3CDFE803F0051A244232000127F4E7002FC2
S214004A4C5BD1202D00F06581222D08D10223237026
S214004A5CB4F88820642A40F05E810623C5E77B2DD7
S214004A6C0CBF03230123F2E70FB9202DF0D194F8E5
S214004A7C86300F2B40F03E810323B6E7222D03D160
S214004A8C00238DF81330E3E7002FE1D0052384F8DC
S214004A9C8A30012604232370002E98D094F88A00BE
S214004AAC18B1D4F89010FFF789FDFFF7B3FD9DF809
S214004ABC133084F88D308AE77D2D94F88BA004D1C2
S214004ACCBAF1FF0FD3D005238FE7284618F08AFCDF
S214004ADC0F280FD8BAF1FF0F09D094F88B3000EBE3
S214004AEC0310FF238DF8130084F88B30B0E784F89E
S214004AFC8B006CE7202DE6D169E7564B059394F8AE
S214004B0C8630002BC5D0002778B2059DFFF7A4FD94
S214004B1C82463846FFF7AAFD0022029016469346B8
S214004B2C296861B9E2B10591022384F88A3094F8B9
S214004B3C8A30002BADD1059B5B689847A9E70B78AC
S214004B4C43B34B1E0193D446019911F8013F0191D2
S214004B5C0299ACEB0A0088423ED1002B3DD1AB4605
S214004B6CCDF814B0BBF1000FDED094F88C30C4F83E
S214004B7C90B00137013305A95846FFB284F88C3043
S214004B8CFFF70AFF002844D094F88630BB42BBD807
S214004B9C0323CAE70F2EAB6808D94FF480712E4852
S214004BAC0392019305F0D0F9039A019B16A901EB29
S214004BBC86010C35013641F8405CF6B21D462B6872
S214004BCC002BADD1002EABD0013EF6B216AB03EBEC
S214004BDC860353F8405CA3E72BB9BBF1000F16D045
S214004BEC01220C35EBE71CF8010BA0F1410EBEF1CF
S214004BFC190F98BF2030A3F1410E98BFC0B2BEF17A
S214004C0C190F9CBF2033DBB283429DD0E9E7AB463D
S214004C1CE7E7059B9B681B783F2B88D00646054626
S214004C2C4FF0070A4FF0040B40E010460293019237
S214004C3CFFF734FD029B019A732B0FD8712B11D200
S214004C4C002B55D0622B4BD084F88AA020E000BFF6
S214004C5CF4570320DC6204005E740400A3F17501B3
S214004C6C0229F1D8752B34D0762B34D0732B35D053
S214004C7C722B47F6FF7318BF4FF0FF330121104617
S214004C8C0193FFF719FD019B984201D984F88AB06D
S214004C9C059B9B682B4401365B782A2B94F88A304C
S214004CAC1CBF0135EDB2002B7FF4F3AE059B94F8D8
S214004CBC86C09968F2B2B818C0B284454B5DB4D8B9
S214004CCC002B3FF434AF0D446B782A2B7FF460AF87
S214004CDC2DE7FF23D2E74FF6FF73CFE77F23CDE711
S214004CEC2228D5D07B28D3D0052384F88A30CFE76A
S214004CFC0323FAE70133DBB284F8863004EB430374
S214004D0CB4F88820A3F8662000232370002F7FF4C5
S214004D1CF4AE3E465BE62178012909D19DF81330A6
S214004D2CA3F1410019289CBF2033DBB28DF8133059
S214004D3CA0189DF81330437001320229A4F888207D
S214004D4C7FF445AE002B3FF492AE40E6304617B0EB
S214004D5CBDE8F08F012270B51146042003F0C8FBA5
S214004D6C1A4B1B4D1A681B4842F001021A60DA688F
S214004D7C4FF0604442F08072DA60174BC4F8B03FD4
S214004D8C00260223C4F8006EC4F8806EC5F8F03016
S214004D9C03F0BAFA00F5D520104B114A00F2FC408D
S214004DACB0FBF3F00F4B01382861C4F8406E1A6064
S214004DBC0D4BC4F8803E4FF48073C5F80433D4F81A
S214004DCC003E43F48073C4F8003E70BDF0ED00E086
S214004DDC000004E006000E0055CEACC5F8590D00D8
S214004DECFF030040001000E00D00010010B501218B
S214004DFC114803F0A9F9114B01241C60002004F0A3
S214004E0C7DF9234604220221052004F0CFF9204622
S214004E1C18F0A2F9FFF79EFF18F0A4F9084B1C70C7
S214004E2C09F0BAFB234640220649074809F08AFBDC
S214004E3C064B1860C00F10BD00350A0010881442CF
S214004E4C8F3A0020903A0020DC740400E82F0020F3
S214004E5C024B1868003018BF01207047F0ED00E0D8
S214004E6C054A4170D12303701378C370090A817008
S214004E7C591C117004207047D03A00202DE9F74FCA
S214004E8C0E78042E81460F4658D93DF07EFA751DD5
S214004E9CDFF8ACA0EDB280464FF6FF710024DAF8CE
S214004EAC00305BB1A54209D901913DF06EFAA0EB3A
S214004EBC080080B2B0F5FA7F019907D9281B18BFF5
S214004ECC012004233B7003B0BDE8F08F64B3012CC3
S214004EDC2ED0EB1E04F1010B9C425FFA8BFB12D119
S214004EECCCB24FF06043D3F8802ED00709D5D3F858
S214004EFC002ED20505D51846026A002AFCD083F887
S214004F0C20405C46CBE7AB1E9C4202D1C1F3072483
S214004F1CE7E76B1E9C420FD04C4414F8024C20461C
S214004F2C05F020F90146DCE75B244FF0010BD8E7CF
S214004F3C34464FF0020BD4E75D24D2E70020C0E7DE
S214004F4CF0ED00E000B5084B91B0402269461868B9
S214004F5C09F0E6FA20B1C2B26946122018F014F92C
S214004F6C11B05DF804FB00BFE82F0020094B188039
S214004F7C4FF6FF73984209D0030A012B08D8064A4D
S214004F8CD35C034214BF01200020704701207047F9
S214004F9C00207047D23A0020EC2F00200EB417B534
S214004FAC05AC54F8041B0194FFF7E0FF18B1224639
S214004FBC202008F054FC03B0BDE8104003B0704746
S214004FCC0EB417B505AC54F8041B0194FFF7CEFFCE
S214004FDC30B12246202008F042FC202008F026FCA7
S214004FEC03B0BDE8104003B07047000000B58BB0AE
S214004FFC282269461DF0C0FE28B1044B04491888C7
S21400500C6A46FFF7CBFF0BB05DF804FBD23A0020E4
S21400501C4E8D040000B58DB02C2301AA1DF0B6FEF3
S21400502C28B1044B0449188801AAFFF7B7FF0DB046
S21400503C5DF804FBD23A00204E8D040008B5FFF74D
S21400504C95FF20B12020BDE8084008F074BC08BDD0
S21400505C2DE9F84F07468846164699469DF828A02F
S21400506CFFF784FF28B1002406F1FF3BB442A5B23B
S21400507C01D1BDE8F88FBAF1000F10D0ABEB0403EA
S21400508C18F803204946384605F00F05FFF786FF4B
S21400509C062D02D13846FFF7D1FF0134E6E723464A
S2140050ACEEE7000007B500230093034BFFF7D0FF95
S2140050BC03B05DF804FB00BFE181040037B50024A3
S2140050CC0094054D054C002B14BF2B462346FFF7CA
S2140050DCBFFF03B030BD00BFAF5F040067580400CD
S2140050EC37B5084C084905462088FFF757FF0123BB
S2140050FC00932088054B08222946FFF7A9FF03B02A
S21400510C30BD00BFD23A0020DD8B04006758040087
S21400511C37B5084C084905462088FFF73FFF0123A2
S21400512C00932088054B08222946FFF791FF03B011
S21400513C30BD00BFD23A0020DD8B04006758040057
S21400514C38B504460D46C2B14FF481700B49FFF7D3
S21400515C25FF4FF48170FFF709FF18B1294620464A
S21400516CFFF758FF06494FF48170FFF729FF2946D1
S21400517C2046BDE838403AF037BE38BDF17404001E
S21400518C0D8D040070B50D4616460446A8B14FF4B6
S21400519C81700A49FFF702FF4FF48170FFF7E6FEB5
S2140051AC18B131462846FFF735FF224604494FF41E
S2140051BC8170BDE87040FFF703BF70BDEC7404004F
S2140051CC0D7504002DE9F04F4D4CA36BD4F850B080
S2140051DCD4F840A05A074FBF0027D4F84CB0D4F8E8
S2140051EC5480D4F83CA05ABF464FDFF84091DFF805
S2140051FC4091454A48BFB84613F0080F434B18BFBA
S21400520C1A46B7EB08061CBF7308642187B01FBF8D
S21400521C01FB0B33B3FBF6F39BB205933C49CDF87D
S21400522C00804B46CDE9017A08BF0596054608F086
S21400523C03FBB3B2CDE900931FFA8BF2059B3549FD
S21400524C284608F0F9FAA36B5B070AD49C3E5E4529
S21400525C07D1626D304B9A4203D23049284608F08B
S21400526CEBFABA4501D8C24504D24A462C49284620
S21400527C08F0E2FA284608F05EFB236E0BB9636E64
S21400528CBBB32849DFF8AC80DFF8AC90284608F0B2
S21400529CBEFA00260127226E07FA06F3134207D041
S2140052AC58F8262013781BB14946284608F0AFFA62
S2140052BC0136202EEFD1DFF87C80DFF87C900026BC
S2140052CC0127626E07FA06F3134209D008EB860331
S2140052DCD3F8802013781BB14946284608F097FA75
S2140052EC0136122EEDD1284607B0BDE8F04F08F077
S2140052FC9DBA0D49284607B0BDE8F04F08F09CBA99
S21400530C00000020D82E002045A704005CB904003D
S21400531C13780400417804009C0000207A7804007E
S21400532CA6780400C4780400F37804000E78040011
S21400533C0678040008790400F18004002DE9F8438F
S21400534C044604F073FF40F60123984239D010D877
S21400535C40F2025398421DD040F20173984224D07A
S21400536C40F20153984213D16549204608F064FA7E
S21400537C22E040F6032398426CD03DD340F604233B
S21400538C984200F09C8040F60523984200F0B580C9
S21400539CBDE8F8835B49204608F04EFA5A4B5B4949
S2140053AC5A6C204608F048FA06E0574A5849D2E9A3
S2140053BC2523204608F040FA2046BDE8F84308F0BE
S2140053CCBABA514D5349204608F036FA95F86C3067
S2140053DC9F0703D55049204608F02EFA95F86F30F3
S2140053EC5E0603D54D49204608F026FA95F96F302F
S2140053FC002BE1DA4A49B8E7434D4A49204608F003
S21400540C1BFA95F86830980704D06A6C3F4920461A
S21400541C08F012FA95F96830002B04DA6A6F4249E4
S21400542C204608F009FADFF80C81DFF81891002600
S21400543C0127AA6E07FA06F3134207D058F826205F
S21400544C13781BB14946204608F0F6F90136082EAB
S21400545CEFD1B1E72C4D3549204608F0EDF92B4934
S21400546C6A6C204608F0E8F995F86930590703D5B8
S21400547C2F49204608F0E0F995F96930002B04DA3C
S21400548C6A6F2949204608F0D7F92A4FDFF8B4800E
S21400549C0826AB6EF340DA0707D557F826201378A4
S2140054AC1BB14146204608F0C7F90136102EF0D144
S2140054BC95F86830002B7FF47FAF1F4955E7124DE7
S2140054CC1E491C4FDFF87C80204608F0B5F96A6C44
S2140054DC0E49204608F0B0F91026AB6EF340DB07F9
S2140054EC07D557F8262013781BB14146204608F0FE
S2140054FCA3F901361A2EF0D15EE711494BE700BF2F
S21400550C95750400D2750400000000200276040095
S21400551C1B760400357604004D760400877604006E
S21400552CBA760400F67604001B7704003F77040076
S21400553C56770400247504009C770400CC7704008E
S21400554CE5770400377704002DE9F84F164C174F13
S21400555CDFF86080DFF860A00646002523785FFA47
S21400556C85FB0BB9BDE8F88F57F8043B104922466B
S21400557C304608F04CF9227804F1010982B96278B9
S21400558C82B10BF0030103290CBF4146514630464D
S21400559C08F03DF9304608F0CEF901354C46DDE70B
S2140055AC4C46E8E74146F2E7D079040004000020B8
S2140055BC8C750400277304006859040038B505463A
S2140055CC0C4618F0F7F808232860238038BD000036
S2140055DC10B5002090B0FFF7B7F840226946044695
S2140055EC00F028FA034638B1224606494FF481707B
S2140055FCFFF7E6FC10B010BD01226946082000F04B
S21400560CA7F8F7E75F80040010B500F0CFF8002885
S21400561C14BF79226E2217494FF48170FFF7D0FC25
S21400562C00F0C4F818B300F03FFA002814BF792233
S21400563C6E2211494FF48170FFF7C2FC02220F490B
S21400564C4FF48170FFF7BCFC0D4B0E4953F8042C3D
S21400565C1C1F4FF48170FFF7B3FC04F11003E268D3
S21400566C08494FF48170BDE81040FFF7A9BC3F22F3
S21400567CDFE700BFCD810400E4810400F481040060
S21400568C8C5803201382040070B500F095F824495A
S21400569C04464FF48170FFF793FC34B921494FF45C
S2140056AC8170BDE87040FFF78BBC00F08DF8226966
S2140056BC1D49268805464FF48170FFF781FC6288E9
S2140056CC1A494FF48170FFF77BFC1949A2884FF4F6
S2140056DC8170FFF775FC6388E28813F0100F14BF17
S2140056EC144915494FF48170FFF76AFCA2681349F8
S2140056FC4FF48170FFF764FCE26811494FF4817037
S21400570CFFF75EFC0F4A104B1049B6F5817F28BF99
S21400571C13464FF481702A46BDE87040FFF750BC24
S21400572CA9800400B6800400D7800400F58004002D
S21400573C1681040033810400508104006E8104003D
S21400574C8C81040097800400A1800400AA810400C8
S21400575C2DE9F047124EDFF84C90DFF84CA00546CA
S21400576C0F4690460024AC4201D1BDE8F08707EB0B
S21400577CC401012308224FF48170FFF79FFC01340B
S21400578CB8F1000F09D1A5420CBF32464A46514625
S21400579C4FF48170FFF714FCE5E73246F7E700BFDD
S2140057AC277304008B5C0400F1800400014B18780E
S2140057BC704700BFD43A002008B500F019F8BDE8D1
S2140057CC084004F0D3BA000010B5084C237853B93F
S2140057DCFFF7F2FF0123237028B10388B3F5817F0E
S2140057EC24BF037D2370207810BD00BFD53A00205F
S2140057FC38B5164C23783BBB04F096FA144902468F
S21400580C4FF48170FFF7DCFB01232370114C2578D5
S21400581CFF2D19D104F0AAFAA8B143880E48C3F399
S21400582C400318222946237004F080FE2378012BAF
S21400583C0AD1FFF7C9FF042806D9CA210748BDE8D4
S21400584C384004F081BB207038BD00BFD43A00202D
S21400585C36820400EE2F002088580320488204006D
S21400586CFFF7C6BF2DE9F04F87B04FF0FF33002689
S21400587C039307468B461546CDE904668DF8103023
S21400588CFFF7B6FFFFF7A0FF544B1B78012B8046A3
S21400589C1AD1012818D9B7FBF0F300FB13739BB190
S2140058AC4F4C2268511C03D0237A13449F4237D0A6
S2140058BCE268531C03D0237D13449F422FD040F242
S2140058CC2B11484804F040FB444C2278012A09D19D
S2140058DCB7FBF8F308FB137323B14FF4A9714148D7
S2140058EC04F032FB2378012B12D1EB19B3FBF8F43E
S2140058FC08FB143464B1A6B2291B1B1B3246594450
S21400590C04A8AD1B0393ADB204F086FD8DF81440CD
S21400591C002D43D1039B01334CD1002646E00126D3
S21400592C0C2303FB064332B2187AA8EB00095FFA85
S21400593C89F95300A945134428BF5FFA85F99B00E3
S21400594C1FFA89FA0093043318445246A5EB0A054D
S21400595C4FF00C0A594620440AFB06F6019304F055
S21400596C5BFDA119ADB20A7A019B4A44D2B24245FC
S21400597C0A720FD1E1181FFA88F2A05904F042FA05
S21400598C009B234406465246FF21184604F0CEFDE3
S21400599C66B9CB44002DC0D04F4495E72A465946ED
S2140059AC384604F02FFA06460028B3D0304607B027
S2140059BCBDE8F08F0A48036801330BD0C368013387
S2140059CC0AD101230C220DEB020102FB030004F0AA
S2140059DC23FDA2E70023F5E70126E7E7EE2F0020DC
S2140059EC885803204882040038B50F4B1B78012BCF
S2140059FC18D10E4CFFF7FCFE25686A1C07D0FFF783
S214005A0CE3FE211D82B2284604F0FCF958B9E4687E
