:10000000D82E00203121040001A2000005A200002A
:10001000A70A02020002000004180FAC5029B00128
:1000200000000000000000000000000000000000D0
:1000300000000000546B04000000000000000000FD
:100040000000000000000000FFFFFFFFFFFFFFFFB8
:10005000FFFFFFFFFFFFFFFFFFFFFFFFFFFFFFFFB0
:1000600000700F000000000000001000FFFFFFFF05
:10007000FFFFFFFF01000000000000000000000083
:10008000206A0320205E0320205E0320205E0320E0
:10009000D82E0020C0D00400783D040000200020AD
:0C00A000DC1F002000001000206A03207C
:10020000D82E00203121040001A2000005A2000028
:100210000DA2000009A2000011A200002F2104007D
:100220002F2104002F2104002F2104002F2104007E
:1002300015A200002F2104002F2104002F2104000B
:100240002D68000095AF0300E9A60000DCA30000C4
:1002500059AA030001B00300A1AF0300B9AF030026
:1002600099AF03003D5F000011600000517E000067
:1002700071DE0000DCA30000DCA30000992D00006B
:10028000DCA30000DCA3000035600000DCA300005C
:10029000A9DE0000DCA30000DCA30000DCA300005A
:1002A000DCA30000DCA30000DCA30000DCA3000052
:1002B00005B003009DAF0300B165000045B0030029
:1002C000DCA30000E1740300DCA30000DCA3000059
:1002D000DCA30000DCA30000DCA30000DCA3000022
:1002E000DCA30000DCA30000DCA30000DCA3000012
:1002F000DCA30000DCA30000DCA30000DCA3000002
:0C030000DCA30000DCA300002F2104009F
:10030C00F8B500BFF8BC08BC9E467047F8B500BFF6
:10031C00F8BC08BC9E46704710B5054C237833B921
:10032C00044B13B10448AFF300800123237010BDBC
:10033C00683700200000000028C8040008B5034BF3
:10034C001BB103490348AFF3008008BD0000000057
:10035C006C37002028C80400154B002B08BF134B2A
:10036C009D46A3F5803A00218B460F461348144A4C
:10037C00121A42F0F9FA0F4B002B00D098470E4B93
:10038C00002B00D098470020002104000D000D48E0
:10039C00002802D00C48AFF3008042F055FA200040
:1003AC0029000AF075FF42F03BFA00BF000008007C
:1003BC00D82E00200000000000000000683700204C
:1003CC00205E0320000000000000000010B503793F
:1003DC000446092B57D8DFE803F005090D345656AF
:1003EC00414E5652BDE8104001F018BEBDE8104019
:1003FC0001F018BE827924494FF4827004F0D6FDC6
:10040C00E27922494FF4827004F0D0FD227A20491F
:10041C004FF4827004F0CAFD627A1E494FF4827068
:10042C0004F0C4FDD4F806201B4C1C4912BA4FF43E
:10043C008270226004F0BAFD2068BDE8104001F023
:10044C00F5BD174C8279174922704FF4827004F075
:10045C00ADFD2078BDE8104001F0D8BF124C827978
:10046C00124922704FF4827004F0A0FD2078BDE890
:10047C00104000F025BEBDE8104000F027BEBDE8DE
:10048C00104001F0DFBD10BDCA3F0400D63F040090
:10049C00E23F0400EE3F040084370020FA3F0400E2
:1004AC007C550020074004006455002024400400C3
:1004BC0008B50379032B1DD8DFE803F0020B0F13EB
:1004CC000D494FF4827004F071FDBDE8084002F054
:1004DC007FBABDE8084002F09FBABDE8084002F0C0
:1004EC008DBAD0F80600054B00BA1860BDE808407C
:1004FC0002F07EBA08BD00BF3840040084370020EB
:10050C0010B503790446092B4AD8DFE803F0050936
:10051C000D11151E22303740BDE8104001F0FAB81D
:10052C00BDE8104001F0FEB8BDE8104001F002B982
:10053C00BDE8104001F006B9D0F80600194B00BA1E
:10054C00BDE81040186001F01BB9BDE8104001F087
:10055C001DB98279C37914494FF4827004F026FDD9
:10056C00E179A0790222BDE8104001F025B90F4BCA
:10057C0080791870BDE8104001F0B6BBD0F80600C9
:10058C00084B00BABDE81040186001F0B3BBD0F8BE
:10059C000600044B00BABDE81040186001F0B0BB77
:1005AC0010BD00BF84370020BC3F04006455002000
:1005BC0008B50379052B07D8DFE803F003070A0D0C
:1005CC00101900F055FD002008BD00F059FDFAE7A8
:1005DC0000F064FDF7E700F067FDF4E7D0F80600E3
:1005EC00054B00BA1860BDE8084000F063BDBDE8DB
:1005FC00084000F02DBF00BF8437002008B5C37839
:10060C00013B042B06D8DFE803F00307050A0D00B5
:10061C00FFF7DCFE012008BDFFF74AFFFAE7FFF702
:10062C006FFFF7E7FFF7C4FFF4E7000037B500F002
:10063C00FD05012D1C4640D12179DB78A278009173
:10064C004FF48270214904F0B1FCA378042B0CD137
:10065C00B4F803305BBA9BB2292B1BD007D8252BDF
:10066C0020D0262B09D01A2B0ED003B030BD322B44
:10067C0010D0332B01D0312BF7D115494FF48270A8
:10068C0004F094FC042013E0284603B0BDE830408D
:10069C0000F072BD00F04AFE0128E6D100F05AFFCE
:1006AC000020F2E70B494FF4827004F07FFC03202A
:1006BC0003B0BDE8304000F0D7BE07494FF481705D
:1006CC0003B0BDE8304004F071BC00BF3E400400F4
:1006DC006E4004005940040084400400F0B593B00F
:1006EC0004AC06460F46154600213822204642F03F
:1006FC003BF9094B094A0294CDE9007302213346B8
:10070C00284633F055F9024620B105494FF4817063
:10071C0004F04CFC13B0F0BD39060000E02E0020B4
:10072C00A1400400F8B5C278037943EA02231BB256
:10073C00023B04460E46102B33D8DFE803F0093495
:10074C005D6568716E777A7E81ADBABEC2C5C80030
:10075C006049614F4FF4827004F016FC5F494FF40E
:10076C00827004F011FC04F10E05063415F8012D0D
:10077C0039464FF4827004F007FCA542F6D1584973
:10078C004FF4827004F000FC56494FF4827004F070
:10079C00FBFB304604F020FC53494FF4827004F00C
:1007AC0005FC0120F8BD8379C279504D42EA032241
:1007BC0042F276718A422A800BD14D494FF48270F5
:1007CC0004F0F4FB4B4B4C48012200211A701CF036
:1007DC0009F92A8849494FF4827004F0E7FBA279A1
:1007EC0047494FF4827004F0E1FBE27945494FF43C
:1007FC00827004F0DBFBD4E743494FF4827004F0C1
:10080C00D5FB0AF0CBF8CCE702F064FFC9E73F4B0D
:10081C0090F9060018701CF083FF1CF09DFFC0E7D8
:10082C00D0F8060000BA03F015F8BAE702F0F4FFAE
:10083C00B7E7807903F014F8B3E703F019F8B0E7E1
:10084C00334B451D00F1150215F8011F03F8011F6C
:10085C009542F9D12F4803F037F82F4B04F11D02C4
:10086C0015F8011F03F8011FAA42F9D12B482C4D92
:10087C0003F03EF8A37FE27F2A4942EA03224FF4B9
:10088C0082702A8004F092FB288803F067F894F8B1
:10089C00200003F06FF884E7234A431D153413F846
:1008AC00011F02F8011FA342F9D1204803F06EF892
:1008BC0077E7807902F0FCFF73E7807900F00CFC9D
:1008CC006FE700F037FC6CE702F010FA69E702F012
:1008DC00D7F966E7C0400400D33F0400D7400400BA
:1008EC007D430400E0400400F74304008C550020D5
:1008FC0012410400AA370020BC550020E840040037
:10090C00F9400400034104000D410400C4550020CB
:10091C009737002098370020AA370020AB370020EB
:10092C00A83700201F41040087370020883700209B
:10093C0070B5124E124C33780025012B257002D065
:10094C00022B10D070BD1DF0CBF90E494FF4827004
:10095C0004F02CFB0223337041F288312046BDE8B1
:10096C0070401CF03FB808494FF4827004F01EFB35
:10097C000AF014F835702946F0E700BFAA370020BA
:10098C00BC550020477904003141040010B586B0F5
:10099C001C468B788DF81430CB788DF815300B798C
:1009AC008DF816300323029305AB019300231046F8
:1009BC0000931A46214633F03FFA06B010BD1FB51E
:1009CC008B788DF80C30CB788DF80D300B798DF849
:1009DC000E30002300930322012303A900F0EAFA4E
:1009EC0005B05DF804FB000008B58379042B0DD12C
:1009FC00C279037A43EA02231BB2292B1ED006DCF0
:100A0C00252B32D0262B08D01A2B0DD008BD322B1B
:100A1C0014D0332B01D0312BF8D119494FF48270FB
:100A2C0004F0C4FA042026E016494FF4827004F056
:100A3C00BDFA0120BDE8084000F09EBB12494FF4FE
:100A4C00827004F0B3FA00F071FC01280BD100F0B5
:100A5C0081FD002000F090FB0C494FF48270BDE842
:100A6C00084004F0A3BA0A49F7E70A494FF4827028
:100A7C0004F09CFA0320BDE8084000F0F5BC00BF70
:100A8C006E400400624004003841040045410400FB
:100A9C00564104005940040070B500240546224616
:100AAC00FF262B1A8B4203DB42EA042080B270BD76
:100ABC0015F8013B1A4492FBF6F3C3EB0323D31A4C
:100ACC009AB2234493FBF6F4C4EB04241B1B9CB294
:100ADC00E7E700002DE9F843089CBDF82470A578E1
:100AEC0094F8038094F804902A460E464FF48270D2
:100AFC003C4904F05BFA4B4642463B494FF482704A
:100B0C0004F054FA627939494FF4827004F04EFAC9
:100B1C0037494FF4827004F037FA36494FF482703B
:100B2C0004F044FAE319B91E13F8022C13F8018CE3
:100B3C00204648EA0228FFF7AFFF074683B2424639
:100B4C002D494FF48270BFB204F030FAB84545D14C
:100B5C002A494FF4827004F017FA304604F03CFA3C
:100B6C00013D27494FF4827004F00EFA042D37D85A
:100B7C00DFE805F0031C2C3630002379012B0ED155
:100B8C00B4F80730A2791F495BBA9BB24FF482705C
:100B9C0004F00CFA2046BDE8F843FFF725BF1A49CC
:100BAC004FF48270BDE8F84304F000BA3146204699
:100BBC00FFF7B8FD214620B13046BDE8F843FFF7FA
:100BCC00E5BE3046BDE8F843FFF7F9BE2046FFF717
:100BDC0015FDEFE7BDE8F84301F08CB90B49DFE7F1
:100BEC00BDE8F883A6410400B1410400BB410400F8
:100BFC00CF410400F7430400DA4104000242040030
:100C0C007D4304000A4204002042040030420400E8
:100C1C001FB54B09022B02D00378FF2B06D0002303
:100C2C00CDE9013300931A4633F006F905B05DF8AF
:100C3C0004FB1FB5CDE90123002300931A4633F0C2
:100C4C00FBF805B05DF804FB2DE9F04387B093F891
:100C5C00029093F80380B3F803701E79B6490F9C89
:100C6C001D460023CDF80E30CDF81230ADF81630FD
:100C7C004DF25673ADF80C30BDF838304A46CDE91C
:100C8C0000634FF48270434604F090F90423B9F1E9
:100C9C00030F8DF80E3000F0AB80994500F0818188
:100CAC00B9F1020F11D17BBA9BB2043B102B0CD8BB
:100CBC00DFE803F0090E1B0B0B0B262B325F6C7459
:100CCC00777D858C930009F069FE07B0BDE8F08351
:100CDC001CF04CFD994A0368136043685360082369
:100CEC0045212046FFF7A5FFEFE795F906001CF01C
:100CFC0017FD44212046FFF78BFF1CF02DFDE4E788
:100D0C00A87902F0ADFD442102E002F0B1FD4321CF
:100D1C002046FFF77DFFD8E7894A6B1D05F11506C4
:100D2C0013F8011F02F8011F9E42F9D1854802F009
:100D3C00CBFD854A334605F11D0113F8010F02F86E
:100D4C00010F9942F9D18148814E02F0D1FDAB7F60
:100D5C00EA7F804942EA03224FF48270328004F029
:100D6C0025F9308802F0FAFD95F8200002F002FE19
:100D7C00C9E7794A6B1D153513F8011F02F8011FDD
:100D8C00AB42F9D1754802F001FEBCE72046442184
:100D9C00FFF73EFFA87902F08BFD96E7A87900F0EB
:100DAC009BF900F0C7F901230246442199E720463C
:100DBC004421FFF72DFF284601F098FF85E74421D9
:100DCC002046FFF725FF01F05BFF7EE7432120461D
:100DDC00FFF71EFF0BF022FD77E7614A002301218C
:100DEC001370537093701371D1705171062377E7A0
:100DFC005C494FF4827008F1FF3804F0D7F8B8F171
:100E0C00040F3FF662AF01A353F828F02D0E00003B
:100E1C00450E0000D70C00008B0E0000210F0000C7
:100E2C00062E05D0072E7FF450AF00F04FF9BAE72D
:100E3C00A87900F045F948E7032E3FF646AFDFE806
:100E4C0006F00205080B01F0C3FD5CE701F0E4FDC0
:100E5C0059E701F0D3FD56E7D5F8060000BA01F0CA
:100E6C00C7FD030E8DF80830030C8DF80930030A0A
:100E7C008DF80A308DF80B00042302AA95E7053E85
:100E8C00042E3FF622AFDFE806F0030810243F00E3
:100E9C0000F07CFC0123024622E70222E979A879C2
:100EAC0000F08AFC00F072FC7DE72F4BA8791870DB
:100EBC0000238DF80F3017238DF8103001238DF897
:100ECC00113000F011FF0C238DF812000DEB030212
:100EDC006BE7D5F8060000BA00F00CFF0023020EF9
:100EEC008DF80F308DF812201823020C8DF810306D
:100EFC008DF813200423020A8DF814208DF811307C
:100F0C008DF8150003AA50E7D5F8060000BA00F0DA
:100F1C00F7FEA6E7052E3FF6D8AEDFE806F003068F
:100F2C000927373F00F0A4F8EDE600F0A9F8EAE64F
:100F3C0000F0B4F8AEE700BF64410400F85303209E
:100F4C00C2370020C3370020D5370020D637002009
:100F5C00D43700201F410400B2370020B3370020E3
:100F6C00F2530320964104006455002000F09CF8D5
:100F7C00030E8DF80830030C8DF80930030A8DF838
:100F8C000A308DF80B00042302AAA9E6D5F8060056
:100F9C0000BA00F08FF800F087F862E700F058FA1A
:100FAC0093E603494FF4827004F000F88DE600BF1D
:100FBC009E4104002DE9F047804602F10D0000AF80
:100FCC0020F00700ADEB000D02F10F006C46B7F8F6
:100FDC0020C0A37020F00700ADEB000D56204FEAA7
:100FEC001C232070D7206070E37002F1060902F117
:100FFC0008066D4684F804C06271A01D0B46A3EB75
:10100C00010C624518DC49462046FFF745FD4A466F
:10101C0082462146284641F09CFCAB194FEA1A2225
:10102C0003F8022C03F801AC424631462846FFF780
:10103C0055FBBD46BDE8F08713F801CB00F801CB9A
:10104C00DDE70000024B187002481BF0CBBC00BF60
:10105C00DE3700201854032000210720FFF7F2BFD1
:10106C0000210520FFF7EEBF00210320FFF7EABFA8
:10107C00024B012000211870FFF7E4BFE03700207D
:10108C000021024B08461970FFF7DCBFE037002047
:10109C00014B1878704700BFE0370020014B1878DF
:1010AC00704700BFE0370020014B1868704700BF45
:1010BC00E42E0020014B1860704700BFE42E002086
:1010CC00014B1870704700BFE82E0020014B1878B8
:1010DC00704700BFE82E002038B5124D2B788342A4
:1010EC00044610D001280FD10146002001F09AFCD3
:1010FC002146204601F096FC0B4802F0ABFB0B4B53
:10110C000B4A1A602C7038BD0028FCD1014601F046
:10111C0089FC2146012001F085FC4EF6602002F08E
:10112C0099FBEFE704540320E0930400E42E002025
:10113C00C0270900014B1878704700BF04540320E6
:10114C00074A30B5034600F1100518685968144673
:10115C0003C40833AB422246F7D11868206030BD77
:10116C002854032008B501464222024841F0F1FB05
:10117C0008BD00BF3C540320034B044918700246C1
:10118C004FF4827003F012BFE13700204842040094
:10119C0070B5594B00221A70584B1B7894B0072B22
:1011AC0020D8DFE803F0040C1621923A6726544944
:1011BC004FF4827014B0BDE8704003F0F7BE00200D
:1011CC0000F044FA0021022014B0BDE87040FFF793
:1011DC0039BF0020FFF7D0FF00F020FF494A1378F9
:1011EC000133137014B070BD14B0BDE8704000F042
:1011FC00A1BA01F053FC01F0E7FC434C206001F074
:10120C00F9FC04F1100160605022684641F0A1FB2A
:10121C0094E80F0000F036F9E4E73C4C3C4A04F14A
:10122C0010061346254603CDB542106051602C467E
:10123C0002F10802F6D12868334910600A68DA75A1
:10124C00100E1875100C5875100A4A689875110E06
:10125C001976110C5976110A9976DA761A230093BD
:10126C002B492C4804231C22FFF7A4FE4FF4FA61EF
:10127C000620A9E7284C244D422205F11C012046EA
:10128C0041F067FB2B6884F845301A0E84F8422035
:10129C001A0C84F843201A0A6B6884F844201A0E3E
:1012AC0084F846201A0C84F8472084F849301A0A2E
:1012BC00292384F84820214600934A220423154808
:1012CC00FFF778FE002104207EE7144B1C7854B9FC
:1012DC00134B1B783BB10B4D2A789A4203D3204613
:1012EC0001F084F82C700F4B197819B10E4B0120BA
:1012FC00196869E7084667E718540320DE370020B1
:10130C003F420400DF3700202054032028540320E0
:10131C008C53032005540320A853032004540320AA
:10132C00E82E0020E0370020E42E0020014B187836
:10133C00704700BFE137002073B53E4B3E4C002296
:10134C001A702378013B032B47D8DFE803F0021D0A
:10135C00486E00F05BF9012802460ED1272300935A
:10136C00002104233548FFF725FE00212170314868
:10137C0002B0BDE870401BF035BB314800F00CF9F1
:10138C00022323700021F2E72E4C2F4A04F11006A1
:10139C001346254603CDB542106051602C4602F130
:1013AC000802F6D12868264910600A68DA75100E12
:1013BC001875100C5875100A4A68DA76110E1976E1
:1013CC00110C5976110A997698751F4925230093AB
:1013DC001C2204231948FFF7EDFD02B070BD1B4C15
:1013EC00174D422205F11C01204641F0B2FA2B6840
:1013FC0084F845301A0E84F842201A0C84F84320E5
:10140C001A0A6B6884F844201A0E84F846201A0CC9
:10141C0084F8472084F849301A0A312384F848208C
:10142C00214600934A220423D4E700F071F80123EB
:10143C00A7E700BFE0540320E23700200554032047
:10144C0080540320885403208C530320A85303207A
:10145C00034B0448012200211A701BF0C3BA00BFD1
:10146C00E2370020E0540320042805D8034B002168
:10147C00187003481BF0B6BA704700BFE237002063
:10148C00E054032084B0F8B51C4E06AC84E80F0081
:10149C00346840F2F97294422ADC002C184F0FDAAF
:1014AC00602206A9174841F054FA174A00233B6002
:1014BC00136001233360BDE8F84004B0FFF7D0BDE2
:1014CC003D68954204F1010408D1602206A90D483B
:1014DC0041F03FFA00233B603460ECE709480135EA
:1014EC00602206A902FB050041F033FA3D60F3E7E8
:1014FC0006494FF4827003F059FDDCE7F42E00200E
:10150C00F02E0020CC550020EC2E00206E42040062
:10151C0010B50D4C2368002B06DA0C494FF4827081
:10152C0003F044FD012010BD09490A6840F2F9702E
:10153C00013B824223604FF0000001D10860F1E7CB
:10154C0001320A60EFE700BFF42E00205F42040076
:10155C00EC2E002008B50C4B1A68002A06DA0B4951
:10156C004FF4827003F022FD012008BD0849013AB6
:10157C001A600B68013B0B604FF48270054903F055
:10158C0015FD0020F1E700BFF42E00205F4204009F
:10159C00F02E00207C420400184B1B68002BF0B48A
:1015AC00074605DA16494FF48270F0BC03F0FEBC16
:1015BC00144B154C1A6860235343E218E0585268D8
:1015CC007A6003F108022244386007F1080502F141
:1015DC00100C164603CE664528606960324605F14C
:1015EC000805F6D13068286003F11C01214407F18D
:1015FC001C004222F0BC41F0ACB900BFF42E00201C
:10160C005F420400EC2E0020CC550020034B1868E0
:10161C000028CCBF00200120704700BFF42E002012
:10162C0010B5074C23781BB900F070FB0123237015
:10163C00044B054918780222BDE8104000F074BB39
:10164C00E3370020FA2E0020FB2E002038B5114D78
:10165C002B7804461BB900F059FB01232B701CB9E5
:10166C00BDE83840FFF7DCBF0B4D0C492878643CD3
:10167C00022200F059FB002CB8BF644208492878BC
:10168C00C4F3460406344C700222BDE8384000F026
:10169C004BBB00BFE3370020FA2E0020F82E0020B1
:1016AC00E4370020024B187002481BF09BB900BFB6
:1016BC00F73700203C55032010B5104B104C1A780E
:1016CC00104B11481B7802EB4202013A53B90F49F7
:1016DC000A44E15C02F8011FC15CD1730133032B96
:1016EC00F7D110BD0A4B1A440023E15C02F8011F2C
:1016FC00C15CD1730133032BF7D1F2E7F63700202D
:10170C00EE370020E9370020F2370020F9370020AF
:10171C0017380020024B012000211870FFF7C2BFC0
:10172C00353800200021024B08461970FFF7BABF6C
:10173C0035380020024B002101201970FFF7B2BF91
:10174C00353800201FB50C4B0C481B688DF80F303A
:10175C001A168DF80C201A148DF80D201A1211235C
:10176C00009304238DF80E2003A91A46FFF722FCE0
:10177C0005B05DF804FB00BF002F002005540320CA
:10178C00014B1860704700BF002F002038B5074B85
:10179C0007491D78074B1C782A4623464FF4827064
:1017AC0003F004FC44EA0510C0B238BDE737002052
:1017BC00C6420400E8370020012A04D1054B1870FA
:1017CC00054B18707047022A01BF024B1870024B70
:1017DC0019707047E7370020E8370020014B18805C
:1017EC00704700BFEC370020014B1880704700BFDA
:1017FC00EA3700202DE9F84F734CDFF80C82227881
:10180C006378724F724E734D7349DFF800A2DFF8A4
:10181C00009243EA0223A8F80030A278E37843EA66
:10182C0002233B80237933704FF4827063792B70E1
:10183C0003F0AAFBB8F8002068494FF4827003F05B
:10184C00A3FB3A8866494FF4827003F09DFB327813
:10185C0064494FF4827003F097FB2A7862494FF485
:10186C00827003F091FB61494FF4827003F08CFBA2
:10187C0025460026D346AB79E879DFF8988103F04A
:10188C00010103F080022B7A8AF8001043EA00234E
:10189C00032743EA026343EA014389F800205449D1
:1018AC0096FBF7F24FF482703E44C8F8003003F018
:1018BC006BFB0F2E3D44DED14E49434DDFF830A17A
:1018CC004FF4827003F060FB00266B7DA87D03F063
:1018DC00010103F08002EB7D8BF8001043EA00233A
:1018EC0043EA026343EA014389F80020514696FB20
:1018FC00F7F24FF482700336C8F8003003F044FB63
:10190C000F2E05F10305E0D13B49DFF80CB12E4D4C
:10191C00DFF808814FF4827003F036FB4FF00009BA
:10192C00DA4695F8243095F82500344F03F0010180
:10193C0003F0800295F826308BF8001043EA002360
:10194C00032643EA026343EA014388F8002028494E
:10195C0099FBF6F24FF48270B1443B6003F014FB38
:10196C00B9F10F0F3544DCD12549DFF884904FF4E1
:10197C00827003F009FB002594F8333094F834009E
:10198C0003F0010103F0800294F835308AF800105E
:10199C0043EA002343EA026343EA014388F8002048
:1019AC00494695FBF6F24FF4827003353B6003F029
:1019BC00EBFA0F2D04F10304DED112494FF48270BF
:1019CC00BDE8F84F03F0F2BAEA540320E8540320C0
:1019DC002C5503203A550320D3420400E242040064
:1019EC00EC420400F54204000343040018430400D5
:1019FC00224304002A4304003343040034550320DB
:101A0C003C430400F7430400385503202D550320B4
:101A1C004D55032048550320445503204C550320B5
:101A2C0038B51F4B1A881F4B110A5A701E4A197071
:101A3C001288DA70110A1D4A997011781C4A1278B2
:101A4C0042EA01121A711B4A1B4912785A71084654
:101A5C0000229C18555CA57101320F2AF9D1152270
:101A6C00811811F8061C99540132242AF8D1134913
:101A7C00002208469C18555C84F8245001320F2A29
:101A8C00F8D13322811811F8241C99540132422ABE
:101A9C00F8D1FFF7AFFE0348BDE83840FFF762BB53
:101AAC00EC370020EA540320EA370020E737002007
:101ABC00E83700200D2F0020F937002017380020C0
:101ACC0070B5734B734C00221A702378013B072BB3
:101ADC0000F2DC80DFE803F0045C866A94AA4E56C0
:101AEC006D4D6E4C2E7800F011F96D4A6D49042342
:101AFC0013706D4A13706D4A13708E230B70AE23E6
:101B0C0023706B4B0E221A706A4B2E221A70012214
:101B1C00DEB9D82000F008F901222146D82000F0C7
:101B2C0003F90020FFF792FD634B1B78A3B9012149
:101B3C00084600F077FF614B1B78C3B92978B1B91F
:101B4C000720BDE87040FFF7ADBDD02000F0ECF8E9
:101B5C0001222146D020E2E7594C2378002BEAD110
:101B6C000121084600F05EFF01232370E3E700210A
:101B7C000220E6E7534B1878FFF768FD524B08201C
:101B8C001968DEE70020FFF761FD504B1968EFE79D
:101B9C00414B44491B78012233B9D82000F0C4F8DA
:101BAC004FF4FA710420CCE7D020F7E73A4B484DBC
:101BBC001B783F4E042229467BB9D92000F0D0F87F
:101BCC00EA7833789A420AD042494FF4827003F093
:101BDC00EDF94FF47A712078B3E7D120EEE70021CC
:101BEC000320AEE72C4B2D491B78012233B9D820AA
:101BFC0000F09AF84FF4FA710520A2E7D020F7E72D
:101C0C00254B354D1B782B4E0422294643B9D92040
:101C1C0000F0A6F8EA7833789A4203D02F49D4E73B
:101C2C00D120F5E74FF4FA7106208AE7FFF744FD5F
:101C3C002248194C0378042B05460FD822781AB980
:101C4C000120207011467CE7042B07D0012A05D116
:101C5C000021013321700370012072E700F0C8FDF0
:101C6C00FFF7DEFE00232B702370134B197811B98C
:101C7C00012000F0D7FE1A4B1C7814B1194B1968CF
:101C8C00EAE7FFF7E9F9214620465AE770BD00BFA5
:101C9C003C550320F7370020E9370020FE2E0020AA
:101CAC00E6370020FD2E0020E7370020E837002023
:101CBC00305503202F55032004540320F637002001
:101CCC00F83700200C2F0020082F0020042F0020B4
:101CDC00EE370020A0420400F2370020B34204008B
:101CEC0035380020002F0020014B1870704700BFC2
:101CFC000C2F0020014B186000167047082F002095
:101D0C00014B186000167047042F002010B5044CCE
:101D1C00237823B9034800F085F80123237010BD04
:101D2C0036380020102F00207FB50123ADF8063087
:101D3C00094BADF8040002911868ADF80C2001A90C
:101D4C0000F0C8F80530C0B205289ABF034B185CE8
:101D5C00FF2007B05DF804FB102F00204443040063
:101D6C007FB50223ADF80630094BADF804000291A3
:101D7C001868ADF80C2001A900F0ACF80530C0B221
:101D8C0005289ABF034B185CFF2007B05DF804FBD5
:101D9C00102F00204443040010B5044C237823B9C1
:101DAC00034800F03FF80123237010BD37380020A2
:101DBC00282F00207FB50123ADF80630094BADF874
:101DCC00040002911868ADF80C2001A900F082F80B
:101DDC000530C0B205289ABF034B185CFF2007B032
:101DEC005DF804FB282F00204A4304007FB5022332
:101DFC00ADF80630094BADF8040002911868ADF847
:101E0C000C2001A900F066F80530C0B205289ABF75
:101E1C00034B185CFF2007B05DF804FB282F002053
:101E2C004A43040030B5044685B00121244806F02D
:101E3C0069F92368234A93423FD002F580629342AA
:101E4C0039D12148012106F05DF901230A2261797B
:101E5C00207907F089F901230A22E179A07907F0AA
:101E6C0083F9237930225A43184B134403F1C0658C
:101E7C00092103F180630122607902FA00F02860E5
:101E8C006079013902FA00F01860F5D120688DF8FC
:101E9C0000200323436423898DF801205BBA9BB295
:101EAC00836423690293E36801936946237D8DF86B
:101EBC000C3007F0E1F905B030BD0548C2E700BFB2
:101ECC004041050000C00040009204000CA00040FE
:101EDC000082040038B5054607F0E6FA044C0128E8
:101EEC0001D1013C00D138BD284607F0E1F9F6E7F5
:101EFC00E193040010B514494FF4827003F056F8C6
:101F0C00124B00241C70124B1C7002F091FBA0426F
:101F1C000EDC104C02F08CFB012812DD012002F0CB
:101F2C0009FCC2B221460120BDE8104018F0DCBA11
:101F3C00204602F0FFFBC0B20028EAD00124844006
:101F4C00E8E70522EEE700BF5043040038380020D4
:101F5C003938002000F8FF07024B187002481AF0BD
:101F6C0041BD00BF3A38002068550320074B084A92
:101F7C001978084B907803F8210003EB8103D17892
:101F8C005970117952799970DA7070473B3800208A
:101F9C003C38002054550320F7B51949194D1A4FF8
:101FAC001A4E4FF4827002F0EFFF002218494FF4E2
:101FBC00827002F0E9FF00246119635D4A7891F8A0
:101FCC0003C003EB02238A7812490A2002EB0C228D
:101FDC0093FBF0F392FBF0F23B60326000924FF413
:101FEC008270C4F38502043402F0CEFF142CE3D1CA
:101FFC0009494FF4827003B0BDE8F04002F0D6BF3F
:10200C00734304005455032068550020805500206C
:10201C007F43040088430400F7430400002101209F
:10202C00FFF79ABF00210846FFF796BF034B044900
:10203C00186002464FF4827002F0B8BF402F0020A7
:10204C00A34304001FB50C4B0C481B688DF80F30D4
:10205C001A168DF80C201A148DF80D201A1209235B
:10206C00009304238DF80E2003A91A46FEF7A2FF55
:10207C0005B05DF804FB00BF402F00200554032081
:10208C0010B50C4C20780BF0A3FF08280ED90A4988
:10209C00207800230A220BF0FDFF20780CF05EF86C
:1020AC0000210420BDE81040FFF756BF002103209B
:1020BC00F8E700BF442F00203C38002037B5594BBF
:1020CC0000221A70584B1B78062B00F2A980DFE80F
:1020DC0003F0041142527384690054494FF4827026
:1020EC0002F064FF00F042F9002003B0BDE830407C
:1020FC00FFF7ACBA4E494FF4827002F057FF4D4BCC
:10210C004D494FF41652C3E9001240F60B321A81B6
:10211C004FF4805200245A814FF010125A629C8165
:10212C009C73DC731C745C749C74DC741C75C3E948
:10213C0006441C84414B022520461D7000F08EF88D
:10214C002046FFF783FA41F28831284603B0BDE8F8
:10215C003040FFF701BF40F0EDF8394B0521186016
:10216C00354807F067FC354B324918780CF056F8B7
:10217C00C8210320EAE740F0DDF8314B1B68C01A98
:10218C0043F69823984212D906230021009301228A
:10219C0004232C48FEF70EFF00F0E8F84FF47A7198
:1021AC000120D3E728494FF4827002F0FFFE03B000
:1021BC00BDE83040FFF764BF244B1A78AA2A05D13A
:1021CC005B7AAB2B02D100210520BFE720494FF4ED
:1021DC00827002F0EBFE0021CBE7FFF7C7FE1D4A31
:1021EC001378042B06D80133137000210220FFF75B
:1021FC00B3FE79E7114B0024187814700BF0E4FF50
:10220C0021460D4807F016FC00F0B0F81248FEF716
:10221C0097FFFFF7C1FEFEF727FF21462046E6E7B2
:10222C0003B030BD685503203A3800203F4204000B
:10223C00414204007055032000040140442F00204B
:10224C0050550320055403205B4304003C38002008
:10225C00624304003B38002054550320F8B5364F38
:10226C003649374C374E05464FF4827002F09EFECD
:10227C003B7863BB34494FF4827002F097FEFFF752
:10228C0045FD022231492078FFF74EFD02223049EC
:10229C002078FFF749FD01233B703378CBB12D4FEC
:1022AC00002D38D12C494FF4827002F07FFE202390
:1022BC000222284920787B70FFF736FD274B1888BF
:1022CC003FF0A8FF022226492078FFF72DFD337836
:1022DC00B3B9204E35BB20494FF4827002F066FE34
:1022EC00202302221B4920787370FFF71DFD1B4B26
:1022FC0018883FF08FFF022219492078FFF714FD50
:10230C00184BB5B901225A70207816490222BDE843
:10231C00F840FFF709BD14494FF4827002F046FEF5
:10232C000823C5E710494FF4827002F03FFE0823E2
:10233C00D7E70222E7E700BF46380020B943040084
:10234C00452F002004540320C043040047380020CC
:10235C00482F0020502F0020CA4304004C2F00208F
:10236C004E2F0020462F0020CF43040038B5164DC9
:10237C00164C2B786BB9FFF7C9FC02221449207854
:10238C00FFF7D2FC022213492078FFF7CDFC012382
:10239C002B70114B1B787BB9104920781423022227
:1023AC004B70FFF7C1FC0E4B18883FF033FF022235
:1023BC000C492078FFF7B8FC20780B490222BDE8C5
:1023CC003840FFF7B1BC00BF46380020452F002035
:1023DC0047380020482F002004540320502F0020A1
:1023EC004C2F00204E2F00204A2F0020044B187039
:1023FC00044B0548012200211A701AF0F3BA00BFF1
:10240C004A3800204B38002098550320054B064ACB
:10241C00187001231370054A0548137000211AF037
:10242C00E1BA00BF4A380020493800204B38002060
:10243C009855032037B5284B284C00221A70237866
:10244C00042B47D8DFE803F0030E1C242E0024498C
:10245C004FF4827002F0AAFD002003B0BDE83040BA
:10246C00FFF7F4B81F4B0121187800F0DBFA0223B8
:10247C0023700021184803B0BDE830401AF0B2BAFE
:10248C006420FFF7E3F80323237042F21071F1E7A5
:10249C000020FFF7DBF8134B0021187800F0C2FA8C
:1024AC000423E5E710494FF4827002F07FFD052309
:1024BC0000930122042300210C48FEF77BFD0C4BFA
:1024CC001D781DB1002119702170D3E7FFF74EFF65
:1024DC002570CEE703B030BD985503204B38002053
:1024EC00D44304004A380020DC4304000554032084
:1024FC004938002010B5044C23781BB9FFF706FCB3
:10250C000123237010BD00BF4C380020012202496A
:10251C008020FFF709BC00BF522F00200222024985
:10252C008120FFF71DBC00BFA255032001220249E8
:10253C008020FFF7F9BB00BF532F00200222024975
:10254C008120FFF70DBC00BFA0550320034B18786A
:10255C005B7803F0FE0343EA00207047A25503208A
:10256C00034B18785B7803F0FC0343EA00207047B8
:10257C00A055032010EB401082B007D0044B996893
:10258C009A680192019A521A8242F9D302B07047AA
:10259C000020044030B54A4B4A4C00221A70237874
:1025AC0085B0042B67D8DFE803F0030C66146B00CE
:1025BC00012323700021424805B0BDE830401AF0D9
:1025CC0011BAFFF797FFFFF7A1FF03232370142124
:1025DC00F1E7FFF7A3FFFFF7B9FF7D2242434FF46A
:1025EC00803092FBF0F2063A52B23749374D4FF435
:1025FC00827002F0C9FCFFF7A9FF354902464FF47F
:10260C00827002F0D3FCFFF791FF3220FFF7B2FF8C
:10261C00FFF794FFFFF7A4FF07EE900AB8EEE77AF6
:10262C00DFED2C7ADFED2C6A2C4927EE277ADFEDD3
:10263C002C7AE7EE267A4FF48270FDEEE77ACDED38
:10264C00037A9DF90C2002F09FFCFFF789FF2549C6
:10265C0002464FF4827002F0A9FC297869B1FFF7A9
:10266C0075FFFFF7C1F8FFF77BFFFFF7B7F82B7883
:10267C0083F001032B7005B030BD042323709AE75F
:10268C00FFF764FF184D00122870FFF75FFF6870AA
:10269C00FFF766FF0012A870FFF762FF0323E870D4
:1026AC00009304231A4629461048FEF783FC104B6E
:1026BC001B78002BDFD00F4B19680023DEE700BF1F
:1026CC00A45503204F380020EC4304004D38002063
:1026DC00F843040052B82F4300008037094404002B
:1026EC0066663BC216440400EA54032005540320DA
:1026FC004E380020542F002007B5FFF7FBFEFFF7E4
:10270C0005FF1420FFF736FFFFF708FFFFF71EFF4A
:10271C007D2242434FF4803092FBF0F2063A52B2E3
:10272C0023494FF4827002F02FFCFFF70FFF214971
:10273C0002464FF4827002F039FCFFF7F7FE3220AC
:10274C00FFF718FFFFF7FAFEFFF70AFF07EE900AF4
:10275C00B8EEE77ADFED187ADFED186A184927EE44
:10276C00277ADFED187AE7EE267A4FF48270FDEEC9
:10277C00E77ACDED017A9DF9042002F005FCFFF714
:10278C00EFFE114902464FF4827002F00FFCFFF786
:10279C00DDFEFFF729F8FFF7E3FEFFF71FF80B4A02
:1027AC00137883F00103137003B05DF804FB00BFD2
:1027BC00EC430400F843040052B82F430000803768
:1027CC000944040066663BC2164404004D380020E0
:1027DC00044B054801221A70044B002119701AF0A1
:1027EC0001B900BF4E380020A45503204F380020FB
:1027FC00034B00221A70034B01221A70FFF77CBFA7
:10280C004E3800204D380020014B00221A707047C2
:10281C004E38002010B5044C23781BB9FFF7BCFAD6
:10282C000123237010BD00BF503800200122024943
:10283C008020FFF7BFBA00BF582F002002220249A8
:10284C008120FFF7D3BA00BFAE5503200122024905
:10285C008020FFF7AFBA00BF592F00200222024997
:10286C008120FFF7C3BA00BFAC550320034B187887
:10287C005B7803F0FE0343EA00207047AE5503205B
:10288C00034B18785B7803F0FC0343EA0020704795
:10289C00AC55032030B5424B424C00221A702378C1
:1028AC0085B0042B79D8DFE803F0030778145900BE
:1028BC0001232370002106E0FFF7ACFFFFF7B6FF02
:1028CC00032323701421364805B0BDE830401AF0BC
:1028DC0089B8FFF7B3FFFFF7C9FF7D2242434FF4DE
:1028EC00803092FBF0F2063A52B22F494FF48270CC
:1028FC0002F04AFBFFF7BAFF2C4902464FF48270F4
:10290C0002F054FBFFF7A2FF3220FFF733FEFFF774
:10291C00A5FFFFF7B5FF07EE900AB8EEE77ADFEDFB
:10292C00247ADFED246A244927EE277ADFED237A17
:10293C00E7EE267A4FF48270FDEEE77ACDED037A5E
:10294C009DF90C2002F020FBFFF79AFF1749024675
:10295C004FF4827002F02AFB0423AAE7FFF786FFEC
:10296C00174D00122870FFF781FF6870FFF788FF82
:10297C000012A870FFF784FF302300930423E87043
:10298C001A4629460F48FEF715FB0F4B1B7823B14F
:10299C000E4B19680023237095E705B030BD00BFBE
:1029AC00B05503205138002029440400FB43040097
:1029BC0052B82F43000080373944040066663BC28E
:1029CC00EA54032005540320523800205C2F0020C9
:1029DC00044B054801221A70044B002119701AF09F
:1029EC0001B800BF52380020B055032051380020E8
:1029FC00014B1860704700BF5C2F0020034B04484C
:102A0C0000211970034B197019F0ECBF52380020DB
:102A1C00B055032051380020014B00221A7070472A
:102A2C005238002070B5194E337805460C4643B920
:102A3C00FFF76CF9022216494220FFF775F90123C2
:102A4C00337065B1012D18D04CF250303FF0E2FBE1
:102A5C00022210494220BDE87040FFF765B94CB125
:102A6C00012CF1D10C492023022242204B70FFF79C
:102A7C005BF9E9E708491023F6E724B1012CE3D10F
:102A8C0005490823F0E704490423EDE753380020F7
:102A9C0054380020602F0020622F002070B503F006
:102AAC0045FD03F06CFD404B1A681860841A3C25F8
:102ABC00B4FBF5F2B2FBF5F005FB102005FB12425E
:102ACC003A4D18264FF46163B4FBF3F3B3FBF6F104
:102ADC0006FB1131364BB4FBF3F32C782244D2B203
:102AEC003B2A344C91BF2A703C3A2A70227884BF1E
:102AFC00013222702278C0B20244D2B23B2AC9B24F
:102B0C00DBB222702C4804D905783C3A22706A1C3E
:102B1C00027002780A44D2B2172A0270274904D9EB
:102B2C000C78183A0270621C0A700A781344244A12
:102B3C001078DBB2441E0B700B2C0DD8DFE804F0C0
:102B4C00061C0618061806061806180D1F2B03D9A6
:102B5C001F3B01300B70107070BD1F2BFCD91F3B3D
:102B6C000B7001231370174A137801331370F3E7BA
:102B7C001E2BF1D91E3BECE71248007884070ED1CE
:102B8C006425B0FBF5F405FB140414F0FF0F00D121
:102B9C0028B91D2BE0D91D3B0B700323E6E71C2B3A
:102BAC00DAD91C3BF8E700BF58380020702F002002
:102BBC00805101006E2F00206D2F00206C2F002003
:102BCC006F2F0020712F0020064A074B10781B78BE
:102BDC00000240EA0340054B1B781843044B186075
:102BEC00704700BF6E2F00206D2F0020702F00202B
:102BFC00682F0020064A074B10781B78000240EA29
:102C0C000340054B1B781843044B1860704700BFFA
:102C1C006F2F0020712F00206C2F0020642F0020BC
:102C2C0013B5FFF73BFFFFF7E5FF0146FFF7E2FFA8
:102C3C000446FFF7DFFFC0F30740C4F30723CAB213
:102C4C0000900D494FF4827002F0B0F9FFF7BCFF11
:102C5C000146FFF7B9FF0446FFF7B6FFC0B200907C
:102C6C00C1F30742C4F3072304494FF4827002F006
:102C7C009DF902B010BD00BF4B4404006144040038
:102C8C001FB5FFF70BFF124B1B788DF80830114B5B
:102C9C001B788DF80930104B1B788DF80A300F4BD0
:102CAC001B788DF80B300E4B1B788DF80C300D4BC0
:102CBC001B788DF80D30FFF7B3FF28230093062205
:102CCC00042302A90848FEF775F905B05DF804FB6A
:102CDC00712F00206F2F00206C2F00206D2F0020F3
:102CEC006E2F0020702F002005540320094B827991
:102CFC001A70094BC2791A70084B027A1A70084B79
:102D0C00427A1A70074B827A1A70074BC27A1A7081
:102D1C00FFF7B6BF712F00206F2F00206C2F002003
:102D2C006D2F00206E2F0020702F002070B5134CDB
:102D3C008A00A31822449B781D09062D98BF104EBB
:102D4C0003F00F0394BF755DFF25062B05719ABF29
:102D5C000C4DEB5CFF234371FF3B18BF01238371C8
:102D6C00D37014F82130084C4370537883700146AB
:102D7C00204605F0DDF80123A36070BD5C3800200F
:102D8C007E44040077440400002000407FB52249B3
:102D9C0022480022FF23CDE901228DF80930037867
:102DAC004C6C8D6B03922C40E407DBB228D5022BC4
:102DBC0026D88C6C1A4901EB8301A5B2CE7819493F
:102DCC0006B326041ED521F813201749012202FA56
:102DDC0003F30A781343154A0B701378CBB1002315
:102DEC001478DC40E407D9B20FD5017010780124B7
:102DFC0004FA03F34340DBB201A81370FFF796FF0C
:102E0C0004B070BD21F81350DFE70133032BE7D179
:102E1C00F6E703230370F3E7002000406838002036
:102E2C005C3800206C3800206A380020693800209B
:102E3C000D490E4B10B5002A14BF0A461A4604461B
:102E4C000B494FF4817002F09FF84FF4817002F03F
:102E5C0083F810B1204602F0BFF806494FF4817098
:102E6C00BDE8104002F0A2B8854404008E44040072
:102E7C009B440400F7430400012070470120704775
:102E8C00012070470B2804D009280CBF0120022018
:102E9C0070470020704700002DE9F04385B04FF4D7
:102EAC008073ADF80C3003F091F801211548DFF870
:102EBC005C80DFF85C9005F025F90121124805F0E3
:102ECC0021F90024012703AB0222E35C18F83360DC
:102EDC0008EBC30330465D680123294606F044F92C
:102EEC004946E8B203F080F8CDE9007701232A4681
:102EFC002946304606F0ECF814B105B0BDE8F08375
:102F0C000124E0E74041050000350A00A04404001C
:102F1C00A72F000008B5FFF7B5FF022816BF024B1C
:102F2C000020185C08BD00BF7238002008B5FFF700
:102F3C00A9FF02281CBF014B195408BD7238002090
:102F4C0008B5FFF79FFF022805D0034A135CB3FABC
:102F5C0083F35B09135408BD7238002008B5FFF7E2
:102F6C0091FF022811D00A4A12F8301030234B433B
:102F7C0002EBC00207491944536803EBC1039B00E1
:102F8C001868B0FA80F0400908BD0020FCE700BFCB
:102F9C00A04404001CA01042704770B50446FFF713
:102FAC00DDFF0026054601E000261D462046FFF702
:102FBC00D5FFA8420346F7D10136052EF2D12046A3
:102FCC00FFF7A8FFA8420BD029462046FFF7AEFF1B
:102FDC002046FFF79FFF01462046FFF7DDFF70BD3F
:102FEC002046FFF7ADFF2046FFF794FF0146204631
:102FFC00FFF7D2FF2046FFF7A3FFE9E708B5202132
:10300C00002001F0D3FC38B1044A05494FF481701B
:10301C00BDE8084001F0B8BF08BD00BFB0440400D3
:10302C00C144040010B596B056220021074C6846E6
:10303C003FF09AFC68461AF0C1FC20461022694603
:10304C0007F0C8F9204616B010BD00BF7538002037
:10305C00024B1870024819F0C5BC00BFB2380020F2
:10306C00B855032008B5114B1B78053B012B04D92F
:10307C0040F285210E4806F045FF4FF481700D4952
:10308C0001F082FF4FF4817001F066FF10B10A4825
:10309C0001F0A2FF09494FF4817001F087FF002174
:1030AC000420BDE80840FFF7D3BF00BFB2380020B2
:1030BC004C45040067450400A2380020F743040087
:1030CC00F0B5284B1F8893B022237F2205460C466F
:1030DC0009A8394607F082FABDF844204FF6FF7371
:1030EC009A4234D1204B6A4603F1200C1868596877
:1030FC00164603C6083363453246F7D11B78337046
:10310C00002323702378072B14D90022EA54174983
:10311C004FF4817001F04AFF2278ADF84420294623
:10312C0009A807F057F9222209A9384607F07AFABC
:10313C0013B0F0BD07F010FD12AA00F01F001044F0
:10314C00237810F8482CEA5423780133D9E72270FD
:10315C0009A9D2B2284607F03DF923780022EA5497
:10316C00E6E700BF226C04004B4604003146040025
:10317C0030B597B008AD3822002128463FF0F4FB5B
:10318C001AF0F4FA024600685168284C04AB03C3E9
:10319C00FEF73CFA01228DF81C208DF81E202278B7
:1031AC0010F1FF304FF0000318BF0120052A8DF8F5
:1031BC0018008DF819308DF81A308DF81B308DF8F9
:1031CC001D3004D040F24521194806F09BFE4FF407
:1031DC008170184901F0D8FE4FF4817001F0BCFEEB
:1031EC0010B1154801F0F8FE14494FF4817001F04C
:1031FC00DDFE134B01930F230093124A029504AB8F
:10320C0002210D4830F0D4FB024628B901460620B5
:10321C00FFF71EFF17B030BD0B494FF4817001F062
:10322C00C5FE0A4B20781968F2E700BFB2380020BF
:10323C004C450400B4460400A2380020F7430400B7
:10324C00753200003B450400CC460400742F00206E
:10325C0008B504494FF4817001F0A8FEBDE80840A0
:10326C001AF03EBDE846040010B5124B1B78062B35
:10327C001FD100F0FD0001280F4C0BD1002323704F
:10328C002378022B11D80D4B05201968BDE810408E
:10329C00FFF7DEBE22780A490132D2B203234FF483
:1032AC008170227001F082FEEAE7BDE81040FFF762
:1032BC00D9BE10BDB238002074380020742F002005
:1032CC008B460400234B10B500241C70052839D8FC
:1032DC00DFE800F003153E213318022906D11E4900
:1032EC004FF48170BDE8104001F060BE1B4B1B78A1
:1032FC0073B300210820BDE81040FFF7A9BE0021E0
:10330C000120F8E7032923D115494FF48170BDE85A
:10331C00104001F04BBE134B1A78012A10D0124CFE
:10332C00124B022A18BF1C46FFF77CFE22460346AE
:10333C000F494FF4817001F039FE00210420DAE7C7
:10334C000C4CF1E7F8210C48BDE8104006F0DABD52
:10335C0010BD00BFB8550320A5450400722F0020F6
:10336C00BF450400B23800209E450400804504008F
:10337C00D7450400894504004C45040010B50C4B9E
:10338C001B78012B044604D04FF48671094806F0D3
:10339C00B9FD5CB1224608494FF4817001F006FE7C
:1033AC0000210220BDE81040FFF752BE10BD00BF47
:1033BC00B23800204C4504001546040008B51AF03C
:1033CC00D9F9014620B90220BDE80840FFF740BEFC
:1033DC0008BD000000B58BB00DF1030101A8FFF78B
:1033EC006FFE01AA03494FF4817001F0DFFD0BB0B1
:1033FC005DF804FB6C46040008B5024658B106495A
:10340C004FF4817001F0D2FD044B00211878BDE817
:10341C000840FFF71DBE08BDE7450400B238002088
:10342C00034B1B78052B01D1FFF7A2BE704700BFE1
:10343C00B2380020034B1B78053B012B01D8FFF75A
:10344C0011BE7047B238002020B903494FF4817087
:10345C0001F0ACBD704700BF01460400002070476E
:10346C0070B5814B814D00221A702B78013BA6B0B0
:10347C00092B00F2F380DFE813F07B008600F100EB
:10348C00C300EB003A00EE000A00620078007849B5
:10349C004FF4817001F08AFD764B00241C70764B42
:1034AC001B78012B25D17549754D764E4FF48270E2
:1034BC0001F06AFD2A5D31464FF48270013401F04F
:1034CC0063FD102CF6D170494FF4827001F06EFD43
:1034DC006E4B029300216E4B0193CDE9035141F2E7
:1034EC002A536C4A0093192023461CF023FD26B066
:1034FC0070BD022BFBD16149674D624E4FF4827057
:10350C0001F042FD2A5D31464FF48270013401F026
:10351C003BFD102CF6D15C494FF4827001F046FD56
:10352C005E4B5F4A18785F4B029300215E4B019310
:10353C00CDE903515D4B1B8800932346D5E74E4BD9
:10354C00197801290AD10A46112002211CF06EFEBD
:10355C0041F288310A20FFF77BFDC8E70229F7D139
:10356C00534B012293F90000F0E71DF0C1F9BEE7BF
:10357C00FFF758FD4F4902464FF4817001F016FDDC
:10358C001AF0B6FBB3E75622002110A83FF0ECF975
:10359C002122002107A83FF0E7F91022464910A884
:1035AC0006F018FF02238DF863300DF195011123FD
:1035BC0007A88DF86430FFF783FD9DF8952007A9C7
:1035CC000DF1750006F006FF4FF481703A4A3B4945
:1035DC0001F0DAFC4FF4817001F0BEFC18B11AF066
:1035EC00C5F801F073FD07AA35494FF4817001F05D
:1035FC00DDFC344A40F2311110A81CF051FE76E784
:10360C0031491C4C4FF4817001F0D0FC1A4B1A78E4
:10361C006AB1217802290AD92149097839B1012ADC
:10362C0012D102221A7000232370FFF711FE2278A8
:10363C0026490132D2B24FF48270227001F0B6FCEE
:10364C004EF66021287886E7022AF0D10122E9E7BC
:10365C00FFF78EFD4BE7FFF7FBFD48E74FF4477193
:10366C001B4806F04FFC42E7B8550320B238002047
:10367C000047040086380020722F002011470400F8
:10368C00992F00201F470400F7430400912F0020BE
:10369C00B92F0020A92F0020802F00208738002070
:1036AC0088380020782F00209A3800209838002085
:1036BC00902F0020234704007B460400464704005B
:1036CC006747040000F8FF077A470400A547040089
:1036DC004C4504001FB51AF049F8024600685168C1
:1036EC0002AB03C30822022300930DEB0201034833
:1036FC00FDF760FC05B05DF804FB00BFA2380020AC
:10370C0010B51D4B1B78042B044604D040F2C71196
:10371C001A4806F0F7FB10222146194806F05AFE0B
:10372C00184B194800221A702146102206F052FE3E
:10373C004FF48170154901F027FC4FF4817001F0B2
:10374C000BFC10B1204601F047FC11494FF481707D
:10375C0001F02CFCFFF7BEFF0E4B1B78022B04D1A3
:10376C00FDF796FC08B9FDF783FC00210520BDE8A8
:10377C001040FFF76DBC00BFB23800204C45040070
:10378C00A23800207438002005540320244504007E
:10379C00F7430400722F00201FB50E4B079C1B78BB
:1037AC00042B14D104F11000FFF7AAFF44214B099C
:1037BC00022B02D02378FF2B07D00023CDE9013355
:1037CC0000931A46204630F037FB04B010BDA321FD
:1037DC00EDE700BFB23800201FB50D4B1B78042B52
:1037EC000CD10021102268463FF0BEF8694600203B
:1037FC0001F0B0F828B16846FFF782FF05B05DF81C
:10380C0004FB04494FF4817001F0D0FBF6E700BFD4
:10381C00B2380020144504001FB50C4B0C481B6833
:10382C008DF80F301A168DF80C201A148DF80D2007
:10383C001A122223009304238DF80E2003A91A4692
:10384C00FDF7B8FB05B05DF804FB00BF742F00203A
:10385C00A2380020014B1860FFF7DEBF742F002048
:10386C00024B00221A701AF02BBB00BF86380020C6
:10387C0000B59BB05622002104A83FF075F804A8AF
:10388C001AF09CF81AA99DF8333001F85C3D2323FB
:10389C000093012204230348FDF78CFB1BB05DF859
:1038AC0004FB00BFA238002000210920FFF7D0BB89
:1038BC0008B5044B1870FFF7BDFDBDE80840FFF7D5
:1038CC00C7BC00BF722F002010B5074C0146102258
:1038DC00204606F07FFD224604494FF48270BDE875
:1038EC00104001F063BB00BF88380020E74404009F
:1038FC00F7B501460822684606F06CFD1249134DD7
:10390C00134E144F4FF4827001F03EFB00241DF84F
:10391C000420625531464FF4827001F035FB04F0FF
:10392C00FD03012B01D0052C04D139464FF48270D4
:10393C0001F02AFB0134082CE9D107494FF48270BD
:10394C0001F034FB03B0F0BD0A4504009A380020A6
:10395C00D33F040049600400F7430400034B0449BF
:10396C00188002464FF4827001F020BB983800207A
:10397C00F9440400034B0449187002464FF482705A
:10398C0001F014BB87380020C644040070B5014612
:10399C0010220D480C4E0D4D06F01CFD0C494FF439
:1039AC00827001F0F1FA0024325D29464FF48270E6
:1039BC00013401F0E9FA102CF6D106494FF482706B
:1039CC00BDE8704001F0F2BA802F00201F470400C0
:1039DC00D7440400F7430400FFF740BD00F06CB877
:1039EC0000F06BB800F06BB800F06BB808B500F0E5
:1039FC0019FE01F02BFF00F065F808F021FF09F02B
:103A0C00D9FBBDE8084012F0A3BC08B5FFF7F6FAE5
:103A1C0007F0A4FA07F08EFB19F028FE00F053F81B
:103A2C00BDE8084009F07ABF08B500F049F80BF082
:103A3C0073FE0DF053FE10F067FABDE808400EF06F
:103A4C001BBB70B504460D461646FFF73BFC3246D1
:103A5C002946204608F016FF3246294620460DF02E
:103A6C0079FB3246294620460DF002FF32462946A4
:103A7C0020460FF08DF8324629462046BDE87040AE
:103A8C0010F048BA00F068B82DE9F341089C009496
:103A9C0005460E461746984600F060F843463A46EF
:103AAC0031462846089402B0BDE8F04110F068BADF
:103ABC0000F05BB870477047704701207047704743
:103ACC0070477047704770477047002070477047C9
:103ADC007047002070477047704708B9FFF7C8BEA1
:103AEC007047704770477047704708B9FFF7DCBEE6
:103AFC007047704770477047002070477047704799
:103B0C00704770471FB504A9212301F8040D012249
:103B1C00009303480423FDF74DFA05B05DF804FB50
:103B2C00055403207047704770470020704770475A
:103B3C000020704770477047704770477047704758
:103B4C007047704714F08AB810B4BDF8084002945E
:103B5C005DF8044BFCF7BEBF012070477047862010
:103B6C0070478620704770477047704781210EF070
:103B7C00A1B981210EF09EB981210EF09BB9812152
:103B8C000EF098B981210EF095B981210EF092B901
:103B9C001FB5064B0193064B0292009300220B4675
:103BAC0004490EF025F905B05DF804FB0856040035
:103BBC00F8550400625804001FB5064B019300230E
:103BCC000292009301220B4603490EF011F905B045
:103BDC005DF804FBE8550400625804001FB5064B61
:103BEC000193064B0292009302220B4604490EF0FD
:103BFC00FFF805B05DF804FBD8550400C855040067
:103C0C00625804001FB5064B0193064B02920093B9
:103C1C0040220B4604490EF0EBF805B05DF804FBAE
:103C2C003056040018560400625804001FB5064BA9
:103C3C0002920022019300920B4604490EF0D8F830
:103C4C0005B05DF804FB00BF585604006E58040024
:103C5C001FB5064B019300230292009301220B46E1
:103C6C0003490EF0C5F805B05DF804FB905604004E
:103C7C006E5804001FB5064B01930023029200936B
:103C8C0002220B4603490EF0B3F805B05DF804FBB5
:103C9C00E05604006E5804001FB5064B0193064B0A
:103CAC000292009340220B4604490EF0A1F805B095
:103CBC005DF804FB80560400685604006E5804003E
:103CCC001FB5064B019300230292009341220B4631
:103CDC0003490EF08DF805B05DF804FBA056040006
:103CEC006E5804001FB5064B0193064B02920093CD
:103CFC0042220B4604490EF07BF805B05DF804FB3C
:103D0C00D0560400B05604006E58040007B5054B9D
:103D1C000093054A054B064800210DF0E3FE03B065
:103D2C005DF804FB148E0400F85504009D3B000064
:103D3C006258040007B5054B00930022044B05485C
:103D4C0001210DF0CFFE03B05DF804FBF743040036
:103D5C00C53B00006258040007B5054B0093054AAB
:103D6C00054B064802210DF0BDFE03B05DF804FBC7
:103D7C0073820400C8550400E93B0000625804003B
:103D8C0007B5054B0093054A054B064840210DF03D
:103D9C00A9FE03B05DF804FBFB50040018560400A8
:103DAC00113C00006258040007B5054B009300223B
:103DBC00044B054811460DF095FE03B05DF804FB6D
:103DCC00F7430400393C00006E58040007B5054B5E
:103DDC0000930022044B054801210DF083FE03B033
:103DEC005DF804FBF74304005D3C00006E580400D2
:103DFC0007B5054B00930022044B054802210DF03A
:103E0C0071FE03B05DF804FBF7430400813C000035
:103E1C006E58040007B5054B0093054A054B064840
:103E2C0040210DF05FFE03B05DF804FBFB50040075
:103E3C0068560400A53C00006E58040007B5054BFD
:103E4C0000930022044B054841210DF04BFE03B0BA
:103E5C005DF804FBF7430400CD3C00006E580400F1
:103E6C0007B5054B0093054A054B064842210DF05A
:103E7C0039FE03B05DF804FB64500400B056040036
:103E8C00F13C00006E5804001FB5064B0193064B25
:103E9C000292009301220B4604490DF0A9FF05B0D4
:103EAC005DF804FB50570400205704007A580400B6
:103EBC001FB5064B0193064B0292009306220B464C
:103ECC0004490DF095FF05B05DF804FBA057040004
:103EDC00785704007A5804002DE9F04FA5B08046BD
:103EEC008A46002006A900F035FD50B94FF48270C7
:103EFC004B4B4C4A4C4901F059F8022025B0BDE817
:103F0C00F08F0021012000F085FC16AF3822002133
:103F1C008146002438463EF027FDADF8164000F0EF
:103F2C0087FB02286ED90DF11601022000F0A2FCCD
:103F3C00064600F07DFB032806D92146032000F03D
:103F4C0069FC03788DF88C30384C22684FF6FF737F
:103F5C009A420AAD58D036494FF4827001F026F8D7
:103F6C0022680C2128462FF0B9FF0124DFF8D8B0C5
:103F7C00DBF800204FF6FF739A420CD02D494FF41A
:103F8C00827001F013F805EB0410DBF8002011210E
:103F9C002FF0A4FF0134DFF8B4B0DBF800204FF6AB
:103FAC00FF739A420CD024494FF4827000F0FEFF4C
:103FBC0005EB0410DBF8002017212FF08FFF0134E4
:103FCC001C958DF87440BAF1000F0ED041F234619B
:103FDC0006A80EF057F8C8B1184B219341F2346380
:103FEC002290ADF86A30ADF86C30154B0193BDF8EA
:103FFC0016300093029733464A46414606A82FF0E6
:10400C00D7FC7BE726469FE70024AFE74FF482708E
:10401C000C4B044A044900F0C9FF01206EE700BFB5
:10402C00805804008B5804008F580400E42F0020A3
:10403C0096580400B1580400CB58040085000300C6
:10404C005D400000E9580400DC2F0020E02F002028
:10405C002DE9F0439BB004460E464FF482705F4945
:10406C00BDF8885090461F4600F08EFF20462FF07A
:10407C00FDF95B4902464FF4827000F085FF002C7D
:10408C0056D030462FF0CAF9554902464FF482708B
:10409C0000F07AFF0022114640462FF08EFA431CA6
:1040AC00064626D06422002101A83EF05DFCB0B289
:1040BC00632845D90130002180B217F0CDFE0028CD
:1040CC0042D017F027FB4FF000090446B2B221464C
:1040DC0040462FF072FA224642494FF4827000F0AB
:1040EC0053FFB9F1000F04D03F494FF4827000F038
:1040FC004BFFEDB101AA0C2140462FF04BFA40B317
:10410C00019C20462FF09EF9384902464FF48270EC
:10411C0000F03AFF0CB1282C1ED14FF4827000F045
:10412C001BFF28B12A4639464FF4827000F0B0FFCD
:10413C002F494FF4827000F039FF1BB0BDE8F083BB
:10414C004FF0000901ACC1E74FF0010901AC632647
:10415C00BCE74FF0FF34D4E73C2C03D04FF6286378
:10416C009C4233D100214FF4806017F075FE28B9C2
:10417C0020494FF4827000F019FFD9E717F0CAFA02
:10418C002946044602464FF4806338460BF0CEF8BD
:10419C00194F204485B200262B1B9BB2802B06D8CE
:1041AC00224615494FF4827000F0EEFEC0E794F8F9
:1041BC00808084F88060224639464FF4827000F08B
:1041CC00E3FE06F0C5FA04F8808FE5E700232A46E3
:1041DC0039464FF4827000F067FFA9E711590400CB
:1041EC00A57404001B590400BA5A04002159040098
:1041FC00F74304002A590400A67404001FB50020DC
:10420C00694600F0A7FB48B9094B0A4A0A494FF422
:10421C00827000F0CBFE05B05DF804FB694641F2FC
:10422C00336028F032FD054A05490346EFE700BF2D
:10423C00805804008B5804008F5804001C51040053
:10424C000959040010B500210120FFF745FE044A6E
:10425C0004490346BDE810404FF4827000F0A6BE3E
:10426C00065204000959040010B500210220FFF782
:10427C0033FE044A04490346BDE810404FF48270F3
:10428C0000F094BE0A5204000959040010B5002134
:10429C000320FFF721FE044A04490346BDE8104001
:1042AC004FF4827000F082BE1452040009590400CD
:1042BC0010B500210420FFF70FFE044A0449034601
:1042CC00BDE810404FF4827000F070BEFF51040046
:1042DC0009590400012110B50846FFF7FDFD044AF9
:1042EC0004490346BDE810404FF4827000F05EBEF6
:1042FC00065204000959040010B501210220FFF7F1
:10430C00EBFD044A04490346BDE810404FF48270AB
:10431C0000F04CBE0A5204000959040010B50121EA
:10432C000320FFF7D9FD044A04490346BDE81040B9
:10433C004FF4827000F03ABE145204000959040084
:10434C0010B501210420FFF7C7FD044A04490346B8
:10435C00BDE810404FF4827000F028BEFF510400FD
:10436C000959040008B5002000F0E4F9014B18606D
:10437C0008BD00BFDC2F002008B5002000F0DAF9E2
:10438C00014B186008BD00BFE42F002070B5012060
:10439C0000F0D0F90128124C03D94FF6FF732360BB
:1043AC0070BD002000F0C6F97F28F6D8022000F07E
:1043BC00C1F9B0F1805FF0D2012000F0BBF90546E5
:1043CC00002000F0B7F90646022000F0B3F90246CF
:1043DC00281CF1B218BF01202FF06AFD2060DFE726
:1043EC00E02F00202DE9F04F074685B008460D461A
:1043FC00904699463EF089FBBDF838A00F9E204CA4
:10440C008346636853B9CDE9013300931A4684217E
:10441C0030462FF011FD05B0BDE8F08F22892078D1
:10442C00991811F8011C2F2904BF02F1FF3292B226
:10443C0008B1B84221D12F291DD1934506D3A95CCF
:10444C00B9B12F2914BF0021012100E00021A1B135
:10445C00294618463EF061FB78B9CDE90EA6E46812
:10446C004B46424629463846A44605B0BDE8F04FB7
:10447C0060470121EBE79345E4E71034C1E700BF47
:10448C004C52040000207047002070477047704762
:10449C00F8B50546846802681B49202009F093F999
:1044AC006B68DBB1194D1A4E1A4F013C14F8013FE1
:1044BC00C3B1752B1CD0762B1CD0772B1CD0732B37
:1044CC001CD0622B1CD06E2B1CD01349134A2A2BE8
:1044DC0018BF1146202009F076F9E7E71049202093
:1044EC0009F071F90F492020BDE8F84009F06BB9CB
:1044FC002946EFE73146EDE73946EBE70A49E9E7AC
:10450C000A49E7E70A49E5E74A6804008E5A0400BD
:10451C00825A0400995A0400C15A0400BE5A04007D
:10452C00BA5A04007F5A0400A55A0400AF5A04007A
:10453C00B95A040013B50446FFF7AAFF01A9204697
:10454C0000F020FA18B1084C019B1B680BB902B0A3
:10455C0010BD2146202009F036F90198FFF798FF8D
:10456C00019B0C330193EFE70B94040008B504494D
:10457C00202009F028F92020BDE8084009F0B7B93F
:10458C007059040038B5FFF7F1FF064D002460198F
:10459C000C34631953F80C3C03B938BDFFF778FFA2
:1045AC00F5E700BF4C4A0400094B10B553F8202026
:1045BC000C462020074909F006F944B10649202091
:1045CC0009F001F92046BDE81040FFF7B3BF10BD5C
:1045DC00505904003A590400465904000023037052
:1045EC00A0F8663080F88630C0F890304FF07F42EB
:1045FC00A0F88C300A23C0F8882080F88E307047E1
:10460C00074B00224FF07F411A70A3F8662083F805
:10461C008620C3F8881083F88C20C3F8902070474C
:10462C00C05503200148FFF7D9BF00BFC055032078
:10463C00034B93F8860093F88C30C01AC0B27047C5
:10464C00C0550320034B03EB40000133B0F8660068
:10465C0018447047C0550320044B03EB400292F8FA
:10466C00680092F86630C01AC0B27047C05503207B
:10467C00044B03EB4002B2F86800B2F86630C01A83
:10468C0080B27047C0550320054A92F88C3018440C
:10469C0040B202EB40000132B0F86630D05C70479B
:1046AC00C05503202DE9F047204C054694F88C00AA
:1046BC002844C0B243B204EB43030E46B3F8668001
:1046CC00FFF7CAFF8146FFF7B3FFA84294F88E703C
:1046DC0003D8D521164805F015FC4FF0000A5546B5
:1046EC005FFA8AF399451CD90AEB080222445078E8
:1046FC0016B10BB92D280DD000F0DF02582A03D1CA
:10470C0015B9013B012B0FD918F048FE874204D98B
:10471C0005FB07050AF1010AE2E7052384F88A3054
:10472C0000252846BDE8F0871027F3E7C055032085
:10473C00335B040010B5164991F88E30FF2B0446FC
:10474C0021D1FFF789FF64B201EB44040246B4F8AF
:10475C0066004B1C012A00EB030101D1C05C10BDAB
:10476C00022A03D1084618F01FFDF8E7042A04D1E9
:10477C000020BDE8104018F045BD0648F92105F0B1
:10478C00C1FB0020EBE70021BDE81040FFF78ABF1A
:10479C00C0550320335B040038B51C4991F88E30AA
:1047AC00FF2B044623D1FFF757FF64B201EB4404FF
:1047BC0002464B1CB4F86600012A00EB0301C456F8
:1047CC0001D1204605E0022A04D1084618F0ECFC81
:1047DC0000B238BD042A04D10020BDE8384018F0DE
:1047EC0011BD4FF48A710A4805F08CFBE9E7FFF71D
:1047FC004BFFA0F12D035942054659412046FFF7C6
:10480C0051FF2D2D08BF4042E3E700BFC0550320E8
:10481C00335B0400F8B5164B93F88E20FF2A044640
:10482C001D4603F101060CD121B1C0B2FFF714FFF4
:10483C000138087005EB4404B4F8660001303044CC
:10484C00F8BD93F88C002044C0B242B203EB420393
:10485C00E543B3F86670ED0FF41939B1FFF7FCFEC0
:10486C00F35D401B222B08BF013808706019E7E785
:10487C00C0550320F8B5164B93F88E20FF2A04463A
:10488C001D4603F101060CD121B1C0B2FFF7F0FEB9
:10489C000238088005EB4404B4F86600023030445A
:1048AC00F8BD93F88C002044C0B242B203EB420333
:1048BC00E543B3F86670ED0FF41939B1FFF7D8FE84
:1048CC00F35D401B222B08BF013808806019E7E715
:1048DC00C05503202DE9F3410D460DF1070190461B
:1048EC0007461C46FFF796FF0646F8B2FFF7CCFECC
:1048FC00A0F122035F429DF807105F413944C9B211
:10490C00414528BF41468DF807101CB1CCB2A8EB2D
:10491C000404E4B222462846002105F0E5FD2819DE
:10492C009DF80720314605F055FD9DF80700C01B8A
:10493C00C0B202B0BDE8F08113B501230C460822C9
:10494C006946FFF7C7FF08226946204618F07BFC32
:10495C0002B010BD10B540B20C460021FFF75AFF53
:10496C002146BDE810401EF0F6B938B540B20C46F1
:10497C0015460021FFF74EFF2A462146BDE8384078
:10498C001EF0FCB908B5D0E9012312B90B60012067
:10499C0008BD1B786E2B04D14FF4D871024805F07A
:1049AC00B1FA0020F4E700BF335B04002DE9F04FAF
:1049BC00A24C97B0814688460026B9F1000F0DD164
:1049CC000DF113015FFA88F008F08AFF90B12628E8
:1049DC0000F0B281012384F88A3051E0B8F1000F65
:1049EC0000F0AA8119F8013B8DF8133008F1FF385B
:1049FC001FFA88F894F88D309DF8135084F88D5078
:104A0C000D2B01D10A2DD8D00D2D0CD0A5F10A03F8
:104A1C005F425F4123783E46042BCED8DFE803F09B
:104A2C00051A244232000127F4E7002F5BD1202D18
:104A3C0000F06581222D08D102232370B4F8882060
:104A4C00642A40F05E810623C5E77B2D0CBF03234F
:104A5C000123F2E70FB9202DF0D194F886300F2BFB
:104A6C0040F03E810323B6E7222D03D100238DF8BD
:104A7C001330E3E7002FE1D0052384F88A300126B8
:104A8C0004232370002E98D094F88A0018B1D4F81F
:104A9C009010FFF789FDFFF7B3FD9DF8133084F8F4
:104AAC008D308AE77D2D94F88BA004D1BAF1FF0FDD
:104ABC00D3D005238FE7284618F070FC0F280FD8A9
:104ACC00BAF1FF0F09D094F88B3000EB0310FF23E1
:104ADC008DF8130084F88B30B0E784F88B006CE70A
:104AEC00202DE6D169E7564B059394F88630002BC0
:104AFC00C5D0002778B2059DFFF7A4FD8246384645
:104B0C00FFF7AAFD0022029016469346296861B968
:104B1C00E2B10591022384F88A3094F88A30002B94
:104B2C00ADD1059B5B689847A9E70B7843B34B1E47
:104B3C000193D446019911F8013F01910299ACEB14
:104B4C000A0088423ED1002B3DD1AB46CDF814B0C3
:104B5C00BBF1000FDED094F88C30C4F890B0013764
:104B6C00013305A95846FFB284F88C30FFF70AFFD1
:104B7C00002844D094F88630BB42BBD80323CAE744
:104B8C000F2EAB6808D94FF480712E480392019315
:104B9C0005F0B8F9039A019B16A901EB86010C35B7
:104BAC00013641F8405CF6B21D462B68002BADD1A6
:104BBC00002EABD0013EF6B216AB03EB860353F8D6
:104BCC00405CA3E72BB9BBF1000F16D001220C35CA
:104BDC00EBE71CF8010BA0F1410EBEF1190F98BFC9
:104BEC002030A3F1410E98BFC0B2BEF1190F9CBF8B
:104BFC002033DBB283429DD0E9E7AB46E7E7059B68
:104C0C009B681B783F2B88D0064605464FF0070A59
:104C1C004FF0040B40E0104602930192FFF734FD75
:104C2C00029B019A732B0FD8712B11D2002B55D0EC
:104C3C00622B4BD084F88AA020E000BFC055032023
:104C4C004C4A0400B65B0400A3F175010229F1D8AB
:104C5C00752B34D0762B34D0732B35D0722B47F682
:104C6C00FF7318BF4FF0FF33012110460193FFF77C
:104C7C0019FD019B984201D984F88AB0059B9B6869
:104C8C002B4401365B782A2B94F88A301CBF0135F3
:104C9C00EDB2002B7FF4F3AE059B94F886C09968B7
:104CAC00F2B2B818C0B284454B5DB4D8002B3FF4B7
:104CBC0034AF0D446B782A2B7FF460AF2DE7FF23C4
:104CCC00D2E74FF6FF73CFE77F23CDE72228D5D06D
:104CDC007B28D3D0052384F88A30CFE70323FAE767
:104CEC000133DBB284F8863004EB4303B4F888203C
:104CFC00A3F8662000232370002F7FF4F4AE3E4609
:104D0C005BE62178012909D19DF81330A3F141000C
:104D1C0019289CBF2033DBB28DF81330A0189DF8F6
:104D2C001330437001320229A4F888207FF445AE79
:104D3C00002B3FF492AE40E6304617B0BDE8F08F42
:104D4C00012270B51146042003F0B0FB1A4B1B4D29
:104D5C001A681B4842F001021A60DA684FF060448E
:104D6C0042F08072DA60174BC4F8B03F0026022381
:104D7C00C4F8006EC4F8806EC5F8F03003F0A2FAE7
:104D8C0000F5D520104B114A00F2FC40B0FBF3F0BB
:104D9C000F4B01382861C4F8406E1A600D4BC4F8F3
:104DAC00803E4FF48073C5F80433D4F8003E43F4CE
:104DBC008073C4F8003E70BDF0ED00E0000004E02C
:104DCC0006000E0055CEACC5F8590D00FF0300408F
:104DDC00001000E00D00010010B50121114803F096
:104DEC0091F9114B01241C60002004F065F9234655
:104DFC0004220221052004F0B7F9204618F088F9A6
:104E0C00FFF79EFF18F08AF9084B1C7009F0A0FB05
:104E1C00234640220649074809F070FB064B1860F0
:104E2C00C00F10BD00350A0010881442B3380020A2
:104E3C00B4380020345C0400E82F0020024B1868C2
:104E4C00003018BF01207047F0ED00E0054A4170BA
:104E5C00D12303701378C370090A8170591C117027
:104E6C0004207047F43800202DE9F74F0E78042EFB
:104E7C0081460F4658D93DF064FA751DDFF8ACA099
:104E8C00EDB280464FF6FF710024DAF800305BB1CA
:104E9C00A54209D901913DF054FAA0EB080080B26B
:104EAC00B0F5FA7F019907D9281B18BF01200423FC
:104EBC003B7003B0BDE8F08F64B3012C2ED0EB1E19
:104ECC0004F1010B9C425FFA8BFB12D1CCB24FF078
:104EDC006043D3F8802ED00709D5D3F8002ED20525
:104EEC0005D51846026A002AFCD083F820405C469F
:104EFC00CBE7AB1E9C4202D1C1F30724E7E76B1E44
:104F0C009C420FD04C4414F8024C204605F008F992
:104F1C000146DCE75B244FF0010BD8E734464FF039
:104F2C00020BD4E75D24D2E70020C0E7F0ED00E0EF
:104F3C0000B5084B91B040226946186809F0CCFACC
:104F4C0020B1C2B26946122018F0FAF811B05DF81F
:104F5C0004FB00BFE82F0020094B18804FF6FF73AD
:104F6C00984209D0030A012B08D8064AD35C0342A5
:104F7C0014BF0120002070470120704700207047AB
:104F8C00F6380020EC2F00200EB417B505AC54F801
:104F9C00041B0194FFF7E0FF18B12246202008F013
:104FAC003AFC03B0BDE8104003B070470EB417B51F
:104FBC0005AC54F8041B0194FFF7CEFF30B1224628
:104FCC00202008F028FC202008F00CFC03B0BDE8E1
:104FDC00104003B07047000000B58BB02822694622
:104FEC001DF0A6FE28B1044B044918886A46FFF749
:104FFC00CBFF0BB05DF804FBF6380020A674040060
:10500C0000B58DB02C2301AA1DF09CFE28B1044BD9
:10501C000449188801AAFFF7B7FF0DB05DF804FB2F
:10502C00F6380020A674040008B5FFF795FF20B1F0
:10503C002020BDE8084008F05ABC08BD2DE9F84F07
:10504C0007468846164699469DF828A0FFF784FF28
:10505C0028B1002406F1FF3BB442A5B201D1BDE852
:10506C00F88FBAF1000F10D0ABEB040318F8032043
:10507C004946384605F00F05FFF786FF062D02D18D
:10508C003846FFF7D1FF0134E6E72346EEE7000090
:10509C0007B500230093034BFFF7D0FF03B05DF877
:1050AC0004FB00BF3969040037B500240094054D9A
:1050BC00054C002B14BF2B462346FFF7BFFF03B054
:1050CC0030BD00BF1F470400D33F040037B5084C68
:1050DC00084905462088FFF757FF012300932088D5
:1050EC00054B08222946FFF7A9FF03B030BD00BFCE
:1050FC00F638002035730400D33F040037B5084C54
:10510C00084905462088FFF73FFF012300932088BC
:10511C00054B08222946FFF791FF03B030BD00BFB5
:10512C00F638002035730400D33F040038B504462C
:10513C000D46C2B14FF481700B49FFF725FF4FF4B8
:10514C008170FFF709FF18B129462046FFF758FF79
:10515C0006494FF48170FFF729FF29462046BDE828
:10516C0038403AF01DBE38BD495C0400657404003B
:10517C0070B50D4616460446A8B14FF481700A4925
:10518C00FFF702FF4FF48170FFF7E6FE18B13146CE
:10519C002846FFF735FF224604494FF48170BDE8DD
:1051AC007040FFF703BF70BD445C0400655C0400F5
:1051BC002DE9F04F4D4CA36BD4F850B0D4F840A06F
:1051CC005A074FBF0027D4F84CB0D4F85480D4F809
:1051DC003CA05ABF464FDFF84091DFF84091454A5A
:1051EC0048BFB84613F0080F434B18BF1A46B7EB2D
:1051FC0008061CBF7308642187B01FBF01FB0B336B
:10520C00B3FBF6F39BB205933C49CDF800804B46BB
:10521C00CDE9017A08BF0596054608F0E9FAB3B264
:10522C00CDE900931FFA8BF2059B3549284608F00F
:10523C00DFFAA36B5B070AD49C3E5E4507D1626D17
:10524C00304B9A4203D23049284608F0D1FABA457D
:10525C0001D8C24504D24A462C49284608F0C8FA5F
:10526C00284608F044FB236E0BB9636EBBB3284988
:10527C00DFF8AC80DFF8AC90284608F0A4FA0026E2
:10528C000127226E07FA06F3134207D058F826209E
:10529C0013781BB14946284608F095FA0136202EA2
:1052AC00EFD1DFF87C80DFF87C9000260127626E5E
:1052BC0007FA06F3134209D008EB8603D3F88020D3
:1052CC0013781BB14946284608F07DFA0136122E98
:1052DC00EDD1284607B0BDE8F04F08F083BA0D4970
:1052EC00284607B0BDE8F04F08F082BA0000002055
:1052FC00D82E00209D8E0400B4A004006B5F040027
:10530C00995F04009C000020D25F0400FE5F040043
:10531C001C6004004B600400665F04005E5F0400C8
:10532C0060600400496804002DE9F843044604F069
:10533C005BFF40F60123984239D010D840F202535B
:10534C0098421DD040F20173984224D040F2015390
:10535C00984213D16549204608F04AFA22E040F6FB
:10536C00032398426CD03DD340F60423984200F0BE
:10537C009C8040F60523984200F0B580BDE8F88388
:10538C005B49204608F034FA5A4B5B495A6C20466C
:10539C0008F02EFA06E0574A5849D2E92523204650
:1053AC0008F026FA2046BDE8F84308F0A0BA514DA3
:1053BC005349204608F01CFA95F86C309F0703D52A
:1053CC005049204608F014FA95F86F305E0603D564
:1053DC004D49204608F00CFA95F96F30002BE1DAB4
:1053EC004A49B8E7434D4A49204608F001FA95F876
:1053FC006830980704D06A6C3F49204608F0F8F9E9
:10540C0095F96830002B04DA6A6F4249204608F09F
:10541C00EFF9DFF80C81DFF8189100260127AA6E4E
:10542C0007FA06F3134207D058F8262013781BB15D
:10543C004946204608F0DCF90136082EEFD1B1E7D9
:10544C002C4D3549204608F0D3F92B496A6C20467F
:10545C0008F0CEF995F86930590703D52F49204645
:10546C0008F0C6F995F96930002B04DA6A6F2949FE
:10547C00204608F0BDF92A4FDFF8B4800826AB6E41
:10548C00F340DA0707D557F8262013781BB14146AD
:10549C00204608F0ADF90136102EF0D195F86830A1
:1054AC00002B7FF47FAF1F4955E7124D1E491C4F4F
:1054BC00DFF87C80204608F09BF96A6C0E49204688
:1054CC0008F096F91026AB6EF340DB0707D557F8BA
:1054DC00262013781BB14146204608F089F9013685
:1054EC001A2EF0D15EE711494BE700BFED5C0400CA
:1054FC002A5D0400000000205A5D0400735D040066
:10550C008D5D0400A55D0400DF5D0400125E0400E7
:10551C004E5E0400735E0400975E0400AE5E0400F1
:10552C007C5C0400F45E0400245F04003D5F040016
:10553C008F5E04002DE9F84F164C174FDFF8608092
:10554C00DFF860A00646002523785FFA85FB0BB9CF
:10555C00BDE8F88F57F8043B10492246304608F056
:10556C0032F9227804F1010982B9627882B10BF028
:10557C00030103290CBF41465146304608F023F97C
:10558C00304608F0B4F901354C46DDE74C46E8E707
:10559C004146F2E72861040004000020E45C0400AA
:1055AC007F5A0400D440040038B505460C4618F068
:1055BC00DDF808232860238038BD000010B50020DA
:1055CC0090B0FFF7B7F840226946044600F028FA7D
:1055DC00034638B1224606494FF48170FFF7E6FCCA
:1055EC0010B010BD01226946082000F0A7F8F7E7BB
:1055FC00B767040010B500F0CFF8002814BF79226B
:10560C006E2217494FF48170FFF7D0FC00F0C4F8FC
:10561C0018B300F03FFA002814BF79226E2211490A
:10562C004FF48170FFF7C2FC02220F494FF48170D6
:10563C00FFF7BCFC0D4B0E4953F8042C1C1F4FF408
:10564C008170FFF7B3FC04F11003E26808494FF4D2
:10565C008170BDE81040FFF7A9BC3F22DFE700BF17
:10566C00256904003C6904004C6904005856032069
:10567C006B69040070B500F095F8244904464FF4AA
:10568C008170FFF793FC34B921494FF48170BDE868
:10569C007040FFF78BBC00F08DF822691D492688FD
:1056AC0005464FF48170FFF781FC62881A494FF46C
:1056BC008170FFF77BFC1949A2884FF48170FFF7CA
:1056CC0075FC6388E28813F0100F14BF1449154958
:1056DC004FF48170FFF76AFCA26813494FF4817094
:1056EC00FFF764FCE26811494FF48170FFF75EFC30
:1056FC000F4A104B1049B6F5817F28BF13464FF463
:10570C0081702A46BDE87040FFF750BC0168040068
:10571C000E6804002F6804004D6804006E680400D5
:10572C008B680400A8680400C6680400E4680400E0
:10573C00EF670400F9670400026904002DE9F047E3
:10574C00124EDFF84C90DFF84CA005460F46904601
:10575C000024AC4201D1BDE8F08707EBC401012362
:10576C0008224FF48170FFF79FFC0134B8F1000F51
:10577C0009D1A5420CBF32464A4651464FF48170BE
:10578C00FFF714FCE5E73246F7E700BF7F5A040049
:10579C00F743040049680400014B1878704700BFB8
:1057AC00F838002008B500F019F8BDE8084004F0FE
:1057BC00BBBA000010B5084C237853B9FFF7F2FFC1
:1057CC000123237028B10388B3F5817F24BF037DA7
:1057DC002370207810BD00BFF938002038B5164C66
:1057EC0023783BBB04F07EFA144902464FF48170D7
:1057FC00FFF7DCFB01232370114C2578FF2D19D109
:10580C0004F092FAA8B143880E48C3F3400318225F
:10581C002946237004F068FE2378012B0AD1FFF788
:10582C00C9FF042806D9CA210748BDE8384004F04E
:10583C0069BB207038BD00BFF83800208E690400A9
:10584C00EE2F002054560320A0690400FFF7C6BFBA
:10585C002DE9F04F87B04FF0FF3300260393074636
:10586C008B461546CDE904668DF81030FFF7B6FF70
:10587C00FFF7A0FF544B1B78012B80461AD101284F
:10588C0018D9B7FBF0F300FB13739BB14F4C226894
:10589C00511C03D0237A13449F4237D0E268531C27
:1058AC0003D0237D13449F422FD040F22B11484844
:1058BC0004F028FB444C2278012A09D1B7FBF8F3F9
:1058CC0008FB137323B14FF4A971414804F01AFB80
:1058DC002378012B12D1EB19B3FBF8F408FB143429
:1058EC0064B1A6B2291B1B1B3246594404A8AD1B3C
:1058FC000393ADB204F06EFD8DF81440002D43D12E
:10590C00039B01334CD1002646E001260C2303FBFC
:10591C00064332B2187AA8EB00095FFA89F95300F2
:10592C00A945134428BF5FFA85F99B001FFA89FA31
:10593C000093043318445246A5EB0A054FF00C0AA9
:10594C00594620440AFB06F6019304F043FDA119C5
:10595C00ADB20A7A019B4A44D2B242450A720FD1C7
:10596C00E1181FFA88F2A05904F02AFA009B23448C
:10597C0006465246FF21184604F0B6FD66B9CB44E4
:10598C00002DC0D04F4495E72A465946384604F0BE
:10599C0017FA06460028B3D0304607B0BDE8F08FA2
:1059AC000A48036801330BD0C36801330AD10123C1
:1059BC000C220DEB020102FB030004F00BFDA2E72D
:1059CC000023F5E70126E7E7EE2F002054560320CD
:1059DC00A069040038B50F4B1B78012B18D10E4C65
:1059EC00FFF7FCFE25686A1C07D0FFF7E3FE211DBC
:1059FC0082B2284604F0E4F958B9E468631C07D075
:105A0C00FFF7D8FE054982B2204604F0D9F900B957
:105A1C00002038BDEE2F002054560320645603207E
:105A2C0070B504460D461646FFF7D8FE3246294699
:105A3C002046BDE8704004F0D5B90000F8B5044626
:105A4C000E46124DFFF7CAFE3146204604F0DCF933
:105A5C002B68591C074609D09C4207D8A2199342BF
:105A6C0004D20C22FF21284604F03EFDEB685A1CA0
:105A7C0009D0A34207D33444A34204D20C22FF2101
:105A8C00034804F031FD3846F8BD00BF54560320DE
:105A9C006056032008B5FFF7A1FEBDE8084004F0EE
:105AAC00C5B900002DE9F04F9B46584B85B01B78CB
:105ABC00109F9DF844A0DDF8508006468946154697
:105ACC00002B00F09280072A00F291800E9B002B95
:105ADC0000F08D800F9B002B00F08980129BB3F59A
:105AEC00006F00F38480012801D1002F7FD0484B38
:105AFC0003EB05131B7B002B7BD0464C10220021A3
:105B0C0068463CF031FF04EB45141022B9F1000F4C
:105B1C005CD1494620463CF027FFA37843F01003A4
:105B2C00A370E37843F03003E370BAF1000F03D1B4
:105B3C00DBB243F00303E3703649129BCDF800B09F
:105B4C006A01013B885A01EB020C63F30E10885278
:105B5C000E9BCCF808300F9BCCF804309DF84C1001
:105B6C009CF80330012E61F383038CF8033042D18F
:105B7C001323CCF80C309CE80F000CF1100E8EE8BF
:105B8C000F00DCF81C20CCF814706FF0030161F3EB
:105B9C009F02B9F1010FCCF81C2004D10F9BCCF85B
:105BAC001830CCF804701A492A018B1841F802807D
:105BBC000027159A5A6028469F605E7322466946F4
:105BCC0003F0FEFC384605B0BDE8F08F00212046FE
:105BDC003CF0CAFE1023A3700323E370BAF1000F4C
:105BEC00AAD1DBB243F03003A5E70B48EBE70B4837
:105BFC00E9E70B48E7E7B8F1000FD4D19CF8023085
:105C0C0068F304138CF80230CDE700BF7C3A002017
:105C1C00FC3800207C390020028000F0018000F06C
