S016000041514D2D4669726D776172652D56322E733337E0
S214000000D82E0020812304004DA4000051A4000037
S214000010A70A02020002000004180FAC5029B00123
S21400002000000000000000000000000000000000CB
S214000030000000001C860400000000000000000015
S2140000400000000000000000FFFFFFFFFFFFFFFFB3
S214000050FFFFFFFFFFFFFFFFFFFFFFFFFFFFFFFFAB
S21400006000700F000000000000001000FFFFFFFF00
S214000070FFFFFFFF0100000000000000000000007E
S214000080206E0320206203202062032020620320CB
S214000090D82E00208CEF04001C58040000200020FE
S2100000A0DC1F002000001000206E032073
S214000200D82E0020812304004DA4000051A4000035
S21400021059A4000055A400005DA400007F2304003C
S2140002207F2304007F2304007F2304007F23040031
S21400023061A400007F2304007F2304007F230400C2
S214000240796A0000E5B1030035A9000028A6000081
S214000250A9AC030051B20300F1B1030009B20300D8
S214000260E9B10300896100005D6200009D80000026
S214000270C1E0000028A6000028A60000E52F000028
S21400028028A6000028A600008162000028A600001C
S214000290F9E0000028A6000028A6000028A6000016
S2140002A028A6000028A6000028A6000028A6000011
S2140002B055B20300EDB10300FD67000095B20300E0
S2140002C028A600003177030028A6000028A6000014
S2140002D028A6000028A6000028A6000028A60000E1
S2140002E028A6000028A6000028A6000028A60000D1
S2140002F028A6000028A6000028A6000028A60000C1
S21000030028A6000028A600007F230400AA
S21400030CF8B500BFF8BC08BC9E467047F8B500BFF1
S21400031CF8BC08BC9E46704710B5054C237833B91C
S21400032C044B13B10448AFF300800123237010BDB7
S21400033C40390020000000001CE5040008B5034B03
S21400034C1BB103490348AFF3008008BD0000000052
S21400035C443900201CE50400154B002B08BF134B3A
S21400036C9D46A3F5803A00218B460F461348144A47
S21400037C121A42F081FD0F4B002B00D098470E4B03
S21400038C002B00D098470020002104000D000D48DB
S21400039C002802D00C48AFF3008042F0CDFB2000C2
S2140003AC29000BF09BF842F0B3FB00BF00000800DE
S2140003BCD82E00200000000000000000403900206D
S2140003CC20620320000000000000000010B5037936
S2140003DC0446092B57D8DFE803F005090D345656AA
S2140003EC414E5652BDE8104001F02ABFBDE8104001
S2140003FC01F02ABF827924494FF4827004F0FCFE87
S21400040CE27922494FF4827004F0F6FE227A2049F3
S21400041C4FF4827004F0F0FE627A1E494FF482703C
S21400042C04F0EAFED4F806201B4C1C4912BA4FF412
S21400043C8270226004F0E0FE2068BDE8104001F0F7
S21400044C07BF174C8279174922704FF4827004F05C
S21400045CD3FE2078BDE8104002F0EAB8124C827940
S21400046C124922704FF4827004F0C6FE2078BDE864
S21400047C104000F027BEBDE8104000F029BEBDE8D5
S21400048C104001F0F1BE10BD6E5A04007A5A0400FA
S21400049C865A0400925A04005C3900209E5A0400C6
S2140004AC94570020AB5A04007C570020C85A04000E
S2140004BC08B50379032B1DD8DFE803F0020B0F13E6
S2140004CC0D494FF4827004F097FEBDE8084002F028
S2140004DC91BBBDE8084002F0B1BBBDE8084002F095
S2140004EC9FBBD0F80600054B00BA1860BDE8084064
S2140004FC02F090BB08BD00BFDC5A04005C3900203B
S21400050C10B503790446092B4AD8DFE803F0050931
S21400051C0D11151E22303740BDE8104001F0A4B96D
S21400052CBDE8104001F0A8B9BDE8104001F0ACB928
S21400053CBDE8104001F0B0B9D0F80600194B00BA6F
S21400054CBDE81040186001F0C5B9BDE8104001F0D8
S21400055CC7B98279C37914494FF4827004F04CFE03
S21400056CE179A0790222BDE8104001F0CFB90F4B1B
S21400057C80791870BDE8104001F0C8BCD0F80600B1
S21400058C084B00BABDE81040186001F0C5BCD0F8A6
S21400059C0600044B00BABDE81040186001F0C2BC5F
S2140005AC10BD00BF5C390020605A04007C57002048
S2140005BC08B50379052B07D8DFE803F003070A0D07
S2140005CC101900F057FD002008BD00F05BFDFAE79F
S2140005DC00F066FDF7E700F069FDF4E7D0F80600DA
S2140005EC054B00BA1860BDE8084000F065BDBDE8D4
S2140005FC084000F02FBF00BF5C39002008B5C37858
S21400060C013B042B06D8DFE803F00307050A0D00B0
S21400061CFFF7DCFE012008BDFFF74AFFFAE7FFF7FD
S21400062C6FFFF7E7FFF7C4FFF4E7000037B500F0FD
S21400063CFD05012D1C4640D12179DB78A27800916E
S21400064C4FF48270214904F0D7FDA378042B0CD10B
S21400065CB4F803305BBA9BB2292B1BD007D8252BDA
S21400066C20D0262B09D01A2B0ED003B030BD322B3F
S21400067C10D0332B01D0312BF7D115494FF48270A3
S21400068C04F0BAFD042013E0284603B0BDE8304061
S21400069C00F074BD00F04CFE0128E6D100F05CFFC3
S2140006AC0020F2E70B494FF4827004F0A5FD0320FE
S2140006BC03B0BDE8304000F0D9BE07494FF4817056
S2140006CC03B0BDE8304004F097BD00BFE25A04000A
S2140006DC125B0400FD5A0400285B0400F0B593B0CE
S2140006EC04AC06460F46154600213822204642F03A
S2140006FCC3FB094B094A0294CDE900730221334629
S21400070C284633F07DFA024620B105494FF4817035
S21400071C04F072FD13B0F0BD39060000E02E002088
S21400072C455B0400F8B5C278037943EA02231BB292
S21400073C023B04460E46102B33D8DFE803F0093490
S21400074C5D6568716E777A7E81ADBABEC2C5C8002B
S21400075C6049614F4FF4827004F03CFD5F494FF4E2
S21400076C827004F037FD04F10E05063415F8012DE1
S21400077C39464FF4827004F02DFDA542F6D1584947
S21400078C4FF4827004F026FD56494FF4827004F044
S21400079C21FD304604F046FD53494FF4827004F0B8
S2140007AC2BFD0120F8BD8379C279504D42EA032215
S2140007BC42F276718A422A800BD14D494FF48270F0
S2140007CC04F01AFD4B4B4C48012200211A701CF009
S2140007DC31FA2A8849494FF4827004F00DFDA2794B
S2140007EC47494FF4827004F007FDE27945494FF40F
S2140007FC827004F001FDD4E743494FF4827004F094
S21400080CFBFC0AF0F1F9CCE703F08AF8C9E73F4B9A
S21400081C90F9060018701DF0ABF81DF0C5F8C0E78F
S21400082CD0F8060000BA03F03BF9BAE703F01AF961
S21400083CB7E7807903F03AF9B3E703F03FF9B0E78E
S21400084C334B451D00F1150215F8011F03F8011F67
S21400085C9542F9D12F4803F05DF92F4B04F11D0298
S21400086C15F8011F03F8011FAA42F9D12B482C4D8D
S21400087C03F064F9A37FE27F2A4942EA03224FF48D
S21400088C82702A8004F0B8FC288803F08DF994F85E
S21400089C200003F095F984E7234A431D153413F81A
S2140008AC011F02F8011FA342F9D1204803F094F966
S2140008BC77E7807903F022F973E7807900F00EFC75
S2140008CC6FE700F039FC6CE702F0DAFA69E702F041
S2140008DC0FFB66E7645B0400775A04007B5B04003E
S2140008EC315E0400845B0400AB5E0400A457002059
S2140008FCB65B040082390020D45700208C5B0400C1
S21400090C9D5B0400A75B0400B15B0400DC57002071
S21400091C6F3900207039002082390020833900207E
S21400092C80390020C35B04005F390020603900204A
S21400093C70B5124E124C33780025012B257002D060
S21400094C022B10D070BD1DF0F3FA0E494FF48270D6
S21400095C04F052FC0223337041F288312046BDE885
S21400096C70401CF067B908494FF4827004F044FCE0
S21400097C0AF03AF935702946F0E700BF82390020B4
S21400098CD45700200F940400D55B040010B586B035
S21400099C1C468B788DF81430CB788DF815300B7987
S2140009AC8DF816300323029305AB019300231046F3
S2140009BC00931A46214633F067FB06B010BD1FB5F0
S2140009CC8B788DF80C30CB788DF80D300B798DF844
S2140009DC0E30002300930322012303A900F0ECFA47
S2140009EC05B05DF804FB000008B58379042B0DD127
S2140009FCC279037A43EA02231BB2292B1ED006DCEB
S214000A0C252B32D0262B08D01A2B0DD008BD322B16
S214000A1C14D0332B01D0312BF8D119494FF48270F6
S214000A2C04F0EAFB042026E016494FF4827004F02A
S214000A3CE3FB0120BDE8084000F0A0BB12494FF4D0
S214000A4C827004F0D9FB00F073FC01280BD100F087
S214000A5C83FD002000F092FB0C494FF48270BDE839
S214000A6C084004F0C9BB0A49F7E70A494FF48270FC
S214000A7C04F0C2FB0320BDE8084000F0F7BC00BF42
S214000A8C125B0400065B0400DC5B0400E95B0400FC
S214000A9CFA5B0400FD5A040070B500240546224695
S214000AACFF262B1A8B4203DB42EA042080B270BD71
S214000ABC15F8013B1A4492FBF6F3C3EB0323D31A47
S214000ACC9AB2234493FBF6F4C4EB04241B1B9CB28F
S214000ADCE7E700002DE9F843089CBDF82470A578DC
S214000AEC94F8038094F804902A460E464FF48270CD
S214000AFC3C4904F081FB4B4642463B494FF482701E
S214000B0C04F07AFB627939494FF4827004F074FB76
S214000B1C37494FF4827004F05DFB36494FF482700F
S214000B2C04F06AFBE319B91E13F8022C13F8018CB7
S214000B3C204648EA0228FFF7AFFF074683B2424634
S214000B4C2D494FF48270BFB204F056FBB84545D120
S214000B5C2A494FF4827004F03DFB304604F062FBE9
S214000B6C013D27494FF4827004F034FB042D37D82E
S214000B7CDFE805F0031C2C3630002379012B0ED150
S214000B8CB4F80730A2791F495BBA9BB24FF4827057
S214000B9C04F032FB2046BDE8F843FFF725BF1A49A0
S214000BAC4FF48270BDE8F84304F026BB314620466D
S214000BBCFFF7B8FD214620B13046BDE8F843FFF7F5
S214000BCCE5BE3046BDE8F843FFF7F9BE2046FFF712
S214000BDC15FDEFE7BDE8F84301F09EBA0B49DFE7D9
S214000BECBDE8F8834A5C0400555C04005F5C0400B6
S214000BFC735C0400AB5E04007E5C0400A65C040020
S214000C0C315E0400AE5C0400C45C0400D45C0400DA
S214000C1C1FB54B09022B02D00378FF2B06D00023FE
S214000C2CCDE9013300931A4633F02EFA05B05DF881
S214000C3C04FB1FB5CDE90123002300931A4633F0BD
S214000C4C23FA05B05DF804FB2DE9F04387B093F862
S214000C5C029093F80380B3F803701E79B7490F9C83
S214000C6C1D460023CDF80E30CDF81230ADF81630F8
S214000C7C4DF25673ADF80C30BDF838304A46CDE917
S214000C8C00634FF48270434604F0B6FA0423B9F1BD
S214000C9C030F8DF80E3000F0AC80994500F0838180
S214000CACB9F1020F11D17BBA9BB2043B102B0CD8B6
S214000CBCDFE803F0090E1B0B0B0B262B325F6C7454
S214000CCC777D858C930009F08FFF07B0BDE8F08325
S214000CDC1CF074FE9A4A036813604368536008233A
S214000CEC45212046FFF7A5FFEFE795F906001CF017
S214000CFC3FFE44212046FFF78BFF1CF055FEE4E731
S214000D0CA87902F0D3FE442102E002F0D7FE43217C
S214000D1C2046FFF77DFFD8E78A4A6B1D05F11506BE
S214000D2C13F8011F02F8011F9E42F9D1864802F003
S214000D3CF1FE864A334605F11D0113F8010F02F841
S214000D4C010F9942F9D18248824E02F0F7FEAB7F32
S214000D5CEA7F814942EA03224FF48270328004F023
S214000D6C4BFA308802F020FF95F8200002F028FF9E
S214000D7CC9E77A4A6B1D153513F8011F02F8011FD7
S214000D8CAB42F9D1764802F027FFBCE72046442157
S214000D9CFFF73EFFA87902F0B1FE96E7A87900F0BF
S214000DAC9DF900F0C9F901230246442199E7204633
S214000DBC4421FFF72DFF284602F062F885E7442110
S214000DCC2046FFF725FF02F093F87EE743212046E6
S214000DDCFFF71EFF0BF048FE77E7624A00231370FE
S214000DEC537093700321137101235371D170062332
S214000DFC76E75D494FF4827008F1FF3804F0FCF991
S214000E0CB8F1040F3FF661AF01A353F828F000BF0A
S214000E1C310E0000490E0000D70C00008F0E0000AB
S214000E2C250F0000062E05D0072E7FF44EAF00F0DF
S214000E3C4FF9B8E7A87900F045F946E7032E3FF6D8
S214000E4C44AFDFE806F00205080B01F0D3FE5AE7C4
S214000E5C01F0F4FE57E701F0E3FE54E7D5F8060080
S214000E6C00BA01F0D7FE030E8DF80830030C8DF88F
S214000E7C0930030A8DF80A308DF80B00042302AAF9
S214000E8C93E7053E042E3FF620AFDFE806F0030896
S214000E9C10243F0000F024FD0123024620E7022226
S214000EACE979A87900F032FD00F01AFD7BE72F4BAC
S214000EBCA879187000238DF80F3017238DF8103092
S214000ECC01238DF8113001F021F80C238DF8120057
S214000EDC0DEB030269E7D5F8060000BA01F01CF822
S214000EEC0023020E8DF80F308DF812201823020CFA
S214000EFC8DF810308DF813200423020A8DF8142078
S214000F0C8DF811308DF8150003AA4EE7D5F80600BB
S214000F1C00BA01F007F8A6E7052E3FF6D6AEDFE8D6
S214000F2C06F003060927373F00F0A4F8EBE600F0BE
S214000F3CA9F8E8E600F0B4F8AEE700BF085C0400D9
S214000F4C105603209A3900209B390020AD3900201A
S214000F5CAE390020AC390020C35B04008A3900206F
S214000F6C8B3900200A5603203A5C04007C5700207C
S214000F7C00F09CF8030E8DF80830030C8DF8093041
S214000F8C030A8DF80A308DF80B00042302AAA7E694
S214000F9CD5F8060000BA00F08FF800F087F862E784
S214000FAC00F058FA91E603494FF4827004F024F9E5
S214000FBC8BE600BF425C04002DE9F047804602F148
S214000FCC0D0000AF20F00700ADEB000D02F10F0096
S214000FDC6C46B7F820C0A37020F00700ADEB000DF0
S214000FEC56204FEA1C232070D7206070E37002F165
S214000FFC060902F108066D4684F804C06271A01D4D
S21400100C0B46A3EB010C624518DC49462046FFF75D
S21400101C43FD4A4682462146284641F022FFAB193C
S21400102C4FEA1A2203F8022C03F801AC424631466A
S21400103C2846FFF753FBBD46BDE8F08713F801CBF7
S21400104C00F801CBDDE70000024B187002481BF0DD
S21400105CF1BD00BFB6390020305603200021072012
S21400106CFFF7F2BF00210520FFF7EEBF002103209B
S21400107CFFF7EABF024B012000211870FFF7E4BF10
S21400108CB83900200021024B08461970FFF7DCBF68
S21400109CB8390020014B1878704700BFB8390020CB
S2140010AC014B1878704700BFB8390020014B186800
S2140010BC704700BFE42E0020014B1860704700BF3D
S2140010CCE42E0020014B1870704700BFE82E00205D
S2140010DC014B1878704700BFE82E002038B5124D2B
S2140010EC2B788342044610D001280FD101460020ED
S2140010FC01F0AAFD2146204601F0A6FD0B4802F0A1
S21400110CCFFC0B4B0B4A1A602C7038BD0028FCD158
S21400111C014601F099FD2146012001F095FD4EF6A1
S21400112C602002F0BDFCEFE71C560320E0930400A1
S21400113CE42E0020C0270900014B1878704700BF2A
S21400114C1C560320074A30B5034600F110051868F4
S21400115C5968144603C40833AB422246F7D11868C4
S21400116C206030BD4056032008B501464222024896
S21400117C41F077FE08BD00BF54560320034B0449CC
S21400118C187002464FF4827004F036B8B939002055
S21400119CEC5C040070B5594B00221A70584B1B7847
S2140011AC94B0072B20D8DFE803F0040C1621923AF3
S2140011BC672654494FF4827014B0BDE8704004F0B2
S2140011CC1BB8002000F044FA0021022014B0BDE841
S2140011DC7040FFF739BF0020FFF7D0FF01F030F862
S2140011EC494A13780133137014B070BD14B0BDE8BF
S2140011FC704000F049BB01F0CBFD01F015FE434CEE
S21400120C206001F027FE04F1100160605022684651
S21400121C41F027FE94E80F0000F036F9E4E73C4C6A
S21400122C3C4A04F110061346254603CDB542106021
S21400123C51602C4602F10802F6D12868334910603A
S21400124C0A68DA75100E1875100C5875100A4A686C
S21400125C9875110E1976110C5976110A9976DA765C
S21400126C1A2300932B492C4804231C22FFF7A4FEB8
S21400127C4FF4FA610620A9E7284C244D422205F1CA
S21400128C1C01204641F0EDFD2B6884F845301A0E03
S21400129C84F842201A0C84F843201A0A6B6884F8E7
S2140012AC44201A0E84F846201A0C84F8472084F83A
S2140012BC49301A0A292384F84820214600934A22EA
S2140012CC04231548FFF778FE002104207EE7144B14
S2140012DC1C7854B9134B1B783BB10B4D2A789A42A9
S2140012EC03D3204601F094F92C700F4B197819B1E2
S2140012FC0E4B0120196869E7084667E7305603204D
S21400130CB6390020E35C0400B739002038560320B9
S21400131C40560320A45503201D560320C055032019
S21400132C1C560320E82E0020B8390020E42E00209E
S21400133C014B1878704700BFB939002073B53E4B87
S21400134C3E4C00221A702378013B032B47D8DFE86B
S21400135C03F0021D486E00F05BF9012802460ED120
S21400136C27230093002104233548FFF725FE002190
S21400137C2170314802B0BDE870401BF05BBC3148B0
S21400138C00F00CF9022323700021F2E72E4C2F4AB2
S21400139C04F110061346254603CDB5421060516085
S2140013AC2C4602F10802F6D12868264910600A6815
S2140013BCDA75100E1875100C5875100A4A68DA761D
S2140013CC110E1976110C5976110A997698751F49D3
S2140013DC252300931C2204231948FFF7EDFD02B0C9
S2140013EC70BD1B4C174D422205F11C01204641F0E6
S2140013FC38FD2B6884F845301A0E84F842201A0CF7
S21400140C84F843201A0A6B6884F844201A0E84F871
S21400141C46201A0C84F8472084F849301A0A3123DF
S21400142C84F84820214600934A220423D4E700F08F
S21400143C71F80123A7E700BFF8560320BA3900203D
S21400144C1D56032098560320A0560320A4550320AF
S21400145CC0550320034B0448012200211A701BF0D0
S21400146CE9BB00BFBA390020F8560320042805D87B
S21400147C034B0021187003481BF0DCBB704700BF01
S21400148CBA390020F856032084B0F8B51C4E06ACCA
S21400149C84E80F00346840F2F97294422ADC002C7F
S2140014AC184F0FDA602206A9174841F0DAFC174AE3
S2140014BC00233B60136001233360BDE8F84004B0A2
S2140014CCFFF7D0BD3D68954204F1010408D16022B7
S2140014DC06A90D4841F0C5FC00233B603460ECE7E0
S2140014EC09480135602206A902FB050041F0B9FC4B
S2140014FC3D60F3E706494FF4827003F07DFEDCE7AF
S21400150CF42E0020F02E0020E4570020EC2E0020B5
S21400151C125D040010B50D4C2368002B06DA0C493E
S21400152C4FF4827003F068FE012010BD09490A686A
S21400153C40F2F970013B824223604FF0000001D16B
S21400154C0860F1E701320A60EFE700BFF42E0020D6
S21400155C035D0400EC2E002008B50C4B1A68002A1C
S21400156C06DA0B494FF4827003F046FE012008BDE4
S21400157C0849013A1A600B68013B0B604FF4827005
S21400158C054903F039FE0020F1E700BFF42E0020D9
S21400159C035D0400F02E0020205D0400184B1B6831
S2140015AC002BF0B4074605DA16494FF48270F0BCEF
S2140015BC03F022BE144B154C1A6860235343E218F2
S2140015CCE05852687A6003F108022244386007F14A
S2140015DC080502F1100C164603CE664528606960B5
S2140015EC324605F10805F6D13068286003F11C0177
S2140015FC214407F11C004222F0BC41F032BC00BF73
S21400160CF42E0020035D0400EC2E0020E45700208E
S21400161C034B18680028CCBF00200120704700BF81
S21400162CF42E002010B5074C23781BB900F080FC74
S21400163C01232370044B054918780222BDE810409C
S21400164C00F084BCBB390020FA2E0020FB2E0020B4
S21400165C38B5114D2B7804461BB900F069FC0123F4
S21400166C2B701CB9BDE83840FFF7DCBF0B4D0C499E
S21400167C2878643C022200F069FC002CB8BF644257
S21400168C08492878C4F3460406344C700222BDE898
S21400169C384000F05BBC00BFBB390020FA2E00209F
S2140016ACF82E0020BC39002070B50D46064600F01A
S2140016BC3FFC354A354C364804231370354A1370B4
S2140016CC354A022D1370354A354B10D0042D0ED0EA
S2140016DC8E212170AE2101700E2111702E21013D3C
S2140016EC1970032D17D8DFE805F00A24303CCE21FC
S2140016FC2170EE2101704E2111706E21EFE7294901
S21400170C24780C702849007808701178274A1170D4
S21400171C1A78274B1A7001221C49002E2DD1D02086
S21400172C00F014FC1A490122D020BDE8704000F0ED
S21400173C0DBC204924780C701F490078087011786D
S21400174C1E4A11701A781E4BE4E71E4924780C705A
S21400175C1D490078087011781C4A11701A781C4BB9
S21400176CD8E71C4924780C701B490078087011784F
S21400177C1A4A11701A781A4BCCE7D82000F0E6FB00
S21400178C01220349D820D0E7CE390020FF2E0020B6
S21400179C002F0020CF390020D039002055570320C9
S2140017AC525703200957032051570320685703202C
S2140017BC7157032054570320025703205357032016
S2140017CC4F57032008570320035703205657032070
S2140017DC4C5703205757032000570320015703206C
S2140017EC04570320024B187002481BF023BA00BFA4
S2140017FCD839002060570320013810B5032815D8B7
S21400180CDFE800F002151414124B134A1B78134C25
S21400181C1348032101FB0323013B0022115D03F84F
S21400182C011F115CD9730132032AF7D110BD094B85
S21400183C0C4A1B78094C0A48032101FB0323013B85
S21400184C0022115D03F8011F115CD9730132032AC3
S21400185CF7D1EBE7D7390020DB390020BE39002062
S21400186CC2390020F9390020024B012000211870E3
S21400187CFFF7B8BFDA3900200021024B0846197072
S21400188CFFF7B0BFDA390020024B00210120197097
S21400189CFFF7A8BFDA3900201FB50C4B0C481B68A5
S2140018AC8DF80F301A168DF80C201A148DF80D20A2
S2140018BC1A121123009304238DF80E2003A91A463E
S2140018CCFFF77AFB05B05DF804FB00BF042F002081
S2140018DC1D560320014B1860704700BF042F0020D4
S2140018EC38B5074B07491D78074B1C782A46234604
S2140018FC4FF4827003F080FC44EA0510C0B238BD89
S21400190CCF3900207A5D0400D0390020012A04D19A
S21400191C054B1870054B18707047022A01BF024B16
S21400192C1870024B19707047CF390020D039002040
S21400193C0022042B00D17047C25401335BB2F8E787
S21400194C014B1880704700BFD4390020014B18801B
S21400195C704700BFD23900202DE9F84F734CDFF8E2
S21400196C0C8222786378724F724E734D7349DFF88F
S21400197C00A2DFF8009243EA0223A8F80030A2780F
S21400198CE37843EA02233B80237933704FF482706A
S21400199C63792B7003F01EFCB8F8002068494FF4EE
S2140019AC827003F017FC3A8866494FF4827003F095
S2140019BC11FC327864494FF4827003F00BFC2A78E1
S2140019CC62494FF4827003F005FC61494FF4827053
S2140019DC03F000FC25460026D346AB79E879DFF801
S2140019EC988103F0010103F080022B7A8AF800102C
S2140019FC43EA0023032743EA026343EA014389F8D8
S214001A0C0020544996FBF7F24FF482703E44C8F817
S214001A1C003003F0DFFB0F2E3D44DED14E49434D24
S214001A2CDFF830A14FF4827003F0D4FB00266B7DF8
S214001A3CA87D03F0010103F08002EB7D8BF800100B
S214001A4C43EA002343EA026343EA014389F8002091
S214001A5C514696FBF7F24FF482700336C8F8003006
S214001A6C03F0B8FB0F2E05F10305E0D13B49DFF878
S214001A7C0CB12E4DDFF808814FF4827003F0AAFBF0
S214001A8C4FF00009DA4695F8243095F82500344FC7
S214001A9C03F0010103F0800295F826308BF8001055
S214001AAC43EA0023032643EA026343EA014388F829
S214001ABC0020284999FBF6F24FF48270B1443B6043
S214001ACC03F088FBB9F10F0F3544DCD12549DFF85C
S214001ADC84904FF4827003F07DFB002594F833302D
S214001AEC94F8340003F0010103F0800294F83530CA
S214001AFC8AF8001043EA002343EA026343EA0143F0
S214001B0C88F80020494695FBF6F24FF482700335B0
S214001B1C3B6003F05FFB0F2D04F10304DED112498A
S214001B2C4FF48270BDE8F84F03F066BB0A570320EB
S214001B3C065703204D5703205E570320875D04008D
S214001B4C965D0400A05D0400A95D0400B75D04006A
S214001B5CCC5D0400D65D0400DE5D0400E75D040089
S214001B6C58570320F05D0400AB5E04005C5703205E
S214001B7C4E570320725703206C57032069570320D7
S214001B8C7057032038B51F4B1A881F4B110A5A7012
S214001B9C1E4A19701288DA70110A1D4A997011784B
S214001BAC1C4A127842EA01121A711B4A1B49127817
S214001BBC5A71084600229C18555CA57101320F2AF2
S214001BCCF9D11522811811F8061C99540132242AD1
S214001BDCF8D11349002208469C18555C84F824500A
S214001BEC01320F2AF8D13322811811F8241C99548B
S214001BFC0132422AF8D1FFF7AFFE0348BDE8384061
S214001C0CFFF7B2BAD43900200A570320D239002085
S214001C1CCF390020D0390020112F0020F9390020B0
S214001C2CDB3900202DE9F041994B9A4C00221A70B2
S214001C3C2378013B072B00F22981DFE813F008001C
S214001C4C400096005A00B000E60032003A00924B74
S214001C5C00201978FFF728FD904B01201978FFF724
S214001C6C23FD0020FFF7F4FC8D4B1B785BB901219C
S214001C7C084600F0E9FF8B4B197879B90720BDE8C8
S214001C8CF041FFF7AFBD884C2378002BF3D1012130
S214001C9C084600F0D9FF01232370ECE70021022050
S214001CACEDE7824B1878FFF7D3FC814B08201968B8
S214001CBCE5E70020FFF7CCFC7E4B1968EFE77E4B80
S214001CCC1C78012C0DD122467C49D02000F03EF920
S214001CDC7B492246D82000F039F94FF4FA710420DB
S214001CECCDE701227749D02000F030F90122764961
S214001CFCF0E7714B1B78012B12D17448FFF718FED6
S214001D0C04227249D12000F03DF97148FFF710FE0D
S214001D1C04226F49D92000F035F900210320AEE7E4
S214001D2C6A4D2846FFF704FE29460422D12000F00F
S214001D3C29F9EF78664D674B28461E78FFF7F8FDB5
S214001D4C04222946D92000F01DF9634BEA781B784B
S214001D5C9A42E2D0B742E0D060494FF4827003F06A
S214001D6C4BFA4FF47A71207889E7534B1C78012C88
S214001D7C0DD122465A49D02000F0E8F8594922469F
S214001D8CD82000F0E3F84FF4FA71052077E701222B
S214001D9C5549D02000F0DAF801225449F0E7464BBA
S214001DAC1B78012B13D15248FFF7C2FD0422504971
S214001DBCD12000F0E7F84F48FFF7BAFD04224D4952
S214001DCCD92000F0DFF84FF4FA71062057E7484D9B
S214001DDC2846FFF7ADFD29460422D12000F0D2F8A4
S214001DECEF78444D444B28461E78FFF7A1FD04229D
S214001DFC2946D92000F0C6F8404BEA781B789A4260
S214001E0CE1D0B742DFD03E49A7E7234F234E3D78BB
S214001E1C244C2846FFF7F0FC96F800804046FFF767
S214001E2CEBFC2378042BBC463046214617D8012DF4
S214001E3C214A0AD1B8F1030F07D102233B700423C1
S214001E4C337015700021012019E701248CF800402E
S214001E5C032404700133002010700B70F2E700F0BE
S214001E6CD9FDFFF78FFE002323700D4B197811B99F
S214001E7C012000F0E9FE234B1C7814B1224B1968A4
S214001E8CE1E7FFF7EBF821462046F8E6BDE8F081DF
S214001E9C60570320D8390020FD2E0020FE2E00208F
S214001EAC1C560320D7390020D9390020102F0020CB
S214001EBC0C2F0020082F0020D63900205457032062
S214001ECC575703200957032008570320BE39002014
S214001EDCC63900206857032056570320445D04007B
S214001EEC02570320005703205157032003570320A3
S214001EFCC2390020CA390020715703204C570320E2
S214001F0C5F5D0400DA390020042F0020014B1870A6
S214001F1C704700BF102F0020014B1860001670474A
S214001F2C0C2F0020014B186000167047082F00205D
S214001F3C10B5044C237823B9034800F085F8012328
S214001F4C237010BD173A0020142F00207FB50123F4
S214001F5CADF80630094BADF8040002911868ADF8E0
S214001F6C0C2001A900F0C8F80530C0B205289ABFAD
S214001F7C034B185CFF2007B05DF804FB142F002001
S214001F8CF85D04007FB50223ADF80630094BADF8BA
S214001F9C040002911868ADF80C2001A900F0ACF80A
S214001FAC0530C0B205289ABF034B185CFF2007B05B
S214001FBC5DF804FB142F0020F85D040010B5044CEB
S214001FCC237823B9034800F03FF80123237010BD93
S214001FDC183A00202C2F00207FB50123ADF80630D0
S214001FEC094BADF8040002911868ADF80C2001A955
S214001FFC00F082F80530C0B205289ABF034B185C77
S21400200CFF2007B05DF804FB2C2F0020FE5D0400BB
S21400201C7FB50223ADF80630094BADF804000291EB
S21400202C1868ADF80C2001A900F066F80530C0B2AF
S21400203C05289ABF034B185CFF2007B05DF804FB1D
S21400204C2C2F0020FE5D040030B5044685B001211F
S21400205C244806F07DF92368234A93423FD002F5C4
S21400206C8062934239D12148012106F071F901238F
S21400207C0A226179207907F09DF901230A22E17979
S21400208CA07907F097F9237930225A43184B13445A
S21400209C03F1C065092103F180630122607902FA1D
S2140020AC00F028606079013902FA00F01860F5D16A
S2140020BC20688DF800200323436423898DF80120C3
S2140020CC5BBA9BB2836423690293E3680193694607
S2140020DC237D8DF80C3007F0F5F905B030BD0548BA
S2140020ECC2E700BF4041050000C00040009204005B
S2140020FC0CA000400082040038B5054607F0FAFA3A
S21400210C044C012801D1013C00D138BD284607F00B
S21400211CF5F9F6E7E193040010B514494FF4827014
S21400212C03F06AF8124B00241C70124B1C7002F061
S21400213CA5FBA0420EDC104C02F0A0FB012812DD21
S21400214C012002F01DFCC2B221460120BDE8104061
S21400215C18F0F2BA204602F013FCC0B20028EAD0FF
S21400216C01248440E8E70522EEE700BF045E040085
S21400217C193A00201A3A002000F8FF07024B187094
S21400218C02481AF057BD00BF1B3A00208C5703209C
S21400219C074B084A1978084B907803F8210003EB94
S2140021AC8103D1785970117952799970DA70704729
S2140021BC1C3A00201D3A002078570320F7B5194921
S2140021CC194D1A4F1A4E4FF4827003F003F8002282
S2140021DC18494FF4827002F0FDFF00246119635D0C
S2140021EC4A7891F803C003EB02238A7812490A2036
S2140021FC02EB0C2293FBF0F392FBF0F23B603260A6
S21400220C00924FF48270C4F38502043402F0E2FFAD
S21400221C142CE3D109494FF4827003B0BDE8F040AA
S21400222C02F0EABF275E0400785703208057002090
S21400223C98570020335E04003C5E0400AB5E04003E
S21400224C00210120FFF79ABF00210846FFF796BF32
S21400225C034B0449186002464FF4827002F0CCBF60
S21400226C442F0020575E04001FB50C4B0C481B680F
S21400227C8DF80F301A168DF80C201A148DF80D20C8
S21400228C1A120923009304238DF80E2003A91A466C
S21400229CFEF792FE05B05DF804FB00BF442F00204D
S2140022AC1D56032010B50C4C20780BF0B9FF0828EF
S2140022BC0ED90A49207800230A220CF013F820784D
S2140022CC0CF074F800210420BDE81040FFF756BF50
S2140022DC00210320F8E700BF482F00201D3A0020FD
S2140022EC37B5594B00221A70584B1B78062B00F248
S2140022FCA980DFE803F00411425273846900544944
S21400230C4FF4827002F078FF00F042F9002003B020
S21400231CBDE83040FFF79CB94E494FF4827002F08E
S21400232C6BFF4D4B4D494FF41652C3E9001240F665
S21400233C0B321A814FF4805200245A814FF010123F
S21400234C5A629C819C73DC731C745C749C74DC7485
S21400235C1C75C3E906441C84414B022520461D709F
S21400236C00F08EF82046FFF773F941F288312846C4
S21400237C03B0BDE83040FFF701BF40F003F9394B1E
S21400238C05211860354807F07BFC354B3249187828
S21400239C0CF06CF8C8210320EAE740F0F3F8314B58
S2140023AC1B68C01A43F69823984212D906230021BC
S2140023BC0093012204232C48FEF7FEFD00F0E8F8FB
S2140023CC4FF47A710120D3E728494FF4827002F05B
S2140023DC13FF03B0BDE83040FFF764BF244B1A78F8
S2140023ECAA2A05D15B7AAB2B02D100210520BFE7C8
S2140023FC20494FF4827002F0FFFE0021CBE7FFF776
S21400240CC7FE1D4A1378042B06D80133137000211F
S21400241C0220FFF7B3FE79E7114B002418781470EE
S21400242C0BF0FAFF21460D4807F02AFC00F0B0F836
S21400243C1248FEF787FEFFF7C1FEFEF717FE214691
S21400244C2046E6E703B030BD8C5703201B3A00202D
S21400245CE35C0400E55C0400945703200004014090
S21400246C482F0020745703201D5603200F5E0400CF
S21400247C1D3A0020165E04001C3A002078570320F4
S21400248CF8B5364F3649374C374E05464FF4827002
S21400249C02F0B2FE3B7863BB34494FF4827002F014
S2140024ACABFEFFF745FD022231492078FFF74EFDC3
S2140024BC022230492078FFF749FD01233B70337820
S2140024CCCBB12D4F002D38D12C494FF4827002F031
S2140024DC93FE20230222284920787B70FFF736FDD6
S2140024EC274B18883FF0BEFF022226492078FFF7BC
S2140024FC2DFD3378B3B9204E35BB20494FF482708E
S21400250C02F07AFE202302221B4920787370FFF714
S21400251C1DFD1B4B18883FF0A5FF02221949207899
S21400252CFFF714FD184BB5B901225A7020781649DE
S21400253C0222BDE8F840FFF709BD14494FF482703B
S21400254C02F05AFE0823C5E710494FF4827002F0D9
S21400255C53FE0823D7E70222E7E700BF273A0020FE
S21400256C6D5E0400492F00201C560320745E040088
S21400257C283A00204C2F0020542F00207E5E0400AA
S21400258C502F0020522F00204A2F0020835E04007C
S21400259C38B5164D164C2B786BB9FFF7C9FC0222D2
S2140025AC14492078FFF7D2FC022213492078FFF753
S2140025BCCDFC01232B70114B1B787BB9104920786E
S2140025CC142302224B70FFF7C1FC0E4B18883FF009
S2140025DC49FF02220C492078FFF7B8FC20780B49FB
S2140025EC0222BDE83840FFF7B1BC00BF273A0020F6
S2140025FC492F0020283A00204C2F00201C56032080
S21400260C542F0020502F0020522F00204E2F002039
S21400261C044B1870044B0548012200211A701AF05E
S21400262C09BB00BF2B3A00202C3A0020BC570320D5
S21400263C054B064A187001231370054A054813709B
S21400264C00211AF0F7BA00BF2B3A00202A3A0020D5
S21400265C2C3A0020BC57032037B5284B284C0022B8
S21400266C1A702378042B47D8DFE803F0030E1C24DB
S21400267C2E0024494FF4827002F0BEFD002003B0F9
S21400268CBDE83040FEF7E4BF1F4B0121187800F080
S21400269CDBFA022323700021184803B0BDE8304053
S2140026AC1AF0C8BA6420FEF7D3FF0323237042F255
S2140026BC1071F1E70020FEF7CBFF134B00211878C2
S2140026CC00F0C2FA0423E5E710494FF4827002F0DA
S2140026DC93FD052300930122042300210C48FEF7EA
S2140026EC6BFC0C4B1D781DB1002119702170D3E7C3
S2140026FCFFF74EFF2570CEE703B030BDBC57032066
S21400270C2C3A0020885E04002B3A0020905E0400D1
S21400271C1D5603202A3A002010B5044C23781BB90A
S21400272CFFF706FC0123237010BD00BF2D3A0020D6
S21400273C012202498020FFF709BC00BF562F00205B
S21400274C022202498120FFF71DBC00BFC65703209A
S21400275C012202498020FFF7F9BB00BF572F00204B
S21400276C022202498120FFF70DBC00BFC45703208C
S21400277C034B18785B7803F0FE0343EA002070479F
S21400278CC6570320034B18785B7803F0FC0343EA28
S21400279C00207047C457032010EB401082B007D0BF
S2140027AC044B99689A680192019A521A8242F9D39C
S2140027BC02B070470020044030B54A4B4A4C002209
S2140027CC1A70237885B0042B67D8DFE803F0030C67
S2140027DC66146B00012323700021424805B0BDE847
S2140027EC30401AF027BAFFF797FFFFF7A1FF032335
S2140027FC23701421F1E7FFF7A3FFFFF7B9FF7D2243
S21400280C42434FF4803092FBF0F2063A52B237490C
S21400281C374D4FF4827002F0DDFCFFF7A9FF354907
S21400282C02464FF4827002F0E7FCFFF791FF32206D
S21400283CFFF7B2FFFFF794FFFFF7A4FF07EE900A2F
S21400284CB8EEE77ADFED2C7ADFED2C6A2C4927EE12
S21400285C277ADFED2C7AE7EE267A4FF48270FDEEBF
S21400286CE77ACDED037A9DF90C2002F0B3FCFFF766
S21400287C89FF254902464FF4827002F0BDFC297888
S21400288C69B1FFF775FFFFF761F8FFF77BFFFFF7FE
S21400289C57F82B7883F001032B7005B030BD04235A
S2140028AC23709AE7FFF764FF184D00122870FFF7A5
S2140028BC5FFF6870FFF766FF0012A870FFF762FFF5
S2140028CC0323E870009304231A4629461048FEF7A3
S2140028DC73FB104B1B78002BDFD00F4B19680023B3
S2140028ECDEE700BFC8570320303A0020A05E040085
S2140028FC2E3A0020AC5E040052B82F4300008037FE
S21400290CBD5E040066663BC2CA5E04000A5703201E
S21400291C1D5603202F3A0020582F002007B5FFF72E
S21400292CFBFEFFF705FF1420FFF736FFFFF708FF47
S21400293CFFF71EFF7D2242434FF4803092FBF0F2ED
S21400294C063A52B223494FF4827002F043FCFFF76A
S21400295C0FFF214902464FF4827002F04DFCFFF740
S21400296CF7FE3220FFF718FFFFF7FAFEFFF70AFF15
S21400297C07EE900AB8EEE77ADFED187ADFED186A04
S21400298C184927EE277ADFED187AE7EE267A4FF409
S21400299C8270FDEEE77ACDED017A9DF9042002F007
S2140029AC19FCFFF7EFFE114902464FF4827002F055
S2140029BC23FCFFF7DDFEFEF7C9FFFFF7E3FEFEF78D
S2140029CCBFFF0B4A137883F00103137003B05DF856
S2140029DC04FB00BFA05E0400AC5E040052B82F439C
S2140029EC00008037BD5E040066663BC2CA5E04000B
S2140029FC2E3A0020044B054801221A70044B002185
S214002A0C19701AF017B900BF2F3A0020C8570320C8
S214002A1C303A0020034B00221A70034B01221A7026
S214002A2CFFF77CBF2F3A00202E3A0020014B0022E5
S214002A3C1A7070472F3A002010B5044C23781BB937
S214002A4CFFF7BCFA0123237010BD00BF313A0020FB
S214002A5C012202498020FFF7BFBA00BF5C2F00207E
S214002A6C022202498120FFF7D3BA00BFD2570320B7
S214002A7C012202498020FFF7AFBA00BF5D2F00206D
S214002A8C022202498120FFF7C3BA00BFD0570320A9
S214002A9C034B18785B7803F0FE0343EA002070477C
S214002AACD2570320034B18785B7803F0FC0343EAF9
S214002ABC00207047D057032030B5424B424C0022C2
S214002ACC1A70237885B0042B79D8DFE803F0030757
S214002ADC7814590001232370002106E0FFF7ACFFA1
S214002AECFFF7B6FF032323701421364805B0BDE864
S214002AFC30401AF09FB8FFF7B3FFFFF7C9FF7D22EF
S214002B0C42434FF4803092FBF0F2063A52B22F4911
S214002B1C4FF4827002F05EFBFFF7BAFF2C490246B8
S214002B2C4FF4827002F068FBFFF7A2FF3220FFF72B
S214002B3C33FEFFF7A5FFFFF7B5FF07EE900AB8EEDA
S214002B4CE77ADFED247ADFED246A244927EE277A2C
S214002B5CDFED237AE7EE267A4FF48270FDEEE77A05
S214002B6CCDED037A9DF90C2002F034FBFFF79AFFAB
S214002B7C174902464FF4827002F03EFB0423AAE784
S214002B8CFFF786FF174D00122870FFF781FF68705D
S214002B9CFFF788FF0012A870FFF784FF302300931E
S214002BAC0423E8701A4629460F48FEF705FA0F4B21
S214002BBC1B7823B10E4B19680023237095E705B0DC
S214002BCC30BD00BFD4570320323A0020DD5E04002F
S214002BDCAF5E040052B82F4300008037ED5E040051
S214002BEC66663BC20A5703201D560320333A002064
S214002BFC602F0020044B054801221A70044B00215C
S214002C0C19701AF017B800BF333A0020D4570320B7
S214002C1C323A0020014B1860704700BF602F00202E
S214002C2C034B044800211970034B19701AF002B8B4
S214002C3C333A0020D4570320323A0020014B0022AE
S214002C4C1A707047333A002070B5204E337805461C
S214002C5C0C4643B9FFF76CF902221D494220FFF7D8
S214002C6C75F901233370012D1BD00CD3022D21D006
S214002C7C4CF250303FF0F6FB022216494220BDE8DB
S214002C8C7040FFF763B94CB1012CF1D112492023E7
S214002C9C4B7002224220FFF759F9E9E70E49102340
S214002CACF6E724B1012CE3D10B490823F0E70A49D7
S214002CBC0423EDE72CB1012CDAD107494D702A46D6
S214002CCCE8E7054901234B70F9E700BF343A0020CA
S214002CDC353A0020642F0020662F002008B50E4BD6
S214002CEC0E481B78C3600E4B1B78013B03610D4BE3
S214002CFC1B78643343610C4B1B7883600B4B1B783F
S214002D0C43600B4B1B78036040F098F9094BC3E902
S214002D1C00010020002108BD702F0020E85703207A
S214002D2C732F0020752F0020712F0020722F00208B
S214002D3C742F0020E057032007B50D490D4B0E4AA3
S214002D4C09781B78127800914FF482700B4902F0C8
S214002D5C53FA0B490B4B0C4A09781B7812780091E6
S214002D6C4FF48270094902F047FA03B05DF804FB91
S214002D7C752F0020732F0020702F0020FF5E04009C
S214002D8C742F0020722F0020712F0020155F040076
S214002D9C37B51A4B1A4D1A781A4C022A01BF2A68F4
S214002DAC226001221A7003F0E7FC03F00EFD236884
S214002DBC2860C01A144B1860144BD3E9002314185F
S214002DCC43F1000502A860E902453FF0D9FE104B1E
S214002DDCC2681A7003690F4A0133137043690E4AAE
S214002DEC643B13700D4B82681A700D4B42681A7058
S214002DFC02680C4B1A7003B030BD00BF3C3A002082
S214002E0C443A0020403A0020383A0020E05703208D
S214002E1C702F0020732F0020752F0020712F00209C
S214002E2C722F0020742F0020064A074B10781B7850
S214002E3C000240EA0340054B1B781843044B18600D
S214002E4C704700BF722F0020712F0020742F0020B7
S214002E5C6C2F0020064A074B10781B78000240EABD
S214002E6C0340054B1B781843044B1860704700BF93
S214002E7C732F0020752F0020702F0020682F002045
S214002E8C08B50F4B82791A700E4BC2791A700E4B1E
S214002E9C027A1A700D4B427A1A700D4B827A1A709F
S214002EAC0C4BC27A1A70FFF719FF0B4B02221A70E2
S214002EBC03F062FC03F089FC084B186008BD00BFE9
S214002ECC752F0020732F0020702F0020712F0020EC
S214002EDC722F0020742F00203C3A0020443A002029
S214002EEC08B5FFF7FBFEBDE80840FFF751BF000032
S214002EFC1FB5FFF74DFF124B1B788DF80830114BA2
S214002F0C1B788DF80930104B1B788DF80A300F4B58
S214002F1C1B788DF80B300E4B1B788DF80C300D4B48
S214002F2C1B788DF80D30FFF707FF28230093062239
S214002F3C042302A90848FEF73FF805B05DF804FB29
S214002F4C752F0020732F0020702F0020712F00206B
S214002F5C722F0020742F00201D56032010B5054C30
S214002F6C23781BB9FFF7BAFE01232370BDE8104087
S214002F7CFFF7BEBF3C3A002070B5134C8A00A3186E
S214002F8C22449B781D09062D98BF104E03F00F03A4
S214002F9C94BF755DFF25062B05719ABF0C4DEB5C37
S214002FACFF234371FF3B18BF01238371D37014F8C2
S214002FBC2130084C4370537883700146204605F048
S214002FCCDDF80123A36070BD483A0020325F040090
S214002FDC2B5F0400002000407FB5224922480022C7
S214002FECFF23CDE901228DF8093003784C6C8D6BEC
S214002FFC03922C40E407DBB228D5022B26D88C6C27
S21400300C1A4901EB8301A5B2CE78194906B32604FA
S21400301C1ED521F813201749012202FA03F30A7869
S21400302C1343154A0B701378CBB100231478DC408D
S21400303CE407D9B20FD501701078012404FA03F313
S21400304C4340DBB201A81370FFF796FF04B070BDC7
S21400305C21F81350DFE70133032BE7D1F6E7032300
S21400306C0370F3E700200040543A0020483A002052
S21400307C583A0020563A0020553A00200D490E4B7F
S21400308C10B5002A14BF0A461A4604460B494FF4DC
S21400309C817002F09FF84FF4817002F083F810B143
S2140030AC204602F0BFF806494FF48170BDE8104088
S2140030BC02F0A2B8395F0400425F04004F5F0400C0
S2140030CCAB5E04000120704701207047012070475A
S2140030DC0B2804D009280CBF0120022070470020C2
S2140030EC704700002DE9F04385B04FF48073ADF8BF
S2140030FC0C3003F091F801211548DFF85C80DFF8FE
S21400310C5C9005F025F90121124805F021F9002400
S21400311C012703AB0222E35C18F8336008EBC30309
S21400312C30465D680123294606F044F94946E8B264
S21400313C03F080F8CDE9007701232A46294630466D
S21400314C06F0ECF814B105B0BDE8F0830124E0E716
S21400315C4041050000350A00545F0400F3310000BE
S21400316C08B5FFF7B5FF022816BF024B0020185C07
S21400317C08BD00BF5E3A002008B5FFF7A9FF02287D
S21400318C1CBF014B195408BD5E3A002008B5FFF76A
S21400319C9FFF022805D0034A135CB3FA83F35B093E
S2140031AC135408BD5E3A002008B5FFF791FF0228BD
S2140031BC11D00A4A12F8301030234B4302EBC002EF
S2140031CC07491944536803EBC1039B001868B0FA0F
S2140031DC80F0400908BD0020FCE700BF545F0400E7
S2140031EC1CA01042704770B50446FFF7DDFF0026A2
S2140031FC054601E000261D462046FFF7D5FFA842EF
S21400320C0346F7D10136052EF2D12046FFF7A8FF6C
S21400321CA8420BD029462046FFF7AEFF2046FFF704
S21400322C9FFF01462046FFF7DDFF70BD2046FFF7E7
S21400323CADFF2046FFF794FF01462046FFF7D2FF6E
S21400324C2046FFF7A3FFE9E708B52021002001F090
S21400325CD3FC38B1044A05494FF48170BDE80840E8
S21400326C01F0B8BF08BD00BF645F0400715F0400C6
S21400327C10B596B056220021074C68463FF0FCFD70
S21400328C68461AF0C3FC20461022694607F0C8F9B7
S21400329C204616B010BD00BF613A0020024B1870D5
S2140032AC024819F0C7BC00BF9E3A00200C580320F9
S2140032BC08B5114B1B78053B012B04D940F2852130
S2140032CC0E4806F045FF4FF481700D4901F082FF61
S2140032DC4FF4817001F066FF10B10A4801F0A2FFAE
S2140032EC09494FF4817001F087FF00210420BDE8E6
S2140032FC0840FFF7D3BF00BF9E3A0020FC5F0400D7
S21400330C176004008E3A0020AB5E0400F0B5284B24
S21400331C1F8893B022237F2205460C4609A83946FF
S21400332C07F082FABDF844204FF6FF739A4234D168
S21400333C204B6A4603F1200C18685968164603C6DB
S21400334C083363453246F7D11B783370002323705D
S21400335C2378072B14D90022EA5417494FF48170AE
S21400336C01F04AFF2278ADF84420294609A807F058
S21400337C57F9222209A9384607F07AFA13B0F0BD9D
S21400338C07F010FD12AA00F01F001044237810F866
S21400339C482CEA5423780133D9E7227009A9D2B213
S2140033AC284607F03DF923780022EA54E6E700BFEA
S2140033BCEA860400FB600400E160040030B597B0B8
S2140033CC08AD3822002128463FF056FD1AF0F6FAD2
S2140033DC024600685168284C04AB03C3FEF718F984
S2140033EC03228DF81C202278002310F1FF3018BF22
S2140033FC01208DF819308DF81A308DF81B308DF8A9
S21400340C1D30052A4FF001038DF818008DF81E307C
S21400341C04D040F24521194806F09AFE4FF481700C
S21400342C174901F0D7FE4FF4817001F0BBFE10B1C6
S21400343C144801F0F7FE14494FF4817001F0DCFEDD
S21400344C124B01930F230093114A029504AB0221F1
S21400345C0C4830F0D5FB024628B901460620FFF78B
S21400346C1DFF17B030BD0B494FF4817001F0C4FE40
S21400347C094B20781968F2E79E3A0020FC5F04009E
S21400348C646104008E3A0020AB5E0400C134000078
S21400349CEB5F04007C610400782F002008B504491B
S2140034AC4FF4817001F0A8FEBDE808401AF040BD4C
S2140034BC9861040010B5124B1B78062B1FD100F038
S2140034CCFD0001280F4C0BD1002323702378022B10
S2140034DC11D80D4B05201968BDE81040FFF7DEBE6D
S2140034EC22780A490132D2B203234FF4817022703B
S2140034FC01F082FEEAE7BDE81040FFF7D9BE10BD2A
S21400350C9E3A0020603A0020782F00203B61040091
S21400351C234B10B500241C70052839D8DFE800F0C2
S21400352C03153E213318022906D11E494FF481702B
S21400353CBDE8104001F060BE1B4B1B7873B3002136
S21400354C0820BDE81040FFF7A9BE00210120F8E7CF
S21400355C032923D115494FF48170BDE8104001F0C2
S21400356C4BBE134B1A78012A10D0124C124B022A5F
S21400357C18BF1C46FFF77CFE224603460F494FF445
S21400358C817001F039FE00210420DAE70C4CF1E7DB
S21400359CF8210C48BDE8104006F0DABD10BD00BF9F
S2140035AC0C58032055600400762F00206F60040032
S2140035BC9E3A00204E6004003060040087600400D1
S2140035CC39600400FC5F040010B50C4B1B78012B13
S2140035DC044604D04FF48671094806F0B9FD5CB178
S2140035EC224608494FF4817001F006FE00210220A5
S2140035FCBDE81040FFF752BE10BD00BF9E3A00203B
S21400360CFC5F0400C560040008B51AF0DBF901463F
S21400361C20B90220BDE80840FFF740BE08BD0000F8
S21400362C00B58BB00DF1030101A8FFF76FFE01AAE0
S21400363C03494FF4817001F0DFFD0BB05DF804FB1D
S21400364C1C61040008B5024658B106494FF4817057
S21400365C01F0D2FD044B00211878BDE80840FFF7B6
S21400366C1DBE08BD976004009E3A0020034B1B78D5
S21400367C052B01D1FFF7A2BE704700BF9E3A002073
S21400368C034B1B78053B012B01D8FFF711BE704787
S21400369C9E3A002020B903494FF4817001F0ACBD6E
S2140036AC704700BFB16004000020704770B5814BB6
S2140036BC814D00221A702B78013BA6B0092B00F224
S2140036CCF380DFE813F07B008600F100C300EB000C
S2140036DC3A00EE000A006200780078494FF48170D8
S2140036EC01F08AFD764B00241C70764B1B78012B60
S2140036FC25D17549754D764E4FF4827001F06AFDF2
S21400370C2A5D31464FF48270013401F063FD102CB3
S21400371CF6D170494FF4827001F06EFD6E4B029339
S21400372C00216E4B0193CDE9035141F22A536C4AAA
S21400373C0093192023461CF025FD26B070BD022BE5
S21400374CFBD16149674D624E4FF4827001F042FD29
S21400375C2A5D31464FF48270013401F03BFD102C8B
S21400376CF6D15C494FF4827001F046FD5E4B5F4A21
S21400377C18785F4B029300215E4B0193CDE9035101
S21400378C5D4B1B8800932346D5E74E4B19780129D1
S21400379C0AD10A46112002211CF070FE41F2883133
S2140037AC0A20FFF77BFDC8E70229F7D1534B01220D
S2140037BC93F90000F0E71DF0C3F9BEE7FFF758FDDC
S2140037CC4F4902464FF4817001F016FD1AF0B8FB13
S2140037DCB3E75622002110A83FF04EFB2122002111
S2140037EC07A83FF049FB1022464910A806F018FF20
S2140037FC02238DF863300DF19501112307A88DF87F
S21400380C6430FFF783FD9DF8952007A90DF1750030
S21400381C06F006FF4FF481703A4A3B4901F0DAFC99
S21400382C4FF4817001F0BEFC18B11AF0C7F801F025
S21400383C73FD07AA35494FF4817001F0DDFC344A5C
S21400384C40F2311110A81CF053FE76E731491C4C9F
S21400385C4FF4817001F0D0FC1A4B1A786AB12178BB
S21400386C02290AD92149097839B1012A12D1022232
S21400387C1A7000232370FFF711FE227826490132B6
S21400388CD2B24FF48270227001F0B6FC4EF6602174
S21400389C287886E7022AF0D10122E9E7FFF78EFDA9
S2140038AC4BE7FFF7FBFD48E74FF447711B4806F064
S2140038BC4FFC42E70C5803209E3A0020B0610400EF
S2140038CC723A0020762F0020C16104009D2F002044
S2140038DCCF610400AB5E0400952F0020BD2F0020A6
S2140038ECAD2F0020842F0020733A0020743A00205D
S2140038FC7C2F0020863A0020843A0020942F00204B
S21400390CD36104002B610400F66104001762040006
S21400391C00F8FF072A62040055620400FC5F0400EE
S21400392C1FB51AF04BF802460068516802AB03C389
S21400393C0822022300930DEB02010348FDF73CFB23
S21400394C05B05DF804FB00BF8E3A002010B51D4B89
S21400395C1B78042B044604D040F2C7111A4806F014
S21400396CF7FB10222146194806F05AFE184B194848
S21400397C00221A702146102206F052FE4FF4817077
S21400398C154901F027FC4FF4817001F00BFC10B1C7
S21400399C204601F047FC11494FF4817001F02CFCD5
S2140039ACFFF7BEFF0E4B1B78022B04D1FDF772FB04
S2140039BC08B9FDF75FFB00210520BDE81040FFF7B6
S2140039CC6DBC00BF9E3A0020FC5F04008E3A0020BF
S2140039DC603A00201D560320D45F0400AB5E040042
S2140039EC762F00201FB50E4B079C1B78042B14D18A
S2140039FC04F11000FFF7AAFF44214B09022B02D05A
S214003A0C2378FF2B07D00023CDE9013300931A4609
S214003A1C204630F039FB04B010BDA321EDE700BF03
S214003A2C9E3A00201FB50D4B1B78042B0CD10021A1
S214003A3C102268463FF020FA6946002001F0B0F8E4
S214003A4C28B16846FFF782FF05B05DF804FB044911
S214003A5C4FF4817001F0D0FBF6E700BF9E3A0020D1
S214003A6CC45F04001FB50C4B0C481B688DF80F3058
S214003A7C1A168DF80C201A148DF80D201A12222303
S214003A8C009304238DF80E2003A91A46FDF794FA2A
S214003A9C05B05DF804FB00BF782F00208E3A00209E
S214003AAC014B1860FFF7DEBF782F0020024B002278
S214003ABC1A701AF02DBB00BF723A002000B59BB0EE
S214003ACC5622002104A83FF0D7F904A81AF09EF855
S214003ADC1AA99DF8333001F85C3D2323009301228C
S214003AEC04230348FDF768FA1BB05DF804FB00BF1F
S214003AFC8E3A002000210920FFF7D0BB08B5044BF6
S214003B0C1870FFF7BDFDBDE80840FFF7C7BC00BF47
S214003B1C762F002010B5074C01461022204606F0E2
S214003B2C7FFD224604494FF48270BDE8104001F038
S214003B3C63BB00BF743A0020975F0400F7B50146DC
S214003B4C0822684606F06CFD1249134D134E144FAE
S214003B5C4FF4827001F03EFB00241DF804206255E1
S214003B6C31464FF4827001F035FB04F0FD03012B57
S214003B7C01D0052C04D139464FF4827001F02AFB93
S214003B8C0134082CE9D107494FF4827001F034FB5C
S214003B9C03B0F0BDBA5F0400863A0020775A0400E2
S214003BAC117B0400AB5E0400034B044918800246EC
S214003BBC4FF4827001F020BB843A0020A95F040009
S214003BCC034B0449187002464FF4827001F014BB84
S214003BDC733A0020765F040070B5014610220D483B
S214003BEC0C4E0D4D06F01CFD0C494FF4827001F086
S214003BFCF1FA0024325D29464FF48270013401F04C
S214003C0CE9FA102CF6D106494FF48270BDE87040E4
S214003C1C01F0F2BA842F0020CF610400875F040005
S214003C2CAB5E0400FFF740BD00F06CB800F06BB85C
S214003C3C00F06BB800F06BB808B500F019FE01F098
S214003C4C2BFF00F065F808F021FF09F0DBFBBDE860
S214003C5C084012F0A5BC08B5FFF7F6FA07F0A4FA70
S214003C6C07F08EFB19F02AFE00F053F8BDE808406A
S214003C7C09F07CBF08B500F049F80BF075FE0DF0A6
S214003C8C55FE10F069FABDE808400EF01DBB70B585
S214003C9C04460D461646FFF73BFC324629462046A0
S214003CAC08F016FF3246294620460DF07BFB3246BE
S214003CBC294620460DF004FF3246294620460FF0D2
S214003CCC8FF8324629462046BDE8704010F04ABAB6
S214003CDC00F068B82DE9F341089C009405460E46A2
S214003CEC1746984600F060F843463A463146284652
S214003CFC089402B0BDE8F04110F06ABA00F05BB868
S214003D0C7047704770470120704770477047704780
S214003D1C7047704770470020704770477047002008
S214003D2C70477047704708B9FFF7C8BE70477047B2
S214003D3C70477047704708B9FFF7DCBE704770478E
S214003D4C7047704700207047704770477047704741
S214003D5C1FB504A9212301F8040D01220093034882
S214003D6C0423FDF729F905B05DF804FB1D56032066
S214003D7C70477047704700207047704700207047A8
S214003D8C704770477047704770477047704770476A
S214003D9C14F08CB810B4BDF8084002945DF8044BCF
S214003DACFCF798BE01207047704786207047862027
S214003DBC704770477047704781210EF0A3B9812178
S214003DCC0EF0A0B981210EF09DB981210EF09AB9A2
S214003DDC81210EF097B981210EF094B91FB5064BD0
S214003DEC0193064B0292009300220B4604490EF0F8
S214003DFC27F905B05DF804FBD0700400C070040011
S214003E0C2A7304001FB5064B0193002302920093FD
S214003E1C01220B4603490EF013F905B05DF804FBBE
S214003E2CB07004002A7304001FB5064B0193064BB2
S214003E3C0292009302220B4604490EF001F905B0DB
S214003E4C5DF804FBA0700400907004002A73040054
S214003E5C1FB5064B0193064B0292009340220B466D
S214003E6C04490EF0EDF805B05DF804FBF87004009C
S214003E7CE07004002A7304001FB5064B0292002261
S214003E8C019300920B4604490EF0DAF805B05DF883
S214003E9C04FB00BF20710400367304001FB5064BEC
S214003EAC019300230292009301220B4603490EF065
S214003EBCC7F805B05DF804FB5871040036730400AF
S214003ECC1FB5064B019300230292009302220B4669
S214003EDC03490EF0B5F805B05DF804FBA8710400B4
S214003EEC367304001FB5064B0193064B02920093E3
S214003EFC40220B4604490EF0A3F805B05DF804FB0F
S214003F0C4871040030710400367304001FB5064B6C
S214003F1C019300230292009341220B4603490EF0B4
S214003F2C8FF805B05DF804FB687104003673040066
S214003F3C1FB5064B0193064B0292009342220B468A
S214003F4C04490EF07DF805B05DF804FB987104008A
S214003F5C787104003673040007B5054B0093054AC8
S214003F6C054B064800210DF0E5FE03B05DF804FB9A
S214003F7CDCA80400C0700400E93D00002A730400AD
S214003F8C07B5054B00930022044B054801210DF0A4
S214003F9CD1FE03B05DF804FBAB5E0400113E0000DE
S214003FAC2A73040007B5054B0093054A054B0648D3
S214003FBC02210DF0BFFE03B05DF804FB3B9D040030
S214003FCC90700400353E00002A73040007B5054BBC
S214003FDC0093054A054B064840210DF0ABFE03B096
S214003FEC5DF804FBC46B0400E07004005D3E00004A
S214003FFC2A73040007B5054B00930022044B0548B2
S21400400C11460DF097FE03B05DF804FBAB5E0400A2
S21400401C853E00003673040007B5054B009300225E
S21400402C044B054801210DF085FE03B05DF804FB3A
S21400403CAB5E0400A93E00003673040007B5054BC2
S21400404C00930022044B054802210DF073FE03B0CA
S21400405C5DF804FBAB5E0400CD3E00003673040036
S21400406C07B5054B0093054A054B064840210DF055
S21400407C61FE03B05DF804FBC46B040030710400F1
S21400408CF13E00003673040007B5054B0093002282
S21400409C044B054841210DF04DFE03B05DF804FBC2
S2140040ACAB5E0400193F00003673040007B5054BE1
S2140040BC0093054A054B064842210DF03BFE03B023
S2140040CC5DF804FB2D6B0400787104003D3F000086
S2140040DC367304001FB5064B0193064B02920093F1
S2140040EC01220B4604490DF0ABFF05B05DF804FB4E
S2140040FC18720400E8710400427304001FB5064BE6
S21400410C0193064B0292009306220B4604490DF0CF
S21400411C97FF05B05DF804FB68720400407204005B
S21400412C427304002DE9F04FA5B080468A46002065
S21400413C06A900F035FD50B94FF482704B4B4C4A33
S21400414C4C4901F059F8022025B0BDE8F08F00214B
S21400415C012000F085FC16AF382200218146002491
S21400416C38463EF089FEADF8164000F087FB022874
S21400417C6ED90DF11601022000F0A2FC064600F0E6
S21400418C7DFB032806D92146032000F069FC037842
S21400419C8DF88C30384C22684FF6FF739A420AAD75
S2140041AC58D036494FF4827001F026F822680C215C
S2140041BC28462FF0BBFF0124DFF8D8B0DBF8002030
S2140041CC4FF6FF739A420CD02D494FF4827001F0D3
S2140041DC13F805EB0410DBF8002011212FF0A6FFD6
S2140041EC0134DFF8B4B0DBF800204FF6FF739A42C8
S2140041FC0CD024494FF4827000F0FEFF05EB04103F
S21400420CDBF8002017212FF091FF01341C958DF858
S21400421C7440BAF1000F0ED041F2346106A80EF0CD
S21400422C59F8C8B1184B219341F234632290ADF87B
S21400423C6A30ADF86C30154B0193BDF81630009310
S21400424C029733464A46414606A82FF0D9FC7BE730
S21400425C26469FE70024AFE74FF482700C4B044AC7
S21400426C044900F0C9FF01206EE700BF4873040044
S21400427C5373040057730400E82F00205E73040089
S21400428C7973040093730400D5020300A94200005E
S21400429CB1730400E02F0020E42F00202DE9F0433A
S2140042AC9BB004460E464FF482705F49BDF88850AA
S2140042BC90461F4600F08EFF20462FF0FFF95B4914
S2140042CC02464FF4827000F085FF002C56D0304624
S2140042DC2FF0CCF9554902464FF4827000F07AFF65
S2140042EC0022114640462FF090FA431C064626D074
S2140042FC6422002101A83EF0BFFDB0B2632845D968
S21400430C0130002180B217F0CFFE002842D017F003
S21400431C29FB4FF000090446B2B2214640462FF066
S21400432C74FA224642494FF4827000F053FFB9F1FA
S21400433C000F04D03F494FF4827000F04BFFEDB1F4
S21400434C01AA0C2140462FF04DFA40B3019C2046A2
S21400435C2FF0A0F9384902464FF4827000F03AFF6D
S21400436C0CB1282C1ED14FF4827000F01BFF28B124
S21400437C2A4639464FF4827000F0B0FF2F494FF4AE
S21400438C827000F039FF1BB0BDE8F0834FF00009D7
S21400439C01ACC1E74FF0010901AC6326BCE74FF056
S2140043ACFF34D4E73C2C03D04FF628639C4233D121
S2140043BC00214FF4806017F077FE28B920494FF49F
S2140043CC827000F019FFD9E717F0CCFA294604469C
S2140043DC02464FF4806338460BF0D0F8194F204451
S2140043EC85B200262B1B9BB2802B06D8224615497D
S2140043FC4FF4827000F0EEFEC0E794F8808084F8EC
S21400440C8060224639464FF4827000F0E3FE06F0D8
S21400441CC5FA04F8808FE5E700232A4639464FF4A0
S21400442C827000F067FFA9E7D97304006D8F040053
S21400443CE373040082750400E9730400AB5E0400A9
S21400444CF27304006E8F04001FB50020694600F05E
S21400445CA7FB48B9094B0A4A0A494FF4827000F088
S21400446CCBFE05B05DF804FB694641F2336028F0DC
S21400447C34FD054A05490346EFE700BF48730400C0
S21400448C5373040057730400E56B0400D1730400E7
S21400449C10B500210120FFF745FE044A04490346E7
S2140044ACBDE810404FF4827000F0A6BECF6C04003E
S2140044BCD173040010B500210220FFF733FE044A26
S2140044CC04490346BDE810404FF4827000F094BED9
S2140044DCD36C0400D173040010B500210320FFF741
S2140044EC21FE044A04490346BDE810404FF482708E
S2140044FC00F082BEDD6C0400D173040010B5002100
S21400450C0420FFF70FFE044A04490346BDE810409A
S21400451C4FF4827000F070BEC86C0400D1730400B7
S21400452C012110B50846FFF7FDFD044A0449034671
S21400453CBDE810404FF4827000F05EBECF6C0400F5
S21400454CD173040010B501210220FFF7EBFD044ADD
S21400455C04490346BDE810404FF4827000F04CBE90
S21400456CD36C0400D173040010B501210320FFF7AF
S21400457CD9FD044A04490346BDE810404FF4827046
S21400458C00F03ABEDD6C0400D173040010B50121B6
S21400459C0420FFF7C7FD044A04490346BDE8104053
S2140045AC4FF4827000F028BEC86C0400D17304006F
S2140045BC08B5002000F0E4F9014B186008BD00BFF8
S2140045CCE02F002008B5002000F0DAF9014B186047
S2140045DC08BD00BFE82F002070B5012000F0D0F910
S2140045EC0128124C03D94FF6FF73236070BD0020D0
S2140045FC00F0C6F97F28F6D8022000F0C1F9B0F119
S21400460C805FF0D2012000F0BBF90546002000F0D8
S21400461CB7F90646022000F0B3F90246281CF1B2A0
S21400462C18BF01202FF06CFD2060DFE7E42F002080
S21400463C2DE9F04F074685B008460D46904699463C
S21400464C3FF037F8BDF838A00F9E204C83466368C1
S21400465C53B9CDE9013300931A46842130462FF026
S21400466C13FD05B0BDE8F08F22892078991811F853
S21400467C011C2F2904BF02F1FF3292B208B1B842D6
S21400468C21D12F291DD1934506D3A95CB9B12F2969
S21400469C14BF0021012100E00021A1B129461846D3
S2140046AC3FF00FF878B9CDE90EA6E4684B464246C3
S2140046BC29463846A44605B0BDE8F04F60470121B0
S2140046CCEBE79345E4E71034C1E700BF146D040034
S2140046DC002070470020704770477047F8B50546B5
S2140046EC846802681B49202009F095F96B68DBB1D9
S2140046FC194D1A4E1A4F013C14F8013FC3B1752BD5
S21400470C1CD0762B1CD0772B1CD0732B1CD0622B7A
S21400471C1CD06E2B1CD01349134A2A2B18BF1146DB
S21400472C202009F078F9E7E71049202009F073F902
S21400473C0F492020BDE8F84009F06DB92946EFE78F
S21400474C3146EDE73946EBE70A49E9E70A49E7E778
S21400475C0A49E5E712830400567504004A750400FE
S21400476C6175040089750400867504008275040062
S21400477C477504006D750400777504008175040098
S21400478C13B50446FFF7AAFF01A9204600F020FA4D
S21400479C18B1084C019B1B680BB902B010BD214622
S2140047AC202009F038F90198FFF798FF019B0C338D
S2140047BC0193EFE7D3AE040008B50449202009F0B6
S2140047CC2AF92020BDE8084009F0B9B9387404006D
S2140047DC38B5FFF7F1FF064D002460190C34631949
S2140047EC53F80C3C03B938BDFFF778FFF5E700BF6C
S2140047FCFC640400094B10B553F820200C4620200E
S21400480C074909F008F944B10649202009F003F9D4
S21400481C2046BDE81040FFF7B3BF10BD1874040067
S21400482C027404000E74040000230370A0F86630B3
S21400483C80F88630C0F890304FF07F42A0F88C306D
S21400484C0A23C0F8882080F88E307047074B002269
S21400485C4FF07F411A70A3F8662083F88620C3F8C1
S21400486C881083F88C20C3F89020704714580320C7
S21400487C0148FFF7D9BF00BF14580320034B93F829
S21400488C860093F88C30C01AC0B2704714580320B8
S21400489C034B03EB40000133B0F866001844704736
S2140048AC14580320044B03EB400292F8680092F86D
S2140048BC6630C01AC0B2704714580320044B03EB82
S2140048CC4002B2F86800B2F86630C01A80B2704780
S2140048DC14580320054A92F88C30184440B202EB68
S2140048EC40000132B0F86630D05C70471458032094
S2140048FC2DE9F047204C054694F88C002844C0B2AD
S21400490C43B204EB43030E46B3F86680FFF7CAFFC8
S21400491C8146FFF7B3FFA84294F88E7003D8D521D2
S21400492C164805F015FC4FF0000A55465FFA8AF358
S21400493C99451CD90AEB08022244507816B10BB9DB
S21400494C2D280DD000F0DF02582A03D115B9013BF3
S21400495C012B0FD918F04AFE874204D905FB070530
S21400496C0AF1010AE2E7052384F88A300025284676
S21400497CBDE8F0871027F3E714580320FB750400F6
S21400498C10B5164991F88E30FF2B044621D1FFF74F
S21400499C89FF64B201EB44040246B4F866004B1C73
S2140049AC012A00EB030101D1C05C10BD022A03D121
S2140049BC084618F021FDF8E7042A04D10020BDE8CB
S2140049CC104018F047BD0648F92105F0C1FB002041
S2140049DCEBE70021BDE81040FFF78ABF1458032010
S2140049ECFB75040038B51C4991F88E30FF2B044635
S2140049FC23D1FFF757FF64B201EB440402464B1C6D
S214004A0CB4F86600012A00EB0301C45601D1204617
S214004A1C05E0022A04D1084618F0EEFC00B238BDB8
S214004A2C042A04D10020BDE8384018F013BD4FF41A
S214004A3C8A710A4805F08CFBE9E7FFF74BFFA0F1FB
S214004A4C2D035942054659412046FFF751FF2D2D9F
S214004A5C08BF4042E3E700BF14580320FB75040070
S214004A6CF8B5164B93F88E20FF2A04461D4603F124
S214004A7C01060CD121B1C0B2FFF714FF0138087043
S214004A8C05EB4404B4F8660001303044F8BD93F8E6
S214004A9C8C002044C0B242B203EB4203E543B3F8A9
S214004AAC6670ED0FF41939B1FFF7FCFEF35D401B91
S214004ABC222B08BF013808706019E7E7145803204A
S214004ACCF8B5164B93F88E20FF2A04461D4603F1C4
S214004ADC01060CD121B1C0B2FFF7F0FE02380880F7
S214004AEC05EB4404B4F8660002303044F8BD93F885
S214004AFC8C002044C0B242B203EB4203E543B3F849
S214004B0C6670ED0FF41939B1FFF7D8FEF35D401B54
S214004B1C222B08BF013808806019E7E714580320D9
S214004B2C2DE9F3410D460DF10701904607461C464C
S214004B3CFFF796FF0646F8B2FFF7CCFEA0F122036D
S214004B4C5F429DF807105F413944C9B2414528BF02
S214004B5C41468DF807101CB1CCB2A8EB0404E4B2A5
S214004B6C22462846002105F0E5FD28199DF8072069
S214004B7C314605F055FD9DF80700C01BC0B202B0CB
S214004B8CBDE8F08113B501230C4608226946FFF7F1
S214004B9CC7FF08226946204618F07DFC02B010BDFF
S214004BAC10B540B20C460021FFF75AFF2146BDE86F
S214004BBC10401EF0F8B938B540B20C461546002128
S214004BCCFFF74EFF2A462146BDE838401EF0FEB9D8
S214004BDC08B5D0E9012312B90B60012008BD1B787B
S214004BEC6E2B04D14FF4D871024805F0B1FA0020B0
S214004BFCF4E700BFFB7504002DE9F04FA24C97B00C
S214004C0C814688460026B9F1000F0DD10DF113012F
S214004C1C5FFA88F008F08CFF90B1262800F0B2817D
S214004C2C012384F88A3051E0B8F1000F00F0AA8115
S214004C3C19F8013B8DF8133008F1FF381FFA88F885
S214004C4C94F88D309DF8135084F88D500D2B01D1AF
S214004C5C0A2DD8D00D2D0CD0A5F10A035F425F416A
S214004C6C23783E46042BCED8DFE803F0051A244200
S214004C7C32000127F4E7002F5BD1202D00F0658170
S214004C8C222D08D102232370B4F88820642A40F021
S214004C9C5E810623C5E77B2D0CBF03230123F2E7B9
S214004CAC0FB9202DF0D194F886300F2B40F03E81B2
S214004CBC0323B6E7222D03D100238DF81330E3E748
S214004CCC002FE1D0052384F88A30012604232370B4
S214004CDC002E98D094F88A0018B1D4F89010FFF7EC
S214004CEC89FDFFF7B3FD9DF8133084F88D308AE705
S214004CFC7D2D94F88BA004D1BAF1FF0FD3D00523E9
S214004D0C8FE7284618F072FC0F280FD8BAF1FF0F61
S214004D1C09D094F88B3000EB0310FF238DF81300AA
S214004D2C84F88B30B0E784F88B006CE7202DE6D146
S214004D3C69E7564B059394F88630002BC5D00027B0
S214004D4C78B2059DFFF7A4FD82463846FFF7AAFD0C
S214004D5C0022029016469346296861B9E2B1059185
S214004D6C022384F88A3094F88A30002BADD1059B48
S214004D7C5B689847A9E70B7843B34B1E0193D44660
S214004D8C019911F8013F01910299ACEB0A00884297
S214004D9C3ED1002B3DD1AB46CDF814B0BBF1000F85
S214004DACDED094F88C30C4F890B00137013305A9E6
S214004DBC5846FFB284F88C30FFF70AFF002844D020
S214004DCC94F88630BB42BBD80323CAE70F2EAB68D9
S214004DDC08D94FF480712E480392019305F0B8F968
S214004DEC039A019B16A901EB86010C35013641F896
S214004DFC405CF6B21D462B68002BADD1002EABD016
S214004E0C013EF6B216AB03EB860353F8405CA3E701
S214004E1C2BB9BBF1000F16D001220C35EBE71CF8B2
S214004E2C010BA0F1410EBEF1190F98BF2030A3F173
S214004E3C410E98BFC0B2BEF1190F9CBF2033DBB237
S214004E4C83429DD0E9E7AB46E7E7059B9B681B785A
S214004E5C3F2B88D0064605464FF0070A4FF0040B4A
S214004E6C40E0104602930192FFF734FD029B019A34
S214004E7C732B0FD8712B11D2002B55D0622B4BD025
S214004E8C84F88AA020E000BF14580320FC640400B9
S214004E9C7E760400A3F175010229F1D8752B34D067
S214004EAC762B34D0732B35D0722B47F6FF7318BF86
S214004EBC4FF0FF33012110460193FFF719FD019BBC
S214004ECC984201D984F88AB0059B9B682B4401361E
S214004EDC5B782A2B94F88A301CBF0135EDB2002B78
S214004EEC7FF4F3AE059B94F886C09968F2B2B818B6
S214004EFCC0B284454B5DB4D8002B3FF434AF0D44A0
S214004F0C6B782A2B7FF460AF2DE7FF23D2E74FF6A2
S214004F1CFF73CFE77F23CDE72228D5D07B28D3D0CD
S214004F2C052384F88A30CFE70323FAE70133DBB294
S214004F3C84F8863004EB4303B4F88820A3F8662084
S214004F4C00232370002F7FF4F4AE3E465BE62178F8
S214004F5C012909D19DF81330A3F1410019289CBFF3
S214004F6C2033DBB28DF81330A0189DF81330437045
S214004F7C01320229A4F888207FF445AE002B3FF4BA
S214004F8C92AE40E6304617B0BDE8F08F012270B501
S214004F9C1146042003F0B0FB1A4B1B4D1A681B4835
S214004FAC42F001021A60DA684FF0604442F08072F8
S214004FBCDA60174BC4F8B03F00260223C4F8006E24
S214004FCCC4F8806EC5F8F03003F0A2FA00F5D520D0
S214004FDC104B114A00F2FC40B0FBF3F00F4B0138BB
S214004FEC2861C4F8406E1A600D4BC4F8803E4FF42E
S214004FFC8073C5F80433D4F8003E43F48073C4F8C9
S21400500C003E70BDF0ED00E0000004E006000E006F
S21400501C55CEACC5F8590D00FF030040001000E05B
S21400502C0D00010010B50121114803F091F9114B48
S21400503C01241C60002004F065F92346042202219A
S21400504C052004F0B7F9204618F08AF9FFF79EFF02
S21400505C18F08CF9084B1C7009F0A2FB2346402272
S21400506C0649074809F072FB064B1860C00F10BDC6
S21400507C00350A00108814429F3A0020A03A0020FF
S21400508CFC760400EC2F0020024B1868003018BF8A
S21400509C01207047F0ED00E0054A4170D123037003
S2140050AC1378C370090A8170591C1170042070475C
S2140050BCE03A00202DE9F74F0E78042E81460F4675
S2140050CC58D93DF066FA751DDFF8ACA0EDB28046F7
S2140050DC4FF6FF710024DAF800305BB1A54209D90F
S2140050EC01913DF056FAA0EB080080B2B0F5FA7FBD
S2140050FC019907D9281B18BF012004233B7003B065
S21400510CBDE8F08F64B3012C2ED0EB1E04F1010B1E
S21400511C9C425FFA8BFB12D1CCB24FF06043D3F8B3
S21400512C802ED00709D5D3F8002ED20505D5184603
S21400513C026A002AFCD083F820405C46CBE7AB1E04
S21400514C9C4202D1C1F30724E7E76B1E9C420FD0AA
S21400515C4C4414F8024C204605F008F90146DCE7EE
S21400516C5B244FF0010BD8E734464FF0020BD4E724
S21400517C5D24D2E70020C0E7F0ED00E000B5084B58
S21400518C91B040226946186809F0CEFA20B1C2B236
S21400519C6946122018F0FCF811B05DF804FB00BF4D
S2140051ACEC2F0020094B18804FF6FF73984209D05D
S2140051BC030A012B08D8064AD35C034214BF01200D
S2140051CC002070470120704700207047E23A00200C
S2140051DCF02F00200EB417B505AC54F8041B019440
S2140051ECFFF7E0FF18B12246202008F03CFC03B085
S2140051FCBDE8104003B070470EB417B505AC54F8B4
S21400520C041B0194FFF7CEFF30B12246202008F095
S21400521C2AFC202008F00EFC03B0BDE8104003B0BA
S21400522C7047000000B58BB0282269461DF0A8FE1A
S21400523C28B1044B044918886A46FFF7CBFF0BB01D
S21400524C5DF804FBE23A00206E8F040000B58DB0CA
S21400525C2C2301AA1DF09EFE28B1044B0449188885
S21400526C01AAFFF7B7FF0DB05DF804FBE23A002089
S21400527C6E8F040008B5FFF795FF20B12020BDE81F
S21400528C084008F05CBC08BD2DE9F84F0746884678
S21400529C164699469DF828A0FFF784FF28B10024EF
S2140052AC06F1FF3BB442A5B201D1BDE8F88FBAF1C6
S2140052BC000F10D0ABEB040318F803204946384611
S2140052CC05F00F05FFF786FF062D02D13846FFF7CF
S2140052DCD1FF0134E6E72346EEE7000007B50023CE
S2140052EC0093034BFFF7D0FF03B05DF804FB00BF41
S2140052FC0184040037B500240094054D054C002BA2
S21400530C14BF2B462346FFF7BFFF03B030BD00BFCC
S21400531CCF610400775A040037B5084C0849054697
S21400532C2088FFF757FF012300932088054B08229F
S21400533C2946FFF7A9FF03B030BD00BFE23A0020B4
S21400534CFD8D0400775A040037B5084C084905460D
S21400535C2088FFF73FFF012300932088054B082287
S21400536C2946FFF791FF03B030BD00BFE23A00209C
S21400537CFD8D0400775A040038B504460D46C2B1BC
S21400538C4FF481700B49FFF725FF4FF48170FFF740
S21400539C09FF18B129462046FFF758FF06494FF477
S2140053AC8170FFF729FF29462046BDE838403AF0C1
S2140053BC1FBE38BD117704002D8F040070B50D4646
S2140053CC16460446A8B14FF481700A49FFF702FF4F
S2140053DC4FF48170FFF7E6FE18B131462846FFF70A
S2140053EC35FF224604494FF48170BDE87040FFF744
S2140053FC03BF70BD0C7704002D7704002DE9F04F29
S21400540C4D4CA36BD4F850B0D4F840A05A074FBFFD
S21400541C0027D4F84CB0D4F85480D4F83CA05ABF2B
S21400542C464FDFF84091DFF84091454A48BFB846F2
S21400543C13F0080F434B18BF1A46B7EB08061CBFF1
S21400544C7308642187B01FBF01FB0B33B3FBF6F365
S21400545C9BB205933C49CDF800804B46CDE9017ACA
S21400546C08BF0596054608F0EBFAB3B2CDE90093F3
S21400547C1FFA8BF2059B3549284608F0E1FAA36B18
S21400548C5B070AD49C3E5E4507D1626D304B9A4250
S21400549C03D23049284608F0D3FABA4501D8C2459B
S2140054AC04D24A462C49284608F0CAFA284608F080
S2140054BC46FB236E0BB9636EBBB32849DFF8AC8092
S2140054CCDFF8AC90284608F0A6FA00260127226ED4
S2140054DC07FA06F3134207D058F8262013781BB1A8
S2140054EC4946284608F097FA0136202EEFD1DFF809
S2140054FC7C80DFF87C9000260127626E07FA06F3A4
S21400550C134209D008EB8603D3F8802013781BB11E
S21400551C4946284608F07FFA0136122EEDD1284669
S21400552C07B0BDE8F04F08F085BA0D49284607B01D
S21400553CBDE8F04F08F084BA00000020D82E0020FA
S21400554C65A904007CBB0400337A0400617A04006D
S21400555C9C0000209A7A0400C67A0400E47A0400C0
S21400556C137B04002E7A0400267A0400287B0400A1
S21400557C118304002DE9F843044604F05BFF40F663
S21400558C0123984239D010D840F2025398421DD0CD
S21400559C40F20173984224D040F20153984213D142
S2140055AC6549204608F04CFA22E040F60323984260
S2140055BC6CD03DD340F60423984200F09C8040F615
S2140055CC0523984200F0B580BDE8F8835B49204679
S2140055DC08F036FA5A4B5B495A6C204608F030FAFB
S2140055EC06E0574A5849D2E92523204608F028FAFF
S2140055FC2046BDE8F84308F0A2BA514D5349204660
S21400560C08F01EFA95F86C309F0703D550492046D3
S21400561C08F016FA95F86F305E0603D54D4920460D
S21400562C08F00EFA95F96F30002BE1DA4A49B8E724
S21400563C434D4A49204608F003FA95F86830980717
S21400564C04D06A6C3F49204608F0FAF995F96830A0
S21400565C002B04DA6A6F4249204608F0F1F9DFF8AD
S21400566C0C81DFF8189100260127AA6E07FA06F3BC
S21400567C134207D058F8262013781BB1494620460B
S21400568C08F0DEF90136082EEFD1B1E72C4D35497E
S21400569C204608F0D5F92B496A6C204608F0D0F95C
S2140056AC95F86930590703D52F49204608F0C8F9F4
S2140056BC95F96930002B04DA6A6F2949204608F000
S2140056CCBFF92A4FDFF8B4800826AB6EF340DA0732
S2140056DC07D557F8262013781BB14146204608F00C
S2140056ECAFF90136102EF0D195F86830002B7FF408
S2140056FC7FAF1F4955E7124D1E491C4FDFF87C80C3
S21400570C204608F09DF96A6C0E49204608F098F978
S21400571C1026AB6EF340DB0707D557F82620137818
S21400572C1BB14146204608F08BF901361A2EF0D1F3
S21400573C5EE711494BE700BFB5770400F27704002B
S21400574C00000020227804003B7804005578040002
S21400575C6D780400A7780400DA7804001679040043
S21400576C3B7904005F7904007679040044770400E2
S21400577CBC790400EC790400057A0400577904001F
S21400578C2DE9F84F164C174FDFF86080DFF860A055
S21400579C0646002523785FFA85FB0BB9BDE8F88F23
S2140057AC57F8043B10492246304608F034F9227864
S2140057BC04F1010982B9627882B10BF00301032966
S2140057CC0CBF41465146304608F025F9304608F0E5
S2140057DCB6F901354C46DDE74C46E8E74146F2E7BC
S2140057ECF07B040004000020AC770400477504002E
S2140057FC785B040038B505460C4618F0DFF808232D
S21400580C2860238038BD000010B5002090B0FFF74C
S21400581CB7F840226946044600F028FA034638B129
S21400582C224606494FF48170FFF7E6FC10B010BD17
S21400583C01226946082000F0A7F8F7E77F820400EB
S21400584C10B500F0CFF8002814BF79226E22174945
S21400585C4FF48170FFF7D0FC00F0C4F818B300F0DA
S21400586C3FFA002814BF79226E2211494FF481703A
S21400587CFFF7C2FC02220F494FF48170FFF7BCFC05
S21400588C0D4B0E4953F8042C1C1F4FF48170FFF778
S21400589CB3FC04F11003E26808494FF48170BDE8CC
S2140058AC1040FFF7A9BC3F22DFE700BFED830400E2
S2140058BC0484040014840400AC58032033840400CD
S2140058CC70B500F095F8244904464FF48170FFF744
S2140058DC93FC34B921494FF48170BDE87040FFF752
S2140058EC8BBC00F08DF822691D49268805464FF4BE
S2140058FC8170FFF781FC62881A494FF48170FFF7BC
S21400590C7BFC1949A2884FF48170FFF775FC6388FD
S21400591CE28813F0100F14BF144915494FF4817028
S21400592CFFF76AFCA26813494FF48170FFF764FC1A
S21400593CE26811494FF48170FFF75EFC0F4A104B7A
S21400594C1049B6F5817F28BF13464FF481702A465E
S21400595CBDE87040FFF750BCC9820400D682040034
S21400596CF782040015830400368304005383040076
S21400597C708304008E830400AC830400B78204009A
S21400598CC1820400CA8304002DE9F047124EDFF8EA
S21400599C4C90DFF84CA005460F4690460024AC42CF
S2140059AC01D1BDE8F08707EBC401012308224FF4B0
S2140059BC8170FFF79FFC0134B8F1000F09D1A542A6
S2140059CC0CBF32464A4651464FF48170FFF714FC22
S2140059DCE5E73246F7E700BF47750400AB5E040008
S2140059EC11830400014B1878704700BFE43A00207E
S2140059FC08B500F019F8BDE8084004F0BBBA000082
S214005A0C10B5084C237853B9FFF7F2FF0123237027
