:10000000D82E0020012004001DB1000021B1000005
:10001000A70A02020002000004180FAC5029B00128
:1000200000000000000000000000000000000000D0
:100030000000000010840400000000000000000028
:100040000000000000000000FFFFFFFFFFFFFFFFB8
:10005000FFFFFFFFFFFFFFFFFFFFFFFFFFFFFFFFB0
:1000600000700F000000000000001000FFFFFFFF05
:10007000FFFFFFFF01000000000000000000000083
:10008000206E0320206203202062032020620320D0
:10009000D82E002040E504009C54040000200020DD
:0C00A000DC1F002000001000206E032078
:10020000D82E0020012004001DB1000021B1000003
:1002100029B1000025B100002DB10000FF1F04002E
:10022000FF1F0400FF1F0400FF1F0400FF1F040046
:1002300031B10000FF1F0400FF1F0400FF1F040076
:100240009977000065AE030005B60000F8B2000023
:1002500029A90300D1AE030071AE030089AE0300EB
:1002600069AE0300A96E00007D6F0000BD8D000027
:10027000F9DE0000F8B20000F8B2000025400000EE
:10028000F8B20000F8B20000A16F0000F8B2000060
:1002900031DF0000F8B20000F8B20000F8B2000050
:1002A000F8B20000F8B20000F8B20000F8B20000A6
:1002B000D5AE03006DAE03001D75000015AF030041
:1002C000F8B20000B1730300F8B20000F8B2000009
:1002D000F8B20000F8B20000F8B20000F8B2000076
:1002E000F8B20000F8B20000F8B20000F8B2000066
:1002F000F8B20000F8B20000F8B20000F8B2000056
:0C030000F8B20000F8B20000FF1F04007B
:10030C00F8B500BFF8BC08BC9E467047F8B500BFF6
:10031C00F8BC08BC9E46704710B5054C237833B921
:10032C00044B13B10448AFF300800123237010BDBC
:10033C00083900200000000008DB040008B5034B5E
:10034C001BB103490348AFF3008008BD0000000057
:10035C000C39002008DB0400154B002B08BF134B95
:10036C009D46A3F5803A00218B460F461348144A4C
:10037C00121A42F0C1FB0F4B002B00D098470E4BCA
:10038C00002B00D098470020002104000D000D48E0
:10039C00002802D00C48AFF3008042F00DFA200088
:1003AC0029000BF003FF42F0F3F900BF0000080036
:1003BC00D82E0020000000000000000008390020AA
:1003CC0020620320000000000000000010B503793B
:1003DC000446092B57D8DFE803F005090D345656AF
:1003EC00414E5652BDE8104002F072BEBDE81040BE
:1003FC0002F072BE827924494FF4827005F0BAFD86
:10040C00E27922494FF4827005F0B4FD227A20493A
:10041C004FF4827005F0AEFD627A1E494FF4827083
:10042C0005F0A8FDD4F806201B4C1C4912BA4FF459
:10043C008270226005F09EFD2068BDE8104002F03D
:10044C004FBE174C8279174922704FF4827005F019
:10045C0091FD2078BDE8104003F03CB8124C827935
:10046C00124922704FF4827005F084FD2078BDE8AB
:10047C00104000F027BEBDE8104000F029BEBDE8DA
:10048C00104002F039BE10BDEE560400FA560400BE
:10049C000657040012570400243900201E5704008C
:1004AC00145800202B570400FC5700204857040018
:1004BC0008B50379032B1DD8DFE803F0020B0F13EB
:1004CC000D494FF4827005F055FDBDE8084003F06E
:1004DC005BBBBDE8084003F07BBBBDE8084003F004
:1004EC0069BBD0F80600054B00BA1860BDE808409F
:1004FC0003F05ABB08BD00BF5C5704002439002030
:10050C0010B503790446092B4AD8DFE803F0050936
:10051C000D11151E22303740BDE8104001F098BC7B
:10052C00BDE8104001F09CBCBDE8104001F0A0BC3F
:10053C00BDE8104001F0A4BCD0F80600194B00BA7D
:10054C00BDE81040186001F0B9BCBDE8104001F0E6
:10055C00BBBC8279C37914494FF4827005F00AFD53
:10056C00E179A0790222BDE8104001F0C3BC0F4B29
:10057C0080791870BDE8104002F004BCD0F8060079
:10058C00084B00BABDE81040186002F001BCD0F86E
:10059C000600044B00BABDE81040186002F0FEBB28
:1005AC0010BD00BF24390020E0560400FC57002089
:1005BC0008B50379052B07D8DFE803F003070A0D0C
:1005CC00101900F057FD002008BD00F05BFDFAE7A4
:1005DC0000F066FDF7E700F069FDF4E7D0F80600DF
:1005EC00054B00BA1860BDE8084000F065BDBDE8D9
:1005FC00084000F0D9BF00BF2439002008B5C378EB
:10060C00013B042B06D8DFE803F00307050A0D00B5
:10061C00FFF7DCFE012008BDFFF74AFFFAE7FFF702
:10062C006FFFF7E7FFF7C4FFF4E7000037B500F002
:10063C00FD05012D1C4640D12179DB78A278009173
:10064C004FF48270214905F095FCA378042B0CD152
:10065C00B4F803305BBA9BB2292B1BD007D8252BDF
:10066C0020D0262B09D01A2B0ED003B030BD322B44
:10067C0010D0332B01D0312BF7D115494FF48270A8
:10068C0005F078FC042013E0284603B0BDE83040A8
:10069C0000F074BD00F0F6FE0128E6D101F006F87A
:1006AC000020F2E70B494FF4827005F063FC032045
:1006BC0003B0BDE8304000F083BF07494FF48170B0
:1006CC0003B0BDE8304005F055BC00BF62570400D4
:1006DC00925704007D570400A8570400F0B593B05E
:1006EC0004AC06460F46154600213822204642F03F
:1006FC0003FA094B094A0294CDE9007302213346EF
:10070C00284633F0EFF8024620B105494FF48170CA
:10071C0005F030FC13B0F0BD39060000E02E0020CF
:10072C00C5570400F8B5C278037943EA02231BB21B
:10073C00023B04460E46102B33D8DFE803F0093495
:10074C005D6568716E777A7E81ADBABEC2C5C80030
:10075C006049614F4FF4827005F0FAFB5F494FF42A
:10076C00827005F0F5FB04F10E05063415F8012D29
:10077C0039464FF4827005F0EBFBA542F6D158498F
:10078C004FF4827005F0E4FB56494FF4827005F08B
:10079C00DFFB304605F004FC53494FF4827005F042
:1007AC00E9FB0120F8BD8379C279504D42EA03225E
:1007BC0042F276718A422A800BD14D494FF48270F5
:1007CC0005F0D8FB4B4B4C48012200211A701CF051
:1007DC00D9F82A8849494FF4827005F0CBFBA279ED
:1007EC0047494FF4827005F0C5FBE27945494FF457
:1007FC00827005F0BFFBD4E743494FF4827005F0DB
:10080C00B9FB0BF059F8CCE703F070FFC9E73F4B8D
:10081C0090F9060018701CF053FF1CF06DFFC0E738
:10082C00D0F8060000BA04F021F8BAE704F000F89A
:10083C00B7E7807904F020F8B3E704F025F8B0E7C7
:10084C00334B451D00F1150215F8011F03F8011F6C
:10085C009542F9D12F4804F043F82F4B04F11D02B7
:10086C0015F8011F03F8011FAA42F9D12B482C4D92
:10087C0004F04AF8A37FE27F2A4942EA03224FF4AC
:10088C0082702A8005F076FB288804F073F894F8BF
:10089C00200004F07BF884E7234A431D153413F839
:1008AC00011F02F8011FA342F9D1204804F07AF885
:1008BC0077E7807904F008F873E7807900F00EFC94
:1008CC006FE700F039FC6CE703F0FAFA69E703F024
:1008DC002FFB66E7E4570400A0590400FB57040003
:1008EC008C5C040004580400535D04002458002060
:1008FC00365804004A390020545800200C58040083
:10090C001D58040027580400315804005C5800207E
:10091C0037390020383900204A3900204B39002063
:10092C00483900204358040027390020283900207A
:10093C0070B5124E124C33780025012B257002D065
:10094C00022B10D070BD1DF09BF90E494FF4827034
:10095C0005F010FB0223337041F288312046BDE8CC
:10096C0070401CF00FB808494FF4827005F002FB80
:10097C000AF0A2FF35702946F0E700BF4A39002083
:10098C0054580020555804005B58040010B586B02C
:10099C001C468B788DF81430CB788DF815300B798C
:1009AC008DF816300323029305AB019300231046F8
:1009BC0000931A46214633F0D9F906B010BD1FB585
:1009CC008B788DF80C30CB788DF80D300B798DF849
:1009DC000E30002300930322012303A900F0ECFA4C
:1009EC0005B05DF804FB000008B58379042B0DD12C
:1009FC00C279037A43EA02231BB2292B1ED006DCF0
:100A0C00252B32D0262B08D01A2B0DD008BD322B1B
:100A1C0014D0332B01D0312BF8D119494FF48270FB
:100A2C0005F0A8FA042026E016494FF4827005F070
:100A3C00A1FA0120BDE8084000F0A0BB12494FF418
:100A4C00827005F097FA00F01DFD01280BD100F023
:100A5C002DFE002000F092FB0C494FF48270BDE893
:100A6C00084005F087BA0A49F7E70A494FF4827043
:100A7C0005F080FA0320BDE8084000F0A1BD00BFDE
:100A8C009257040086570400625804006F58040003
:100A9C00805804007D57040070B50024054622469A
:100AAC00FF262B1A8B4203DB42EA042080B270BD76
:100ABC0015F8013B1A4492FBF6F3C3EB0323D31A4C
:100ACC009AB2234493FBF6F4C4EB04241B1B9CB294
:100ADC00E7E700002DE9F843089CBDF82470A578E1
:100AEC0094F8038094F804902A460E464FF48270D2
:100AFC003C4905F03FFA4B4642463B494FF4827065
:100B0C0005F038FA627939494FF4827005F032FAFF
:100B1C0037494FF4827005F01BFA36494FF4827056
:100B2C0005F028FAE319B91E13F8022C13F8018CFE
:100B3C00204648EA0228FFF7AFFF074683B2424639
:100B4C002D494FF48270BFB205F014FAB84545D167
:100B5C002A494FF4827005F0FBF9304605F020FA73
:100B6C00013D27494FF4827005F0F2F9042D37D876
:100B7C00DFE805F0031C2C3630002379012B0ED155
:100B8C00B4F80730A2791F495BBA9BB24FF482705C
:100B9C0005F0F0F92046BDE8F843FFF725BF1A49E8
:100BAC004FF48270BDE8F84305F0E4B931462046B5
:100BBC00FFF7B8FD214620B13046BDE8F843FFF7FA
:100BCC00E5BE3046BDE8F843FFF7F9BE2046FFF717
:100BDC0015FDEFE7BDE8F84302F0E6B90B49DFE796
:100BEC00BDE8F883D0580400DB580400E558040035
:100BFC00F9580400535D0400045904002C590400F6
:100C0C008C5C0400345904004A5904005A590400FD
:100C1C001FB54B09022B02D00378FF2B06D0002303
:100C2C00CDE9013300931A4633F0A0F805B05DF816
:100C3C0004FB1FB5CDE90123002300931A4633F0C2
:100C4C0095F805B05DF804FB2DE9F04387B093F8F7
:100C5C00029093F80380B3F803701E79B7490F9C88
:100C6C001D460023CDF80E30CDF81230ADF81630FD
:100C7C004DF25673ADF80C30BDF838304A46CDE91C
:100C8C0000634FF48270434605F074F90423B9F104
:100C9C00030F8DF80E3000F0AC80994500F0838185
:100CAC00B9F1020F11D17BBA9BB2043B102B0CD8BB
:100CBC00DFE803F0090E1B0B0B0B262B325F6C7459
:100CCC00777D858C93000AF0F7FD07B0BDE8F083C3
:100CDC001CF01CFD9A4A0368136043685360082398
:100CEC0045212046FFF7A5FFEFE795F906001CF01C
:100CFC00E7FC44212046FFF78BFF1CF0FDFCE4E7EA
:100D0C00A87903F0B9FD442102E003F0BDFD4321B5
:100D1C002046FFF77DFFD8E78A4A6B1D05F11506C3
:100D2C0013F8011F02F8011F9E42F9D1864803F007
:100D3C00D7FD864A334605F11D0113F8010F02F861
:100D4C00010F9942F9D18248824E03F0DDFDAB7F51
:100D5C00EA7F814942EA03224FF48270328005F027
:100D6C0009F9308803F006FE95F8200003F00EFE1A
:100D7C00C9E77A4A6B1D153513F8011F02F8011FDC
:100D8C00AB42F9D1764803F00DFEBCE72046442176
:100D9C00FFF73EFFA87903F097FD96E7A87900F0DE
:100DAC009DF900F0C9F901230246442199E7204638
:100DBC004421FFF72DFF284603F082F885E74421F4
:100DCC002046FFF725FF03F0B3F87EE743212046CA
:100DDC00FFF71EFF0BF0ACFF77E7624A002313709E
:100DEC00537093700321137101235371D170062337
:100DFC0076E75D494FF4827008F1FF3805F0BAF8D8
:100E0C00B8F1040F3FF661AF01A353F828F000BF0F
:100E1C00310E0000490E0000D70C00008F0E0000B0
:100E2C00250F0000062E05D0072E7FF44EAF00F0E4
:100E3C004FF9B8E7A87900F045F946E7032E3FF6DD
:100E4C0044AFDFE806F00205080B02F09DFE5AE7FE
:100E5C0002F0BEFE57E702F0ADFE54E7D5F80600EF
:100E6C0000BA02F0A1FE030E8DF80830030C8DF8C9
:100E7C000930030A8DF80A308DF80B00042302AAFE
:100E8C0093E7053E042E3FF620AFDFE806F003089B
:100E9C0010243F0001F018F80123024620E702223B
:100EAC00E979A87901F026F801F00EF87BE72F4BD1
:100EBC00A879187000238DF80F3017238DF8103097
:100ECC0001238DF8113001F05DFF0C238DF8120019
:100EDC000DEB030269E7D5F8060000BA01F058FFE4
:100EEC000023020E8DF80F308DF812201823020CFF
:100EFC008DF810308DF813200423020A8DF814207D
:100F0C008DF811308DF8150003AA4EE7D5F80600C0
:100F1C0000BA01F043FFA6E7052E3FF6D6AEDFE898
:100F2C0006F003060927373F00F0A4F8EBE600F0C3
:100F3C00A9F8E8E600F0B4F8AEE700BF8E5804005C
:100F4C009156032062390020633900207539002046
:100F5C00763900207439002043580400523900209F
:100F6C00533900208B560320C0580400FC57002036
:100F7C0000F09CF8030E8DF80830030C8DF8093046
:100F8C00030A8DF80A308DF80B00042302AAA7E699
:100F9C00D5F8060000BA00F08FF800F087F862E789
:100FAC0000F002FB91E603494FF4827004F0E2FF7B
:100FBC008BE600BFC85804002DE9F047804602F1CB
:100FCC000D0000AF20F00700ADEB000D02F10F009B
:100FDC006C46B7F820C0A37020F00700ADEB000DF5
:100FEC0056204FEA1C232070D7206070E37002F16A
:100FFC00060902F108066D4684F804C06271A01D52
:10100C000B46A3EB010C624518DC49462046FFF762
:10101C0043FD4A4682462146284641F062FDAB1903
:10102C004FEA1A2203F8022C03F801AC424631466F
:10103C002846FFF753FBBD46BDE8F08713F801CBFC
:10104C0000F801CBDDE70000024B187002481BF0E2
:10105C0099BC00BF7F390020B45603200021072023
:10106C00FFF7F2BF00210520FFF7EEBF00210320A0
:10107C00FFF7EABF024B012000211870FFF7E4BF15
:10108C00813900200021024B08461970FFF7DCBFA4
:10109C0081390020014B1878704700BF813900203E
:1010AC00014B1878704700BF81390020014B18683C
:1010BC00704700BFE42E0020014B1860704700BF42
:1010CC00E42E0020014B1870704700BFE82E002062
:1010DC00014B1878704700BFE82E002038B5124D30
:1010EC002B788342044610D001280FD101460020F2
:1010FC0002F074FD2146204602F070FD0B4803F00F
:10110C00B5FB0B4B0B4A1A602C7038BD0028FCD178
:10111C00014602F063FD2146012002F05FFD4EF610
:10112C00602003F0A3FBEFE7A0560320E09304003C
:10113C00E42E0020C0270900014B1878704700BF2F
:10114C00A0560320074A30B5034600F11005186875
:10115C005968144603C40833AB422246F7D11868C9
:10116C00206030BDC456032008B501464222024817
:10117C0041F0B7FC08BD00BFD8560320034B04490F
:10118C00187002464FF4827004F0F4BE82390020CD
:10119C00C1590400F0B5A64B00221A70A54B1B7860
:1011AC0095B0072B28D8DFE813F0080010001E00BC
:1011BC0029002701450079002E009F494FF48270C9
:1011CC0015B0BDE8F04004F0D5BE0121022002F0BC
:1011DC0005FD002000F0E6FA0021022015B0BDE864
:1011EC00F040FFF731BF0020FFF7C8FF01F070FFA0
:1011FC00924A13780133137015B0F0BD15B0BDE8E9
:10120C00F04000F035BE8E4B1B780BB902F0D6FDCA
:10121C0002F02AFE8B4C206002F03CFE04F110011F
:10122C0060605022684641F05CFC94E80F0000F0CE
:10123C00D5F9E1E7824E327872BB834C834A04F1D4
:10124C0010071346254603CDBD42106051602C4655
:10125C0002F10802F6D128687A4910600A68DA753A
:10126C00100E1875100C5875100A4A689875110EE6
:10127C001976110C5976110A9976DA761A2300939D
:10128C007249734804231C22FFF796FE0123337026
:10129C004FF4FA610620A1E70021FBE76D4C694D84
:1012AC006D4E422205F11C01204641F01AFC2B68C0
:1012BC0084F845301A0E84F842201A0C84F8432026
:1012CC001A0A6B6884F844201A0E84F84620634D81
:1012DC0084F849301A0C84F847201A0A84F84820FC
:1012EC002B78327893421FD85D492A704FF4827064
:1012FC0004F040FE2B78013B032B06D8DFE803F00B
:10130C0002444648302384F84A30342300934B225D
:10131C0050494F480423FFF74FFE94F84A20514997
:10132C004FF4827004F026FE29784F4F4B1CDBB231
:10133C00FA182B7012F8010C08B9042B2AD92F7843
:10134C00042F36D8012834D1032F3ED0042F45D09A
:10135C00022F11D1384601F08DF800210720FFF73C
:10136C0073FE112384F84A303423009304234B2258
:10137C0038493748FFF720FE94F84A203B494FF490
:10138C00827004F0F7FD14E01123BCE71223BAE7D6
:10139C005323B8E78A1CD2B2023A3A4412F8010F2E
:1013AC0001330128DBB201D12B70C8E7052BF5D135
:1013BC002B702B78032B7FF61FAF214B002119705C
:1013CC0001232B703170042008E7384601F052F8E5
:1013DC0000210720FFF738FE1223C3E7384601F03F
:1013EC0049F800210720FFF72FFE532384F84A30D9
:1013FC00342300933B46BAE71D494FF4827004F046
:10140C00B9FD1C4B1C7854B91B4B1B783BB10B4DD5
:10141C002A789A4203D3204602F04CF82C70174BD2
:10142C00197819B1164B01201968D7E60846D5E68C
:10143C00B45603207F3900206959040080390020FC
:10144C007E390020BC560320C456032024560320AA
:10145C00A156032040560320A93A0020B53A00209B
:10146C007259040090590400B13A0020A3590400A9
:10147C00B5590400A0560320E82E00208139002025
:10148C00E42E0020014B1878704700BF82390020F1
:10149C0073B53E4B3E4C00221A702378013B032B54
:1014AC0047D8DFE803F0021D486E00F05BF9012815
:1014BC0002460ED127230093002104233548FFF761
:1014CC007BFD00212170314802B0BDE870401BF05B
:1014DC0059BA314800F00CF9022323700021F2E7CD
:1014EC002E4C2F4A04F110061346254603CDB54267
:1014FC00106051602C4602F10802F6D1286826498A
:10150C0010600A68DA75100E1875100C5875100AF0
:10151C004A68DA76110E1976110C5976110A9976F9
:10152C0098751F49252300931C2204231948FFF7A3
:10153C0043FD02B070BD1B4C174D422205F11C013E
:10154C00204641F0CEFA2B6884F845301A0E84F808
:10155C0042201A0C84F843201A0A6B6884F8442041
:10156C001A0E84F846201A0C84F8472084F8493067
:10157C001A0A312384F84820214600934A22042376
:10158C00D4E700F071F80123A7E700BF7C570320D4
:10159C0083390020A15603201C5703202457032015
:1015AC002456032040560320034B044801220021FB
:1015BC001A701BF0E7B900BF833900207C57032059
:1015CC00042805D8034B0021187003481BF0DAB926
:1015DC00704700BF833900207C57032084B0F8B5D6
:1015EC001C4E06AC84E80F00346840F2F972944249
:1015FC002ADC002C184F0FDA602206A9174841F09C
:10160C0070FA174A00233B60136001233360BDE876
:10161C00F84004B0FFF726BD3D68954204F1010483
:10162C0008D1602206A90D4841F05BFA00233B600B
:10163C003460ECE709480135602206A902FB05007D
:10164C0041F04FFA3D60F3E706494FF4827004F025
:10165C0091FCDCE7F42E0020F02E002064580020D2
:10166C00EC2E0020E759040010B50D4C2368002B1C
:10167C0006DA0C494FF4827004F07CFC012010BD9A
:10168C0009490A6840F2F970013B824223604FF02D
:10169C00000001D10860F1E701320A60EFE700BFFA
:1016AC00F42E0020D8590400EC2E002008B50C4B69
:1016BC001A68002A06DA0B494FF4827004F05AFCBF
:1016CC00012008BD0849013A1A600B68013B0B6008
:1016DC004FF48270054904F04DFC0020F1E700BF87
:1016EC00F42E0020D8590400F02E0020F5590400E7
:1016FC00184B1B68002BF0B4074605DA16494FF45B
:10170C008270F0BC04F036BC144B154C1A68602384
:10171C005343E218E05852687A6003F108022244FD
:10172C00386007F1080502F1100C164603CE664529
:10173C0028606960324605F10805F6D130682860EA
:10174C0003F11C01214407F11C004222F0BC41F0C2
:10175C00C8B900BFF42E0020D8590400EC2E00208C
:10176C0064580020034B18680028CCBF00200120CF
:10177C00704700BFF42E002010B5074C23781BB91E
:10178C0001F012FB01232370044B05491878022247
:10179C00BDE8104001F022BB84390020FA2E002055
:1017AC00FB2E002037B5214D2B7804461BB901F0D8
:1017BC00FBFA01232B7024B903B0BDE83040FFF7CE
:1017CC00DBBF1B4D1B492878022201F007FB10F0F0
:1017DC00FF0F1AD0184C1023237000F075F9352325
:1017EC0000932146042309221448FFF7E5FB2278D5
:1017FC0013494FF4827004F0ABFB12494FF4827022
:10180C0003B0BDE8304004F0B5BB643C002CB8BF5D
:10181C0064420D492878C4F34604063402224C7005
:10182C0003B0BDE8304001F0D9BA00BF84390020C4
:10183C00FA2E0020F82E0020E5570320A156032095
:10184C00195A0400535D040085390020024B1870AE
:10185C0002481BF097B800BFAA3A0020F8570320A3
:10186C000138094B06280CD8DFE800F00404040703
:10187C000409070002221A7070470822FBE70122B4
:10188C00F9E70422F7E700BFA83A00202DE9F04160
:10189C00744E3378012B05460C4602D8F8B901F08A
:1018AC009BFA022CDFF81C826F49704F704E03D3E9
:1018BC00032C19D9042C19D00320FFF7D1FF98F869
:1018CC0000303B703370002D39D102230B70631E36
:1018DC00032B00F28280DFE803F01F131F1301F0CB
:1018EC0079FA02233370DCE70120E6E70520FFF7E5
:1018FC00B7FF98F800303B70337005BB02230B70B8
:10190C005C4BCD221A705C4BED221A705B4B4D2256
:10191C001A705B4B6D222AE00E7856485649574A8E
:10192C00574B042E2BD0082E31D0022E18D18D26D9
:10193C000670AD2008700D2111702D2217E00423C4
:10194C000B70631E032B00F2848001A252F823F06B
:10195C0025190000AB19000025190000AB19000077
:10196C008C260670AC2008700C2111702C22013CC6
:10197C001A70032C2FD8DFE804F01E3C4C5C8E262A
:10198C000670AE2008700E2111702E22EFE78F2604
:10199C000670AF2008700F2111702F22E7E7354B2E
:1019AC00CE221A70344BEE221A70344B4E221A701F
:1019BC00334B6E22DBE72F4B1A78324B1A702E4BBF
:1019CC001A78314B1A702D4B1A78304B1A702C4BED
:1019DC001A782F4B1A70002D3BD101222549D020AB
:1019EC0001F0FCF924490122D020BDE8F04101F0BE
:1019FC00F5B9204B1A78274B1A701F4B1A78264BC7
:101A0C001A701E4B1A78254B1A701D4B1A78244BE2
:101A1C00E0E7184B1A78234B1A70174B1A78224BA5
:101A2C001A70164B1A78214B1A70154B1A78204BDA
:101A3C00D0E7104B1A781F4B1A700F4B1A781E4BAD
:101A4C001A700E4B1A781D4B1A700D4B1A781C4BD2
:101A5C00C0E701220749D82001F0C0F9012206494C
:101A6C00D820C2E7FF2E0020AB390020AC39002073
:101A7C00AD390020022F0020032F0020002F002062
:101A8C00012F002095570320DD5703200058032019
:101A9C0009580320E45703208D570320DE570320F9
:101AAC00DB570320945703208E570320EE57032057
:101ABC00D8570320EF570320845703208C5703205B
:101ACC0090570320A83A002010B502F077F902F0E5
:101ADC00CBF90B4C206002F0DDF90A4B2268186040
:101AEC00094B110E5970110C99701A71110A020ED2
:101AFC005A71020C9A71020AD970DA71187210BDFF
:101B0C0088570320E0570320E55703202DE9F341C4
:101B1C000138032809D8DFE800F0020B1117564BE7
:101B2C001B7813B9554B01221A7002B0BDE8F08135
:101B3C00514B5B78002BF8D1514BF4E74E4B9B7813
:101B4C00002BF2D14F4BEEE74B4B4F4DDB780BB9E3
:101B5C0001232B70494E4A4F3378DFF828813BB96B
:101B6C003B782BB998F8003013B92B78002B32D076
:101B7C00FFF7AAFF02F0FAF83378002B46D03A7838
:101B8C00424C352372B30C22227000930922214659
:101B9C0004233F48FFF710FA22783E494FF4827035
:101BAC0004F0D6F93C494FF4827004F0E3F998F84C
:101BBC000030002B4FD02B78344C002B36D00D221C
:101BCC00364922704FF4827004F0C2F932494FF456
:101BDC00827004F0CFF900232B7088F800303B7032
:101BEC003370A2E7082222700093092204232146B5
:101BFC002748FFF7E1F92A4922784FF4827004F064
:101C0C00A7F925494FF4827004F0B4F93B78002B06
:101C1C00CDD01E4C1E4835230922009321460423A7
:101C2C002270FFF7C9F922781E49B7E70A232370FF
:101C3C00352300930922042321461548FFF7BCF9EC
:101C4C00194922784FF4827004F082F912494FF44A
:101C5C00827004F08FF92B78002BBCD00B4C0C4805
:101C6C000B23237035230093092221460423FFF70D
:101C7C00A3F922780D49A5E7B13A0020AE3900202E
:101C8C00AF390020B0390020B1390020E5570320CE
:101C9C00A1560320F45A0400535D04006C5B04004D
:101CAC001A5B0400435B0400925B0400BB5B040002
:101CBC0010B5554B1B78012B00F1FF3051D0032888
:101CCC0015D8DFE800F00215283B504B504A1B7822
:101CDC00504C5148032101FB0323013B0022115DB1
:101CEC0003F8011F115CD9730132032AF7D110BD1F
:101CFC00464B4A4A1B784A4C4A48032101FB0323B2
:101D0C00013B0022115D03F8011F115CD9730132F4
:101D1C00032AF7D1EBE73D4B434A1B78434C44482D
:101D2C00032101FB0323013B0022115D03F8011F7A
:101D3C00115CD9730132032AF7D1D8E7334B3D4AF2
:101D4C001B783D4C3D48032101FB0323013B002242
:101D5C00115D03F8011F115CD9730132032AF7D10D
:101D6C00C5E70328C3D8DFE800F00215283B274B52
:101D7C00334A1B78274C2848032101FB0323013BE2
:101D8C000022115D03F8011F115CD9730132032A83
:101D9C00F7D1ACE71D4B2B4A1B78214C2148032172
:101DAC0001FB0323013B0022115D03F8011F115CB1
:101DBC00D9730132032AF7D199E7144B224A1B78C5
:101DCC001A4C1B48032101FB0323013B0022115D2C
:101DDC0003F8011F115CD9730132032AF7D186E78E
:101DEC000A4B1A4A1B78144C1448032101FB032399
:101DFC00013B0022115D03F8011F115CD973013204
:101E0C00032AF7D173E700BF042F0020A73A002064
:101E1C00B2390020873900208C390020D0390020BD
:101E2C009039002095390020EE3900209939002096
:101E3C009E3900200C3A0020A2390020A73900203E
:101E4C002E3A00204C3A00206A3A0020883A0020B2
:101E5C00024B012000211870FFF7F8BCAC3A0020AF
:101E6C000021024B08461970FFF7F0BCAC3A002079
:101E7C00024B002101201970FFF7E8BCAC3A00209E
:101E8C001FB50C4B0C481B688DF80F301A168DF8CB
:101E9C000C201A148DF80D201A1211230093042310
:101EAC008DF80E2003A91A46FFF786F805B05DF8E9
:101EBC0004FB00BF082F0020A1560320014B186023
:101ECC00704700BF082F002038B5074B07491D7815
:101EDC00074B1C782A4623464FF4827004F04AF8CC
:101EEC0044EA0510C0B238BDAC390020165C0400C1
:101EFC00AD390020012A04D1054B1870054B187020
:101F0C007047022A01BF024B1870024B19707047C0
:101F1C00AC390020AD39002000230370437083706E
:101F2C00C3707047014B1880704700BF2C3A0020DB
:101F3C00014B1880704700BF2A3A00202DE9F0436E
:101F4C0097B0442200210DF1120040F0D5FDA64BB4
:101F5C001B888DF80D301A0AA44B8DF80C201B88A9
:101F6C008DF80F301A0AA24B8DF80E201A78A14B5F
:101F7C001B7843EA02138DF810309F4B1B788DF8B9
:101F8C0011309E4B1A78012A40F020819B789C4995
:101F9C00012BA1F10F020DF1110340F00E819948B4
:101FAC0012F8014F03F8014FD47BDC7310F8014F8A
:101FBC009C779142C47B83F82D40F1D101F0FEFE59
:101FCC0001F052FF044601F065FF230E8DF84E30F0
:101FDC00230C8DF84F30230A8DF85030030E8DF8FA
:101FEC005230030C8DF85330030A8DF854303123E2
:101FFC008DF8550000934A22042303A982488DF8DA
:10200C005140FEF7D9FF9DF80C309DF80D209DF83E
:10201C000E107E4E7E4D7F4C7F4F42EA03227F4B4B
:10202C001A809DF80F3043EA012333809DF810305D
:10203C002B707B499DF8113023704FF4827003F0A4
:10204C0087FF328877494FF4827003F081FF2A783A
:10205C007549764D4FF4827003F07AFF22787449FB
:10206C004FF4827003F074FF72494FF4827003F0E6
:10207C006FFF0024A94603AB19194FF003088B79A5
:10208C00CE7903F0010003F080020B7A287043EA4A
:10209C00062343EA0263684E3A7043EA004394FB1A
:1020AC00F8F2664933604FF48270444403F050FFF9
:1020BC000F2CE0D162494FF4827003F049FF454682
:1020CC00DFF87881002403AB19194B7D91F816C009
:1020DC0003F0010003F08002CB7D89F8000043EA95
:1020EC000C2343EA026343EA00433A70414694FBF3
:1020FC00F5F24FF482700334336003F029FF0F2C98
:10210C00E1D15049504D514F4FF4827003F020FFF4
:10211C000024A94603AB19194FF0030891F8243099
:10212C0091F8256003F0010003F0800291F826304D
:10213C00287043EA062343EA0263454E3A7043EAA9
:10214C00004394FBF8F23D4933604FF482704444F1
:10215C0003F0FEFE0F2CDDD13E494FF4827003F0EC
:10216C00F7FE4546DFF8D480002403AB191991F82B
:10217C00333091F834C003F0010003F0800291F881
:10218C00353089F8000043EA0C2343EA026343EA42
:10219C0000433A70414694FBF5F24FF482700334DD
:1021AC00336003F0D5FE0F2CDFD12B494FF4827036
:1021BC0003F0E0FE17B0BDE8F08312F8010F03F84E
:1021CC00010F9142D07BD873F7D1F7E60D4B0DF18F
:1021DC002F0203F10F0113F8010F02F8010F9942BE
:1021EC00D87BD073F7D1E9E62C3A00202A3A0020AC
:1021FC00AC390020AD390020152F0020B13A002059
:10220C00C0390020ED390020A1560320925703203D
:10221C00D9570320F65703200A580320F4570320FC
:10222C00865A0400905A0400995A0400DA57032085
:10223C00A75A0400BC5A040004580320C95A0400CD
:10224C00D15A0400DD5A0400015803200858032019
:10225C00F0570320E95A0400535D04002DE9F84FB0
:10226C006F4C704F23786278A1786F4E6F4DDFF80A
:10227C00F0A1DFF8F09142EA03226D4B1A80E3786B
:10228C0043EA01233B80237933706A4963792B70CD
:10229C004FF4827003F05CFE3A8867494FF4827009
:1022AC0003F056FE327865494FF4827003F050FE0D
:1022BC002A7863494FF4827003F04AFE61494FF467
:1022CC00827003F045FE25460026D346AB79E879AB
:1022DC00DFF8948103F0010103F080022B7A8AF875
:1022EC00001043EA0023032743EA026343EA014355
:1022FC0089F80020544996FBF7F24FF482703E4463
:10230C00C8F8003003F024FE0F2E3D44DED14F49B7
:10231C00434DDFF834A14FF4827003F019FE002610
:10232C006B7DA87D03F0010103F08002EB7D8BF83F
:10233C00001043EA002343EA026343EA014389F8AD
:10234C000020514696FBF7F24FF482700336C8F822
:10235C00003003F0FDFD0F2E05F10305E0D13C49E3
:10236C00DFF808B12E4DDFF808814FF4827003F0CE
:10237C00EFFD4FF00009DA4695F8243095F825006A
:10238C00344F03F0010103F0800295F826308BF8EE
:10239C00001043EA0023032643EA026343EA0143A5
:1023AC0088F80020284999FBF6F24FF48270B1446A
:1023BC003B6003F0CDFDB9F10F0F3544DCD126495C
:1023CC00DFF884904FF4827003F0C2FD002594F87E
:1023DC00333094F8340003F0010103F0800294F8D8
:1023EC0035308AF8001043EA002343EA026343EADB
:1023FC00014388F80020494695FBF6F24FF48270B1
:10240C0003353B6003F0A4FD0F2D04F10304DED172
:10241C0012494FF48270BDE8F84F03F0ABBD00BF1A
:10242C009657032092570320D9570320F6570320C1
:10243C00F4570320865A0400905A0400995A040059
:10244C00A75A0400235C0400C95A0400305C040041
:10245C003C5C0400F0570320485C0400535D04000E
:10246C00DA5703200A58032004580320015803208C
:10247C000858032038B5474D04463C220021284615
:10248C0040F03AFB444B1A8805F8052CAB1F110A97
:10249C00424A05F8061C1288DA70110A404A9970F3
:1024AC001178404A127842EA01121A713E4A601EB3
:1024BC0012785A7103281BD8DFE800F002213A5336
:1024CC003A494FF4827003F043FD394B394A3A498B
:1024DC0003F10F0013F8014F02F8014FDC7BD473AA
:1024EC0011F8014F94778342CC7B82F82D40F1D1C7
:1024FC00FFF7B4FE3148BDE83840FEF735BE304931
:10250C004FF4827003F024FD2E4B2A4A2E4903F11E
:10251C000F0013F8014F02F8014FDC7BD47311F854
:10252C00014F94778342CC7B82F82D40F1D1DFE7C9
:10253C0026494FF4827003F00BFD254B1D4A2549AB
:10254C0003F10F0013F8014F02F8014FDC7BD47339
:10255C0011F8014F94778342CC7B82F82D40F1D156
:10256C00C6E71D494FF4827003F0F2FC1B4B114A75
:10257C001B4903F10F0013F8014F02F8014FDC7BEC
:10258C00D47311F8014F94778342CC7B82F82D40A1
:10259C00F1D1ADE79C5703202C3A00202A3A0020B9
:1025AC00AC390020AD390020152F00203E5A040014
:1025BC002D3A00209B570320B13900209657032059
:1025CC00505A04004B3A0020CF390020625A0400C4
:1025DC00693A0020ED390020745A0400873A002033
:1025EC000B3A00202DE9F347A84B00221A70A84B98
:1025FC001B78013B072B29D8DFE813F008004E00AD
:10260C002E016800960184023C004800A14BA24DAB
:10261C0019780020FFF73AF9A04B01201978FFF741
:10262C0035F92A78022A22D10020FFF7BBF89C4BFF
:10263C001B7873B90121084601F0D0FA994B19782F
:10264C0091B90720FFF702F903232B7002B0BDE804
:10265C00F087954C2378002BF0D10121084601F02E
:10266C00BDFA01232370E9E700210220EAE73221B9
:10267C00022006E08D4B1878FFF794F88C4B196804
:10268C00082002B0BDE8F047FFF7E0B80020FFF7E4
:10269C0089F8884B1968EBE7874B1C78012C0DD116
:1026AC0022468649D02000F099FB85492246D82045
:1026BC0000F094FB4FF4FA710420E2E70122814907
:1026CC00D02000F08BFB01227F49F0E77A4B1C787D
:1026DC00012C62D17D4D2846FFF71EFC04222946B1
:1026EC00D12000F097FB7A4BEA781B789A4225D1DF
:1026FC002B78FF2B30D1774A137801331370764D3A
:10270C002846FFF709FC04222946D92000F082FB59
:10271C00724BEA781B789A4220D12B78FF2B2AD166
:10272C006F4A1378012C03F10103137040F00F83EF
:10273C006C4A012313706C4A13702BE06B4D0E2303
:10274C002B70FFF7C1F93523009309220423294686
:10275C006748FEF731FCD2E70024D0E7634D0E2327
:10276C002B70FFF7B1F93523009309220423294676
:10277C005F48FEF721FC012C03D15B4B01221A7040
:10278C0008E0584A00231370574A1370594B012222
:10279C005A70DA700021032073E7574C2046FFF77C
:1027AC00BBFB04222146D12000F034FB534BE278D2
:1027BC001B789A4225D12378FF2B30D1504A1378BD
:1027CC000133137001264F4C2046FFF7A5FB042262
:1027DC002146D92000F01EFB4B4BE2781B789A4225
:1027EC001FD12378FF2B29D1484A1378012E03F1EE
:1027FC000103137040F0AD82454A01231370454A22
:10280C009AE73A4C0E232370FFF75EF935230093B9
:10281C000922042321463648FEF7CEFBD3E70026D7
:10282C00D1E7324C0E232370FFF74EF9352300937A
:10283C000922042321462E48FEF7BEFB012E01D1AE
:10284C00334B9BE7334A00231370314A1370294BE7
:10285C0001221A709A709DE7174B1C78012C0DD130
:10286C0022462D49D02000F0B9FA2C492246D82016
:10287C0000F0B4FA4FF4FA71052002E7012228495E
:10288C00D02000F0ABFA01222649F0E7F8570320DC
:10289C00AA3A0020FD2E0020042F0020FE2E00203E
:1028AC00A0560320A73A0020AB3A0020142F00209A
:1028BC00102F00200C2F0020A63A0020E4570320F4
:1028CC00EF5703209557032094570320903900208D
:1028DC00DE570320AE3A0020A23900208C5703208B
:1028EC00B03A0020A639002094390020E557032087
:1028FC00A1560320B13A002087390020005803204C
:10290C00AD3A002099390020EE570320AF3A002051
:10291C008B3900209D3900208D57032084570320CC
:10292C00DD5703208E570320B44E3478012C79D117
:10293C00B34D2846FFF7F0FA04222946D12000F0C7
:10294C0069FAB04BEA781B789A4231D12B78FF2B7D
:10295C003CD1AD4A137801331370AC4DAC4FDFF85A
:10296C00F4822846FFF7D8FA04222946D92000F031
:10297C0051FAA84BEA781B789A423CD12B78FF2B62
:10298C0046D1A54A1378012C03F1010313701FD013
:10299C0098F80020012A03D1A04B00215970DA705D
:1029AC003A78012A23D19D4B5A700022DA701EE02E
:1029BC009B4D0E232B70FFF787F8352300930922CC
:1029CC00042329469748FEF7F7FAC6E70024C4E724
:1029DC0098F80030012B02D1904B00225A703B78B2
:1029EC00012B02BF8D4B0022DA70002333704FF4A1
:1029FC00FA71062045E68A4D0E232B70FFF764F81A
:102A0C00352300930922042329468648FEF7D4FA7D
:102A1C00012CBDD000233B7088F800307F4B012285
:102A2C005A70C3E7804C2046FFF776FA0422214601
:102A3C00D12000F0EFF97D4BE2781B789A422ED131
:102A4C002378FF2B39D17A4A13780133137001257F
:102A5C00784C794E794F2046FFF75EFA04222146D6
:102A6C00D92000F0D7F9764BE2781B789A4233D113
:102A7C002378FF2B3DD1734A1378012D03F1010309
:102A8C0013701CD03278012A03D1644B00211970C9
:102A9C009A703A78012AAAD1604B1A7019E0604CEE
:102AAC000E232370FFF710F835230093092204231B
:102ABC0021465C48FEF780FACAE70025C8E7337860
:102ACC00012B02D1554B00221A703B78012B8ED171
:102ADC00524B00229A708AE7514C0E232370FEF75A
:102AEC00F3FF352300930922042321464D48FEF7BA
:102AFC0063FA012DC6D000233B703370474B012283
:102B0C001A70E7E7504E96F80080B8F1010F56D0D6
:102B1C00B8F1020F5BD04D4D2F78032F5AD0042FF4
:102B2C0060D0454A4A4C00231370444A1370494AFA
:102B3C001370374A13702278042A0FD8B8F1010F9A
:102B4C002E4901D0032F50D10223337004232B7054
:102B5C0001230B7000210120FEF778FE2378052B52
:102B6C0009D13D4B1878012805D100210222217092
:102B7C001A70FEF76BFE2378052B7FF467AD364A8F
:102B8C001378032B7FF462AD012010701B4A0023D5
:102B9C0023701370314B1C784CB9214601F01EF890
:102BAC0064203FF09FFA2146022001F017F82C4BCD
:102BBC001D78002D58D02B4B0120196861E5174B5F
:102BCC001B78012BA7D14046FFF772F8A3E7134BF4
:102BDC005B78F6E7114B9B78012BA2D13846FFF7B7
:102BEC0067F89EE70D4BDB78F6E701203070013279
:102BFC00032028700B702270ACE700BFA63A0020AF
:102C0C0095390020DB570320AE3A0020A73900206D
:102C1C00A639002090570320B03A0020B13A00208A
:102C2C00E5570320A15603208C39002009580320B6
:102C3C00AD3A00209E3900208B3900209D390020B0
:102C4C00D8570320AF3A0020FD2E0020FE2E002086
:102C5C00A73A002094390020042F0020A05603200E
:102C6C00AC3A0020082F00203B4E3C4F00F074FE85
:102C7C003446725D39464FF48270013503F068F9C1
:102C8C00042DF6D13649374F374E384D4FF48270FC
:102C9C0003F070F9364A97F800C03078297892F82A
:102CAC0000E0002390461A4614F80390B9F1010F86
:102CBC0003F1010308D1032B3FD0042B42D0022B8C
:102CCC0037D0022900D92270042BEDD1DFF8A49063
:102CDC00DFF8ACA0FFF732F90022A35C012B09D17D
:102CEC000132D2B251464FF4827089F8002003F0C1
:102CFC0041F904220132D2B2032AEED90120FEF7A7
:102D0C0005FF0220FEF702FF0320FEF7FFFE042062
:102D1C00FEF7FCFE174B0024187888F800403C7036
:102D2C0034702C70FFF7A6FBFEF798F9214620466D
:102D3C00A7E40228C8D96270C6E7BCF1020FC3D958
:102D4C00A270C1E7BEF1020F88BFE270BCE70A4B6C
:102D5C0014E50A4B12E500BFB13A0020E45B040015
:102D6C00535D0400AF3A0020AE3A0020AD3A00208B
:102D7C00B03A0020A93A0020A63900209D39002045
:102D8C00FC5B0400014B1870704700BF142F00202F
:102D9C00014B186000167047102F0020014B186073
:102DAC00001670470C2F002010B5044C237823B963
:102DBC00034800F091F80123237010BDB63A0020AF
:102DCC00182F0020024B00221A70FFF7EDBF00BF36
:102DDC00B63A0020FFF7F6BFFFF7F4BF7FB501232B
:102DEC00ADF80630094BADF8040002911868ADF847
:102DFC000C2001A900F0C8F80530C0B205289ABF14
:102E0C00034B185CFF2007B05DF804FB182F002063
:102E1C00535C04007FB50223ADF80630094BADF8C6
:102E2C00040002911868ADF80C2001A900F0ACF870
:102E3C000530C0B205289ABF034B185CFF2007B0C1
:102E4C005DF804FB182F0020535C040010B5044CF3
:102E5C00237823B9034800F03FF80123237010BDF9
:102E6C00B73A0020302F00207FB50123ADF8063093
:102E7C00094BADF8040002911868ADF80C2001A9BB
:102E8C0000F082F80530C0B205289ABF034B185CDD
:102E9C00FF2007B05DF804FB302F0020595C0400C4
:102EAC007FB50223ADF80630094BADF80400029152
:102EBC001868ADF80C2001A900F066F80530C0B216
:102ECC0005289ABF034B185CFF2007B05DF804FB84
:102EDC00302F0020595C040030B5044685B0012128
:102EEC00244806F0C5F82368234A93423FD002F5E4
:102EFC008062934239D12148012106F0B9F80123AF
:102F0C000A226179207907F0E5F801230A22E17998
:102F1C00A07907F0DFF8237930225A43184B134479
:102F2C0003F1C065092103F180630122607902FA83
:102F3C0000F028606079013902FA00F01860F5D1D0
:102F4C0020688DF800200323436423898DF8012029
:102F5C005BBA9BB2836423690293E368019369466D
:102F6C00237D8DF80C3007F03DF905B030BD0548D8
:102F7C00C2E700BF4041050000C0004000920400C1
:102F8C000CA000400082040038B5054607F042FA58
:102F9C00044C012801D1013C00D138BD284607F072
:102FAC003DF9F6E7E193040010B514494FF4827033
:102FBC0002F0E0FF124B00241C70124B1C7002F04C
:102FCC001BFBA0420EDC104C02F016FB012812DD9C
:102FDC00012002F093FBC2B221460120BDE8104053
:102FEC0017F05EBA204602F089FBC0B20028EAD086
:102FFC0001248440E8E70522EEE700BF5F5C040093
:10300C00B83A0020B93A002000F8FF07024B1870BC
:10301C00024819F0B7BC00BFBA3A0020245803206C
:10302C00074B084A1978084B907803F8210003EBFA
:10303C008103D1785970117952799970DA7070478F
:10304C00BB3A0020BC3A002010580320F7B51949B0
:10305C00194D1A4F1A4E4FF4827002F079FF00226C
:10306C0018494FF4827002F073FF00246119635DFC
:10307C004A7891F803C003EB02238A7812490A209C
:10308C0002EB0C2293FBF0F392FBF0F23B6032600C
:10309C0000924FF48270C4F38502043402F058FF9E
:1030AC00142CE3D109494FF4827003B0BDE8F04011
:1030BC0002F060BF825C040010580320005800200E
:1030CC00185800208E5C0400975C0400535D0400CB
:1030DC0000210120FFF79ABF00210846FFF796BF99
:1030EC00034B0449186002464FF4827002F042BF51
:1030FC00482F0020B25C04001FB50C4B0C481B6819
:10310C008DF80F301A168DF80C201A148DF80D202E
:10311C001A120923009304238DF80E2003A91A46D2
:10312C00FDF74AFF05B05DF804FB00BF482F0020F7
:10313C00A156032010B50C4C20780AF08DFF0828FE
:10314C000ED90A49207800230A220AF0E7FF2078DA
:10315C000BF048F800210420BDE81040FFF756BFE3
:10316C0000210320F8E700BF4C2F0020BC3A0020C0
:10317C0037B5584B00221A70574B1B78062B00F2B0
:10318C00A780DFE803F004114252718267005349B3
:10319C004FF4827002F0EEFE00F04CF9002003B008
:1031AC00BDE83040FEF7FEBA4D494FF4827002F094
:1031BC00E1FE4C4B4C494FF41652C3E9001240F659
:1031CC000B321A814FF4805200245A814FF01012A6
:1031DC005A629C819C73DC731C745C749C74DC74EC
:1031EC001C75C3E906441C84404B022520461D7007
:1031FC0000F08CF82046FEF7D5FA41F288312846CB
:10320C0003B0BDE83040FFF701BF3EF0FBFF384B89
:10321C0005211860344807F0C3FB344B314918784A
:10322C000BF040F8C8210320EAE73EF0EBFF304BEF
:10323C001B68C01A43F69823984210D906230093B2
:10324C000021042301222B48FDF7B6FE4FF47A71BE
:10325C000120D5E728494FF4827002F08BFE03B0B1
:10326C00BDE83040FFF766BF244B1A78AA2A05D177
:10327C005B7AAB2B02D100210520C1E720494FF42A
:10328C00827002F077FE0021CDE7FFF7C9FE1D4AE0
:10329C001378042B06D80133137000210220FFF79A
:1032AC00B5FE7BE7114B0024187814700AF0D0FFA0
:1032BC0021460D4807F074FB00F0BCF81248FDF7EE
:1032CC0041FFFFF7C3FEFDF7D1FE21462046E6E79E
:1032DC0003B030BD24580320BA3A002069590400C9
:1032EC006B5904002C580320000401404C2F002083
:1032FC000C580320A15603206A5C0400BC3A002041
:10330C00715C0400BB3A002010580320F7B53B4D0C
:10331C003B493C4C07464FF4827002F02BFE2B7855
:10332C0023BBFFF741FD022237492078FFF756FDFA
:10333C0010F0FF0F3CD0354E11233370FEF7C4FB59
:10334C00352300930922042331463148FDF734FE1E
:10335C00304932784FF4827002F0FAFD2E494FF466
:10336C00827002F007FE2B78002B45D02B4B1B787C
:10337C0093B92B4B002F3BD122225A70284920782D
:10338C000222FFF72BFD274B18883EF0ABFE0222E2
:10339C0025492078FFF722FD244B5FBB01222349EE
:1033AC0020785A70022203B0BDE8F040FFF716BD3A
:1033BC0002221F492078FFF711FD01232B70174BB8
:1033CC001B78002BD2D0164B87B922225A70144985
:1033DC0020780222FFF702FD124B18883EF082FE85
:1033EC00022211492078FFF7F9FCBCE70A22EDE72D
:1033FC000A22C2E70222D2E703B0F0BDC63A00208F
:10340C00C85C04004D2F0020C73A0020E55703206C
:10341C00A1560320CF5C0400535D0400A05603208A
:10342C00582F0020542F0020562F00204E2F002004
:10343C00502F002038B5164D164C2B786BB9FFF772
:10344C00B3FC022214492078FFF7C8FC022213496E
:10345C002078FFF7C3FC01232B70114B1B787BB931
:10346C0010492078162302224B70FFF7B7FC0E4B45
:10347C0018883EF037FE02220C492078FFF7AEFC8C
:10348C0020780B490222BDE83840FFF7A7BC00BFEB
:10349C00C63A00204D2F0020C73A0020502F0020A4
:1034AC00A0560320582F0020542F0020562F002008
:1034BC00522F0020044B1870044B054801220021A8
:1034CC001A7019F05FBA00BFCA3A0020CB3A00203C
:1034DC0054580320054B064A187001231370054AF3
:1034EC0005481370002119F04DBA00BFCA3A0020EC
:1034FC00C93A0020CB3A00205458032037B5284B4A
:10350C00284C00221A702378042B47D8DFE803F0EC
:10351C00030E1C242E0024494FF4827002F02AFD65
:10352C00002003B0BDE83040FEF73CB91F4B012131
:10353C00187800F053FB022323700021184803B0C5
:10354C00BDE8304019F01EBA6420FEF72BF90323B6
:10355C00237042F21071F1E70020FEF723F9134BB0
:10356C000021187800F03AFB0423E5E710494FF4EA
:10357C00827002F0FFFC052300930122042300213A
:10358C000C48FDF719FD0C4B1D781DB1002119706D
:10359C002170D3E7FFF74EFF2570CEE703B030BDA7
:1035AC0054580320CB3A0020FF5C0400CA3A002098
:1035BC00075D0400A1560320C93A002010B5044C45
:1035CC0023781BB9FFF7FEFB0123237010BD00BF4E
:1035DC00CC3A002008B5012202498020FFF7FEFBFF
:1035EC00C0B208BD5A2F00200349002302228120BB
:1035FC000B704B70FFF70EBC5E5803200122024982
:10360C008020FFF7EBBB00BF5B2F0020034900239A
:10361C00022281200B704B70FFF7FCBB5C5803201F
:10362C00034B18785B7803F0FE0343EA00207047E5
:10363C005E580320034B18785B7803F0FC0343EAD5
:10364C00002070475C58032010EB401082B007D06C
:10365C00044B99689A680192019A521A8242F9D3E2
:10366C0002B070470020044030B5594B594C002231
:10367C001A70237885B0042B00F28580DFE803F004
:10368C00030C83318800012323700021504805B0BE
:10369C00BDE8304019F076B9FFF790FFFFF79AFFBD
:1036AC0010F0FF0F19D04C4D0F232B70FEF70CFAB6
:1036BC00352300930922042329464848FDF77CFC56
:1036CC002A7847494FF4827002F042FC45494FF486
:1036DC00827002F04FFC0423D6E7032323701421DD
:1036EC00D4E7FFF781FFFFF79BFF7D2242434FF4A6
:1036FC00803092FBF0F2063A52B23B493B4D4FF40C
:10370C00827002F025FCFFF78BFF394902464FF41B
:10371C00827002F02FFCFFF771FF3220FFF794FF4D
:10372C00FFF774FFFFF786FF07EE900AB8EEE77A13
:10373C00DFED307ADFED306A304927EE277ADFEDA6
:10374C00307AE7EE267A4FF48270FDEEE77ACDED13
:10375C00037A9DF90C2002F0FBFBFFF76BFF294964
:10376C0002464FF4827002F005FC297869B1FFF72C
:10377C0057FFFEF7DDFBFFF75DFFFEF7D3FB2B7862
:10378C0083F001032B7005B030BD042323707DE75B
:10379C00FFF746FF1C4D00122870FFF741FF6870C1
:1037AC00FFF748FF0012A870FFF744FF0323E870EF
:1037BC00009304231A4629460848FDF7FDFB134BDA
:1037CC001B78002BDFD0124B19680023DEE700BFFB
:1037DC0060580320CF3A0020E5570320A156032060
:1037EC00175D0400535D0400485D0400CD3A0020D1
:1037FC00545D040052B82F4300008037655D04000F
:10380C0066663BC2725D040096570320CE3A0020D8
:10381C005C2F00201FB5FFF7D1FEFFF7DBFE10F089
:10382C00FF0F54D11420FFF70FFFFFF7DDFEFFF75A
:10383C00F7FE334C334920607D2242434FF48030F5
:10384C0092FBF0F2063A52B24FF4827002F080FB17
:10385C0022682D492D4C4FF4827002F08BFBFFF740
:10386C00CDFE3220FFF7F0FEFFF7D0FEFFF7E2FEB1
:10387C0007EE900A9FED267ADFED266A2060F8EEBF
:10388C00E77A254967EE877A9FED247AA7EEA67A28
:10389C004FF48270FDEEC77ACDED037A9DF90C20C2
:1038AC0002F056FB22681E494FF4827002F062FB54
:1038BC00FFF7B6FEFEF73CFBFFF7BCFEFEF732FB54
:1038CC00184A137883F00103137004B010BD164C22
:1038DC000F232370FEF7F8F83523009321460423B9
:1038EC0009221248FDF768FB227811494FF48270C7
:1038FC0002F02EFB0F494FF4827002F03BFBDFE726
:10390C0050580020485D0400545D040038580020D5
:10391C0052B82F4300008037655D040066663BC2D9
:10392C00725D0400CD3A0020E5570320A156032018
:10393C00175D0400535D0400044B054801221A7006
:10394C00044B0021197019F01DB800BFCE3A0020AD
:10395C0060580320CF3A0020034B00221A70034B0F
:10396C0001221A70FFF756BFCE3A0020CD3A002044
:10397C00014B00221A707047CE3A002010B5044C4F
:10398C0023781BB9FFF762FA0123237010BD00BF27
:10399C00D03A002008B5012202498020FFF764FAD2
:1039AC00C0B208BD602F00200349002302228120F1
:1039BC000B704B70FFF774BA6A580320012202494E
:1039CC008020FFF751BA00BF612F0020034900236C
:1039DC00022281200B704B70FFF762BA68580320EB
:1039EC00034B18785B7803F0FE0343EA0020704722
:1039FC006A580320034B18785B7803F0FC0343EA06
:103A0C00002070476858032030B5504B504C0022B2
:103A1C001A70237885B0042B00F29680DFE803F04F
:103A2C00030C94317500012323700021474805B025
:103A3C00BDE8304018F0A6BFFFF7A0FFFFF7AAFFC4
:103A4C0010F0FF0F19D0434D0F232B70FEF73CF8ED
:103A5C00352300930922042329463F48FDF7ACFA8D
:103A6C003E492A784FF4827002F072FA3C494FF4C6
:103A7C00827002F07FFA0423D6E70323237014210B
:103A8C00D4E7FFF791FFFFF7ABFF7D2242434FF4E2
:103A9C00803092FBF0F2063A52B232494FF4827007
:103AAC0002F056FAFFF79CFF2F4902464FF4827042
:103ABC0002F060FAFFF782FF3220FFF7C5FDFFF737
:103ACC0085FFFFF797FF07EE900AB8EEE77ADFED78
:103ADC00277ADFED276A274927EE277ADFED267A4A
:103AEC00E7EE267A4FF48270FDEEE77ACDED037A9D
:103AFC009DF90C2002F02CFAFFF77CFF1A490246C4
:103B0C004FF4827002F036FAB5E7FFF769FF1B4DF0
:103B1C0000122870FFF764FF6870FFF76BFF00124C
:103B2C00A870FFF767FF3023E870009304231A4650
:103B3C0029460948FDF740FA114B1B7823B1114B6C
:103B4C0019680023237071E705B030BD6C58032051
:103B5C00D13A0020E5570320A1560320175D04003D
:103B6C00535D0400855D0400575D040052B82F437B
:103B7C0000008037955D040066663BC296570320B3
:103B8C00D23A0020642F0020044B054801221A7001
:103B9C00044B0021197018F0F5BE00BFD23A00207A
:103BAC006C580320D13A0020014B1860704700BFBD
:103BBC00642F0020034B044800211970034B19702B
:103BCC0018F0E0BED23A00206C580320D13A002005
:103BDC00014B00221A707047D23A002073B52C4E5C
:103BEC00337805460C460BBBFFF7DEF80222294959
:103BFC004220FFF7F3F810F0FF0F23D0264E1123CD
:103C0C003370FDF761FF35230093092204233146FD
:103C1C002248FDF7D1F9224932784FF4827002F034
:103C2C0097F920494FF4827002F0A4F9012D1AD0B3
:103C3C000BD3022D20D04CF2503002B0BDE87040B6
:103C4C003EF050BA01233370F0E74CB1012CF2D1A5
:103C5C00154922234B7002224220FFF7BFF8EAE7F6
:103C6C0011491223F6E724B1012CE4D10E490A23A1
:103C7C00F0E70D490623EDE72CB1012CDBD10A4905
:103C8C004D702A46E8E7084901234B70F9E700BF5D
:103C9C00D33A0020D43A0020E5570320A156032044
:103CAC00D25C0400535D0400682F002008B5104B53
:103CBC0010481B78C360104B1B78013B03610F4B02
:103CCC001B78643343610E4B1B7883600D4B1B7860
:103CDC0043600D4B1B7803603EF0F0FF0B4BC3E9C8
:103CEC0000010B4B02221A700020002108BD00BFFE
:103CFC00742F002080580320772F0020792F00206C
:103D0C00752F0020762F0020782F00207858032064
:103D1C007A2F002007B50D490D4B0E4A09781B78F8
:103D2C00127800914FF482700B4902F023F90B4981
:103D3C000B4B0C4A09781B78127800914FF4827067
:103D4C00094902F017F903B05DF804FB792F002044
:103D5C00772F0020742F0020A75D0400782F0020FF
:103D6C00762F0020752F0020D45D04001FB50C4960
:103D7C000C4B0D4A09781B78127803910B49097882
:103D8C0002910B49097801910A49097800914FF485
:103D9C008270094902F0DCF805B05DF804FB00BF45
:103DAC00782F0020772F0020742F0020762F0020F2
:103DBC00752F0020792F0020BD5D040037B51E4CF7
:103DCC002378012B03D1FFF771FF022323701B4BC8
:103DDC001B4D1A781B4C022A01BF2A682260012253
:103DEC001A7003F059FB03F080FB23682860C01A9B
:103DFC00154B1860154BD3E90023141843F100053B
:103E0C0002A860E902453EF0FBFC114BC2681A7037
:103E1C000369104A0133137043690F4A643B1370F2
:103E2C000E4B82681A700E4B42681A7002680D4B6A
:103E3C001A7003B030BD00BF7A2F0020DC3A00208E
:103E4C00E43A0020E03A0020D83A002078580320C9
:103E5C00742F0020772F0020792F0020752F002041
:103E6C00762F0020782F0020064A074B10781B78FD
:103E7C00000240EA0340054B1B781843044B1860C2
:103E8C00704700BF762F0020752F0020782F002060
:103E9C00702F0020064A074B10781B78000240EA6E
:103EAC000340054B1B781843044B1860704700BF48
:103EBC00772F0020792F0020742F00206C2F0020EA
:103ECC0008B50F4B82791A700E4BC2791A700E4BD3
:103EDC00027A1A700D4B427A1A700D4B827A1A7054
:103EEC000C4BC27A1A70FFF7E1FE0B4B02221A70D0
:103EFC0003F0D2FA03F0F9FA084B186008BD00BFC2
:103F0C00792F0020772F0020742F0020752F002090
:103F1C00762F0020782F0020DC3A0020E43A002095
:103F2C0008B5FFF7C3FEBDE80840FFF747BF000028
:103F3C001FB5FFF743FF124B1B788DF80830114B60
:103F4C001B788DF80930104B1B788DF80A300F4B0D
:103F5C001B788DF80B300E4B1B788DF80C300D4BFD
:103F6C001B788DF80D30FFF7D5FE28230093062221
:103F7C00042302A90848FDF71FF805B05DF804FBFF
:103F8C00792F0020772F0020742F0020752F002010
:103F9C00762F0020782F0020A156032010B5054C59
:103FAC0023781BB9FFF782FE01232370BDE8104074
:103FBC00FFF7BEBFDC3A002070B5134C8A00A31883
:103FCC0022449B781D09062D98BF104E03F00F0359
:103FDC0094BF755DFF25062B05719ABF0C4DEB5CEC
:103FEC00FF234371FF3B18BF01238371D37014F877
:103FFC002130084C4370537883700146204604F0FE
:10400C004DFF0123A36070BDE83A0020F15D040070
:10401C00EA5D0400002000407FB5224922480022BE
:10402C00FF23CDE901228DF8093003784C6C8D6BA0
:10403C0003922C40E407DBB228D5022B26D88C6CDB
:10404C001A4901EB8301A5B2CE78194906B32604AF
:10405C001ED521F813201749012202FA03F30A781E
:10406C001343154A0B701378CBB100231478DC4042
:10407C00E407D9B20FD501701078012404FA03F3C8
:10408C004340DBB201A81370FFF796FF04B070BD7C
:10409C0021F81350DFE70133032BE7D1F6E70323B5
:1040AC000370F3E700200040F43A0020E83A0020C7
:1040BC00F83A0020F63A0020F53A00200D490E4B54
:1040CC0010B5002A14BF0A461A4604460B494FF491
:1040DC00817001F03DFF4FF4817001F021FF10B1B0
:1040EC00204601F05DFF06494FF48170BDE8104099
:1040FC0001F040BFF85D0400015E04000E5E040098
:10410C00535D040001207047012070470120704767
:10411C000B2804D009280CBF012002207047002076
:10412C00704700002DE9F04385B04FF48073ADF873
:10413C000C3002F001FF01211548DFF85C80DFF83C
:10414C005C9004F095FF0121124804F091FF0024CB
:10415C00012703AB0222E35C18F8336008EBC303BE
:10416C0030465D680123294605F0B4FF4946E8B2A4
:10417C0002F0F0FECDE9007701232A4629463046AD
:10418C0005F05CFF14B105B0BDE8F0830124E0E755
:10419C004041050000350A00145E04003342000063
:1041AC0008B5FFF7B5FF022816BF024B0020185CBC
:1041BC0008BD00BFFE3A002008B5FFF7A9FF022892
:1041CC001CBF014B195408BDFE3A002008B5FFF77F
:1041DC009FFF022805D0034A135CB3FA83F35B09F3
:1041EC00135408BDFE3A002008B5FFF791FF0228D2
:1041FC0011D00A4A12F8301030234B4302EBC002A4
:10420C0007491944536803EBC1039B001868B0FAC3
:10421C0080F0400908BD0020FCE700BF145E0400DC
:10422C001CA01042704770B50446FFF7DDFF002656
:10423C00054601E000261D462046FFF7D5FFA842A3
:10424C000346F7D10136052EF2D12046FFF7A8FF21
:10425C00A8420BD029462046FFF7AEFF2046FFF7B9
:10426C009FFF01462046FFF7DDFF70BD2046FFF79C
:10427C00ADFF2046FFF794FF01462046FFF7D2FF23
:10428C002046FFF7A3FFE9E708B52021002001F045
:10429C0071FB38B1044A05494FF48170BDE8084000
:1042AC0001F056BE08BD00BF245E0400315E040060
:1042BC0010B596B056220021074C68463EF01CFC07
:1042CC00684619F04BFB20461022694607F010F89F
:1042DC00204616B010BD00BF013B0020024B1870E9
:1042EC00024818F04FBB00BF3E3B0020A4580320EF
:1042FC0008B5114B1B78053B012B04D940F28521E5
:10430C000E4806F08DFD4FF481700D4901F020FE32
:10431C004FF4817001F004FE10B10A4801F040FE28
:10432C0009494FF4817001F025FE00210420BDE8FD
:10433C000840FFF7D3BF00BF3E3B0020BC5E04002B
:10434C00D75E04002E3B0020535D0400F0B5284BD3
:10435C001F8893B022237F2205460C4609A83946B4
:10436C0007F0CAF8BDF844204FF6FF739A4234D1D7
:10437C00204B6A4603F1200C18685968164603C690
:10438C00083363453246F7D11B7833700023237012
:10439C002378072B14D90022EA5417494FF4817063
:1043AC0001F0E8FD2278ADF84420294609A806F072
:1043BC009FFF222209A9384607F0C2F813B0F0BDBE
:1043CC0007F058FB12AA00F01F001044237810F8D5
:1043DC00482CEA5423780133D9E7227009A9D2B2C8
:1043EC00284606F085FF23780022EA54E6E700BF52
:1043FC00DE840400BB5F0400A15F040030B597B0FD
:10440C0008AD3822002128463EF076FB19F07EF9E3
:10441C00024600685168284C04AB03C3FDF7A2F9AF
:10442C0003228DF81C202278002310F1FF3018BFD6
:10443C0001208DF819308DF81A308DF81B308DF85D
:10444C001D30052A4FF001038DF818008DF81E3031
:10445C0004D040F24521194806F0E2FC4FF481707B
:10446C00174901F075FD4FF4817001F059FD10B141
:10447C00144801F095FD14494FF4817001F07AFD58
:10448C00124B01930F230093114A029504AB0221A6
:10449C000C482FF027FA024628B901460620FFF7F0
:1044AC001DFF17B030BD0B494FF4817001F062FD58
:1044BC00094B20781968F2E73E3B0020BC5E0400F3
:1044CC00146004002E3B0020535D040001450000E5
:1044DC00AB5E04002C6004007C2F002008B504495E
:1044EC004FF4817001F046FDBDE8084019F0C8BBDF
:1044FC004860040010B5124B1B78062B1FD100F03E
:10450C00FD0001280F4C0BD1002323702378022BC4
:10451C0011D80D4B05201968BDE81040FFF7DEBE21
:10452C0022780A490132D2B203234FF481702270EF
:10453C0001F020FDEAE7BDE81040FFF7D9BE10BD41
:10454C003E3B0020003B00207C2F0020EB5F040052
:10455C00234B10B500241C70052839D8DFE800F077
:10456C0003153E213318022906D11E494FF48170E0
:10457C00BDE8104001F0FEBC1B4B1B7873B300214F
:10458C000820BDE81040FFF7A9BE00210120F8E784
:10459C00032923D115494FF48170BDE8104001F077
:1045AC00E9BC134B1A78012A10D0124C124B022A78
:1045BC0018BF1C46FFF77CFE224603460F494FF4FA
:1045CC00817001F0D7FC00210420DAE70C4CF1E7F4
:1045DC00F8210C48BDE8104006F022BC10BD00BF0D
:1045EC00A4580320155F04007B2F00202F5F0400CC
:1045FC003E3B00200E5F0400F05E0400475F0400A9
:10460C00F95E0400BC5E040010B50C4B1B78012B4A
:10461C00044604D04FF48671094806F001FC5CB1E5
:10462C00224608494FF4817001F0A4FC00210220BD
:10463C00BDE81040FFF752BE10BD00BF3E3B00204E
:10464C00BC5E0400855F040008B519F063F80146F0
:10465C0020B90220BDE80840FFF740BE08BD0000AD
:10466C0000B58BB00DF1030101A8FFF76FFE01AA95
:10467C0003494FF4817001F07DFC0BB05DF804FB35
:10468C00DC5F040008B5024658B106494FF481704E
:10469C0001F070FC044B00211878BDE80840FFF7CE
:1046AC001DBE08BD575F04003E3B0020034B1B782A
:1046BC00052B01D1FFF7A2BE704700BF3E3B002087
:1046CC00034B1B78053B012B01D8FFF711BE70473C
:1046DC003E3B002020B903494FF4817001F04ABCE5
:1046EC00704700BF715F0400002070471FB519F0C0
:1046FC000DF802460068516802AB03C3082202237E
:10470C0000930DEB02010348FCF756FC05B05DF875
:10471C0004FB00BF2E3B002010B51D4B1B78042B57
:10472C00044604D040F2C7111A4806F079FB102257
:10473C002146194806F0DCFD184B194800221A7066
:10474C002146102206F0D4FD4FF48170154901F07A
:10475C00FFFB4FF4817001F0E3FB10B1204601F038
:10476C001FFC11494FF4817001F004FCFFF7BEFFF0
:10477C000E4B1B78022B04D1FCF78CFC08B9FCF710
:10478C0079FC00210520BDE81040FFF7A7BD00BF54
:10479C003E3B0020BC5E04002E3B0020003B002072
:1047AC00A1560320945E0400535D04007B2F00206F
:1047BC001FB50E4B079C1B78042B14D104F1100071
:1047CC00FFF7AAFF44214B09022B02D02378FF2BC1
:1047DC0007D00023CDE9013300931A4620462FF071
:1047EC00C5FA04B010BDA321EDE700BF3E3B00208D
:1047FC001FB50D4B1B78042B0CD1002110226846E1
:10480C003EF07AF96946002001F088F828B1684634
:10481C00FFF782FF05B05DF804FB04494FF481708B
:10482C0001F0A8FBF6E700BF3E3B0020845E0400CD
:10483C001FB50C4B0C481B688DF80F301A168DF8F1
:10484C000C201A148DF80D201A1222230093042325
:10485C008DF80E2003A91A46FCF7AEFB05B05DF8E7
:10486C0004FB00BF7C2F00202E3B0020014B186066
:10487C00FFF7DEBF7C2F0020024B00221A7019F0CC
:10488C00EFBA00BF123B002000B59BB056220021AE
:10489C0004A83EF031F904A819F060F81AA99DF8A3
:1048AC00333001F85C3D2323009301220423034899
:1048BC00FCF782FB1BB05DF804FB00BF2E3B002015
:1048CC0000210920FFF70ABD08B5044B1870FFF74B
:1048DC00F7FEBDE80840FFF701BE00BF7B2F0020AC
:1048EC0010B5074C01461022204606F001FD224669
:1048FC0004494FF48270BDE8104001F03BBB00BF8F
:10490C00143B0020575E0400F7B5014608226846A8
:10491C0006F0EEFC1249134D134E144F4FF48270F7
:10492C0001F016FB00241DF80420625531464FF4AB
:10493C00827001F00DFB04F0FD03012B01D0052C5E
:10494C0004D139464FF4827001F002FB0134082C7B
:10495C00E9D107494FF4827001F00CFB03B0F0BDB4
:10496C007A5E0400263B0020A0590400057904005F
:10497C00535D0400034B0449188002464FF48270C7
:10498C0001F0F8BA243B0020695E0400034B044993
:10499C00187002464FF4827001F0ECBA133B002001
:1049AC00365E040070B5014610220D480C4E0D4DBC
:1049BC0006F09EFC0C494FF4827001F0C9FA0024F9
:1049CC00325D29464FF48270013401F0C1FA102C8B
:1049DC00F6D106494FF48270BDE8704001F0CABAB6
:1049EC00802F00207F600400475E0400535D0400AC
:1049FC00FFF77ABE00F06CB800F06BB800F06BB843
:104A0C0000F06BB808B500F0F1FD01F003FF00F009
:104A1C0065F808F09FF908F0BFFCBDE8084011F0FC
:104A2C0075BC08B5FFF730FC07F026FA07F010FB51
:104A3C0018F0ECFD00F053F8BDE8084008F0B2BFE8
:104A4C0008B500F049F80AF0ABFE0CF08BFE0FF045
:104A5C0039FABDE808400DF053BB70B504460D465D
:104A6C001646FFF775FD32462946204608F094F9A4
:104A7C003246294620460CF0B1FB324629462046E8
:104A8C000CF03AFF3246294620460EF07DF83246AD
:104A9C0029462046BDE870400FF01ABA00F068B8FD
:104AAC002DE9F341089C009405460E46174698469E
:104ABC0000F060F843463A4631462846089402B066
:104ACC00BDE8F0410FF03ABA00F05BB870477047A0
:104ADC0070470120704770477047704770477047A8
:104AEC007047002070477047704700207047704730
:104AFC00704708B9FFF7C8BE7047704770477047DA
:104B0C00704708B9FFF7DCBE7047704770477047B5
:104B1C000020704770477047704770471FB504A955
:104B2C00212301F8040D0122009303480423FCF710
:104B3C0043FA05B05DF804FBA1560320704770479B
:104B4C0070470020704770470020704770477047CF
:104B5C0070477047704770477047704713F05CB8E8
:104B6C0010B4BDF8084002945DF8044BFBF7B2BFDB
:104B7C000120704770478620704786207047704729
:104B8C007047704781210DF0D9B981210DF0D6B94C
:104B9C0081210DF0D3B981210DF0D0B981210DF017
:104BAC00CDB981210DF0CAB91FB5064B0193064B47
:104BBC000292009300220B4604490DF05DF905B0FA
:104BCC005DF804FB746F0400646F04001E71040034
:104BDC001FB5064B019300230292009301220B4652
:104BEC0003490DF049F905B05DF804FB546F04005E
:104BFC001E7104001FB5064B0193064B02920093E5
:104C0C0002220B4604490DF037F905B05DF804FBA0
:104C1C00446F0400346F04001E7104001FB5064B72
:104C2C000193064B0292009340220B4604490DF06F
:104C3C0023F905B05DF804FB9C6F0400846F04003D
:104C4C001E7104001FB5064B0292002201930092C4
:104C5C000B4604490DF010F905B05DF804FB00BFDC
:104C6C00C46F04002A7104001FB5064B0193002386
:104C7C000292009301220B4603490DF0FDF805B09A
:104C8C005DF804FBFC6F04002A7104001FB5064B91
:104C9C00019300230292009302220B4603490DF06C
:104CAC00EBF805B05DF804FB4C7004002A710400AD
:104CBC001FB5064B0193064B0292009340220B4604
:104CCC0004490DF0D9F805B05DF804FBEC6F040055
:104CDC00D46F04002A7104001FB5064B0193002306
:104CEC000292009341220B4603490DF0C5F805B022
:104CFC005DF804FB0C7004002A7104001FB5064B10
:104D0C000193064B0292009342220B4604490DF08C
:104D1C00B3F805B05DF804FB3C7004001C70040093
:104D2C002A71040007B5054B0093054A054B06484C
:104D3C0000210CF01BFF03B05DF804FBC89E0400BF
:104D4C00646F0400B54B00001E71040007B5054BE1
:104D5C0000930022044B054801210CF007FF03B01F
:104D6C005DF804FB535D0400DD4B00001E71040074
:104D7C0007B5054B0093054A054B064802210CF07C
:104D8C00F5FE03B05DF804FB1D930400346F0400C2
:104D9C00014C00001E71040007B5054B0093054A39
:104DAC00054B064840210CF0E1FE03B05DF804FB16
:104DBC00896A0400846F0400294C00001E710400F1
:104DCC0007B5054B00930022044B054811460CF027
:104DDC00CDFE03B05DF804FB535D0400514C0000A4
:104DEC002A71040007B5054B00930022044B0548BB
:104DFC0001210CF0BBFE03B05DF804FB535D040015
:104E0C00754C00002A71040007B5054B0093002275
:104E1C00044B054802210CF0A9FE03B05DF804FB1D
:104E2C00535D0400994C00002A71040007B5054B32
:104E3C000093054A054B064840210CF097FE03B041
:104E4C005DF804FB896A0400D46F0400BD4C0000BB
:104E5C002A71040007B5054B00930022044B05484A
:104E6C0041210CF083FE03B05DF804FB535D04009C
:104E7C00E54C00002A71040007B5054B0093054A68
:104E8C00054B064842210CF071FE03B05DF804FBA3
:104E9C00ED6904001C700400094D00002A71040027
:104EAC002DE9F04FA5B080468A46002006A900F0F7
:104EBC0035FD50B94FF482704B4B4C4A4C4901F0C4
:104ECC0059F8022025B0BDE8F08F0021012000F038
:104EDC0085FC16AF382200218146002438463DF06F
:104EEC000BFEADF8164000F087FB02286ED90DF1D1
:104EFC001601022000F0A2FC064600F07DFB032800
:104F0C0006D92146032000F069FC03788DF88C301B
:104F1C00384C22684FF6FF739A420AAD58D0364986
:104F2C004FF4827001F026F822680C2128462EF0EE
:104F3C0057FF0124DFF8D8B0DBF800204FF6FF73E1
:104F4C009A420CD02D494FF4827001F013F805EB06
:104F5C000410DBF8002011212EF042FF0134DFF8A1
:104F6C00B4B0DBF800204FF6FF739A420CD0244902
:104F7C004FF4827000F0FEFF05EB0410DBF800200C
:104F8C0017212EF02DFF01341C958DF87440BAF1C9
:104F9C00000F0ED041F2346106A80DF0B7F8C8B17D
:104FAC00184B219341F234632290ADF86A30ADF87E
:104FBC006C30154B0193BDF81630009302973346B5
:104FCC004A46414606A82EF08DFC7BE726469FE715
:104FDC000024AFE74FF482700C4B044A044900F0F4
:104FEC00C9FF01206EE700BF3C710400477104004B
:104FFC004B710400B02F0020527104006D7104003D
:10500C00877104002500030025500000A5710400E1
:10501C00A82F0020AC2F00202DE9F0439BB00446B4
:10502C000E464FF482705F49BDF8885090461F467B
:10503C0000F08EFF20462EF0B3F95B4902464FF488
:10504C00827000F085FF002C56D030462EF080F98F
:10505C00554902464FF4827000F07AFF0022114647
:10506C0040462EF044FA431C064626D0642200210A
:10507C0001A83DF041FDB0B2632845D901300021B3
:10508C0080B216F0C5FE002842D016F01FFB4FF080
:10509C0000090446B2B2214640462EF028FA2246B8
:1050AC0042494FF4827000F053FFB9F1000F04D065
:1050BC003F494FF4827000F04BFFEDB101AA0C2177
:1050CC0040462EF001FA40B3019C20462EF054F9D4
:1050DC00384902464FF4827000F03AFF0CB1282C8C
:1050EC001ED14FF4827000F01BFF28B12A463946BE
:1050FC004FF4827000F0B0FF2F494FF4827000F033
:10510C0039FF1BB0BDE8F0834FF0000901ACC1E7DB
:10511C004FF0010901AC6326BCE74FF0FF34D4E734
:10512C003C2C03D04FF628639C4233D100214FF422
:10513C00806016F06DFE28B920494FF4827000F0A3
:10514C0019FFD9E716F0C2FA2946044602464FF475
:10515C00806338460AF02EF9194F204485B2002698
:10516C002B1B9BB2802B06D8224615494FF482701C
:10517C0000F0EEFEC0E794F8808084F88060224650
:10518C0039464FF4827000F0E3FE06F06FFA04F833
:10519C00808FE5E700232A4639464FF4827000F0F1
:1051AC0067FFA9E7CD710400618D0400D77104007D
:1051BC0076730400DD710400535D0400E671040095
:1051CC00628D04001FB50020694600F0A7FB48B9AA
:1051DC00094B0A4A0A494FF4827000F0CBFE05B025
:1051EC005DF804FB694641F2336027F01EFD054A69
:1051FC0005490346EFE700BF3C710400477104000A
:10520C004B710400AA6A0400C571040010B500219A
:10521C000120FFF745FE044A04490346BDE810404F
:10522C004FF4827000F0A6BE946B0400C5710400AC
:10523C0010B500210220FFF733FE044A044903464F
:10524C00BDE810404FF4827000F094BE986B0400DF
:10525C00C571040010B500210320FFF721FE044A9C
:10526C0004490346BDE810404FF4827000F082BE42
:10527C00A26B0400C571040010B500210420FFF7D7
:10528C000FFE044A04490346BDE810404FF48270F7
:10529C0000F070BE8D6B0400C5710400012110B5C7
:1052AC000846FFF7FDFD044A04490346BDE81040DB
:1052BC004FF4827000F05EBE946B0400C571040064
:1052CC0010B501210220FFF7EBFD044A0449034607
:1052DC00BDE810404FF4827000F04CBE986B040097
:1052EC00C571040010B501210320FFF7D9FD044A54
:1052FC0004490346BDE810404FF4827000F03ABEFA
:10530C00A26B0400C571040010B501210420FFF745
:10531C00C7FD044A04490346BDE810404FF48270AF
:10532C0000F028BE8D6B0400C571040008B5002088
:10533C0000F0E4F9014B186008BD00BFA82F002055
:10534C0008B5002000F0DAF9014B186008BD00BF69
:10535C00B02F002070B5012000F0D0F90128124CBC
:10536C0003D94FF6FF73236070BD002000F0C6F91F
:10537C007F28F6D8022000F0C1F9B0F1805FF0D29E
:10538C00012000F0BBF90546002000F0B7F90646F5
:10539C00022000F0B3F90246281CF1B218BF01201C
:1053AC002EF008FD2060DFE7AC2F00202DE9F04F38
:1053BC00074685B008460D46904699463DF0B9FF24
:1053CC00BDF838A00F9E204C8346636853B9CDE9D5
:1053DC00013300931A46842130462EF0C7FC05B0E9
:1053EC00BDE8F08F22892078991811F8011C2F291B
:1053FC0004BF02F1FF3292B208B1B84221D12F2979
:10540C001DD1934506D3A95CB9B12F2914BF002136
:10541C00012100E00021A1B1294618463DF091FF81
:10542C0078B9CDE90EA6E4684B4642462946384683
:10543C00A44605B0BDE8F04F60470121EBE793456A
:10544C00E4E71034C1E700BFD86B040000207047BC
:10545C000020704770477047F8B5054684680268AD
:10546C001B49202008F0F3F96B68DBB1194D1A4E7B
:10547C001A4F013C14F8013FC3B1752B1CD0762B8D
:10548C001CD0772B1CD0732B1CD0622B1CD06E2BFA
:10549C001CD01349134A2A2B18BF1146202008F0A0
:1054AC00D6F9E7E71049202008F0D1F90F49202060
:1054BC00BDE8F84008F0CBB92946EFE73146EDE7F7
:1054CC003946EBE70A49E9E70A49E7E70A49E5E71C
:1054DC00068104004A7304003E73040055730400F3
:1054EC007D7304007A730400767304003B7304002C
:1054FC00617304006B7304007573040013B50446E8
:10550C00FFF7AAFF01A9204600F020FA18B1084CB9
:10551C00019B1B680BB902B010BD2146202008F07E
:10552C0096F90198FFF798FF019B0C330193EFE775
:10553C00BFA4040008B50449202008F088F92020F5
:10554C00BDE8084008F017BA2C72040038B5FFF714
:10555C00F1FF064D002460190C34631953F80C3C10
:10556C0003B938BDFFF778FFF5E700BFAC63040063
:10557C00094B10B553F820200C462020074908F0A1
:10558C0066F944B10649202008F061F92046BDE8CF
:10559C001040FFF7B3BF10BD0C720400F67104008D
:1055AC000272040000230370A0F8663080F8863085
:1055BC00C0F890304FF07F42A0F88C300A23C0F82E
:1055CC00882080F88E307047074B00224FF07F41C7
:1055DC001A70A3F8662083F88620C3F8881083F825
:1055EC008C20C3F890207047AC5803200148FFF77B
:1055FC00D9BF00BFAC580320034B93F8860093F837
:10560C008C30C01AC0B27047AC580320034B03EB6C
:10561C0040000133B0F8660018447047AC580320C2
:10562C00044B03EB400292F8680092F86630C01A03
:10563C00C0B27047AC580320044B03EB4002B2F8E5
:10564C006800B2F86630C01A80B27047AC580320BC
:10565C00054A92F88C30184440B202EB40000132FB
:10566C00B0F86630D05C7047AC5803202DE9F04799
:10567C00204C054694F88C002844C0B243B204EB8D
:10568C0043030E46B3F86680FFF7CAFF8146FFF767
:10569C00B3FFA84294F88E7003D8D521164805F0B4
:1056AC00BFFB4FF0000A55465FFA8AF399451CD9A7
:1056BC000AEB08022244507816B10BB92D280DD0F4
:1056CC0000F0DF02582A03D115B9013B012B0FD989
:1056DC0017F034FE874204D905FB07050AF1010ACD
:1056EC00E2E7052384F88A3000252846BDE8F087D8
:1056FC001027F3E7AC580320EF73040010B51649DC
:10570C0091F88E30FF2B044621D1FFF789FF64B24C
:10571C0001EB44040246B4F866004B1C012A00EB72
:10572C00030101D1C05C10BD022A03D1084617F059
:10573C000BFDF8E7042A04D10020BDE8104017F057
:10574C0031BD0648F92105F06BFB0020EBE7002189
:10575C00BDE81040FFF78ABFAC580320EF7304007C
:10576C0038B51C4991F88E30FF2B044623D1FFF736
:10577C0057FF64B201EB440402464B1CB4F86600BC
:10578C00012A00EB0301C45601D1204605E0022A90
:10579C0004D1084617F0D8FC00B238BD042A04D155
:1057AC000020BDE8384017F0FDBC4FF48A710A4860
:1057BC0005F036FBE9E7FFF74BFFA0F12D0359424B
:1057CC00054659412046FFF751FF2D2D08BF404299
:1057DC00E3E700BFAC580320EF730400F8B5164B99
:1057EC0093F88E20FF2A04461D4603F101060CD1C6
:1057FC0021B1C0B2FFF714FF0138087005EB440467
:10580C00B4F8660001303044F8BD93F88C002044A5
:10581C00C0B242B203EB4203E543B3F86670ED0F3E
:10582C00F41939B1FFF7FCFEF35D401B222B08BFC6
:10583C00013808706019E7E7AC580320F8B5164B2F
:10584C0093F88E20FF2A04461D4603F101060CD165
:10585C0021B1C0B2FFF7F0FE0238088005EB44041A
:10586C00B4F8660002303044F8BD93F88C00204444
:10587C00C0B242B203EB4203E543B3F86670ED0FDE
:10588C00F41939B1FFF7D8FEF35D401B222B08BF8A
:10589C00013808806019E7E7AC5803202DE9F34183
:1058AC000D460DF10701904607461C46FFF796FF83
:1058BC000646F8B2FFF7CCFEA0F122035F429DF83A
:1058CC0007105F413944C9B2414528BF41468DF8A4
:1058DC0007101CB1CCB2A8EB0404E4B22246284653
:1058EC00002105F08FFD28199DF80720314605F0A1
:1058FC00FFFC9DF80700C01BC0B202B0BDE8F081F0
:10590C0013B501230C4608226946FFF7C7FF08228E
:10591C006946204617F067FC02B010BD10B540B2C6
:10592C000C460021FFF75AFF2146BDE810401DF040
:10593C00E2B938B540B20C4615460021FFF74EFFD0
:10594C002A462146BDE838401DF0E8B908B5D0E933
:10595C00012312B90B60012008BD1B786E2B04D1FA
:10596C004FF4D871024805F05BFA0020F4E700BF51
:10597C00EF7304002DE9F04FA24C97B08146884696
:10598C000026B9F1000F0DD10DF113015FFA88F06B
:10599C0007F0EAFF90B1262800F0B281012384F8C9
:1059AC008A3051E0B8F1000F00F0AA8119F8013BE0
:1059BC008DF8133008F1FF381FFA88F894F88D3001
:1059CC009DF8135084F88D500D2B01D10A2DD8D091
:1059DC000D2D0CD0A5F10A035F425F4123783E46A2
:1059EC00042BCED8DFE803F0051A2442320001273D
:1059FC00F4E7002F5BD1202D00F06581222D08D11A
:105A0C0002232370B4F88820642A40F05E810623B8
:105A1C00C5E77B2D0CBF03230123F2E70FB9202D23
:105A2C00F0D194F886300F2B40F03E810323B6E77B
:105A3C00222D03D100238DF81330E3E7002FE1D0A2
:105A4C00052384F88A30012604232370002E98D075
:105A5C0094F88A0018B1D4F89010FFF789FDFFF77D
:105A6C00B3FD9DF8133084F88D308AE77D2D94F8C2
:105A7C008BA004D1BAF1FF0FD3D005238FE72846B2
:105A8C0017F05CFC0F280FD8BAF1FF0F09D094F86F
:105A9C008B3000EB0310FF238DF8130084F88B3050
:105AAC00B0E784F88B006CE7202DE6D169E7564B04
:105ABC00059394F88630002BC5D0002778B2059D4D
:105ACC00FFF7A4FD82463846FFF7AAFD002202909C
:105ADC0016469346296861B9E2B10591022384F810
:105AEC008A3094F88A30002BADD1059B5B689847BF
:105AFC00A9E70B7843B34B1E0193D446019911F8D7
:105B0C00013F01910299ACEB0A0088423ED1002B77
:105B1C003DD1AB46CDF814B0BBF1000FDED094F8FC
:105B2C008C30C4F890B00137013305A95846FFB248
:105B3C0084F88C30FFF70AFF002844D094F88630A4
:105B4C00BB42BBD80323CAE70F2EAB6808D94FF46E
:105B5C0080712E480392019305F062F9039A019B20
:105B6C0016A901EB86010C35013641F8405CF6B202
:105B7C001D462B68002BADD1002EABD0013EF6B2EA
:105B8C0016AB03EB860353F8405CA3E72BB9BBF1D0
:105B9C00000F16D001220C35EBE71CF8010BA0F11D
:105BAC00410EBEF1190F98BF2030A3F1410E98BFE2
:105BBC00C0B2BEF1190F9CBF2033DBB283429DD023
:105BCC00E9E7AB46E7E7059B9B681B783F2B88D042
:105BDC00064605464FF0070A4FF0040B40E010460E
:105BEC0002930192FFF734FD029B019A732B0FD89D
:105BFC00712B11D2002B55D0622B4BD084F88AA07C
:105C0C0020E000BFAC580320AC63040072740400A5
:105C1C00A3F175010229F1D8752B34D0762B34D031
