:10000000D82E0020E916040001A8000005A8000071
:10001000A70A02020002000004180FAC5029B00128
:1000200000000000000000000000000000000000D0
:1000300000000000D47A040000000000000000006E
:100040000000000000000000FFFFFFFFFFFFFFFFB8
:10005000FFFFFFFFFFFFFFFFFFFFFFFFFFFFFFFFB0
:1000600000700F000000000000001000FFFFFFFF05
:10007000FFFFFFFF01000000000000000000000083
:10008000206E0320206203202062032020620320D0
:10009000D82E0020FCDB04007C4B04000020002054
:0C00A000DC1F002000001000206E032078
:10020000D82E0020E916040001A8000005A800006F
:100210000DA8000009A8000011A80000E7160400BE
:10022000E7160400E7160400E7160400E7160400CA
:1002300015A80000E7160400E7160400E7160400FE
:100240007D6E00004DA50300E9AC0000DCA90000B4
:1002500011A00300B9A5030059A5030071A503006F
:1002600051A503008D65000061660000A1840000B7
:10027000DDD50000DCA90000DCA900000937000082
:10028000DCA90000DCA9000085660000DCA90000F4
:1002900015D60000DCA90000DCA90000DCA90000E4
:1002A000DCA90000DCA90000DCA90000DCA900003A
:1002B000BDA5030055A50300016C0000FDA50300CA
:1002C000DCA90000996A0300DCA90000DCA9000099
:1002D000DCA90000DCA90000DCA90000DCA900000A
:1002E000DCA90000DCA90000DCA90000DCA90000FA
:1002F000DCA90000DCA90000DCA90000DCA90000EA
:0C030000DCA90000DCA90000E7160400E6
:10030C00F8B500BFF8BC08BC9E467047F8B500BFF6
:10031C00F8BC08BC9E46704710B5054C237833B921
:10032C00044B13B10448AFF300800123237010BDBC
:10033C000039002000000000CCD1040008B5034BAC
:10034C001BB103490348AFF3008008BD0000000057
:10035C0004390020CCD10400154B002B08BF134BE3
:10036C009D46A3F5803A00218B460F461348144A4C
:10037C00121A41F031FF0F4B002B00D098470E4B57
:10038C00002B00D098470020002104000D000D48E0
:10039C00002802D00C48AFF3008041F081FD200012
:1003AC0029000BF075FA41F067FD00BF0000080052
:1003BC00D82E0020000000000000000000390020B2
:1003CC0020620320000000000000000010B503793B
:1003DC000446092B57D8DFE803F005090D345656AF
:1003EC00414E5652BDE8104002F0BABABDE810407A
:1003FC0002F0BABA827924494FF4827005F02CF9D4
:10040C00E27922494FF4827005F026F9227A2049CC
:10041C004FF4827005F020F9627A1E494FF4827015
:10042C0005F01AF9D4F806201B4C1C4912BA4FF4EB
:10043C008270226005F010F92068BDE8104002F0CF
:10044C0097BA174C8279174922704FF4827005F0D5
:10045C0003F92078BDE8104002F07CBC124C827984
:10046C00124922704FF4827005F0F6F82078BDE83E
:10047C00104000F027BEBDE8104000F029BEBDE8DA
:10048C00104002F081BA10BDCE4D0400DA4D0400CC
:10049C00E64D0400F24D04001C390020FE4D040012
:1004AC00045800200B4E0400EC570020284E04008A
:1004BC0008B50379032B1DD8DFE803F0020B0F13EB
:1004CC000D494FF4827005F0C7F8BDE8084002F002
:1004DC0023BFBDE8084002F043BFBDE8084002F06E
:1004EC0031BFD0F80600054B00BA1860BDE80840D3
:1004FC0002F022BF08BD00BF3C4E04001C39002096
:10050C0010B503790446092B4AD8DFE803F0050936
:10051C000D11151E22303740BDE8104001F044BBD0
:10052C00BDE8104001F048BBBDE8104001F04CBBE9
:10053C00BDE8104001F050BBD0F80600194B00BAD2
:10054C00BDE81040186001F065BBBDE8104001F03B
:10055C0067BB8279C37914494FF4827005F07CF83B
:10056C00E179A0790222BDE8104001F06FBB0F4B7E
:10057C0080791870BDE8104002F058B8D0F8060029
:10058C00084B00BABDE81040186002F055B8D0F81E
:10059C000600044B00BABDE81040186002F052B8D7
:1005AC0010BD00BF1C390020C04D0400EC570020CA
:1005BC0008B50379052B07D8DFE803F003070A0D0C
:1005CC00101900F057FD002008BD00F05BFDFAE7A4
:1005DC0000F066FDF7E700F069FDF4E7D0F80600DF
:1005EC00054B00BA1860BDE8084000F065BDBDE8D9
:1005FC00084000F0C3BF00BF1C39002008B5C37809
:10060C00013B042B06D8DFE803F00307050A0D00B5
:10061C00FFF7DCFE012008BDFFF74AFFFAE7FFF702
:10062C006FFFF7E7FFF7C4FFF4E7000037B500F002
:10063C00FD05012D1C4640D12179DB78A278009173
:10064C004FF48270214905F007F8A378042B0CD1E4
:10065C00B4F803305BBA9BB2292B1BD007D8252BDF
:10066C0020D0262B09D01A2B0ED003B030BD322B44
:10067C0010D0332B01D0312BF7D115494FF48270A8
:10068C0004F0EAFF042013E0284603B0BDE8304034
:10069C0000F074BD00F0E0FE0128E6D100F0F0FFA0
:1006AC000020F2E70B494FF4827004F0D5FF0320D1
:1006BC0003B0BDE8304000F06DBF07494FF48170C6
:1006CC0003B0BDE8304004F0C7BF00BF424E040089
:1006DC00724E04005D4E0400884E0400F0B593B0D9
:1006EC0004AC06460F46154600213822204641F040
:1006FC0073FD094B094A0294CDE90073022133467C
:10070C00284632F063FC024620B105494FF4817053
:10071C0004F0A2FF13B0F0BD39060000E02E00205B
:10072C00A54E0400F8B5C278037943EA02231BB244
:10073C00023B04460E46102B33D8DFE803F0093495
:10074C005D6568716E777A7E81ADBABEC2C5C80030
:10075C006049614F4FF4827004F06CFF5F494FF4B5
:10076C00827004F067FF04F10E05063415F8012DB4
:10077C0039464FF4827004F05DFFA542F6D158491A
:10078C004FF4827004F056FF56494FF4827004F017
:10079C0051FF304604F076FF53494FF4827004F059
:1007AC005BFF0120F8BD8379C279504D42EA0322E8
:1007BC0042F276718A422A800BD14D494FF48270F5
:1007CC0004F04AFF4B4B4C48012200211A701BF0DD
:1007DC004DFC2A8849494FF4827004F03DFFA27900
:1007EC0047494FF4827004F037FFE27945494FF4E2
:1007FC00827004F031FFD4E743494FF4827004F067
:10080C002BFF0AF0CBFBCCE703F0E2FAC9E73F4B36
:10081C0090F9060018701CF0C7FA1CF0E1FAC0E75A
:10082C00D0F8060000BA03F093FBBAE703F072FBB2
:10083C00B7E7807903F092FBB3E703F097FBB0E7DF
:10084C00334B451D00F1150215F8011F03F8011F6C
:10085C009542F9D12F4803F0B5FB2F4B04F11D0243
:10086C0015F8011F03F8011FAA42F9D12B482C4D92
:10087C0003F0BCFBA37FE27F2A4942EA03224FF438
:10088C0082702A8004F0E8FE288803F0E5FB94F8D7
:10089C00200003F0EDFB84E7234A431D153413F8C5
:1008AC00011F02F8011FA342F9D1204803F0ECFB11
:1008BC0077E7807903F07AFB73E7807900F00EFC20
:1008CC006FE700F039FC6CE702F06CFE69E702F0B0
:1008DC00A1FE66E7C44E040080500400DB4E040009
:1008EC00B1530400E44E04003254040014580020A8
:1008FC00164F04004239002044580020EC4E0400EE
:10090C00FD4E0400074F0400114F04004C5800200A
:10091C002F39002030390020423900204339002083
:10092C0040390020234F04001F39002020390020BB
:10093C0070B5124E124C33780025012B257002D065
:10094C00022B10D070BD1CF00FFD0E494FF48270BD
:10095C0004F082FE0223337041F288312046BDE858
:10096C0070401BF083BB08494FF4827004F074FE96
:10097C000AF014FB35702946F0E700BF423900201D
:10098C0044580020354F04003B4F040010B586B08E
:10099C001C468B788DF81430CB788DF815300B798C
:1009AC008DF816300323029305AB019300231046F8
:1009BC0000931A46214632F04DFD06B010BD1FB50E
:1009CC008B788DF80C30CB788DF80D300B798DF849
:1009DC000E30002300930322012303A900F0ECFA4C
:1009EC0005B05DF804FB000008B58379042B0DD12C
:1009FC00C279037A43EA02231BB2292B1ED006DCF0
:100A0C00252B32D0262B08D01A2B0DD008BD322B1B
:100A1C0014D0332B01D0312BF8D119494FF48270FB
:100A2C0004F01AFE042026E016494FF4827004F0FC
:100A3C0013FE0120BDE8084000F0A0BB12494FF4A2
:100A4C00827004F009FE00F007FD01280BD100F0C4
:100A5C0017FE002000F092FB0C494FF48270BDE8A9
:100A6C00084004F0F9BD0A49F7E70A494FF48270CF
:100A7C0004F0F2FD0320BDE8084000F08BBD00BF80
:100A8C00724E0400664E0400424F04004F4F0400A7
:100A9C00604F04005D4E040070B5002405462246EC
:100AAC00FF262B1A8B4203DB42EA042080B270BD76
:100ABC0015F8013B1A4492FBF6F3C3EB0323D31A4C
:100ACC009AB2234493FBF6F4C4EB04241B1B9CB294
:100ADC00E7E700002DE9F843089CBDF82470A578E1
:100AEC0094F8038094F804902A460E464FF48270D2
:100AFC003C4904F0B1FD4B4642463B494FF48270F1
:100B0C0004F0AAFD627939494FF4827004F0A4FD17
:100B1C0037494FF4827004F08DFD36494FF48270E2
:100B2C0004F09AFDE319B91E13F8022C13F8018C8A
:100B3C00204648EA0228FFF7AFFF074683B2424639
:100B4C002D494FF48270BFB204F086FDB84545D1F3
:100B5C002A494FF4827004F06DFD304604F092FD8A
:100B6C00013D27494FF4827004F064FD042D37D801
:100B7C00DFE805F0031C2C3630002379012B0ED155
:100B8C00B4F80730A2791F495BBA9BB24FF482705C
:100B9C0004F062FD2046BDE8F843FFF725BF1A4973
:100BAC004FF48270BDE8F84304F056BD3146204640
:100BBC00FFF7B8FD214620B13046BDE8F843FFF7FA
:100BCC00E5BE3046BDE8F843FFF7F9BE2046FFF717
:100BDC0015FDEFE7BDE8F84301F02EBE0B49DFE74A
:100BEC00BDE8F883B04F0400BB4F0400C54F0400B0
:100BFC00D94F040032540400E44F04000C5004009C
:100C0C00B1530400145004002A5004003A5004005C
:100C1C001FB54B09022B02D00378FF2B06D0002303
:100C2C00CDE9013300931A4632F014FC05B05DF89F
:100C3C0004FB1FB5CDE90123002300931A4632F0C3
:100C4C0009FC05B05DF804FB2DE9F04387B093F87F
:100C5C00029093F80380B3F803701E79B7490F9C88
:100C6C001D460023CDF80E30CDF81230ADF81630FD
:100C7C004DF25673ADF80C30BDF838304A46CDE91C
:100C8C0000634FF48270434604F0E6FC0423B9F190
:100C9C00030F8DF80E3000F0AC80994500F0838185
:100CAC00B9F1020F11D17BBA9BB2043B102B0CD8BB
:100CBC00DFE803F0090E1B0B0B0B262B325F6C7459
:100CCC00777D858C93000AF069F907B0BDE8F08355
:100CDC001CF090F89A4A0368136043685360082329
:100CEC0045212046FFF7A5FFEFE795F906001CF01C
:100CFC005BF844212046FFF78BFF1CF071F8E4E70A
:100D0C00A87903F02BF9442102E003F02FF94321D9
:100D1C002046FFF77DFFD8E78A4A6B1D05F11506C3
:100D2C0013F8011F02F8011F9E42F9D1864803F007
:100D3C0049F9864A334605F11D0113F8010F02F8F3
:100D4C00010F9942F9D18248824E03F04FF9AB7FE3
:100D5C00EA7F814942EA03224FF48270328004F028
:100D6C007BFC308803F078F995F8200003F080F9CB
:100D7C00C9E77A4A6B1D153513F8011F02F8011FDC
:100D8C00AB42F9D1764803F07FF9BCE72046442109
:100D9C00FFF73EFFA87903F009F996E7A87900F070
:100DAC009DF900F0C9F901230246442199E7204638
:100DBC004421FFF72DFF284602F0F4FB85E7442180
:100DCC002046FFF725FF02F025FC7EE74321204655
:100DDC00FFF71EFF0BF01EFB77E7624A0023137030
:100DEC00537093700321137101235371D170062337
:100DFC0076E75D494FF4827008F1FF3804F02CFC63
:100E0C00B8F1040F3FF661AF01A353F828F000BF0F
:100E1C00310E0000490E0000D70C00008F0E0000B0
:100E2C00250F0000062E05D0072E7FF44EAF00F0E4
:100E3C004FF9B8E7A87900F045F946E7032E3FF6DD
:100E4C0044AFDFE806F00205080B02F065FA5AE73A
:100E5C0002F086FA57E702F075FA54E7D5F8060067
:100E6C0000BA02F069FA030E8DF80830030C8DF805
:100E7C000930030A8DF80A308DF80B00042302AAFE
:100E8C0093E7053E042E3FF620AFDFE806F003089B
:100E9C0010243F0000F0C4FE0123024620E702228A
:100EAC00E979A87900F0D2FE00F0BAFE7BE72F4B6F
:100EBC00A879187000238DF80F3017238DF8103097
:100ECC0001238DF8113001F0B1FB0C238DF81200C9
:100EDC000DEB030269E7D5F8060000BA01F0ACFB94
:100EEC000023020E8DF80F308DF812201823020CFF
:100EFC008DF810308DF813200423020A8DF814207D
:100F0C008DF811308DF8150003AA4EE7D5F80600C0
:100F1C0000BA01F097FBA6E7052E3FF6D6AEDFE848
:100F2C0006F003060927373F00F0A4F8EBE600F0C3
:100F3C00A9F8E8E600F0B4F8AEE700BF6E4F040085
:100F4C00815603205A3900205B3900206D3900206E
:100F5C006E3900206C390020234F04004A390020E0
:100F6C004B3900207B560320A04F0400EC57002087
:100F7C0000F09CF8030E8DF80830030C8DF8093046
:100F8C00030A8DF80A308DF80B00042302AAA7E699
:100F9C00D5F8060000BA00F08FF800F087F862E789
:100FAC0000F0ECFA91E603494FF4827004F054FB24
:100FBC008BE600BFA84F04002DE9F047804602F1F4
:100FCC000D0000AF20F00700ADEB000D02F10F009B
:100FDC006C46B7F820C0A37020F00700ADEB000DF5
:100FEC0056204FEA1C232070D7206070E37002F16A
:100FFC00060902F108066D4684F804C06271A01D52
:10100C000B46A3EB010C624518DC49462046FFF762
:10101C0043FD4A4682462146284641F0D2F8AB1998
:10102C004FEA1A2203F8022C03F801AC424631466F
:10103C002846FFF753FBBD46BDE8F08713F801CBFC
:10104C0000F801CBDDE70000024B187002481BF0E2
:10105C000DB800BF77390020A456032000210720CB
:10106C00FFF7F2BF00210520FFF7EEBF00210320A0
:10107C00FFF7EABF024B012000211870FFF7E4BF15
:10108C00793900200021024B08461970FFF7DCBFAC
:10109C0079390020014B1878704700BF793900204E
:1010AC00014B1878704700BF79390020014B186844
:1010BC00704700BFE42E0020014B1860704700BF42
:1010CC00E42E0020014B1870704700BFE82E002062
:1010DC00014B1878704700BFE82E002038B5124D30
:1010EC002B788342044610D001280FD101460020F2
:1010FC0002F03CF92146204602F038F90B4802F088
:10110C0027FF0B4B0B4A1A602C7038BD0028FCD102
:10111C00014602F02BF92146012002F027F94EF688
:10112C00602002F015FFEFE790560320E0930400D7
:10113C00E42E0020C0270900014B1878704700BF2F
:10114C0090560320074A30B5034600F11005186885
:10115C005968144603C40833AB422246F7D11868C9
:10116C00206030BDB456032008B501464222024827
:10117C0041F027F808BD00BFC8560320034B0449B3
:10118C00187002464FF4827004F066BA7A39002067
:10119C00AA500400F0B59B4B00221A709A4B1B7896
:1011AC0095B0072B24D8DFE813F0080010001A00C4
:1011BC0025001601410075002A0094494FF48270F5
:1011CC0015B0BDE8F04004F047BA002000F0D4FAA6
:1011DC000021022015B0BDE8F040FFF735BF00201C
:1011EC00FFF7CCFF01F0BCFB894A13780133137075
:1011FC0015B0F0BD15B0BDE8F04000F0E5BC854B76
:10120C001B780BB902F056F902F0A0F9824C206061
:10121C0002F0B2F904F1100160605022684640F00F
:10122C00D0FF94E80F0000F0C3F9E1E7794E327873
:10123C0072BB7A4C7A4A04F110071346254603CD4B
:10124C00BD42106051602C4602F10802F6D12868AC
:10125C00714910600A68DA75100E1875100C587503
:10126C00100A4A689875110E1976110C5976110AE4
:10127C009976DA761A23009369496A4804231C226A
:10128C00FFF79AFE012333704FF4FA610620A1E7B1
:10129C000021FBE7644D604C422204F11C012846FE
:1012AC0040F08FFF226885F84520110E85F842101A
:1012BC00110C85F84310110A626885F84410110E60
:1012CC0085F84610110C85F8471085F84920110A4D
:1012DC00564C574A85F8481012782178914222D8FA
:1012EC00544922704FF4827004F0B6F92378013B14
:1012FC00032B06D8DFE803F002525456302385F84E
:10130C004A30342300934B22042347494548FFF7C6
:10131C0053FE95F84A2048494FF4827004F09CF92A
:10132C002378013323702678042E2CD8434B334476
:10133C0013F8013C012B1CD1032E35D0042E3CD0CC
:10134C00022E16D13E494FF4827004F085F92078B4
:10135C0000F0B6FD00210720FFF776FE112385F87B
:10136C004A303423009304234B222F492D48FFF796
:10137C0023FE237895F84A20324901334FF48270CA
:10138C00237004F069F92378042B7FF631AF214BDD
:10139C00002119700123237004201BE71123AEE7F1
:1013AC000223ACE70323AAE7304600F089FD0021B5
:1013BC000720FFF749FE0223D1E7304600F080FDFD
:1013CC0000210720FFF740FE032385F84A30342321
:1013DC0000933346C8E71C4B1C7854B91B4B1B7845
:1013EC003BB10B4D2A789A4203D3204601F0A2FC64
:1013FC002C70174B197819B1164B01201968E9E6B6
:10140C000846E7E6A456032077390020495004002B
:10141C007839002076390020AC560320B4560320CE
:10142C00145603209156032030560320A43A002072
:10143C009C3A00205250040070500400A03A002046
:10144C00835004009850040090560320E82E00208E
:10145C0079390020E42E0020014B1878704700BF2A
:10146C007A39002073B53E4B3E4C00221A7023781B
:10147C00013B032B47D8DFE803F0021D486E00F058
:10148C005BF9012802460ED1272300930021042387
:10149C003548FFF791FD00212170314802B0BDE8BD
:1014AC0070401AF0E3BD314800F00CF902232370B0
:1014BC000021F2E72E4C2F4A04F110061346254664
:1014CC0003CDB542106051602C4602F10802F6D1F2
:1014DC002868264910600A68DA75100E1875100C09
:1014EC005875100A4A68DA76110E1976110C59766D
:1014FC00110A997698751F49252300931C22042301
:10150C001948FFF759FD02B070BD1B4C174D422214
:10151C0005F11C01204640F054FE2B6884F8453040
:10152C001A0E84F842201A0C84F843201A0A6B68AD
:10153C0084F844201A0E84F846201A0C84F84720AC
:10154C0084F849301A0A312384F848202146009344
:10155C004A220423D4E700F071F80123A7E700BF67
:10156C006C5703207B390020915603200C57032025
:10157C00145703201456032030560320034B044801
:10158C00012200211A701AF071BD00BF7B390020B6
:10159C006C570320042805D8034B0021187003480E
:1015AC001AF064BD704700BF7B3900206C570320D4
:1015BC0084B0F8B51C4E06AC84E80F00346840F2D9
:1015CC00F97294422ADC002C184F0FDA602206A91B
:1015DC00174840F0F6FD174A00233B6013600123C7
:1015EC003360BDE8F84004B0FFF73CBD3D68954260
:1015FC0004F1010408D1602206A90D4840F0E1FD78
:10160C0000233B603460ECE709480135602206A9F1
:10161C0002FB050040F0D5FD3D60F3E706494FF4B1
:10162C00827004F019F8DCE7F42E0020F02E002074
:10163C0054580020EC2E0020D050040010B50D4C56
:10164C002368002B06DA0C494FF4827004F004F87E
:10165C00012010BD09490A6840F2F970013B824231
:10166C0023604FF0000001D10860F1E701320A60FD
:10167C00EFE700BFF42E0020C1500400EC2E002038
:10168C0008B50C4B1A68002A06DA0B494FF4827025
:10169C0003F0E2FF012008BD0849013A1A600B680B
:1016AC00013B0B604FF48270054903F0D5FF00201D
:1016BC00F1E700BFF42E0020C1500400F02E0020F2
:1016CC00DE500400184B1B68002BF0B4074605DAFB
:1016DC0016494FF48270F0BC03F0BEBF144B154C8E
:1016EC001A6860235343E218E05852687A6003F199
:1016FC0008022244386007F1080502F1100C164666
:10170C0003CE664528606960324605F10805F6D1BE
:10171C003068286003F11C01214407F11C004222AF
:10172C00F0BC40F04EBD00BFF42E0020C1500400B0
:10173C00EC2E002054580020034B18680028CCBF16
:10174C0000200120704700BFF42E002010B5074C7C
:10175C0023781BB900F07CFF01232370044B05494F
:10176C0018780222BDE8104000F080BF7C390020C0
:10177C00FA2E0020FB2E002038B5114D2B78044694
:10178C001BB900F065FF01232B701CB9BDE8384074
:10179C00FFF7DCBF0B4D0C492878643C022200F0AB
:1017AC0065FF002CB8BF644208492878C4F346048E
:1017BC0006344C700222BDE8384000F057BF00BF21
:1017CC007C390020FA2E0020F82E00207D390020D4
:1017DC00F8B50F46064600F03BFF6B4A6B4C6C4964
:1017EC00042313706B4A237013704FF482703246CB
:1017FC007D1E03F031FF032D00F28180DFE805F040
:10180C00023F023F3A4664494FF4827003F024FFD2
:10181C00247862486249634A634B042C14D0082C28
:10182C0025D0022C08D08C240470AC2008700C211C
:10183C0011702C221A7014E08D240470AD200870E5
:10184C000D2111702D22F5E78E240470AE20087046
:10185C000E2111704FF482702E2254491A7003F02D
:10186C00FBFE032D4BD8DFE805F03A5868788F243F
:10187C000470AF2008700F2111702F22DAE74C4949
:10188C004FF4827003F0E8FE247844484449454AFA
:10189C00454B042C13D0082C19D0022C07D0CC2487
:1018AC000470EC2008704C2111706C22C2E7CD241E
:1018BC000470ED2008704D2111706D22BAE7CE2412
:1018CC000470EE2008704E2111706E22B2E7CF2406
:1018DC000470EF2008704F2111706F22AAE72F4B74
:1018EC001A78344B1A702E4B1A78334B1A702D4BC6
:1018FC001A78324B1A702C4B1A78314B1A70012211
:10190C002649002E39D1D02000F0B0FE2449012206
:10191C00D020BDE8F84000F0A9BE204B1A78294B26
:10192C001A701F4B1A78284B1A701E4B1A78274BBB
:10193C001A701D4B1A78264BE0E7184B1A78254B7A
:10194C001A70174B1A78244B1A70164B1A78234BB3
:10195C001A70154B1A78224BD0E7104B1A78214B82
:10196C001A700F4B1A78204B1A700E4B1A781F4BAB
:10197C001A700D4B1A781E4BC0E7D82000F076FE7B
:10198C0001220749D820C4E7A4390020A33900203C
:10199C0058510400A539002068510400002F002084
:1019AC00012F0020FE2E0020FF2E0020725104007B
:1019BC00835104007D570320C5570320DC570320B7
:1019CC00E5570320C757032076570320C65703203B
:1019DC00C35703207C57032077570320C857032095
:1019EC00C0570320C9570320745703207557032091
:1019FC0078570320024B187002481AF037BB00BF0F
:101A0C009D3A0020D457032010B5554B1B78012B61
:101A1C0000F1FF3051D0032815D8DFE800F0021593
:101A2C00283B504B504A1B78504C5148032101FB2A
:101A3C000323013B0022115D03F8011F115CD973D4
:101A4C000132032AF7D110BD464B4A4A1B784A4C47
:101A5C004A48032101FB0323013B0022115D03F8DB
:101A6C00011F115CD9730132032AF7D1EBE73D4B0F
:101A7C00434A1B78434C4448032101FB0323013B9D
:101A8C000022115D03F8011F115CD9730132032A86
:101A9C00F7D1D8E7334B3D4A1B783D4C3D480321E9
:101AAC0001FB0323013B0022115D03F8011F115CB4
:101ABC00D9730132032AF7D1C5E70328C3D8DFE86D
:101ACC0000F00215283B274B334A1B78274C28483B
:101ADC00032101FB0323013B0022115D03F8011FCD
:101AEC00115CD9730132032AF7D1ACE71D4B2B4A99
:101AFC001B78214C2148032101FB0323013B0022CD
:101B0C00115D03F8011F115CD9730132032AF7D15F
:101B1C0099E7144B224A1B781A4C1B48032101FBF2
:101B2C000323013B0022115D03F8011F115CD973E3
:101B3C000132032AF7D186E70A4B1A4A1B78144C58
:101B4C001448032101FB0323013B0022115D03F820
:101B5C00011F115CD9730132032AF7D173E700BF5F
:101B6C00022F00209B3A0020A63900207F3900204C
:101B7C0084390020C4390020883900208D39002098
:101B8C00E23900209139002096390020003A0020DB
:101B9C009A3900209F390020223A0020403A002038
:101BAC005E3A00207C3A0020024B01200021187084
:101BBC00FFF720BF9F3A00200021024B0846197006
:101BCC00FFF718BF9F3A0020024B0021012019702B
:101BDC00FFF710BF9F3A00201FB50C4B0C481B6839
:101BEC008DF80F301A168DF80C201A148DF80D2064
:101BFC001A121123009304238DF80E2003A91A4600
:101C0C00FFF7DAF905B05DF804FB00BF042F0020E4
:101C1C0091560320014B1860704700BF042F002021
:101C2C0038B5074B07491D78074B1C782A462346C5
:101C3C004FF4827003F010FD44EA0510C0B238BDB9
:101C4C00A4390020EE520400A5390020012A04D149
:101C5C00054B1870054B18707047022A01BF024BD8
:101C6C001870024B19707047A4390020A539002058
:101C7C000023037043708370C3707047014B18804E
:101C8C00704700BF203A0020014B1880704700BFFE
:101C9C001E3A00202DE9F84F734CDFF80C822278A5
:101CAC006378724F724E734D7349DFF800A2DFF800
:101CBC00009243EA0223A8F80030A278E37843EAC2
:101CCC0002233B80237933704FF4827063792B703D
:101CDC0003F0B0FCB8F8002068494FF4827003F0B0
:101CEC00A9FC3A8866494FF4827003F0A3FC327861
:101CFC0064494FF4827003F09DFC2A7862494FF4DA
:101D0C00827003F097FC61494FF4827003F092FCEF
:101D1C0025460026D346AB79E879DFF8988103F0A5
:101D2C00010103F080022B7A8AF8001043EA0023A9
:101D3C00032743EA026343EA014389F8002054492C
:101D4C0096FBF7F24FF482703E44C8F8003003F073
:101D5C0071FC0F2E3D44DED14E49434DDFF830A1CE
:101D6C004FF4827003F066FC00266B7DA87D03F0B7
:101D7C00010103F08002EB7D8BF8001043EA002395
:101D8C0043EA026343EA014389F80020514696FB7B
:101D9C00F7F24FF482700336C8F8003003F04AFCB7
:101DAC000F2E05F10305E0D13B49DFF80CB12E4DA8
:101DBC00DFF808814FF4827003F03CFC4FF000090F
:101DCC00DA4695F8243095F82500344F03F00101DC
:101DDC0003F0800295F826308BF8001043EA0023BC
:101DEC00032643EA026343EA014388F800202849AA
:101DFC0099FBF6F24FF48270B1443B6003F01AFC8D
:101E0C00B9F10F0F3544DCD12549DFF884904FF43C
:101E1C00827003F00FFC002594F8333094F83400F2
:101E2C0003F0010103F0800294F835308AF80010B9
:101E3C0043EA002343EA026343EA014388F80020A3
:101E4C00494695FBF6F24FF4827003353B6003F084
:101E5C00F1FB0F2D04F10304DED112494FF4827013
:101E6C00BDE8F84F03F0F8BB7E5703207A570320E8
:101E7C00C1570320D2570320FB5204000A5304001D
:101E8C00145304001D5304002B530400405304004E
:101E9C004D5304005553040061530400CC570320E8
:101EAC006D53040032540400D0570320C257032052
:101EBC00E6570320E0570320DD570320E4570320A7
:101ECC002DE9F341044652494FF4827003F0C4FBF0
:101EDC00504B1A88504B110A5A70504A197012887C
:101EEC00DA70110A4E4A997011784E4A127842EA09
:101EFC0001121A714C4A601E12785A71032821D8AB
:101F0C00DFE800F002284766484D494C494EDFF89F
:101F1C00408105F10F0715F8012F2270EB7BE3735D
:101F2C0016F8013FA377F17B84F82D100134A37BC5
:101F3C000191617F00914FF48270414603F08CFB5C
:101F4C00BD42E8D1FFF7A6FE334802B0BDE8F04130
:101F5C00FFF70AB9384D364C384EDFF8F88005F1EA
:101F6C000F0715F8012F2270EB7BE37316F8013F76
:101F7C00A377F17B84F82D100134A37B0191617F51
:101F8C0000914FF48270414603F066FBBD42E8D1EC
:101F9C00D8E72B4D264C2B4EDFF8BC8005F10F07F4
:101FAC0015F8012F2270EB7BE37316F8013FA37732
:101FBC00F17B84F82D100134A37B0191617F00919A
:101FCC004FF48270414603F047FBBD42E8D1B9E7BC
:101FDC001D4D174C1D4EDFF8848005F10F0715F8C9
:101FEC00012F2270EB7BE37316F8013FA377F17B93
:101FFC0084F82D100134A37B0191617F00914FF483
:10200C008270414603F028FBBD42E8D19AE700BF3D
:10201C0002510400203A00207E5703201E3A002073
:10202C00A4390020A5390020112F0020213A0020CE
:10203C0084570320A53900203F3A0020C3390020E3
:10204C005D3A0020E13900207B3A0020FF39002066
:10205C001851040028510400385104004851040060
:10206C00F8B5B34BB34C00221A702378013B072B05
:10207C0032D8DFE813F008005B0019018D0046012F
:10208C00F60145005500AC4BAC4D19780020FFF71C
:10209C009FFB03210120FFF79BFB2A78022A2CD1FE
:1020AC00A7494FF4827003F0D7FA0020FFF764FBC6
:1020BC00A44B1B788BB90121084601F057F9A24BB0
:1020CC001978A9B90720FFF795FCA0494FF4827045
:1020DC0003F0C2FA03232B70F8BD9D4C2378002B20
:1020EC00EDD10121084601F041F901232370E6E707
:1020FC0000210220FFF77EFCECE7322102200BE0EE
:10210C0094494FF4827003F0A7FA934B1878FFF7B9
:10211C0033FB924B19680820BDE8F840FFF76ABC06
:10212C000020FFF729FB8E4B1968E7E78D494FF428
:10213C00827003F091FA8C4B1A78012A0CD18B49DE
:10214C00D02000F093FA8A494FF4827003F084FA9D
:10215C004FF4FA710420DFE7864C874922784FF45C
:10216C00827003F079FA01222146D02000F07EFA29
:10217C0082494FF4827003F06FFA81494FF48270F8
:10218C0003F06AFA01227F49D82000F06FFADFE7EA
:10219C007D494FF4827003F05FFA734B1B78012B6F
:1021AC003FD17A4C2046FFF763FD04222146D12013
:1021BC0000F078FA764BE2781B789A4204D12578B5
:1021CC00A5F1FF0255425541724C2046FFF750FDD8
:1021DC0004222146D92000F065FA6F4BE2781B7877
:1021EC009A4240F0DA812378FF2B40F0D681012D02
:1021FC0007D16A4A01231370694A13700021032026
:10220C008AE7664BCDE167494FF4827003F024FAFC
:10221C00624A00231370624A1370634B01225A7096
:10222C00ECE76248624E634FFFF722FD04225F49E0
:10223C00D12000F037FA5E48FFF71AFD04225C4902
:10224C00D92000F02FFA5C494FF4827003F0F2F9B8
:10225C000025725D39464FF48270013503F0EAF9BE
:10226C00042DF6D155494FF4827003F0F5F9544B17
:10227C00F6781D785349721B18BF01224FF48270F7
:10228C0003F0EAF9AE420AD04F494FF4827003F0E2
:10229C00E3F94FF4FA712078FFF7ACFBAEE7424B51
:1022AC0001221A709A70A9E748494FF4827003F022
:1022BC00D3F92D4B1A78012A0CD14549D02000F0C6
:1022CC00D5F944494FF4827003F0C6F94FF4FA7112
:1022DC00052021E7404C414922784FF4827003F0ED
:1022EC00BBF901222146D02000F0C0F93C494FF443
:1022FC00827003F0B1F901223A49D82000F0B6F906
:10230C00E4E739494FF4827003F0A6F9164B1D78B7
:10231C00012D6DD13548FFF7ABFC04223349D12098
:10232C0000F0C0F9204B5D704FF4FA710620F3E613
:10233C00D45703209D3A0020FD2E0020022F0020B0
:10234C008E510400905603209B3A00209D510400AE
:10235C009E3A0020AB510400102F00200C2F0020BF
:10236C00082F0020B65104009A3A0020C7570320CA
:10237C00F85104007D570320CB510400DC510400BC
:10238C00D75104007C570320E05104008839002009
:10239C00C65703209A390020755703209E39002018
:1023AC008C390020F3510400A03A00207F39002022
:1023BC009139002011520400FC51040032540400E5
:1023CC00C857032016520400345204004F52040024
:1023DC007657032064520400C5570320685204004A
:1023EC0074520400775703207D5204008D3900206D
:1023FC00744D2846FFF73CFC04222946D12000F0FE
:10240C0051F9714BEA781B789A4204D12E78A6F1D7
:10241C00FF035E425E416D4D2846FFF729FC042206
:10242C002946D92000F03EF9694BEA781B789A428C
:10243C0040F0BA80674B01221A7075E766494FF479
:10244C00827003F009F94FF4FA712078FFF7D2FA91
:10245C00624B1B78012B7FF467AF5E4B00229A70A6
:10246C0062E75F4E5F495B4D4FF4827003F0F4F806
:10247C003478012C56D0022C5FD05B494FF482701B
:10248C0003F0EAF8AB78012B02D10320FFF7BCFA7A
:10249C00564C2378042B0FD855494FF4827003F017
:1024AC00DBF83278534B012A51D1022131701A706A
:1024BC0000210120FFF79EFA2378052B0FD14E4FF8
:1024CC003E78012E0BD14D494FF4827003F0C4F8C5
:1024DC0000210223304621703B70FFF78BFA2378E2
:1024EC00052B7FF4F9AD444A1378032B7FF4F4AD3C
:1024FC00012010703F4A00231370414A237013705F
:10250C00364A13703F4A13703F4A13703F4B197889
:10251C0009B900F02BFF3E4B1C7804B33D4B012056
:10252C001968F9E54FF482703B4903F095F8287867
:10253C000128A2D1FFF768FA9FE76B78012B9CD199
:10254C004FF48270354903F087F82046F2E70122F8
:10255C00327000221A70237801332370A8E700F040
:10256C00EBFD2F4E22462F4CAB5C012B08D10132D8
:10257C00D2B231464FF48270227003F06DF804220F
:10258C000132D2B2032AEFD9264B1878FFF798FC08
:10259C00FEF764FD00210846BEE5012D7FF433AE45
:1025AC00184B01221A7029E6012E7FF447AF1E4901
:1025BC004FF4827003F050F84FF4FA712078FFF763
:1025CC0019FAB1E684390020E5570320963900202A
:1025DC00C0570320A03A0020345204009539002043
:1025EC00FD2E0020AB520400C35204009B3A002085
:1025FC00C65204009A3A0020022F0020CB5204004D
:10260C00833900208C3900209E39002090560320FD
:10261C009F3A0020042F0020B4520400BC52040046
:10262C00D45204009C3A002090520400014B1870C4
:10263C00704700BF102F0020014B18600016704728
:10264C000C2F0020014B186000167047082F00203B
:10265C0010B5044C237823B9034800F085F8012306
:10266C00237010BDA53A0020142F00207FB5012344
:10267C00ADF80630094BADF8040002911868ADF8BE
:10268C000C2001A900F0C8F80530C0B205289ABF8B
:10269C00034B185CFF2007B05DF804FB142F0020DF
:1026AC00785304007FB50223ADF80630094BADF822
:1026BC00040002911868ADF80C2001A900F0ACF8E8
:1026CC000530C0B205289ABF034B185CFF2007B039
:1026DC005DF804FB142F00207853040010B5044C53
:1026EC00237823B9034800F03FF80123237010BD71
:1026FC00A63A00202C2F00207FB50123ADF8063020
:10270C00094BADF8040002911868ADF80C2001A932
:10271C0000F082F80530C0B205289ABF034B185C54
:10272C00FF2007B05DF804FB2C2F00207E53040023
:10273C007FB50223ADF80630094BADF804000291C9
:10274C001868ADF80C2001A900F066F80530C0B28D
:10275C0005289ABF034B185CFF2007B05DF804FBFB
:10276C002C2F00207E53040030B5044685B0012187
:10277C00244805F0EFFF2368234A93423FD002F52B
:10278C008062934239D12148012105F0E3FF0123F6
:10279C000A226179207907F00FF801230A22E179E6
:1027AC00A07907F009F8237930225A43184B1344C7
:1027BC0003F1C065092103F180630122607902FAFB
:1027CC0000F028606079013902FA00F01860F5D148
:1027DC0020688DF800200323436423898DF80120A1
:1027EC005BBA9BB2836423690293E36801936946E5
:1027FC00237D8DF80C3007F067F805B030BD054827
:10280C00C2E700BF4041050000C000400092040038
:10281C000CA000400082040038B5054607F06CF9A6
:10282C00044C012801D1013C00D138BD284607F0E9
:10283C0067F8F6E7E193040010B514494FF4827081
:10284C0002F00AFF124B00241C70124B1C7002F099
:10285C0045FAA0420EDC104C02F040FA012812DDC1
:10286C00012002F0BDFAC2B221460120BDE81040A1
:10287C0017F08AB9204602F0B3FAC0B20028EAD0A9
:10288C0001248440E8E70522EEE700BF84530400EE
:10289C00A73A0020A83A002000F8FF07024B187056
:1028AC00024819F0E3BB00BFA93A002000580320EE
:1028BC00074B084A1978084B907803F8210003EB72
:1028CC008103D1785970117952799970DA70704707
:1028DC00AA3A0020AB3A0020EC570320F7B519496F
:1028EC00194D1A4F1A4E4FF4827002F0A3FE0022BB
:1028FC0018494FF4827002F09DFE00246119635D4B
:10290C004A7891F803C003EB02238A7812490A2013
:10291C0002EB0C2293FBF0F392FBF0F23B60326083
:10292C0000924FF48270C4F38502043402F082FEEC
:10293C00142CE3D109494FF4827003B0BDE8F04088
:10294C0002F08ABEA7530400EC570320F057002076
:10295C0008580020B3530400BC5304003254040044
:10296C0000210120FFF79ABF00210846FFF796BF10
:10297C00034B0449186002464FF4827002F06CBE9F
:10298C00442F0020D75304001FB50C4B0C481B6878
:10299C008DF80F301A168DF80C201A148DF80D20A6
:1029AC001A120923009304238DF80E2003A91A464A
:1029BC00FEF702FB05B05DF804FB00BF442F0020BE
:1029CC009156032010B50C4C20780AF0B7FE08285D
:1029DC000ED90A49207800230A220AF011FF207828
:1029EC000AF072FF00210420BDE81040FFF756BF2B
:1029FC0000210320F8E700BF482F0020AB3A00204D
:102A0C0037B5594B00221A70584B1B78062B00F225
:102A1C00A980DFE803F00411425273846900544921
:102A2C004FF4827002F018FE00F044F9002003B05D
:102A3C00BDE83040FEF7A0BE4E494FF4827002F064
:102A4C000BFE4D4B4D494FF41652C3E9001240F6A4
:102A5C000B321A814FF4805200245A814FF010121D
:102A6C005A629C819C73DC731C745C749C74DC7463
:102A7C001C75C3E906441C84414B022520461D707D
:102A8C0000F08EF82046FEF777FE41F2883128469A
:102A9C0003B0BDE83040FFF701BF3EF027FF394BD4
:102AAC0005211860354807F0EDFA354B3249187896
:102ABC000AF06AFFC8210320EAE73EF017FF314B0A
:102ACC001B68C01A43F69823984212D9062300219A
:102ADC000093012204232C48FEF76EFA00F0EAF86A
:102AEC004FF47A710120D3E728494FF4827002F039
:102AFC00B3FD03B0BDE83040FFF764BF244B1A7838
:102B0C00AA2A05D15B7AAB2B02D100210520BFE7A5
:102B1C0020494FF4827002F09FFD0021CBE7FFF7B4
:102B2C00C7FE1D4A1378042B06D8013313700021FD
:102B3C000220FFF7B3FE79E7114B002418781470CC
:102B4C000AF0F8FE21460D4807F09CFA00F0B2F8A6
:102B5C001248FEF7F7FAFFF7C1FEFEF787FA214697
:102B6C002046E6E703B030BD00580320A93A002008
:102B7C00495004004B500400085803200004014045
:102B8C00482F0020E8570320915603208F53040050
:102B9C00AB3A002096530400AA3A0020EC570320CD
:102BAC00F8B5364F3649374C374E05464FF48270E0
:102BBC0002F052FD3B7863BB34494FF4827002F053
:102BCC004BFDFFF745FD022231492078FFF74EFD02
:102BDC00022230492078FFF749FD01233B703378FE
:102BEC00CBB12D4F002D38D12C494FF4827002F00F
:102BFC0033FD20230222284920787B70FFF736FD15
:102C0C00274B18883EF0E2FD022226492078FFF778
:102C1C002DFD3378B3B9204E35BB23494FF4827068
:102C2C0002F01AFD202302221B4920787370FFF753
:102C3C001DFD1B4B18883EF0C9FD02221949207856
:102C4C00FFF714FD194BB5B901225A7020781749BA
:102C5C000222BDE8F840FFF709BD15494FF4827018
:102C6C0002F0FAFC0823C5E711494FF4827002F018
:102C7C00F3FC0823D7E70222E7E700BFB53A0020B0
:102C8C00ED530400492F002090560320F453040008
:102C9C00B63A00204C2F0020542F0020FE53040085
:102CAC00502F0020522F00200A5404004A2F0020DD
:102CBC000554040038B5164D164C2B786BB9FFF73C
:102CCC00C7FC022214492078FFF7D0FC02221349DA
:102CDC002078FFF7CBFC01232B70114B1B787BB9B1
:102CEC0010492078142302224B70FFF7BFFC0E4BC7
:102CFC0018883EF06BFD02220C492078FFF7B6FCD9
:102D0C0020780B490222BDE83840FFF7AFBC00BF6A
:102D1C00B53A0020492F0020B63A00204C2F002055
:102D2C0090560320542F0020502F0020522F0020AB
:102D3C004E2F0020044B1870044B05480122002133
:102D4C001A7019F093B900BFB93A0020BA3A0020B2
:102D5C0030580320054B064A187001231370054A9E
:102D6C0005481370002119F081B900BFB93A002051
:102D7C00B83A0020BA3A00203058032037B5284B17
:102D8C00284C00221A702378042B47D8DFE803F074
:102D9C00030E1C242E0024494FF4827002F05CFCBC
:102DAC00002003B0BDE83040FEF7E6BC1F4B01210C
:102DBC00187800F0DBFA022323700021184803B0C6
:102DCC00BDE8304019F052B96420FEF7D5FC03235E
:102DDC00237042F21071F1E70020FEF7CDFC134B8B
:102DEC000021187800F0C2FA0423E5E710494FF4EB
:102DFC00827002F031FC0523009301220423002190
:102E0C000C48FEF7D9F80C4B1D781DB10021197038
:102E1C002170D3E7FFF74EFF2570CEE703B030BD2E
:102E2C0030580320BA3A00200F540400B93A00205D
:102E3C001754040091560320B83A002010B5044CE6
:102E4C0023781BB9FFF704FC0123237010BD00BFCE
:102E5C00BB3A0020012202498020FFF707BC00BFCB
:102E6C00562F0020022202498120FFF71BBC00BF15
:102E7C003A580320012202498020FFF7F7BB00BF1C
:102E8C00572F0020022202498120FFF70BBC00BF04
:102E9C0038580320034B18785B7803F0FE0343EAA1
:102EAC00002070473A580320034B18785B7803F0E6
:102EBC00FC0343EA002070473858032010EB401005
:102ECC0082B007D0044B99689A680192019A521A01
:102EDC008242F9D302B070470020044030B54A4B0F
:102EEC004A4C00221A70237885B0042B67D8DFE88F
:102EFC0003F0030C66146B0001232370002142487D
:102F0C0005B0BDE8304019F0B1B8FFF797FFFFF7F7
:102F1C00A1FF032323701421F1E7FFF7A3FFFFF7B1
:102F2C00B9FF7D2242434FF4803092FBF0F2063A17
:102F3C0052B23749374D4FF4827002F07BFBFFF7EA
:102F4C00A9FF354902464FF4827002F085FBFFF76A
:102F5C0091FF3220FFF7B2FFFFF794FFFFF7A4FFBA
:102F6C0007EE900AB8EEE77ADFED2C7ADFED2C6AEB
:102F7C002C4927EE277ADFED2C7AE7EE267A4FF4F0
:102F8C008270FDEEE77ACDED037A9DF90C2002F00C
:102F9C0051FBFFF789FF254902464FF4827002F07E
:102FAC005BFB297869B1FFF775FFFEF76DFEFFF744
:102FBC007BFFFEF763FE2B7883F001032B7005B0CB
:102FCC0030BD042323709AE7FFF764FF184D0012FD
:102FDC002870FFF75FFF6870FFF766FF0012A8709C
:102FEC00FFF762FF0323E870009304231A46294677
:102FFC001048FDF7E1FF104B1B78002BDFD00F4B77
:10300C0019680023DEE700BF3C580320BE3A0020BD
:10301C0027540400BC3A00203354040052B82F4308
:10302C00000080374454040066663BC251540400CF
:10303C007E57032091560320BD3A0020582F0020C4
:10304C0007B5FFF7FBFEFFF705FF1420FFF736FF70
:10305C00FFF708FFFFF71EFF7D2242434FF480303D
:10306C0092FBF0F2063A52B223494FF4827002F00E
:10307C00E1FAFFF70FFF214902464FF4827002F08C
:10308C00EBFAFFF7F7FE3220FFF718FFFFF7FAFE17
:10309C00FFF70AFF07EE900AB8EEE77ADFED187A31
:1030AC00DFED186A184927EE277ADFED187AE7EE7C
:1030BC00267A4FF48270FDEEE77ACDED017A9DF918
:1030CC00042002F0B7FAFFF7EFFE114902464FF465
:1030DC00827002F0C1FAFFF7DDFEFEF7D5FDFFF7B7
:1030EC00E3FEFEF7CBFD0B4A137883F0010313705C
:1030FC0003B05DF804FB00BF2754040033540400F4
:10310C0052B82F43000080374454040066663BC21B
:10311C0051540400BC3A0020044B054801221A709B
:10312C00044B0021197018F0A1BF00BFBD3A00205C
:10313C003C580320BE3A0020034B00221A70034B6C
:10314C0001221A70FFF77CBFBD3A0020BC3A002068
:10315C00014B00221A707047BD3A002010B5044C88
:10316C0023781BB9FFF7BAFA0123237010BD00BFF7
:10317C00BF3A0020012202498020FFF7BDBA00BFF0
:10318C005C2F0020022202498120FFF7D1BA00BF38
:10319C0046580320012202498020FFF7ADBA00BF38
:1031AC005D2F0020022202498120FFF7C1BA00BF27
:1031BC0044580320034B18785B7803F0FE0343EA72
:1031CC000020704746580320034B18785B7803F0B7
:1031DC00FC0343EA002070474458032030B5424BAF
:1031EC00424C00221A70237885B0042B79D8DFE882
:1031FC0003F003077814590001232370002106E023
:10320C00FFF7ACFFFFF7B6FF0323237014213648FA
:10321C0005B0BDE8304018F029BFFFF7B3FFFFF74A
:10322C00C9FF7D2242434FF4803092FBF0F2063A04
:10323C0052B22F494FF4827002F0FCF9FFF7BAFF3B
:10324C002C4902464FF4827002F006FAFFF7A2FFF7
:10325C003220FFF733FEFFF7A5FFFFF7B5FF07EEB0
:10326C00900AB8EEE77ADFED247ADFED246A244980
:10327C0027EE277ADFED237AE7EE267A4FF4827079
:10328C00FDEEE77ACDED037A9DF90C2002F0D2F930
:10329C00FFF79AFF174902464FF4827002F0DCF9EF
:1032AC000423AAE7FFF786FF174D00122870FFF7DB
:1032BC0081FF6870FFF788FF0012A870FFF784FF8A
:1032CC00302300930423E8701A4629460F48FDF773
:1032DC0073FE0F4B1B7823B10E4B19680023237020
:1032EC0095E705B030BD00BF48580320C03A002018
:1032FC00645404003654040052B82F430000803745
:10330C007454040066663BC27E570320915603201A
:10331C00C13A0020602F0020044B054801221A708E
:10332C00044B0021197018F0A1BE00BFC13A002057
:10333C0048580320C03A0020014B1860704700BF6A
:10334C00602F0020034B044800211970034B1970A7
:10335C0018F08CBEC13A002048580320C03A002017
:10336C00014B00221A707047C13A002070B5204EF4
:10337C00337805460C4643B9FFF76AF902221D491A
:10338C004220FFF773F901233370012D1BD00CD3AE
:10339C00022D21D04CF250303EF018FA0222164980
:1033AC004220BDE87040FFF761B94CB1012CF1D15E
:1033BC00124920234B7002224220FFF757F9E9E70C
:1033CC000E491023F6E724B1012CE3D10B49082355
:1033DC00F0E70A490423EDE72CB1012CDAD10749B7
:1033EC004D702A46E8E7054901234B70F9E700BF09
:1033FC00C23A0020C33A0020642F0020662F002020
:10340C0008B50E4B0E481B78C3600E4B1B78013B66
:10341C0003610D4B1B78643343610C4B1B78836049
:10342C000B4B1B7843600B4B1B7803603EF0B6FFD5
:10343C00094BC3E900010020002108BD702F0020BA
:10344C0058580320732F0020752F0020712F002057
:10345C00722F0020742F00205058032007B50D49FF
:10346C000D4B0E4A09781B78127800914FF482703C
:10347C000B4902F0F1F80B490B4B0C4A09781B78FD
:10348C00127800914FF48270094902F0E5F803B00C
:10349C005DF804FB752F0020732F0020702F002087
:1034AC0086540400742F0020722F0020712F0020EE
:1034BC009C54040037B51A4B1A4D1A781A4C022A30
:1034CC0001BF2A68226001221A7003F057FB03F037
:1034DC007EFB23682860C01A144B1860144BD3E988
:1034EC000023141843F1000502A860E902453EF0E0
:1034FC00FBFC104BC2681A7003690F4A013313703E
:10350C0043690E4A643B13700D4B82681A700D4B65
:10351C0042681A7002680C4B1A7003B030BD00BFC1
:10352C00CC3A0020D43A0020D03A0020C83A0020EF
:10353C0050580320702F0020732F0020752F00206F
:10354C00712F0020722F0020742F0020064A074B89
:10355C0010781B78000240EA0340054B1B78184397
:10356C00044B1860704700BF722F0020712F002091
:10357C00742F00206C2F0020064A074B10781B7804
:10358C00000240EA0340054B1B781843044B1860BB
:10359C00704700BF732F0020752F0020702F002064
:1035AC00682F002008B50F4B82791A700E4BC27928
:1035BC001A700E4B027A1A700D4B427A1A700D4B20
:1035CC00827A1A700C4BC27A1A70FFF719FF0B4BE8
:1035DC0002221A7003F0D2FA03F0F9FA084B1860C1
:1035EC0008BD00BF752F0020732F0020702F002006
:1035FC00712F0020722F0020742F0020CC3A002055
:10360C00D43A002008B5FFF7FBFEBDE80840FFF7F1
:10361C0051BF00001FB5FFF74DFF124B1B788DF803
:10362C000830114B1B788DF80930104B1B788DF836
:10363C000A300F4B1B788DF80B300E4B1B788DF826
:10364C000C300D4B1B788DF80D30FFF707FF28233E
:10365C0000930622042302A90848FDF7ADFC05B02F
:10366C005DF804FB752F0020732F0020702F0020B5
:10367C00712F0020722F0020742F002091560320F0
:10368C0010B5054C23781BB9FFF7BAFE0123237044
:10369C00BDE81040FFF7BEBFCC3A002070B5134C0C
:1036AC008A00A31822449B781D09062D98BF104E42
:1036BC0003F00F0394BF755DFF25062B05719ABFB0
:1036CC000C4DEB5CFF234371FF3B18BF012383714F
:1036DC00D37014F82130084C437053788370014632
:1036EC00204604F04DFF0123A36070BDD83A0020A2
:1036FC00B9540400B2540400002000407FB52249A4
:10370C0022480022FF23CDE901228DF809300378ED
:10371C004C6C8D6B03922C40E407DBB228D5022B4A
:10372C0026D88C6C1A4901EB8301A5B2CE781949C5
:10373C0006B326041ED521F813201749012202FADC
:10374C0003F30A781343154A0B701378CBB100239B
:10375C001478DC40E407D9B20FD50170107801243D
:10376C0004FA03F34340DBB201A81370FFF796FF92
:10377C0004B070BD21F81350DFE70133032BE7D100
:10378C00F6E703230370F3E700200040E43A00203F
:10379C00D83A0020E83A0020E63A0020E53A00202A
:1037AC000D490E4B10B5002A14BF0A461A460446A2
:1037BC000B494FF4817001F03DFF4FF4817001F023
:1037CC0021FF10B1204601F05DFF06494FF48170D6
:1037DC00BDE8104001F040BFC0540400C9540400BF
:1037EC00D654040032540400012070470120704765
:1037FC00012070470B2804D009280CBF012002209F
:10380C0070470020704700002DE9F04385B04FF45D
:10381C008073ADF80C3002F001FF01211548DFF880
:10382C005C80DFF85C9004F095FF0121124804F0F5
:10383C0091FF0024012703AB0222E35C18F83360EC
:10384C0008EBC30330465D680123294605F0B4FF3D
:10385C004946E8B202F0F0FECDE9007701232A4692
:10386C002946304605F05CFF14B105B0BDE8F08385
:10387C000124E0E74041050000350A00DC54040057
:10388C001739000008B5FFF7B5FF022816BF024B29
:10389C000020185C08BD00BFEE3A002008B5FFF709
:1038AC00A9FF02281CBF014B195408BDEE3A002099
:1038BC0008B5FFF79FFF022805D0034A135CB3FA43
:1038CC0083F35B09135408BDEE3A002008B5FFF7EB
:1038DC0091FF022811D00A4A12F8301030234B43C2
:1038EC0002EBC00207491944536803EBC1039B0068
:1038FC001868B0FA80F0400908BD0020FCE700BF52
:10390C00DC5404001CA01042704770B50446FFF74D
:10391C00DDFF0026054601E000261D462046FFF788
:10392C00D5FFA8420346F7D10136052EF2D1204629
:10393C00FFF7A8FFA8420BD029462046FFF7AEFFA1
:10394C002046FFF79FFF01462046FFF7DDFF70BDC5
:10395C002046FFF7ADFF2046FFF794FF01462046B7
:10396C00FFF7D2FF2046FFF7A3FFE9E708B52021B8
:10397C00002001F071FB38B1044A05494FF4817005
:10398C00BDE8084001F056BE08BD00BFEC54040071
:10399C00F954040010B596B056220021074C684625
:1039AC003EF01AFC684619F04DFB20461022694681
:1039BC0007F010F8204616B010BD00BFF13A0020F9
:1039CC00024B1870024818F051BB00BF2E3B002070
:1039DC007C58032008B5114B1B78053B012B04D9EF
:1039EC0040F285210E4806F08DFD4FF481700D4993
:1039FC0001F020FE4FF4817001F004FE10B10A4872
:103A0C0001F040FE09494FF4817001F025FE0021C0
:103A1C000420BDE80840FFF7D3BF00BF2E3B0020B9
:103A2C00845504009F5504001E3B002032540400B2
:103A3C00F0B5284B1F8893B022237F2205460C46F5
:103A4C0009A8394607F0CAF8BDF844204FF6FF73B1
:103A5C009A4234D1204B6A4603F1200C18685968FD
:103A6C00164603C6083363453246F7D11B783370CC
:103A7C00002323702378072B14D90022EA5417490A
:103A8C004FF4817001F0E8FD2278ADF8442029460E
:103A9C0009A806F09FFF222209A9384607F0C2F8B0
:103AAC0013B0F0BD07F058FB12AA00F01F00104431
:103ABC00237810F8482CEA5423780133D9E7227084
:103ACC0009A9D2B2284606F085FF23780022EA54D1
:103ADC00E6E700BFA27B040083560400695604008D
:103AEC0030B597B008AD3822002128463EF074FB63
:103AFC0019F080F9024600685168284C04AB03C3E6
:103B0C00FDF71AFE03228DF81C202278002310F1F9
:103B1C00FF3018BF01208DF819308DF81A308DF850
:103B2C001B308DF81D30052A4FF001038DF818005D
:103B3C008DF81E3004D040F24521194806F0E2FC05
:103B4C004FF48170174901F075FD4FF4817001F04D
:103B5C0059FD10B1144801F095FD14494FF48170D2
:103B6C0001F07AFD124B01930F230093114A029539
:103B7C0004AB02210C482FF029FA024628B9014661
:103B8C000620FFF71DFF17B030BD0B494FF48170B5
:103B9C0001F062FD094B20781968F2E72E3B0020FA
:103BAC0084550400DC5604001E3B002032540400F3
:103BBC00E53B000073550400F4560400782F0020F8
:103BCC0008B504494FF4817001F046FDBDE808408A
:103BDC0019F0CABB1057040010B5124B1B78062BFA
:103BEC001FD100F0FD0001280F4C0BD100232370D6
:103BFC002378022B11D80D4B05201968BDE8104015
:103C0C00FFF7DEBE22780A490132D2B203234FF409
:103C1C008170227001F020FDEAE7BDE81040FFF74B
:103C2C00D9BE10BD2E3B0020F03A0020782F00208A
:103C3C00B3560400234B10B500241C70052839D84A
:103C4C00DFE800F003153E213318022906D11E4986
:103C5C004FF48170BDE8104001F0FEBC1B4B1B788B
:103C6C0073B300210820BDE81040FFF7A9BE002166
:103C7C000120F8E7032923D115494FF48170BDE8E1
:103C8C00104001F0E9BC134B1A78012A10D0124CE9
:103C9C00124B022A18BF1C46FFF77CFE2246034635
:103CAC000F494FF4817001F0D7FC00210420DAE7B2
:103CBC000C4CF1E7F8210C48BDE8104006F022BC92
:103CCC0010BD00BF7C580320DD550400762F00206A
:103CDC00F75504002E3B0020D6550400B8550400BF
:103CEC000F560400C15504008455040010B50C4B4C
:103CFC001B78012B044604D04FF48671094806F05A
:103D0C0001FC5CB1224608494FF4817001F0A4FC1F
:103D1C0000210220BDE81040FFF752BE10BD00BFCD
:103D2C002E3B0020845504004D56040008B519F0B4
:103D3C0065F8014620B90220BDE80840FFF740BEF7
:103D4C0008BD000000B58BB00DF1030101A8FFF711
:103D5C006FFE01AA03494FF4817001F07DFC0BB09A
:103D6C005DF804FBA456040008B5024658B1064998
:103D7C004FF4817001F070FC044B00211878BDE801
:103D8C000840FFF71DBE08BD1F5604002E3B002047
:103D9C00034B1B78052B01D1FFF7A2BE704700BF68
:103DAC002E3B0020034B1B78053B012B01D8FFF762
:103DBC0011BE70472E3B002020B903494FF481708F
:103DCC0001F04ABC704700BF395604000020704710
:103DDC001FB519F00FF802460068516802AB03C317
:103DEC000822022300930DEB02010348FDF7E4F8CF
:103DFC0005B05DF804FB00BF1E3B002010B51D4B49
:103E0C001B78042B044604D040F2C7111A4806F064
:103E1C0079FB10222146194806F0DCFD184B194895
:103E2C0000221A702146102206F0D4FD4FF4817046
:103E3C00154901F0FFFB4FF4817001F0E3FB10B169
:103E4C00204601F01FFC11494FF4817001F004FC75
:103E5C00FFF7BEFF0E4B1B78022B04D1FDF71AF9AE
:103E6C0008B9FDF707F900210520BDE81040FFF760
:103E7C00A7BD00BF2E3B0020845504001E3B002034
:103E8C00F03A0020915603205C5504003254040093
:103E9C00762F00201FB50E4B079C1B78042B14D1DA
:103EAC0004F11000FFF7AAFF44214B09022B02D0AA
:103EBC002378FF2B07D00023CDE9013300931A465A
:103ECC0020462FF0C7FA04B010BDA321EDE700BFC8
:103EDC002E3B00201FB50D4B1B78042B0CD1002161
:103EEC00102268463EF078F96946002001F088F807
:103EFC0028B16846FFF782FF05B05DF804FB044962
:103F0C004FF4817001F0A8FBF6E700BF2E3B0020B8
:103F1C004C5504001FB50C4B0C481B688DF80F302A
:103F2C001A168DF80C201A148DF80D201A12222353
:103F3C00009304238DF80E2003A91A46FDF73CF8D4
:103F4C0005B05DF804FB00BF782F00201E3B00205D
:103F5C00014B1860FFF7DEBF782F0020024B0022C8
:103F6C001A7019F0F1BA00BF023B002000B59BB0EB
:103F7C005622002104A83EF02FF904A819F062F88B
:103F8C001AA99DF8333001F85C3D232300930122DC
:103F9C0004230348FDF710F81BB05DF804FB00BFC9
:103FAC001E3B002000210920FFF70ABD08B5044B79
:103FBC001870FFF7F7FEBDE80840FFF701BE00BF21
:103FCC00762F002010B5074C01461022204606F033
:103FDC0001FD224604494FF48270BDE8104001F007
:103FEC003BBB00BF043B00201F550400F7B5014646
:103FFC000822684606F0EEFC1249134D134E144F7E
:10400C004FF4827001F016FB00241DF80420625559
:10401C0031464FF4827001F00DFB04F0FD03012BCF
:10402C0001D0052C04D139464FF4827001F002FB0B
:10403C000134082CE9D107494FF4827001F00CFBD4
:10404C0003B0F0BD42550400163B00208050040024
:10405C00C96F040032540400034B04491880024613
:10406C004FF4827001F0F8BA143B00203155040073
:10407C00034B0449187002464FF4827001F0ECBAFD
:10408C00033B0020FE54040070B5014610220D487D
:10409C000C4E0D4D06F09EFC0C494FF4827001F055
:1040AC00C9FA0024325D29464FF48270013401F0C4
:1040BC00C1FA102CF6D106494FF48270BDE870405D
:1040CC0001F0CABA7C2F0020475704000F5504009A
:1040DC0032540400FFF77ABE00F06CB800F06BB8F5
:1040EC0000F06BB800F06BB808B500F0F1FD01F012
:1040FC0003FF00F065F808F09FF908F0BFFCBDE87D
:10410C00084011F075BC08B5FFF730FC07F026FA33
:10411C0007F010FB18F0EEFD00F053F8BDE8084076
:10412C0008F0B2BF08B500F049F80AF0ABFE0CF08D
:10413C008BFE0FF039FABDE808400DF053BB70B59B
:10414C0004460D461646FFF775FD324629462046B5
:10415C0008F094F93246294620460CF0B1FB324661
:10416C00294620460CF03AFF3246294620460EF0EE
:10417C007DF8324629462046BDE870400FF01ABA49
:10418C0000F068B82DE9F341089C009405460E46F2
:10419C001746984600F060F843463A4631462846A2
:1041AC00089402B0BDE8F0410FF03ABA00F05BB8E9
:1041BC0070477047704701207047704770477047D1
:1041CC007047704770470020704770477047002059
:1041DC0070477047704708B9FFF7C8BE7047704703
:1041EC0070477047704708B9FFF7DCBE70477047DF
:1041FC007047704700207047704770477047704792
:10420C001FB504A9212301F8040D012200930348D2
:10421C000423FCF7D1FE05B05DF804FB9156032096
:10422C0070477047704700207047704700207047F8
:10423C0070477047704770477047704770477047BA
:10424C0013F05CB810B4BDF8084002945DF8044B50
:10425C00FCF740BC012070477047862070478620D1
:10426C00704770477047704781210DF0D9B9812193
:10427C000DF0D6B981210DF0D3B981210DF0D0B953
:10428C0081210DF0CDB981210DF0CAB91FB5064BB6
:10429C000193064B0292009300220B4604490DF049
:1042AC005DF905B05DF804FB38660400286604006F
:1042BC00E26704001FB5064B0193002302920093A2
:1042CC0001220B4603490DF049F905B05DF804FBDA
:1042DC0018660400E26704001FB5064B0193064BF9
:1042EC000292009302220B4604490DF037F905B0F7
:1042FC005DF804FB08660400F8650400E26704003E
:10430C001FB5064B0193064B0292009340220B46BD
:10431C0004490DF023F905B05DF804FB6066040058
:10432C0048660400E26704001FB5064B02920022A7
:10433C00019300920B4604490DF010F905B05DF89D
:10434C0004FB00BF88660400EE6704001FB5064B33
:10435C00019300230292009301220B4603490DF0B6
:10436C00FDF805B05DF804FBC0660400EE670400C0
:10437C001FB5064B019300230292009302220B46B9
:10438C0003490DF0EBF805B05DF804FB1067040071
:10439C00EE6704001FB5064B0193064B0292009387
:1043AC0040220B4604490DF0D9F805B05DF804FB2A
:1043BC00B066040098660400EE6704001FB5064B57
:1043CC00019300230292009341220B4603490DF006
:1043DC00C5F805B05DF804FBD0660400EE67040078
:1043EC001FB5064B0193064B0292009342220B46DB
:1043FC0004490DF0B3F805B05DF804FB0067040048
:10440C00E0660400EE67040007B5054B0093054A0F
:10441C00054B064800210CF01BFF03B05DF804FBB4
:10442C008C9504002866040099420000E2670400A1
:10443C0007B5054B00930022044B054801210CF0F5
:10444C0007FF03B05DF804FB32540400C1420000C6
:10445C00E267040007B5054B0093054A054B064877
:10446C0002210CF0F5FE03B05DF804FBE1890400B9
:10447C00F8650400E5420000E267040007B5054B4F
:10448C000093054A054B064840210CF0E1FE03B0B1
:10449C005DF804FB4C610400486604000D43000009
:1044AC00E267040007B5054B00930022044B054856
:1044BC0011460CF0CDFE03B05DF804FB3254040041
:1044CC0035430000EE67040007B5054B009300224E
:1044DC00044B054801210CF0BBFE03B05DF804FB56
:1044EC003254040059430000EE67040007B5054B35
:1044FC0000930022044B054802210CF0A9FE03B0E6
:10450C005DF804FB325404007D430000EE670400A8
:10451C0007B5054B0093054A054B064840210CF0A6
:10452C0097FE03B05DF804FB4C6104009866040030
:10453C00A1430000EE67040007B5054B0093002271
:10454C00044B054841210CF083FE03B05DF804FBDD
:10455C0032540400C9430000EE67040007B5054B54
:10456C000093054A054B064842210CF071FE03B03E
:10457C005DF804FBB5600400E0660400ED43000048
:10458C00EE6704002DE9F04FA5B080468A46002066
:10459C0006A900F035FD50B94FF482704B4B4C4AD4
:1045AC004C4901F059F8022025B0BDE8F08F0021EC
:1045BC00012000F085FC16AF382200218146002432
:1045CC0038463DF009FEADF8164000F087FB022896
:1045DC006ED90DF11601022000F0A2FC064600F087
:1045EC007DFB032806D92146032000F069FC0378E3
:1045FC008DF88C30384C22684FF6FF739A420AAD16
:10460C0058D036494FF4827001F026F822680C21FC
:10461C0028462EF059FF0124DFF8D8B0DBF8002033
:10462C004FF6FF739A420CD02D494FF4827001F073
:10463C0013F805EB0410DBF8002011212EF044FFD9
:10464C000134DFF8B4B0DBF800204FF6FF739A4268
:10465C000CD024494FF4827000F0FEFF05EB0410DF
:10466C00DBF8002017212EF02FFF01341C958DF85C
:10467C007440BAF1000F0ED041F2346106A80DF06F
:10468C00B7F8C8B1184B219341F234632290ADF8BE
:10469C006A30ADF86C30154B0193BDF816300093B1
:1046AC00029733464A46414606A82EF08FFC7BE71C
:1046BC0026469FE70024AFE74FF482700C4B044A68
:1046CC00044900F0C9FF01206EE700BF0068040038
:1046DC000B6804000F680400AC2F0020166804005F
:1046EC00316804004B6804000DF702000947000014
:1046FC0069680400A42F0020A82F00202DE9F043A6
:10470C009BB004460E464FF482705F49BDF888504A
:10471C0090461F4600F08EFF20462EF0B5F95B49FF
:10472C0002464FF4827000F085FF002C56D03046C4
:10473C002EF082F9554902464FF4827000F07AFF50
:10474C000022114640462EF046FA431C064626D05F
:10475C006422002101A83DF03FFDB0B2632845D989
:10476C000130002180B216F0C7FE002842D016F0AE
:10477C0021FB4FF000090446B2B2214640462EF010
:10478C002AFA224642494FF4827000F053FFB9F1E5
:10479C00000F04D03F494FF4827000F04BFFEDB195
:1047AC0001AA0C2140462EF003FA40B3019C20468E
:1047BC002EF056F9384902464FF4827000F03AFF59
:1047CC000CB1282C1ED14FF4827000F01BFF28B1C5
:1047DC002A4639464FF4827000F0B0FF2F494FF44F
:1047EC00827000F039FF1BB0BDE8F0834FF0000978
:1047FC0001ACC1E74FF0010901AC6326BCE74FF0F7
:10480C00FF34D4E73C2C03D04FF628639C4233D1C1
:10481C0000214FF4806016F06FFE28B920494FF448
:10482C00827000F019FFD9E716F0C4FA2946044645
:10483C0002464FF4806338460AF02EF9194F204493
:10484C0085B200262B1B9BB2802B06D8224615491D
:10485C004FF4827000F0EEFEC0E794F8808084F88C
:10486C008060224639464FF4827000F0E3FE06F079
:10487C006FFA04F8808FE5E700232A4639464FF497
:10488C00827000F067FFA9E791680400258404009A
:10489C009B6804003A6A0400A168040032540400C6
:1048AC00AA680400268404001FB50020694600F0A5
:1048BC00A7FB48B9094B0A4A0A494FF4827000F029
:1048CC00CBFE05B05DF804FB694641F2336027F07E
:1048DC0020FD054A05490346EFE700BF00680400C8
:1048EC000B6804000F6804006D6104008968040003
:1048FC0010B500210120FFF745FE044A0449034688
:10490C00BDE810404FF4827000F0A6BE5762040060
:10491C008968040010B500210220FFF733FE044A19
:10492C0004490346BDE810404FF4827000F094BE79
:10493C005B6204008968040010B500210320FFF7B6
:10494C0021FE044A04490346BDE810404FF482702E
:10495C0000F082BE656204008968040010B5002175
:10496C000420FFF70FFE044A04490346BDE810403B
:10497C004FF4827000F070BE50620400896804002D
:10498C00012110B50846FFF7FDFD044A0449034612
:10499C00BDE810404FF4827000F05EBE5762040018
:1049AC008968040010B501210220FFF7EBFD044AD1
:1049BC0004490346BDE810404FF4827000F04CBE31
:1049CC005B6204008968040010B501210320FFF725
:1049DC00D9FD044A04490346BDE810404FF48270E7
:1049EC0000F03ABE656204008968040010B501212C
:1049FC000420FFF7C7FD044A04490346BDE81040F4
:104A0C004FF4827000F028BE5062040089680400E4
:104A1C0008B5002000F0E4F9014B186008BD00BF98
:104A2C00A42F002008B5002000F0DAF9014B186023
:104A3C0008BD00BFAC2F002070B5012000F0D0F9EC
:104A4C000128124C03D94FF6FF73236070BD002070
:104A5C0000F0C6F97F28F6D8022000F0C1F9B0F1B9
:104A6C00805FF0D2012000F0BBF90546002000F079
:104A7C00B7F90646022000F0B3F90246281CF1B241
:104A8C0018BF01202EF00AFD2060DFE7A82F0020C0
:104A9C002DE9F04F074685B008460D4690469946DD
:104AAC003DF0B7FFBDF838A00F9E204C83466368DD
:104ABC0053B9CDE9013300931A46842130462EF0C8
:104ACC00C9FC05B0BDE8F08F22892078991811F83F
:104ADC00011C2F2904BF02F1FF3292B208B1B84277
:104AEC0021D12F291DD1934506D3A95CB9B12F290A
:104AFC0014BF0021012100E00021A1B12946184674
:104B0C003DF08FFF78B9CDE90EA6E4684B464246DE
:104B1C0029463846A44605B0BDE8F04F6047012150
:104B2C00EBE79345E4E71034C1E700BF9C62040057
:104B3C00002070470020704770477047F8B5054655
:104B4C00846802681B49202008F0F3F96B68DBB11C
:104B5C00194D1A4E1A4F013C14F8013FC3B1752B75
:104B6C001CD0762B1CD0772B1CD0732B1CD0622B1B
:104B7C001CD06E2B1CD01349134A2A2B18BF11467C
:104B8C00202008F0D6F9E7E71049202008F0D1F9E9
:104B9C000F492020BDE8F84008F0CBB92946EFE7D3
:104BAC003146EDE73946EBE70A49E9E70A49E7E719
:104BBC000A49E5E7CA7704000E6A0400026A040099
:104BCC00196A0400416A04003E6A04003A6A04004F
:104BDC00FF690400256A04002F6A0400396A040086
:104BEC0013B50446FFF7AAFF01A9204600F020FAEE
:104BFC0018B1084C019B1B680BB902B010BD2146C3
:104C0C00202008F096F90198FFF798FF019B0C33D0
:104C1C000193EFE7839B040008B50449202008F0BA
:104C2C0088F92020BDE8084008F017BAF0680400A5
:104C3C0038B5FFF7F1FF064D002460190C346319E9
:104C4C0053F80C3C03B938BDFFF778FFF5E700BF0C
:104C5C00745A0400094B10B553F820200C46202040
:104C6C00074908F066F944B10649202008F061F9BB
:104C7C002046BDE81040FFF7B3BF10BDD06804005C
:104C8C00BA680400C668040000230370A0F86630FC
:104C9C0080F88630C0F890304FF07F42A0F88C300E
:104CAC000A23C0F8882080F88E307047074B00220A
:104CBC004FF07F411A70A3F8662083F88620C3F862
:104CCC00881083F88C20C3F89020704784580320F8
:104CDC000148FFF7D9BF00BF84580320034B93F85A
:104CEC00860093F88C30C01AC0B2704784580320E9
:104CFC00034B03EB40000133B0F8660018447047D7
:104D0C0084580320044B03EB400292F8680092F89D
:104D1C006630C01AC0B2704784580320044B03EBB2
:104D2C004002B2F86800B2F86630C01A80B2704720
:104D3C0084580320054A92F88C30184440B202EB98
:104D4C0040000132B0F86630D05C704784580320C4
:104D5C002DE9F047204C054694F88C002844C0B24D
:104D6C0043B204EB43030E46B3F86680FFF7CAFF69
:104D7C008146FFF7B3FFA84294F88E7003D8D52173
:104D8C00164805F0BFFB4FF0000A55465FFA8AF350
:104D9C0099451CD90AEB08022244507816B10BB97C
:104DAC002D280DD000F0DF02582A03D115B9013B94
:104DBC00012B0FD917F036FE874204D905FB0705E6
:104DCC000AF1010AE2E7052384F88A300025284617
:104DDC00BDE8F0871027F3E784580320B36A04007A
:104DEC0010B5164991F88E30FF2B044621D1FFF7F0
:104DFC0089FF64B201EB44040246B4F866004B1C14
:104E0C00012A00EB030101D1C05C10BD022A03D1C1
:104E1C00084617F00DFDF8E7042A04D10020BDE880
:104E2C00104017F033BD0648F92105F06BFB00204C
:104E3C00EBE70021BDE81040FFF78ABF8458032040
:104E4C00B36A040038B51C4991F88E30FF2B044628
:104E5C0023D1FFF757FF64B201EB440402464B1C0D
:104E6C00B4F86600012A00EB0301C45601D12046B8
:104E7C0005E0022A04D1084617F0DAFC00B238BD6E
:104E8C00042A04D10020BDE8384017F0FFBC4FF4D1
:104E9C008A710A4805F036FBE9E7FFF74BFFA0F1F2
:104EAC002D035942054659412046FFF751FF2D2D40
:104EBC0008BF4042E3E700BF84580320B36A0400F4
:104ECC00F8B5164B93F88E20FF2A04461D4603F1C5
:104EDC0001060CD121B1C0B2FFF714FF01380870E4
:104EEC0005EB4404B4F8660001303044F8BD93F887
:104EFC008C002044C0B242B203EB4203E543B3F84A
:104F0C006670ED0FF41939B1FFF7FCFEF35D401B31
:104F1C00222B08BF013808706019E7E7845803207A
:104F2C00F8B5164B93F88E20FF2A04461D4603F164
:104F3C0001060CD121B1C0B2FFF7F0FE0238088097
:104F4C0005EB4404B4F8660002303044F8BD93F825
:104F5C008C002044C0B242B203EB4203E543B3F8E9
:104F6C006670ED0FF41939B1FFF7D8FEF35D401BF5
:104F7C00222B08BF013808806019E7E7845803200A
:104F8C002DE9F3410D460DF10701904607461C46ED
:104F9C00FFF796FF0646F8B2FFF7CCFEA0F122030E
:104FAC005F429DF807105F413944C9B2414528BFA3
:104FBC0041468DF807101CB1CCB2A8EB0404E4B246
:104FCC0022462846002105F08FFD28199DF8072060
:104FDC00314605F0FFFC9DF80700C01BC0B202B0C3
:104FEC00BDE8F08113B501230C4608226946FFF792
:104FFC00C7FF08226946204617F069FC02B010BDB5
:10500C0010B540B20C460021FFF75AFF2146BDE80F
:10501C0010401DF0E4B938B540B20C4615460021DD
:10502C00FFF74EFF2A462146BDE838401DF0EAB98D
:10503C0008B5D0E9012312B90B60012008BD1B781B
:10504C006E2B04D14FF4D871024805F05BFA0020A6
:10505C00F4E700BFB36A04002DE9F04FA24C97B0FF
:10506C00814688460026B9F1000F0DD10DF11301D0
:10507C005FFA88F007F0EAFF90B1262800F0B281C1
:10508C00012384F88A3051E0B8F1000F00F0AA81B6
:10509C0019F8013B8DF8133008F1FF381FFA88F826
:1050AC0094F88D309DF8135084F88D500D2B01D150
:1050BC000A2DD8D00D2D0CD0A5F10A035F425F410B
:1050CC0023783E46042BCED8DFE803F0051A2442A1
:1050DC0032000127F4E7002F5BD1202D00F0658111
:1050EC00222D08D102232370B4F88820642A40F0C2
:1050FC005E810623C5E77B2D0CBF03230123F2E75A
:10510C000FB9202DF0D194F886300F2B40F03E8152
:10511C000323B6E7222D03D100238DF81330E3E7E8
:10512C00002FE1D0052384F88A3001260423237054
:10513C00002E98D094F88A0018B1D4F89010FFF78C
:10514C0089FDFFF7B3FD9DF8133084F88D308AE7A5
:10515C007D2D94F88BA004D1BAF1FF0FD3D0052389
:10516C008FE7284617F05EFC0F280FD8BAF1FF0F17
:10517C0009D094F88B3000EB0310FF238DF813004B
:10518C0084F88B30B0E784F88B006CE7202DE6D1E7
:10519C0069E7564B059394F88630002BC5D0002751
:1051AC0078B2059DFFF7A4FD82463846FFF7AAFDAD
:1051BC000022029016469346296861B9E2B1059126
:1051CC00022384F88A3094F88A30002BADD1059BE9
:1051DC005B689847A9E70B7843B34B1E0193D44601
:1051EC00019911F8013F01910299ACEB0A00884238
:1051FC003ED1002B3DD1AB46CDF814B0BBF1000F26
:10520C00DED094F88C30C4F890B00137013305A986
:10521C005846FFB284F88C30FFF70AFF002844D0C0
:10522C0094F88630BB42BBD80323CAE70F2EAB6879
:10523C0008D94FF480712E480392019305F062F95E
:10524C00039A019B16A901EB86010C35013641F836
:10525C00405CF6B21D462B68002BADD1002EABD0B6
:10526C00013EF6B216AB03EB860353F8405CA3E7A2
:10527C002BB9BBF1000F16D001220C35EBE71CF853
:10528C00010BA0F1410EBEF1190F98BF2030A3F114
:10529C00410E98BFC0B2BEF1190F9CBF2033DBB2D8
:1052AC0083429DD0E9E7AB46E7E7059B9B681B78FB
:1052BC003F2B88D0064605464FF0070A4FF0040BEB
:1052CC0040E0104602930192FFF734FD029B019AD5
:1052DC00732B0FD8712B11D2002B55D0622B4BD0C6
:1052EC0084F88AA020E000BF84580320745A04007C
:1052FC00366B0400A3F175010229F1D8752B34D05B
:10530C00762B34D0732B35D0722B47F6FF7318BF26
:10531C004FF0FF33012110460193FFF719FD019B5C
:10532C00984201D984F88AB0059B9B682B440136BE
:10533C005B782A2B94F88A301CBF0135EDB2002B18
:10534C007FF4F3AE059B94F886C09968F2B2B81856
:10535C00C0B284454B5DB4D8002B3FF434AF0D4440
:10536C006B782A2B7FF460AF2DE7FF23D2E74FF643
:10537C00FF73CFE77F23CDE72228D5D07B28D3D06E
:10538C00052384F88A30CFE70323FAE70133DBB235
:10539C0084F8863004EB4303B4F88820A3F8662025
:1053AC0000232370002F7FF4F4AE3E465BE6217899
:1053BC00012909D19DF81330A3F1410019289CBF94
:1053CC002033DBB28DF81330A0189DF813304370E6
:1053DC0001320229A4F888207FF445AE002B3FF45B
:1053EC0092AE40E6304617B0BDE8F08F012270B5A2
:1053FC001146042003F082FB1A4B1B4D1A681B4804
:10540C0042F001021A60DA684FF0604442F0807298
:10541C00DA60174BC4F8B03F00260223C4F8006EC4
:10542C00C4F8806EC5F8F03003F074FA00F5D5209E
:10543C00104B114A00F2FC40B0FBF3F00F4B01385B
:10544C002861C4F8406E1A600D4BC4F8803E4FF4CE
:10545C008073C5F80433D4F8003E43F48073C4F869
:10546C00003E70BDF0ED00E0000004E006000E0010
:10547C0055CEACC5F8590D00FF030040001000E0FC
:10548C000D00010010B50121114803F063F9114B17
:10549C0001241C60002004F037F923460422022169
:1054AC00052004F089F9204617F076F9FFF79EFFE6
:1054BC0017F078F9084B1C7008F000FC23464022CA
:1054CC000649074808F0D0FB064B1860C00F10BD0A
:1054DC0000350A00108814422F3B0020303B00207E
:1054EC00B46B0400B02F0020024B1868003018BFBA
:1054FC0001207047F0ED00E0054A4170D1230370A4
:10550C001378C370090A8170591C117004207047FC
:10551C00703B00202DE9F74F0E78042E81460F4684
:10552C0058D93CF0EAF9751DDFF8ACA0EDB2804615
:10553C004FF6FF710024DAF800305BB1A54209D9AF
:10554C0001913CF0DAF9A0EB080080B2B0F5FA7FDB
:10555C00019907D9281B18BF012004233B7003B005
:10556C00BDE8F08F64B3012C2ED0EB1E04F1010BBF
:10557C009C425FFA8BFB12D1CCB24FF06043D3F854
:10558C00802ED00709D5D3F8002ED20505D51846A4
:10559C00026A002AFCD083F820405C46CBE7AB1EA5
:1055AC009C4202D1C1F30724E7E76B1E9C420FD04B
:1055BC004C4414F8024C204605F0B2F80146DCE7E6
:1055CC005B244FF0010BD8E734464FF0020BD4E7C5
:1055DC005D24D2E70020C0E7F0ED00E000B5084BF9
:1055EC0091B040226946186808F02CFB20B1C2B279
:1055FC006946122017F0E8F811B05DF804FB00BF03
:10560C00B02F0020094B18804FF6FF73984209D039
:10561C00030A012B08D8064AD35C034214BF0120AD
:10562C00002070470120704700207047723B00201B
:10563C00B42F00200EB417B505AC54F8041B01941C
:10564C00FFF7E0FF18B12246202007F09AFC03B0C8
:10565C00BDE8104003B070470EB417B505AC54F854
:10566C00041B0194FFF7CEFF30B12246202007F037
:10567C0088FC202007F06CFC03B0BDE8104003B0A0
:10568C007047000000B58BB0282269461CF094FED0
:10569C0028B1044B044918886A46FFF7CBFF0BB0BE
:1056AC005DF804FB723B00202684040000B58DB02D
:1056BC002C2301AA1CF08AFE28B1044B044918883B
:1056CC0001AAFFF7B7FF0DB05DF804FB723B002099
:1056DC002684040008B5FFF795FF20B12020BDE813
:1056EC00084007F0BABC08BD2DE9F84F07468846BC
:1056FC00164699469DF828A0FFF784FF28B1002490
:10570C0006F1FF3BB442A5B201D1BDE8F88FBAF166
:10571C00000F10D0ABEB040318F8032049463846B1
:10572C0005F00F05FFF786FF062D02D13846FFF76F
:10573C00D1FF0134E6E72346EEE7000007B500236E
:10574C000093034BFFF7D0FF03B05DF804FB00BFE1
:10575C00B978040037B500240094054D054C002B96
:10576C0014BF2B462346FFF7BFFF03B030BD00BF6D
:10577C00475704008050040037B5084C08490546CB
:10578C002088FFF757FF012300932088054B082240
:10579C002946FFF7A9FF03B030BD00BF723B0020C4
:1057AC00B58204008050040037B5084C0849054602
:1057BC002088FFF73FFF012300932088054B082228
:1057CC002946FFF791FF03B030BD00BF723B0020AC
:1057DC00B58204008050040038B504460D46C2B1B1
:1057EC004FF481700B49FFF725FF4FF48170FFF7E1
:1057FC0009FF18B129462046FFF758FF06494FF418
:10580C008170FFF729FF29462046BDE8384039F062
:10581C00A3BD38BDC96B0400E583040070B50D460B
:10582C0016460446A8B14FF481700A49FFF702FFEF
:10583C004FF48170FFF7E6FE18B131462846FFF7AA
:10584C0035FF224604494FF48170BDE87040FFF7E4
:10585C0003BF70BDC46B0400E56B04002DE9F04F71
:10586C004D4CA36BD4F850B0D4F840A05A074FBF9E
:10587C000027D4F84CB0D4F85480D4F83CA05ABFCC
:10588C00464FDFF84091DFF84091454A48BFB84693
:10589C0013F0080F434B18BF1A46B7EB08061CBF92
:1058AC007308642187B01FBF01FB0B33B3FBF6F306
:1058BC009BB205933C49CDF800804B46CDE9017A6B
:1058CC0008BF0596054607F049FBB3B2CDE9009336
:1058DC001FFA8BF2059B3549284607F03FFBA36B5B
:1058EC005B070AD49C3E5E4507D1626D304B9A42F1
:1058FC0003D23049284607F031FBBA4501D8C245DE
:10590C0004D24A462C49284607F028FB284607F0C3
:10591C00A4FB236E0BB9636EBBB32849DFF8AC80D4
:10592C00DFF8AC90284607F004FB00260127226E16
:10593C0007FA06F3134207D058F8262013781BB148
:10594C004946284607F0F5FA0136202EEFD1DFF84C
:10595C007C80DFF87C9000260127626E07FA06F344
:10596C00134209D008EB8603D3F8802013781BB1BF
:10597C004946284607F0DDFA0136122EEDD12846AD
:10598C0007B0BDE8F04F07F0E3BA0D49284607B061
:10599C00BDE8F04F07F0E2BA00000020D82E00203E
:1059AC00159604002CA80400EB6E0400196F04007B
:1059BC009C000020526F04007E6F04009C6F04005A
:1059CC00CB6F0400E66E0400DE6E0400E06F040092
:1059DC00C97704002DE9F843044604F005FF40F6AE
:1059EC000123984239D010D840F2025398421DD06E
:1059FC0040F20173984224D040F20153984213D1E3
:105A0C006549204607F0AAFA22E040F603239842A3
:105A1C006CD03DD340F60423984200F09C8040F6B5
:105A2C000523984200F0B580BDE8F8835B49204619
:105A3C0007F094FA5A4B5B495A6C204607F08EFAE1
:105A4C0006E0574A5849D2E92523204607F086FA42
:105A5C002046BDE8F84307F000BB514D53492046A2
:105A6C0007F07CFA95F86C309F0703D55049204617
:105A7C0007F074FA95F86F305E0603D54D49204651
:105A8C0007F06CFA95F96F30002BE1DA4A49B8E768
:105A9C00434D4A49204607F061FA95F8683098075B
:105AAC0004D06A6C3F49204607F058FA95F96830E3
:105ABC00002B04DA6A6F4249204607F04FFADFF8F0
:105ACC000C81DFF8189100260127AA6E07FA06F35D
:105ADC00134207D058F8262013781BB149462046AC
:105AEC0007F03CFA0136082EEFD1B1E72C4D3549C1
:105AFC00204607F033FA2B496A6C204607F02EFA41
:105B0C0095F86930590703D52F49204607F026FA36
:105B1C0095F96930002B04DA6A6F2949204607F0A1
:105B2C001DFA2A4FDFF8B4800826AB6EF340DA0773
:105B3C0007D557F8262013781BB14146204607F0AD
:105B4C000DFA0136102EF0D195F86830002B7FF449
:105B5C007FAF1F4955E7124D1E491C4FDFF87C8063
:105B6C00204607F0FBF96A6C0E49204607F0F6F95F
:105B7C001026AB6EF340DB0707D557F826201378B9
:105B8C001BB14146204607F0E9F901361A2EF0D137
:105B9C005EE711494BE700BF6D6C0400AA6C040072
:105BAC0000000020DA6C0400F36C04000D6D04009E
:105BBC00256D04005F6D0400926D0400CE6D040031
:105BCC00F36D0400176E04002E6E0400FC6B0400D1
:105BDC00746E0400A46E0400BD6E04000F6E04000D
:105BEC002DE9F84F164C174FDFF86080DFF860A0F6
:105BFC000646002523785FFA85FB0BB9BDE8F88FC4
:105C0C0057F8043B10492246304607F092F92278A7
:105C1C0004F1010982B9627882B10BF00301032906
